:400000000080002011000000990000009900000008B5054B1A6803F53F5302331A6000F097FA00F03BF800BFFA46004010B5054C237833B9044B13B10448AFF300800123F0
:40004000237010BD2881FF1F0000000048280000084B10B51BB108480849AFF300800848036803B910BD074B002BFBD0BDE81040184700BF00000000482800002C81FF1F68
:400080000881FF1F0000000008B562B601F0A0F800F074FDFEE700BFFEE700BF08B5104E104D16E029686B68AC68002204E051F8040B43F8040B0432A242F8D1E8680022AF
:4000C00003E0002143F8041B04328242F9D11035013E002EE6D102F079FBFFF7D5FFFEE701000000D42A000008B5124A124B1A60124A136843F40073136000230AE0032B42
:4001000003D80F4A52F8231000E00E490E4A42F8231001332F2BF2D90C4B1A780C4B1A70094A0C4B1A6000F0B5F800220A4B1A6008BD00BF0004FA050CED00E014ED00E0FC
:4001400000000000990000000080FF1FBC7600400481FF1F08ED00E00081FF1FFEE700BFF0B40022174611E050F82760F3B226F0FF0608E001EB420511F812406D78A55523
:400180000132013BDBB2002BF4D10137132FEBD9F0BC7047064B1B78DBB203F00701054A11701B09013213704422034B1A707047CF0100496E5800407658004038B545F652
:4001C000BF52244B1A80192502331D70062203F27E231A705222A3F580731A701E4B1B78DBB21E4A137040F62A521D4B1A8042F25122023B1A8000240CE01A4B1B7803F073
:40020000010343EA440404F003044FF4F07000F0EBFC013D0DB1032CEFD115B90320FFF79DFF114A4FF4807313800723137000230E490B704820023108701370053213704C
:4002400002220B4B1A700B4A137843F00103137038BD00BF804000400F010049A14600402242004025420040044000400640004001400040A243004008B50A46002102F091
:40028000D6FA08BD08B502F0C7FA08BD08B502F0C3FA08BD38B572B66122284B1A70FFF78DFF274A137843F00403137000240CE0244963001A1952000A4423445B00C858DE
:4002C0009188FFF7D9FF0134E4B2082CF0D91D4C04F1380004F18801FFF742FF1A4A137843F0020313701032137843F002031370164D2B7843F040032B70A2F58632513AE1
:40030000137843F010031370114804F1E4010A22FFF7B8FF0F4804F1F0010822FFF7B2FF0D4A137843F008031370FFF733FF0B4829460E22FFF7AAFF38BD00BF00480040B7
:40034000E84600404C28000003500140A0430040F05100402251004022430040B0430040002306E0421812F8012C13449BB2013989B20029F6D1584280B2704730B40023AB
:4003800006E01C5CE4B2CD5CAC4205D101339BB29342F6D3002000E0022030BC704700BF004700BF08B58022024B1A7000F034FD08BD00BFFA4600402DE9F04182B00C468D
:4003C000164602AF27F8022D01230B7048701546A270130ACB7002F1040808461FFA88F1FFF7BEFF04F80800731DC0F30720E054063517236355F11D204689B23A4696233D
:4004000000F00AFF02B0BDE8F08100BF70B505460E461446084B984203D010B1002000F0F9FC002004E0013CAB191B5D1844C0B2002CF8D170BD00BF0080004008B5013876
:400440000B2867D8DFE800F0060E161E262E3E36464E565E4942090201F57F3101F5707101225CE04942090201F57F3101F2C131042254E04942090201F57F3101F2C531E9
:4004800002224CE04942090201F57F3101F2C931042244E04942090201F57F3101F5747101223CE04942090201F57F3101F2D131012234E04942090201F57F3101F2D63185
:4004C00002222CE04942090201F57F3101F2D231022224E04942090201F57F3101F5757102221CE04942090201F57F3101F57671042214E04942090201F57F3101F57771ED
:4005000001220CE04942090201F57F3101F57871042204E0002000F07DFC02220021012A02D10878C0B200E00020022A03D10B78487843EA0020042A09D10B78487843EAC1
:400540000023887843EA0043C87843EA006008BD08B50A4B1B7803F0C003802B0CD10021064B19700220FFF769FF28B102200021FFF764FFFFF714FF08BD00BFFA46004076
:40058000F8B5064603203146FFF758FF0130070204203146FFF752FF074403203146FFF74DFF013000020024254608E003785A1ED2B2FD2A00D801252344DCB20130B842B2
:4005C000F4D303203146FFF739FF01300002C0080F4B9F4201D0FF0808E04FF4004705E000F190431B782344DCB20130B842F7D36442E4B201203146FFF720FF844202D144
:400600001DB90620F8BD0620F8BD0020F8BD00BFC0FF03002DE9F04FADF51F7D054600F049FB10B1002000F0F5FB00F0DFFD62B64FF0000A57460A24D0460DB9FF2300E02F
:400640002B4652A84FF496710DF2762200F006FE0DB1013CE4B20CB10028EED1002840F08282BDF87632062B26D99DF84821012A24D19DF84B819DF84A2142EA08284146BA
:4006800008F107029A421BD8B2F5967F1AD84A1D52AB9E5C0A1D9A5C42EA062606315B5C172B11D108F1040152A889B2FFF758FEB0420BD100260AE0042608E0042606E057
:4006C000032604E0032602E0042600E00826002E40F0E4819DF84C919DF84921A2F13103142B00F2B381DFE813F015007D00B101A5001101B10117012C01A5003E01A30106
:40070000B101B101B101B101B101B101B101B101B1012600002F00F0C381B8F1000F40F0C2810020FFF72CFFB0FA80F040098DF84C01012210E2002F00F0B881B8F1030F25
:4007400004D040F22313984540F0B3819DF84EB19DF84D3143EA0B2BB8F1030F06D007A80DF24F11A8F1030202F056F8A9F14003DBB23F2B08D80BF1806303F5006318016E
:4007800010230193802309E0B9F1030F00F294810BEB092318024FF4807301939B4500D30A26002E40F08B8107A9019AFFF7E6FD0646002840F08581B9F1030F00F2838150
:4007C000019B9A4540F2818109F510300BEB0020400107AA134419462022FFF7CFFD06460022B9E1002F00F07281B8F1010F40F07181B9F1030F00F27081BF4B1B681B68A6
:40080000C3F30742914502D1C3F3072305E0914501D9002301E04FF480738DF84C311B0A8DF84D31FF238DF84E3100238DF84F31042291E1342A15D1002F00F05181B8F173
:40084000030F40F05081A9F14003DBB23F2B02D84FF0100A01E04FF4907A07A80021524601F0E5FF002F00F04181B8F1020F40F2408107AB03EB0A000DF24F11A8F10302BE
:4008800001F0CAFFC244AAF1030A1FFA8AFAA9F14003DBB23F2B05D800F092FA80234FF0100803E04FF480734FF49078C24540F02D819DF84EA19DF84D2142EA0A2A9A45FD
:4008C00000D30A26002E40F02681B9F13F0F0FD80AEB092292B2884B1B681968C1F30F2311F0FF0F01D001339BB29A42C0F015814846514607AA434600F0E6F900B10A265E
:4009000000F0B2FA4FF0000A524625E1002F40F02881042600221FE1002F00F003810AEB0803B3F5967F00F2008107AB03EB0A0053A9424601F070FFC2441FFA8AFA0022BA
:400940000AE1B8F1000F40F0F38004AB6B4A92E8030083E8030053AA82E803004FF0000A01270822F8E0002F00F0E580B8F1030F40F0E4809DF84EB19DF84D3143EA0B2B28
:40098000A9F14003DBB23F2B10D84FEA0B11BBF17F0F01D8334600E00A23002B40F0D18057481022FFF732FD019011E00BEB09210902BBF1FF0F01D8334600E00A23002BFA
:4009C00040F0C28000204FF48072FFF71FFD0190B9F13F0F0FD809F510320BEB02225201002306E0995C01980144C9B2019101339BB21F2BF6D9B9F1030F13D1BBF1FF0F24
:400A000010D105200021FFF719FD019B181A00F0FF0906200021FFF711FDC0EB090000F0FF030193019B5B428DF84C31012293E00020FFF7A5FD10B98022324B1A7000F04D
:400A4000E1FB00F0E9F90426002285E02E4B1B68002B7CD0002F7DD08DF80820ADF80A8053AA0392002104910591069202A804A99847BDF81420B2F5937F03D3069953AB8B
:400A8000994205D0069B03B92AB99DF8106063E00E26002260E00E2600225DE000225BE00426002258E00426002255E00426002252E0042600224FE0092600224CE00022DB
:400AC0004AE0002248E0002246E0002244E00426002241E0042600223EE0042600223BE00426002238E00426002235E00426002232E0042600222FE00C81FF1F4429000020
:400B000000800040FA4600404481FF1F4FF0000A0326524620E000221EE04FF0000A0A26524619E00426002216E00326002213E00426002210E0042600220DE0042600221D
:400B40000AE01E46002207E01E46002204E00526002201E005260022304652A9FFF72CFC01E04FF0000A002D3FF467AD002F7FF464AD0DF51F7DBDE8F08F00BF38B50020CB
:400B8000FFF7FEFC08B1062400E00024134D2B68002001461A68FFF739FC6B681B78C01AC0B24042C0B2834202D12B681B6813B9002000F02FF90A4B1B7803F0C003402BF6
:400BC00000D024B10020064B1870FFF723FD3220FFF720FDFFF7E6FB38BD00BF0C81FF1FFA460040000000000230800803D000BF01380046FCD17047EFF3108072B6704786
:400C000080F31088704700BF10B500F07BF900F029FAD0B900F068FA0446072812D102E0012000F017F90A4B1B7813F0020FF7D0074B1B7813F0020F04D0054B1B789B08A7
:400C400000D1002400F034FA00E00424204610BD2247004010B500F055F900F003FA10BB012000F0E1F9072818D11048022100F05BF902280AD102E0012000F0EBF80C4BCE
:400C80001B7813F0020FF7D0002409E0084B1B7813F0020FE9D04FF0FF3401E04FF0FF3400F006FA00E00424204610BD5881FF1F2247004008B5FFF7A7FF034610B9FFF715
:400CC000C9FF0346184608BD2DE9F041441FE4B23A2C01D9002500E0012510F0800F00D00125412800D901253F2803D8B1F5807F06D808E0802900D90125102B02D102E0E3
:400D0000012500E0012502B90125002D50D1984616460F46044600F0A5F9002847D1204639463246434600F019F9064607283AD102E0012000F08EF81F4B1B7813F0020FB9
:400D4000F7D01D4B1B7813F0020F06D01A4B1B789B0805D04FF0FF3603E04FF0FF3600E02E4606BB154B204639461A785B7800F035F9072804D0064615E0012000F06AF8F8
:400D80000D4B1B7813F0020FF7D00B4B1B7813F0020F06D0084B1B789B0804D04FF0FF3601E04FF0FF3600F083F9354600E004252846BDE8F08100BF224700405881FF1FA1
:400DC00008B5FFF719FF0F4A137843F0080313701032137843F008031370C8220A4B1A700A4A137843F0100313701032137843F010031370064B1B7813F0200FFAD0FFF718
:400E0000FFFE08BDA043004001470040AC4300400047004001BE7047024A137843F0010313707047F646004010B5044605E0084B1868FFF7D9FEA4F50044B4F5004FF6D81E
:400E4000034B586800FB04F0FFF7CEFE10BD00BF1481FF1F08B5034B1B7A03FB00F0FFF7C3FE08BD1481FF1F08B5FFF7C5FE00BF00BF00BF00BF00BF00BF00BF00BF00BF8A
:400E800000BF00BF00BF00BF00BF00BF00BF064A13889BB243F0040313801388BFF36F8FFFF7AEFE08BD00BF0048004070B504460E46074B1D681F2802D90020FFF7AAFF80
:400EC00004F01F04103455F8240045F8246070BD08ED00E038B504460D46072902D90020FFF798FF1F2C02D90020FFF793FF04F01F0000F1604000F564406D01EDB2057094
:400F000038BD00BF08B5FFF777FE064A137843F0080313701032137843F008031370FFF76FFE08BDA043004070B506460D4600240CE00120FFF78EFF064B1B7813F0010FF1
:400F4000F7D0054B1B7833550134E4B2AC42F3D3204670BD224700402047004070B41D4C247814F0020F2CD01B4CB6252570D5252570022525700234247814F0020F22D1A7
:400F8000154C2070002404E0165D134D2E700134A4B29C42F8D3B3F5807F16D13F2816D800F5103001EB00214801002305E01A5CD2B209490A7001339BB21F2BF7D9072095
:400FC00006E0042004E0092002E0072000E0072070BC7047224700402047004030B4104C247814F0020F15D00E4CB6252570D8252570052525700234247814F0020F0BD1E3
:40100000084C2070080A2070C9B2217022702370072002E0042000E0092030BC704700BF22470040204700400C4B1B7813F0020F0FD00B4BB6221A70E1221A700E221A7035
:4010400002331B7813F0020F05D1054B187007207047042070470920704700BF224700402047004010B5FFF7C7FD0F4B1B78A3B901220D4B1A700D4B1B6813F0010F0ED0A5
:401080000A4A136823F00103136000BF00BF00BF0122054B5A60002402E0042400E00024FFF7AEFD204610BD4881FF1F0400084008B5FFF7A1FD0A4B00221A705B68012BF3
:4010C0000AD1084A136843F00103136000BF00BF00BF0022024B5A60FFF792FD08BD00BF4881FF1F04000840074B1B7813F0020F08D0064BB6221A70E0221A700D221A7033
:4011000007207047042070472247004020470040084A137843F0010313701032137843F00103137002F64D32137843F001031370704700BFA3430040014B1880704700BFD6
:40114000044F0040014B1880704700BF064F0040014B1870704700BF034F004008B5194A137843F0020313700232137803F08F0343F010031370144B1A7802F0CF021A7060
:401180001A7842F030021A701A7802F0F0021A701A7842F00F021A70FF20FFF7CDFF7F20FFF7D0FF0020FFF7D3FF084A137843F00103137002F65E32137843F001031370BF
:4011C00008BD00BF004F00400B4F0040A343004008B5054B1B7823B9FFF7C0FF0122024B1A70FFF795FF08BD5081FF1F08B562B60020022100F070F90122014B1A7008BD84
:401200005181FF1F08B500F0ABF908BD08B5012000F068FA08BD00BFF8B505460F46164603EB83035C00A4B202202946402200F00FFA04E00120FFF7F7FD013CA4B2022095
:4012400000F0E8F908B9002CF4D1022000F0E2F910B137800020F8BD1020F8BD2DE9F04180460E46174603EB83035C00A4B2402900D94026204B1B7833B916E00120FFF749
:40128000D3FD013DADB200E0254600F0ADF908B9002DF3D100F0A8F9A8B100F0ABF9FFF7B5FF0022144B1A700DE000F0A3F950B100F09AF938B1FFF7A9FF04E00120FFF77C
:4012C000B3FD013CA4B2012000F0A4F9012801D0002CF3D1012000F09DF9012807D14146324600F015FA38800020BDE8F08100233B801020BDE8F0815181FF1FF8B5FFF7C8
:401300007BFC0646384A137843F0010313701032137843F0010313700125344B1D700227943B1F7002F5E2521B32137803F07F0313700020FFF78EFD2D4C237803F0F90344
:4013400023702C4A137803F0DF03137023782B4323702846FFF77EFD2820FFF77BFD264B1A7802F07F021A701A7802F0BF021A7023783B4323703846FFF76CFD237843F02A
:401380000403237000241D4B1C7001331C703046FFF736FC17200721FFF79CFD17201849FFF784FD18200721FFF794FD18201549FFF77CFD20460721FFF78CFD2046124966
:4013C000FFF774FD28460721FFF784FD28460F49FFF76CFD0C200721FFF77CFD0C200C49FFF764FDF8BD00BFA54300409D6000409443004012600040F8510040846000406A
:401400003D1C0000551A0000C91B0000011C0000C91E000010B5002304E00124214AD4542344DBB2002BF8D01F4B187000231F4A13701F4A13701F4A13701F4A13701F4A63
:4014400013701F4A13701F4A13701F4B4FF400021A604FF080721A6001221A6002221A6011B1012906D00BE0184A137803F0FE0313700AE0154A137843F00103137004E07F
:40148000124A137843F0010313700322104B1A708022203B1A700120FFF7A6FB04220D4B1A7010BDFC81FF1F7081FF1F7681FF1F7481FF1F7581FF1F7181FF1F5C81FF1F7C
:4014C0007381FF1FEC81FF1F00E100E009600040286000401260004038B505460C46064B1B7823B9FFF70AFF0122034B1A7028462146FFF78FFF38BD5281FF1F002304E0E1
:4015000001210E4AD1540B44DBB2002BF8D000230B4A13700B4A13700B4A13700B4A13700B4A13700B4A13700B4A137003220B4B1A708022203B1A70704700BFFC81FF1F95
:401540007681FF1F7481FF1F7581FF1F7181FF1F5C81FF1F7381FF1FEC81FF1F2860004008B5FFF749FB184A137803F07F0313700A32137803F0FB031370A2F5E3520D3A95
:40158000137803F0FE0313701032137803F0FE031370FFF735FB0D4B4FF400021A604FF080721A6001221A6002221A600023084A1370084A1370084A1370084A1370084AF9
:4015C0001370084A137008BD0860004080E100E07481FF1F7581FF1F7181FF1F5C81FF1F7381FF1F5281FF1F014B1878704700BF7581FF1F064B1B7813F0FF0F05D0044B31
:401600001878C0B200221A7070470020704700BF7481FF1F00EB40008000024B18444078704700BF8081FF1F431EDBB2072B0BD8064B00011A18185C00F00F00537843EA09
:401640000020023880B2704700207047FC5F0040431EDBB2072B3BD8F0B4074600EB40039B001C4C2344DB889BB2C3F500739A4207D900EB40039B002344DA88C2F50072A7
:4016800092B200EB40039B00124C2344DB7843EA1223114D04012E192B55D3B2737039B909E0CE5C3D010D4C665501339BB200E000239342F5D3430003449B00054A1344CE
:4016C00000225A705A79D2B20001054B1A54F0BC704700BF8081FF1FFC5F004078600040FE5F0040431EDBB2072B0BD8430003449B00054A134400225A705A79D2B2000145
:40170000024B1A54704700BF8081FF1FFE5F004070B5D9B1054614460E46C8B1082819D8FFF782FFA04203D22846FFF77DFF0446002305E02901094A525CF25401339BB228
:40174000A342F7D32846FFF7CDFF04E0002402E0002400E00024204670BD00BF786000401C4B19781C4A13880B449BB2138000230EE01A4A51680978C9B21948C15451688D
:40178000013151600133DBB21188013989B21180124A128892B20AB1072BEAD90D4A1278D2B2082A00D05BB10E490A7882F080020A700F210C4A117002210C4A117004E05D
:4017C000022209490A7009490A70094A1370014A13707047EC81FF1FF281FF1F6481FF1F006000407281FF1F5D81FF1F7681FF1FED81FF1F0222074B1A708022064B1A70E8
:401800000F22064B1A700023054A1370054A1370012070477681FF1F7281FF1F5D81FF1FEC81FF1FED81FF1F08B5FFF799FF08BD10B4184B197801F00F010239C9B2164AE5
:4018400013880B449BB21380002010E0134B5C68134A125CD2B222705A6801325A600130C0B20139C9B21A88013A92B21A800B4B1B889BB20BB10029E8D10A4B19700A4AB3
:40188000137883F0800313700B22084B1A705DF8044B704729600040F281FF1F6481FF1F00600040ED81FF1F7281FF1F5D81FF1F0623064A1370064A13708022054B1A70DE
:4018C0000022054B1A700120704700BF7681FF1F5D81FF1F7281FF1FED81FF1F064B9B6843B1054B9A6810709A6804490988518000229A60704700BF6481FF1FF281FF1FB6
:4019000008B5134B1A78D2B21A701B78DBB213F0800F02D00F4A137008BD0220FFF7DEFF0D4B1B7803F06003202B05D0402B06D043B900F067FD06E000F01CFF03E000F01C
:4019400005FF00E0002010B90322024B1A7008BD286000405D81FF1F0060004008B5084B1978084A13880B449BB213800022064B1A700120FFF7B2FF0322044B1A7008BD30
:40198000EC81FF1FF281FF1F7681FF1F5D81FF1F08B50B4B1B78DBB2042B06D0062B07D0022B0BD1FFF7DAFF08BDFFF741FF08BD0320FFF793FF0322024B1A7008BD00BFF7
:4019C0007681FF1F5D81FF1F08B50022044B1A700120FFF783FF0322024B1A7008BD00BF7681FF1F5D81FF1F08B50B4B1B7813F0FF0F07D0084A137843F0800307490B7008
:401A0000002313700022064B1A700120FFF766FF0322044B1A7008BD5C81FF1F086000407681FF1F5D81FF1F08B5094B1B78DBB2042B06D0062B07D0022B07D1FFF7F4FEE5
:401A400008BDFFF7C1FF08BDFFF7CEFF08BD00BF7681FF1F08B5284B1B78DBB213F0100F48D013F0800F0CD003F00F03012B16D1FFF746FF214B1B7813F0800F11D10123E8
:401A800012E013F0400F03D0FFF7CEFF01230BE013F0200F07D0FFF77BFF012304E0002302E0002300E0002323B3134B1B7813F0800F1FD1124B1B78124A12781343124AC0
:401AC00013701278D2B29A4214D10C4B1B78DBB2094A127812F0800F07D1084B1B78DBB2054A1370137803F00F03044A1278D2B29342EAD108BD00BF286000405D81FF1FCE
:401B00007281FF1FED81FF1F296000400022064B1A80064B9B682BB1044A916800230B7092685380704700BFF281FF1F6481FF1F08B50F4B1B889BB213B9FFF75BFE15E02F
:401B400002220C4B1A7000220B4B1A70FFF7DEFF0A4AD179937943EA0123054A128892B29A4201D9024A1380FFF7FAFD012008BD6481FF1F7681FF1F7281FF1F0060004032
:401B800008B504220B4B1A7080220B4B1A70FFF7BDFF0A4AD179937943EA0123084A128892B29A4201D9064A13800B22054B1A70012008BD7681FF1F7281FF1F00600040B7
:401BC0006481FF1F5D81FF1F0A4A137803F0FE031370094B9B7C094B1B7B03F00303012B04D0064AD37B83F08003D3730122034B5A7370470B600040FC5F00408081FF1F0E
:401C00000B4A137803F0FD0313700A4B93F82230094B1B7E03F00303012B04D0064AD37E83F08003D3760122034B5A76704700BF0B600040FC5F00408081FF1F08B5FFF787
:401C40005DFC08BD08B50B4B18780138C0B200F091F9094B1B79DBB200EBC30042690749CB5C02EBC3035B68596A0B78044A1380516008BD7581FF1F006000406081FF1F73
:401C80006481FF1F08B50D4B18780138C0B200F071F90B4B1B79DBB200EBC30042690949CB5C02EBC3035B68DB69597813F8022B42EA012204490A804B6008BD7581FF1FC1
:401CC000006000406081FF1F6481FF1F10B50022194B1A80194B18780138C0B200F04AF9174AD378DBB21279D2B200EBC200416902BB1448825C01EBC20149685A1ED2B299
:401D0000022A17D803F10053013B01EBC3000C4A9278D2B211F8333093420BD3406802EB4202920081184C68034B5C60825A1A808A689A6010BD00BF6481FF1F7581FF1F8C
:401D4000006000406081FF1F08B55A4B1A79D2B21B7813F0800F4DD0564B5B78013B052B00F28C80DFE803F0212B3B8A8A03514BDB78DBB2212B09D1FFF764FF4E4B1B889C
:401D80009BB2002B7CD0FFF7D3FE08BD494BDB78DBB2222B76D1FFF775FF474B1B889BB2002B71D0FFF7C4FE08BDFFF78FFF424B1B889BB2002B69D0FFF7BAFE08BD002AF4
:401DC00066D13C4B9B7813F0FF0F63D13A4901230B803A4B1A444A60FFF7AAFE08BD002A5AD1354901230B80354B1A444A60FFF79FFE08BD2F4B5B78DBB20A2B0DD00B2B27
:401E00002ED0092B4AD1FFF761FF2B4B1B889BB2002B45D0FFF7B4FE08BD002A42D1254B9B7813F0FF0F3FD1224BDB78DBB223498B548B5C2349895CDBB28B4203D20021EB
:401E4000204B995409E01F4B9B5CDBB2012B04D91A4B9B5CDBB21B498B54FFF729FD08BD22BB144B9B78DBB2012B21D8114B9B78DBB213498B54FFF71BFD08BD002008BD2D
:401E8000002008BD002008BD002008BD002008BD002008BD002008BD002008BD002008BD002008BD002008BD002008BD002008BD002008BD006000406481FF1FF481FF1F4B
:401EC000FC81FF1FF881FF1F08B500F04BFC08BD10B401223DE0114613010C242148C45402EB42039B00204803445B7913F0FF0F12D002EB42039B0003441B7913F0800F5A
:401F000004D01001194B03449C700AE01001174B03440820987004E01001144B0344802098704B000B449B000F480344DC88E4B208010C4901448C71D888C0F30720C8710E
:401F4000D888C0B20871DB88C3F307234B710132D2B2082ABFD9FF22054B1A705DF8044B704700BF706000408081FF1FFC5F00400A600040074B1B78074A02EBC30253686A
:401F80001A7C824203D903EBC003586970470020704700BF7081FF1F4C290000F8B5404B1B7813F0FF0F79D03D4B18780138C0B2FFF7E0FF047AC2683A4B1878C0B2002399
:401FC0006AE01178814264D13749095CC9B25578A9425ED1917801F07F01D67806F00306DFF8C8E04D000D44AD000EEB05074FF0000C87F803C092F802C087F804C092F893
:4020000003C00EF805C095883D8192F90250002D0DDA012E01D1072700E00D274D000D44AD00224E35446F7101266E700CE0012E01D1052700E009274D000D44AD001B4E0D
:4020400035446F7100266E70DFF868E00F010EEB07060125B57001FA05F529448900134D29440D89C5F307250EF807500D89EDB27570CE88F6B20E4D3D44AE71CE88C6F3D2
:402080000726EE71CE88F6B22E71C988C1F30721697108320133DBB2A34292D3F8BD00BF7581FF1F7181FF1F6081FF1F8081FF1F70600040FC5F0040034B1A78034B03EB2E
:4020C000C2035868704700BF7081FF1F4C29000008B5074B18780138C0B2FFF74BFF28B14268127900EBC203586908BD002008BD7581FF1FF8B500220EE0654E53009D1822
:40210000AD00741900217155A170E1702181A172617061710132D2B2082AEED940B90AE000225C49CA545C49CA540133DBB200E00023002BF4D0594B1B7813F0FF0F00F09E
:40214000A580564B18780138C0B2FFF713FF4368DB7913F0400F05D0514A137843F00103137004E04E4A137803F0FE031370057A012461E0C16800235AE08A7802F07F02F2
:40218000944252D1264604EB44029200404F3A44128992B28F88BA4206D204EB44029200DFF8ECE0724417810A783A4FBA5CD2B24F78BA4239D191F802C0354F720032443B
:4021C000920007EB020E8EF804C091F803E007F802E0CA7802F0030291F90270002F11DA012A02D14FF0070C01E04FF00D0CDFF8A0E072009719BF00774487F805C0012282
:402200007A7012E0012A02D14FF0050C01E04FF0090C1F4F4FEA460E0EEB060292003A4482F805C016460022727008310133DBB2AB42A2D30134E4B2082C9BD9C06800227B
:402240000CE0837803F07F0310F8084B03EB43039B0014490B449C700132D2B2AA42F0D3FFF736FF104B1860002001220AE0084C5300991889002144C8800B89184480B2DF
:402280000132D2B2082AF2D9FFF722FEF8BD00BF8081FF1F6081FF1FF081FF1F7581FF1F7381FF1F8881FF1F7C81FF1F08B5154B1A7902F07F02531EDBB2072B20D853002D
:4022C00013449B0010490B44997841F0010199700021D970597841F0020159701B7913F0800F05D01201094B13448D229A7004E01201064B134489229A70FFF7D9FA08BD6B
:40230000002008BD006000408081FF1FFC5F0040264B1B7903F07F035A1ED2B2072A43D810B55A001A44920021490A44917801F0FE0191700021D17019017F241D484454BF
:40234000517801F0FD015170127912F0800F14D003EB4302920016490A445278D2B2012A05D11B0102461A440C23937019E01B01104A1A440D23937013E003EB4302920077
:402380000B490A445278D2B2012A05D11B01094A1A440823937004E01B01064A1A4409239370FFF785FA10BD00207047006000408081FF1FFC5F004010B50E4B1C79E4B298
:4023C0000D4B18780138C0B2FFF7D4FD43681B799C4201D9012C0AD8084A135DDBB208490B55044B9B78DBB21355012010BD002010BD00BF006000407581FF1F6081FF1FD9
:40240000F081FF1F10B5994B1B78DBB20021984A118013F0800F00F0A980944A5278D2B20A2A00F26E81DFE812F065006C016C016C016C016C010B006C018E006C0196006C
:402440008A4BDB78DBB2012B09D1FFF735FE4268874B5A6012221A80FFF76AFB10BD834BDB78DBB2022B13D1804B9878FFF782FD002800F0488142687D4B5A605A68D17825
:402480005A68927842EA01221A80FFF751FB10BD764BDB78DBB2032B05D028E00A7811440133DBB201E000237249704A9278D2B29A4203D90A7812F0FF0FEFD16B4B9B783A
:4024C00013F0FF0F07D0694B9B78DBB26A4A127C934200D169490B7813F0FF0F00F015810B78634A13805160FFF722FB10BD00F041F910BD13F0030317D0022B40F00781CC
:402500005B490B80594B1B7903F07F0303EB43039B005B4A13449A78D2B25A4B1A7000225A704B60FFF704FB10BD514902230B80554B1A78D2B2534B1A7000225A704B6017
:40254000FFF7F6FA10BD4A4B01221A804F4A5A60FFF7EEFA10BD464A01231380434B1B794B490B445360FFF7E3FA10BD3F4A5278013A0A2A00F2CD80DFE812F04B00CB00D9
:402580009600CB000B00CB00CB00CB001300CB003000364B9B78DBB23E4A1370FFF788F910BD324B9B7803F0FF041BB1601EC0B2FFF7E0FC04B110B9002C40F0AC80334B38
:4025C0001B78DBB29C4206D0304B1C700120324B1870FFF78FFDFFF76BF910BDFFF7ECFE002800F09A80214A1379DBB21279D2B22A490A702A4AD25C2549C95CD3B28B4218
:4026000004D00122244B1A70FFF7C8FCFFF750F910BD03F00303012B17D04BB1022B7ED1124B9B7813F0FF0F7BD1FFF771FE10BD0E4B9B78DBB2012B75D1134A137803F01B
:40264000FD031370FFF734F910BD084B1B7913F0FF0F6AD1054B98781B79DBB21149CA5C22EA0002CA54FFF723F910BD006000406481FF1F1C2A00009C2A0000102A0000BF
:402680008081FF1F5481FF1F7381FF1F7581FF1F6081FF1F5C81FF1F7481FF1F7181FF1FF081FF1F7881FF1F03F00303012B17D04BB1022B3BD1224B9B7813F0FF0F38D144
:4026C000FFF7F4FD10BD1E4B9B78DBB2012B32D11C4A137843F002031370FFF7E9F810BD174B1B7913F0FF0F27D1154B98781B79DBB21549CA5C22EA0002CA54FFF7D8F898
:4027000010BD002010BD002010BD002010BD002010BD002010BD002010BD002010BD002010BD002010BD002010BD002010BD002010BD002010BD002010BD002010BD00BF2A
:40274000006000407381FF1F7881FF1F044B1B7813F0800F01D0024B5B780020704700BF00600040024B1878C0F38010704700BF8F45004008B5124B1B7803F00303012B79
:4027800002D0022B04D00FE00D4B1B79DBB20CE00B4B1B7903F07F0303EB43039B00094A13449B78DBB200E00023074A1268D35C032B02D1FFF7C8FA08BD002008BD00BF5B
:4027C000006000408881FF1F7C81FF1F0E4B70B51E460E4C0025E41AA410A54204D056F8253098470135F8E700F062F9084B094C1E46E41AA4100025A54204D056F8253006
:4028000098470135F8E770BDBC2A0000BC2A0000BC2A0000C42A000010B5431E0A44914204D011F8014B03F8014FF8E710BD03460244934202D003F8011BFAE7704700008B
:40284000002C0000E300000000000000004F00400C00005100402000305100404000C0510040100000000140001000140140000800400140000A004C014000020050014042
:402880002000000001450040014F0040015200400107014001090140040A0140010B0140021701400219014003400140024101400442014006430140024501400146014040
:4028C0000447014004480140044C014001500140015101407E020A4B7C40EE08AF20B820BE10D804DF011F20E810EE0AE810EE0A33803640CC30A640A7806302A640A7808E
:40290000D6401810A640A780AF01C610EE105004D404940808080F409408C20CAE40AF80B410EE50AC08AF40B404E8080214000A4000000000000000C000000000020200A9
:40294000020000006910162E003201010100000054290000010000009C2A00000000000000000000010000006C29000001000000702A000002000000902900000100000032
:40298000A0290000000000008C290000030000000000010340000300000082034000030001000000A829000000000000DC29000000000000D02900000000000000000000B7
:4029C00001000000E829000001000000822A0000410000004882FF1F8C82FF1F410000000482FF1F0082FF1F240005010900A1000900A1000900150025FF75089540910299
:402A00000900150025FF750895408102C0C000000A0330003000300031000000040309042C0343007900700072006500730073002000530065006D00690063006F006E0017
:402A400064007500630074006F0072002203500053006F0043003300200042006F006F0074006C006F006100640065007200000009022900010100803209040000020300F3
:402A8000000209211101000122240007050103400001070582034000010000001201000200000008B4041DB70130010280010000F8B500BFF8BC08BC9E4670475100000040
:402AC000E9000000F8B500BFF8BC08BC9E4670472D000000E82A00000881FF1F2000000068010000000000000000000040280000442800000000A08C40190100480000005D
:402B000000A24A04000000000000000000000000000000000000000000000000000000000000000000000000000000000000000000000000000000000000000000000000A5
:402B40000000000000000000000000000000000000000000000000000000000000000000000000000000000000000000000000000000000000000000000000000000000055
:402B80000000000000000000000000000000000000000000000000000000000000000000000000000000000000000000000000000000000000000000000000000000000015
:402BC00000000000000000000000000000000000000000000000000000000000000000000000000000000000000000000000000000000000000000000000000000000000D5
:402C00000000000000000000000000000000000000000000000000000000000000000000000000000000000000000000000000000000000000000000000000000000000094
:020000040003F7
:40FFC00000000000000000000000000000000000000000000100010000000000000000000000000000000000000000000000000000000000000000000000000000000000FF
:0200000480007A
:4000000000000000000000000000000000000000000000000000000000000000000000000000000000000000000000000000000000000000000000000000000000000000C0
:400040000000000000000000000000000000000000000000000000000000000000000000000000000000000000000000000000000000000000000000000000000000000080
:400080000000000000000000000000000000000000000000000000000000000000000000000000000000000000000000000000000000000000000000000000000000000040
:4000C0000000000000000000000000000000000000000000000000000000000000000000000000000000000000000000000000000000000000000000000000000000000000
:0200000490006A
:0400000000004005B7
:0200000490105A
:04000000BC90ACAF55
:0200000490303A
:02000000C40238
:0200000490402A
:4000000000000000000000000000000000000000000000000000000000000000000000000000000000000000000000000000000000000000000000000000000000000000C0
:400040000000000000000000000000000000000000000000000000000000000000000000000000000000000000000000000000000000000000000000000000000000000080
:400080000000000000000000000000000000000000000000000000000000000000000000000000000000000000000000000000000000000000000000000000000000000040
:4000C0000000000000000000000000000000000000000000000000000000000000000000000000000000000000000000000000000000000000000000000000000000000000
:0200000490501A
:0C00000000012E16106900012E25D46BA3
:00000001FF