:400000000080002011000000990000009900000008B5054B1A6803F53F5302331A6000F0ADFA00F03BF800BFFA46004010B5054C237833B9044B13B10448AFF300800123DA
:40004000237010BD2881FF1F0000000064170000084B10B51BB108480849AFF300800848036803B910BD074B002BFBD0BDE81040184700BF00000000641700002C81FF1F52
:400080000881FF1F0000000008B500F021FE00F08BFD62B6FEE700BFFEE700BF08B5104E104D16E029686B68AC68002204E051F8040B43F8040B0432A242F8D1E868002212
:4000C00003E0002143F8041B04328242F9D11035013E002EE6D101F007FBFFF7D5FFFEE701000000101C000008B5124A124B1A60124A136843F40073136000230AE0032B87
:4001000003D80F4A52F8231000E00E490E4A42F8231001332F2BF2D90C4B1A780C4B1A70094A0C4B1A6000F0B5F800220A4B1A6008BD00BF0004FA050CED00E014ED00E0FC
:4001400000000000990000000080FF1FBC7600400481FF1F08ED00E00081FF1FFEE700BFF0B40022174611E050F82760F3B226F0FF0608E001EB420511F812406D78A55523
:400180000132013BDBB2002BF4D101371C2FEBD9F0BC7047064B1B78DBB203F00701054A11701B09013213704422034B1A707047CF0100496E5800407658004008B50A4664
:4001C000002101F0C2FA08BD08B501F0B3FA08BD08B501F0AFFA08BD38B50323264A13801B2102321170192502321580182102321170022102F27A22117008224FF0402136
:400200000A7001F500710B701C4B1B78DBB201F2A1410B701A4B1A8041F25122023B1A8000240CE0174B1B7803F0010343EA440404F003044FF4F07000F05AFD013D0DB1BD
:40024000032CEFD115B90320FFF788FF0E4B4FF480721A8007221A7000220C490A704820023108701A700222033B1A70084A137843F00303137038BD8040004008010049EC
:4002800022420040254200400440004006400040A243004038B572B6324A137843F00403137000240CE0304963001A1952000A4423445B00C8589188FFF780FF0134E4B2F1
:4002C000092CF0D900240BE02749A3001A1952000A44D06B116C8022FFF776FF0134E4B2002CF1D0204C04F1480004F1BC01FFF737FF1E4A137843F002031370103213788C
:4003000043F0020313701A4D2B7843F040032B70A2F58632513A137843F010031370154804F57A710A22FFF74FFF134804F57D710822FFF749FF114A137843F008031370B7
:400340000F4C61232370FFF747FF8123237001220C4B1A70FFF71EFF0B4829460E22FFF737FF38BDE84600406817000003500140A0430040C0510040225100402243004021
:400380000048004004000840B0430040002306E0421812F8012C13449BB2013989B20029F6D1584280B2704730B4002306E01C5CE4B2CD5CAC4205D101339BB29342F6D309
:4003C000002000E0022030BC704700BF004700BF08B58022024B1A7000F0A2FD08BD00BFFA4600402DE9F04182B00C46164602AF27F8022D01230B7048701546A270130AA3
:40040000CB7002F1040808461FFA88F1FFF7BEFF04F80800731DC0F30720E054063517236355F11D204689B23A46962300F000FF02B0BDE8F08100BF70B505460E461446A4
:40044000084B984203D010B1002000F067FD002004E0013CAB191B5D1844C0B2002CF8D170BD00BF0080004008B501380B2867D8DFE800F0060E161E262E3E36464E565EE4
:400480004942090201F57F3101F5707101225CE04942090201F57F3101F2C131042254E04942090201F57F3101F2C53102224CE04942090201F57F3101F2C931042244E067
:4004C0004942090201F57F3101F5747101223CE04942090201F57F3101F2D131012234E04942090201F57F3101F2D63102222CE04942090201F57F3101F2D231022224E07E
:400500004942090201F57F3101F5757102221CE04942090201F57F3101F57671042214E04942090201F57F3101F5777101220CE04942090201F57F3101F57871042204E002
:40054000002000F0EBFC02220021012A02D10878C0B200E00020022A03D10B78487843EA0020042A09D10B78487843EA0023887843EA0043C87843EA006008BD08B50A4B10
:400580001B7803F0C003802B0CD10021064B19700220FFF769FF28B102200021FFF764FFFFF714FF08BD00BFFA460040F8B5064603203146FFF758FF0130070204203146B8
:4005C000FFF752FF074403203146FFF74DFF013000020024254608E003785A1ED2B2FD2A00D801252344DCB20130B842F4D303203146FFF739FF01300002C0080F4B9F4262
:4006000001D0FF0808E04FF4004705E000F190431B782344DCB20130B842F7D36442E4B201203146FFF720FF844202D11DB90620F8BD0620F8BD0020F8BD00BFC0FF0300E6
:400640002DE9F04FADF51F7D054600F0B7FB10B1002000F063FC00F0DFFD62B64FF0000A57460A24D0460DB9FF2300E02B4652A84FF496710DF2762200F0ECFD0DB1013CD4
:40068000E4B20CB10028EED1002840F08282BDF87632062B26D99DF84821012A24D19DF84B819DF84A2142EA0828414608F107029A421BD8B2F5967F1AD84A1D52AB9E5CD8
:4006C0000A1D9A5C42EA062606315B5C172B11D108F1040152A889B2FFF758FEB0420BD100260AE0042608E0042606E0032604E0032602E0042600E00826002E40F0E481E1
:400700009DF84C919DF84921A2F13103142B00F2B381DFE813F015007D00B101A5001101B10117012C01A5003E01A301B101B101B101B101B101B101B101B101B101260070
:40074000002F00F0C381B8F1000F40F0C2810020FFF72CFFB0FA80F040098DF84C01012210E2002F00F0B881B8F1030F04D040F22313984540F0B3819DF84EB19DF84D3129
:4007800043EA0B2BB8F1030F06D007A80DF24F11A8F1030200F0CEFFA9F14003DBB23F2B08D80BF1806303F50063180110230193802309E0B9F1030F00F294810BEB09239D
:4007C00018024FF4807301939B4500D30A26002E40F08B8107A9019AFFF7E6FD0646002840F08581B9F1030F00F28381019B9A4540F2818109F510300BEB0020400107AA53
:40080000134419462022FFF7CFFD06460022B9E1002F00F07281B8F1010F40F07181B9F1030F00F27081BF4B1B681B68C3F30742914502D1C3F3072305E0914501D900231A
:4008400001E04FF480738DF84C311B0A8DF84D31FF238DF84E3100238DF84F31042291E1342A15D1002F00F05181B8F1030F40F05081A9F14003DBB23F2B02D84FF0100A59
:4008800001E04FF4907A07A80021524600F05DFF002F00F04181B8F1020F40F2408107AB03EB0A000DF24F11A8F1030200F042FFC244AAF1030A1FFA8AFAA9F14003DBB23B
:4008C0003F2B05D800F000FB80234FF0100803E04FF480734FF49078C24540F02D819DF84EA19DF84D2142EA0A2A9A4500D30A26002E40F02681B9F13F0F0FD80AEB0922B6
:4009000092B2884B1B681968C1F30F2311F0FF0F01D001339BB29A42C0F015814846514607AA434600F054FA00B10A2600F020FB4FF0000A524625E1002F40F02881042691
:4009400000221FE1002F00F003810AEB0803B3F5967F00F2008107AB03EB0A0053A9424600F0E8FEC2441FFA8AFA00220AE1B8F1000F40F0F38004AB6B4A92E8030083E827
:40098000030053AA82E803004FF0000A01270822F8E0002F00F0E580B8F1030F40F0E4809DF84EB19DF84D3143EA0B2BA9F14003DBB23F2B10D84FEA0B11BBF17F0F01D856
:4009C000334600E00A23002B40F0D18057481022FFF732FD019011E00BEB09210902BBF1FF0F01D8334600E00A23002B40F0C28000204FF48072FFF71FFD0190B9F13F0F7C
:400A00000FD809F510320BEB02225201002306E0995C01980144C9B2019101339BB21F2BF6D9B9F1030F13D1BBF1FF0F10D105200021FFF719FD019B181A00F0FF09062026
:400A40000021FFF711FDC0EB090000F0FF030193019B5B428DF84C31012293E00020FFF7A5FD10B98022324B1A7000F0DDFB00F057FA0426002285E02E4B1B68002B7CD0EF
:400A8000002F7DD08DF80820ADF80A8053AA0392002104910591069202A804A99847BDF81420B2F5937F03D3069953AB994205D0069B03B92AB99DF8106063E00E2600228F
:400AC00060E00E2600225DE000225BE00426002258E00426002255E00426002252E0042600224FE0092600224CE000224AE0002248E0002246E0002244E00426002241E0BA
:400B0000042600223EE0042600223BE00426002238E00426002235E00426002232E0042600222FE00C81FF1FE41B000000800040FA4600404481FF1F4FF0000A032652468F
:400B400020E000221EE04FF0000A0A26524619E00426002216E00326002213E00426002210E0042600220DE0042600220AE01E46002207E01E46002204E00526002201E01B
:400B800005260022304652A9FFF72CFC01E04FF0000A002D3FF467AD002F7FF464AD0DF51F7DBDE8F08F00BF38B50020FFF7FEFC08B1062400E00024134D2B680020014649
:400BC0001A68FFF739FC6B681B78C01AC0B24042C0B2834202D12B681B6813B9002000F09DF90A4B1B7803F0C003402B00D024B10020064B1870FFF723FD6420FFF720FD2E
:400C0000FFF7E6FB38BD00BF0C81FF1FFA460040084A137843F0010313701032137843F00103137002F64D32137843F001031370704700BFA3430040014B1880704700BF2E
:400C4000044F0040014B1880704700BF064F0040014B1870704700BF034F004008B5194A137843F0020313700232137803F08F0343F010031370144B1A7802F0CF021A7065
:400C80001A7842F030021A701A7802F0F0021A701A7842F00F021A70FF20FFF7CDFF7F20FFF7D0FF0020FFF7D3FF084A137843F00103137002F65E32137843F001031370C4
:400CC00008BD00BF004F00400B4F0040A343004008B5054B1B7823B9FFF7C0FF0122024B1A70FFF795FF08BD4881FF1F000000000230800803D000BF01380046FCD1704771
:400D0000EFF3108072B6704780F31088704700BF10B500F07BF900F029FAD0B900F068FA0446072812D102E0012000F017F90A4B1B7813F0020FF7D0074B1B7813F0020FAF
:400D400004D0054B1B789B0800D1002400F034FA00E00424204610BD2247004010B500F055F900F003FA10BB012000F0E1F9072818D11048022100F05BF902280AD102E0BE
:400D8000012000F0EBF80C4B1B7813F0020FF7D0002409E0084B1B7813F0020FE9D04FF0FF3401E04FF0FF3400F006FA00E00424204610BD6081FF1F2247004008B5FFF76F
:400DC000A7FF034610B9FFF7C9FF0346184608BD2DE9F041441FE4B23A2C01D9002500E0012510F0800F00D00125412800D901253F2803D8B1F5807F06D808E0802900D94A
:400E00000125102B02D102E0012500E0012502B90125002D50D1984616460F46044600F0A5F9002847D1204639463246434600F019F9064607283AD102E0012000F08EF8B3
:400E40001F4B1B7813F0020FF7D01D4B1B7813F0020F06D01A4B1B789B0805D04FF0FF3603E04FF0FF3600E02E4606BB154B204639461A785B7800F035F9072804D006464E
:400E800015E0012000F06AF80D4B1B7813F0020FF7D00B4B1B7813F0020F06D0084B1B789B0804D04FF0FF3601E04FF0FF3600F083F9354600E004252846BDE8F08100BFD8
:400EC000224700406081FF1F08B5FFF719FF0F4A137843F0080313701032137843F008031370C8220A4B1A700A4A137843F0100313701032137843F010031370064B1B7861
:400F000013F0200FFAD0FFF7FFFE08BDA043004001470040AC4300400047004001BE7047024A137843F0010313707047F646004010B5044605E0084B1868FFF7D9FEA4F535
:400F40000044B4F5004FF6D8034B586800FB04F0FFF7CEFE10BD00BF1481FF1F08B5034B1B7A03FB00F0FFF7C3FE08BD1481FF1F08B5FFF7C5FE00BF00BF00BF00BF00BF7B
:400F800000BF00BF00BF00BF00BF00BF00BF00BF00BF00BF00BF064A13889BB243F0040313801388BFF36F8FFFF7AEFE08BD00BF0048004070B504460E46074B1D681F281D
:400FC00002D90020FFF7AAFF04F01F04103455F8240045F8246070BD08ED00E038B504460D46072902D90020FFF798FF1F2C02D90020FFF793FF04F01F0000F1604000F51F
:4010000064406D01EDB2057038BD00BF08B5FFF777FE064A137843F0080313701032137843F008031370FFF76FFE08BDA043004070B506460D4600240CE00120FFF78EFFC1
:40104000064B1B7813F0010FF7D0054B1B7833550134E4B2AC42F3D3204670BD224700402047004070B41D4C247814F0020F2CD01B4CB6252570D525257002252570023453
:40108000247814F0020F22D1154C2070002404E0165D134D2E700134A4B29C42F8D3B3F5807F16D13F2816D800F5103001EB00214801002305E01A5CD2B209490A7001337E
:4010C0009BB21F2BF7D9072006E0042004E0092002E0072000E0072070BC7047224700402047004030B4104C247814F0020F15D00E4CB6252570D8252570052525700234E1
:40110000247814F0020F0BD1084C2070080A2070C9B2217022702370072002E0042000E0092030BC704700BF22470040204700400C4B1B7813F0020F0FD00B4BB6221A70EE
:40114000E1221A700E221A7002331B7813F0020F05D1054B187007207047042070470920704700BF224700402047004010B5FFF7C7FD0F4B1B78A3B901220D4B1A700D4BD1
:401180001B6813F0010F0ED00A4A136823F00103136000BF00BF00BF0122054B5A60002402E0042400E00024FFF7AEFD204610BD4C81FF1F0400084008B5FFF7A1FD0A4B15
:4011C00000221A705B68012B0AD1084A136843F00103136000BF00BF00BF0022024B5A60FFF792FD08BD00BF4C81FF1F04000840074B1B7813F0020F08D0064BB6221A70D8
:40120000E0221A700D221A700720704704207047224700402047004008B500F0C5F800F057F900F0AFF908BD08B500F0CBF808BDF8B506460D46174600F04AF9002404E040
:40124000305D00F067F90134A4B2AC42F8D33D800020F8BD2DE9F0470746894690461D46002414E000F006F960B100F003F904461920FFF75DFE00F0FDF88442F5D34FF08F
:40128000000A0BE00120FFF753FE0134A4B205EB85035B009C42E5DB4FF0050A0025A8F8005023E000F0E6F886B2B8F8003033449BB2A8F800304B4508D313E000F0A8F807
:4012C00078550135ADB20134A4B200E00024B442F4D37B1913F8013C172B07D00520FFF727FE03E09B1BA8F8003003E000F0C2F80028D7D15046BDE8F08700BF08B50020F7
:401300001049FFF757FE00200721FFF767FE00220D4B1A7072220D4B1A70202203331A7001200B49FFF746FE01200721FFF756FE0622084B1A70472210331A700222B03B5E
:401340001A7008BDC51500005481FF1F88650040591600002965004010B5FFF7D1FC04460D4A137843F0200313700332137843F010031370094A0123136009490B7843F0DF
:4013800010030B70022307490B60136000F090F92046FFF7B9FC10BD9865004000E100E09964004080E200E008B5054B5B7823B9FFF7A4FF0122024B5A70FFF7CDFF08BD62
:4013C0005481FF1F10B5FFF79BFC04460C4A137803F0DF03137000F079F90A4A137803F0EF031370084A0123136008490B7803F0EF030B70022313602046FFF785FC10BD1D
:40140000986500409B65004080E100E0996400400122134B1A60134A9378DBB2D178C9B2127912F0FF0F01D18B4211D00E4AD05CC0B20133DBB23F2B00D90023094A93706F
:40144000137913F0FF0F06D00022064B1A7102E0064B1878C0B20122054B1A60704700BF80E100E05481FF1F6481FF1F4B65004000E100E00122134B1A60134A9378D278CE
:40148000DBB2934206D1104B1B7913F0FF0F14D0402013E00C4A9378D278DBB2934205D2094AD3789078181AC0B207E0064AD3789078181A4030C0B200E000200122034B7F
:4014C0001A60704780E100E05481FF1F00E100E008B5FFF715FC0B4B1A7842F001021A701A7802F0FE021A70FFF70EFC0121064B1960064B00229A70DA701A715A71044BF5
:40150000196008BD9B65004080E100E05481FF1F00E100E0164BD9799B79DBB2994205D25A1E914214BF0022012204E0CA1A3F2A14BF00220122002AECD18B4207D10D4BA2
:401540001B7813F0040F02D10B4B187070473F2900D90021094B58540131054BD971054B1B7813F0020F02D00222054B1A6070475481FF1F6964004049640040A481FF1F8E
:4015800000E200E008B5FFF7BBFB0A4B1A7842F001021A701A7802F0FE021A70FFF7B4FB0223054A1360054A00219171D171044A136008BD9964004080E100E05481FF1F15
:4015C00000E100E01C4B1B78DBB213F01E0F05D01A4803F01E0201780A43027003F0200303F0FF022BB3164B1978C9B2154B1B78DBB21548C154154B1B7813F0FF0F02D0D4
:401600000121134B19700F490B780133DBB20B700B78DBB23F2B02D900210A4B1970094B1B780C490978DBB28B4202D10121074B1970002AC6D170476B6500405481FF1FD4
:401640004B6500405781FF1F6481FF1F5881FF1F5981FF1F5681FF1F13E0104B1B78DBB23F2B02D900220D4B1A700C4A1378DBB20B49CB5CDBB20B490B7013780133DBB255
:401680001370064B1B78DBB2074A1278934204D0064B1B7813F0040FDFD070475A81FF1FA481FF1F496400405B81FF1F69640040054A137843F0020313701032137843F08D
:4016C00002031370704700BFA2430040054A137803F0FD0313701032137803F0FD031370704700BFA24300400E4B70B51E460E4C0025E41AA410A54204D056F82530984749
:401700000135F8E700F072FA084B094C1E46E41AA4100025A54204D056F8253098470135F8E770BDF81B0000F81B0000F81B0000001C000010B5431E0A44914204D011F85D
:40174000014B03F8014FF8E710BD03460244934202D003F8011BFAE770470000001D0000FA00000000000000004F00400C00005100402000305100404000F051004010004C
:40178000000001400010001401408006001B0140000100400140000A004C01400002005001402000801A0140641B000080000000014F00400252004001640040026500408B
:4017C000010101404E08014030090140010B0140010D0140010F014002150140011701404E1801403B190140141A0140481B01400540014001410140014201400343014094
:401800000245014001460140014701400448014005490140024C0140084D014004500140015101400A3661806440890F88728B38E204011F0504090E0A020B110D08131204
:4018400015131602170C190C1B132601290C30023201331C350E370139803B083E01580459045C115F0184138520860C8718881389288A048F06951296159720980A99380E
:401880009A149B049D20A101A403A614A918AA08AB22B010B13EB301B40FBA20BE01BF04C023C106C5ECC6B0C80BC9FFCAFFCBFFCEF0CF44D00CD401D604D804D904DA0467
:4018C000DB04DC11DD11DF01E6C0EA40EB02000401200604070409280F2010301208142018041A401C201F0120402204271529212E203080312032083606371038643A4069
:401900003C803D203E0940144108482049215010581059015A4862019E01C046C226C426CA25CCEECEFED006D204D60FD8019E019E018201E608EE08E81000020104041F94
:401940000508081C0A030B040D10120313031403151C17021813191C1A0C1B011C1F2008211F240425072718280C29182C013210340F351F3AA03B203E045602571158048B
:4019800059045B045C115D105F01850386058A038B01980699029A01A202A601A903AA06B103B407B802B902BA20BE01BF01C004C540C9FFCA07CBFFCC40CD20CEF0CF0596
:4019C000D008D804D904DA04DC01DD01DF01E040E1A8E240E320000401200501071409200C510E29108012181682172819321E1920402510270429102C102E2131203401EF
:401A00003602371438343CA03E8A40404880501052105E106C206D9074407628772890049302941096019A449B119C209D209E28A010A4C0A530A60EA710C076C2F2C4FEF4
:401A4000CAE4CCE4CEF6D001D620E8100505071809020B0C173019301B0D1F2029052B382D4031403303353C39083B203F0159045C105F010440054007540C200E201004D6
:401A800013201450151016021C401D811F08212122082612276029102A402C202E0230803120320835403610370138243D903F014450458046044E024F0157105E026404DE
:401AC00065026702820183088502882089018A02902491109302985099109A449B159C209D019E02A0A0A140A520A61AA710AD02C0F0C260C4F0CACCCCBECEB6D0F0D210E8
:401B0000D680D8B0328035808180CC30E220A680A6801810A680C6105004D404940894086408A680B410D8808680A680AC08E610EE10B404E8081040734088408B40C40801
:401B4000DC01E004E20100020C0210021C02000F80004080800080000000000000020200020000000000031000000300000F03000A08240000000010030010000C01000698
:401B80000004000103020001030F00000C000000050028000C0803100007300000000000000040043504020001E0C0000AFFFFFF62A0F0410C0000001800040004040404DF
:401BC0001111000100000000000040020010301000101012000000000000000000000000000000006910162E00320101F8B500BFF8BC08BC9E46704751000000E900000054
:401C0000F8B500BFF8BC08BC9E4670472D000000201C00000881FF1F20000000C0000000000000005C170000601700000000E02EC05D00001800000000366E010000000063
:401C40000000000000000000000000000000000000000000000000000000000000000000000000000000000000000000000000000000000000000000000000000000000064
:401C80000000000000000000000000000000000000000000000000000000000000000000000000000000000000000000000000000000000000000000000000000000000024
:401CC00000000000000000000000000000000000000000000000000000000000000000000000000000000000000000000000000000000000000000000000000000000000E4
:401D000000000000000000000000000000000000000000000000000000000000000000000000000000000000000000000000000000000000000000000000000000000000A3
:020000040003F7
:40FFC00000000000000000000000000000000000000000000100010000000000000000000000000000000000000000000000000000000000000000000000000000000000FF
:0200000480007A
:4000000000000000000000000000000000000000000000000000000000000000000000000000000000000000000000000000000000000000000000000000000000000000C0
:400040000000000000000000000000000000000000000000000000000000000000000000000000000000000000000000000000000000000000000000000000000000000080
:400080000000000000000000000000000000000000000000000000000000000000000000000000000000000000000000000000000000000000000000000000000000000040
:4000C0000000000000000000000000000000000000000000000000000000000000000000000000000000000000000000000000000000000000000000000000000000000000
:0200000490006A
:0400000000004005B7
:0200000490105A
:04000000BC90ACAF55
:0200000490303A
:02000000D0022C
:0200000490402A
:4000000000000000000000000000000000000000000000000000000000000000000000000000000000000000000000000000000000000000000000000000000000000000C0
:400040000000000000000000000000000000000000000000000000000000000000000000000000000000000000000000000000000000000000000000000000000000000080
:400080000000000000000000000000000000000000000000000000000000000000000000000000000000000000000000000000000000000000000000000000000000000040
:4000C0000000000000000000000000000000000000000000000000000000000000000000000000000000000000000000000000000000000000000000000000000000000000
:0200000490501A
:0C00000000012E16106900012E1FE06B9D
:00000001FF