:4000000000800020110000001D0D00001D0D000080B500AF024A034B1B68136000F0B4FEBC760040FA46004010B5054C237833B9044B13B10448AFF300800123237010BD11
:400040009081FF1F00000000A48A0000084B10B51BB108480849AFF300800848036803B910BD074B002BFBD0BDE81040184700BF00000000A48A00009481FF1F0881FF1FD5
:4000800000000000154B002B08BF134B9D46A3F5803A00218B460F461348144A121A07F0E8FF0F4B002B00D098470E4B002B00D098470020002104000D000D48002802D049
:4000C0000C48AFF3008007F093FF2000290000F05FF907F079FF00BF000008000000000000000000000000009081FF1F7088FF1F000000000000000080B487B000AF786003
:4001000000233B750123FB74A2E001237B750023FB7592E07B7D03F00103DBB2002B40F08280514B9B78DAB27B7D1340DBB2002B79D10023FB607B681B79002B02D04FF428
:400140000013FB607B685B79002B09D1FB7D1A01464B134404337A68126852051A600CE0FB6843F48013FB60FB7D1A013F4B134404337A681268D2001A607B689B79072B86
:4001800006D87B689B791B04FA681343FB6003E0FB6843F40023FB607B68DB79002B03D0FB6843F00403FB600023BB7517E0FB7D1A012E4B1344BA7D032A03D9BA7DC2F139
:4001C0000B0202E0BA7DC2F1030279688868B97D415C13440A461A72BB7D0133BB757B689B79BA7D9A4202D2BB7D072BDFD9204B4FF480321A60FB7D1A011C4B13441A4623
:40020000FB6843F4000343F008031360FB7D1A01164B13441A4601231360164B4FF480321A600023FB747B7D5B007B75FB7C002B00D106E0FB7D0133FB75FB7D072B7FF6F5
:4002400069AFFB7C002B00D106E03B7D01333B753B7D022B7FF659AFFB7C18461C37BD465DF8047B704700BF08A0004020A0004080E100E000E100E080B483B000AF034651
:40028000FB71FB79072B12D8FB791A010A4B1344FA791101084A0A441278D2B2D2B222F00302D2B242F00202D2B2D2B21A700C37BD465DF8047B704720A0004080B483B0B5
:4002C00000AF0023FB711D4B1B78DBB203F00103002B02D00123FB7129E0194B00221A701BE0164A164B1B78032B04D9144B1B78C3F10B0303E0124B1B78C3F103031049A7
:40030000097808460F49095C13440A461A720C4B1B780133DAB20A4B1A70094B1B78072BDFD9064A054B1B6843F001031360FB7918460C37BD465DF8047B704720A0004034
:400340001883FF1F6C84FF1F80B483B000AF0346FB71FB795A010D4B13441B78DBB203F00103002B0DD0FB795A01084B1344FA795101064A0A441278D2B242F00102D2B2AB
:400380001A700C37BD465DF8047B7047A0A0004080B596B000AF04F051FC01F08DF805F067F905F029FF06F041F806F059F906F071FA002005F074F905F0C4FA3A4800F090
:4003C00005FA3A4800F002FA394800F0FFF9394800F0FCF9384800F0F9F9384800F0F6F9374800F01FFA374800F01CFA62B6002387F85730002387F856302B48012100F005
:4004000055FC2A48012100F051FC2948002100F04DFC2848002100F049FC2748002100F045FC2648002100F041FC2548012100F03DFC2448012100F039FC1B480021322249
:40044000012300F09DF9194801213222012300F097F9174802210122012300F091F9154803210122012300F08BF9134804210122012300F085F9114805210122012300F0ED
:400480007FF90F4802210A22012300F079F90D4803210A22012300F073F90B4801F040FB00F0EEF9FCE700BF8084FF1F2485FF1F7482FF1FC885FF1F1087FF1F6C86FF1F4E
:4004C000C483FF1F1C83FF1FD08A000090B583B000AF78607B6893F89830184605F0E0F804F0E0FC002004F00DFD0346002B2CD07B68D3F894207B6893F89930796808330D
:400500005B000B445B88D21A7B68C3F894207B6893F899301C4604F02BFD034699B27A6804F108035B0013440A465A807B68D3F894207B6893F89930796808335B000B448A
:400540005B881A447B68C3F894207B6893F899300133DAB27B6883F899207B6893F899207B6893F89A309A4203D17B68002283F899207B68D3F894307A6892F89A20B3FB4C
:40058000F2F39BB21BB2184604F080FD03461A467B68A3F8A0207B68002283F89B200C37BD4690BD90B583B000AF78607B6893F89830002B60D17B68D3F894207B6893F857
:4005C0009930796808335B000B445B88D21A7B68C3F894207B6893F899301C4605F074FE034619467A6804F108035B0013440A465A80002005F058FE7B68D3F8A0407B6809
:4006000093F899307A6808335B0013445B88184607F054F803462046194606F09BFF03461A467B68C3F8A0207B68D3F8A0407B6893F89A30184607F041F80346204619460C
:4006400007F044F9034618464C4907F08BF803461C4606F06DF80346184607F02FF803462046194607F032F903461A467B68C3F8A420002006F04CF87B6893F89830012BCE
:4006800060D17B68D3F894207B6893F89930796808335B000B445B88D21A7B68C3F894207B6893F899301C4605F028FF034619467A6804F108035B0013440A465A8000204E
:4006C00005F00CFF7B68D3F8A0407B6893F899307A6808335B0013445B88184606F0EEFF03462046194606F035FF03461A467B68C3F8A0207B68D3F8A0407B6893F89A303D
:40070000184606F0DBFF03462046194607F0DEF803461846194907F025F803461C4606F021F90346184606F0C9FF03462046194607F0CCF803461A467B68C3F8A42000207F
:4007400006F000F97B6893F899300133DAB27B6883F899207B6893F899207B6893F89A309A4203D37B68002283F899207B68002283F89B200C37BD4690BD00BF0050C3474B
:4007800080B483B000AF7860084611461A460346FB700B46BB7013463B807B68FA7883F898207B68BA7883F89A207B683A88A3F89E20BB783F2B03D97B68402283F89A203F
:4007C0000C37BD465DF8047B704700BF80B485B000AF78600023FB607B680022C3F894207B680022A3F8A0207B68002283F899207B68002283F89B200023FB6009E07A686A
:40080000FB6808335B00134400225A80FB680133FB60FB683F2BF2DD1437BD465DF8047B704700BF80B485B000AF78600023FB607B684FF00002C3F8A0207B684FF0000215
:40084000C3F8A4207B68002283F899207B68002283F89B200023FB6009E07A68FB6808335B00134400225A80FB680133FB60FB683F2BF2DD1437BD465DF8047B704700BFCA
:40088000B0B59AB002AF002387F85F30002387F85E30C94A07F15403106818609188927999809A711DE0C54B1B781C4600F0DEFE03461A46C24B1A55C04B1B781A46C04BE1
:4008C0009B5C184601F0D0F8BC4B1B781E2B02D9BA4B00221A70B94B1B780133DAB2B74B1A7000F0ABFF0346002BDCD1B34B1B78013BB34AD35C0D2B07D0B04B1B78013B0B
:40090000AF4AD35C0A2B40F05381AC4B1B78013BAB4A0021D15407F15403A9481946072207F08CFB0346002B40F04281A54800F0CDF9A54800F0CAF9A44800F0C7F9A448DD
:4009400000F0C4F9A34800F0C1F9A34800F0BEF9A24800F0BBF9A24800F0B8F99948002100F0A4F99848002100F0A0F99748002100F09CF99648002100F098F9954800216E
:4009800000F094F99448002100F090F99348002100F08CF99248002100F088F9002387F85F3009E097F85F30854A0021D15497F85F30013387F85F3097F85F301F2BF1D988
:4009C0003B1D884A1C4615460FCD0FC495E80F0007C423803B1D184601F0A2F8E1E000F045FE034687F85E3097F85E30184601F03BF897F85E30592B04D097F85E30792B07
:400A000040F0CF803B1D784A1C4615460FCD0FC495E8070003C422803B1D184601F080F8684B93F89C301D46664BB3F89E301C46644B93F89A301A463B1D009218466B494C
:400A40002A46234607F03EFB3B1D184601F068F85D4B93F89C301D465B4BB3F89E301C46594B93F89A301A463B1D0092184660492A46234607F026FB3B1D184601F050F859
:400A8000524B93F89C301D46504BB3F89E301C464E4B93F89A301A463B1D0092184655492A46234607F00EFB3B1D184601F038F8474B93F89C301D46454BB3F89E301C46CE
:400AC000434B93F89A301A463B1D009218464A492A46234607F0F6FA3B1D184601F020F83C4B93F89C301D463A4BB3F89E301C46384B93F89A301A463B1D009218463F49B0
:400B00002A46234607F0DEFA3B1D184601F008F8314B93F89C301D462F4BB3F89E301C462D4B93F89A301A463B1D0092184634492A46234607F0C6FA3B1D184600F0F0FFC4
:400B4000264B93F89C301D46244BB3F89E301C46224B93F89A301A463B1D0092184629492A46234607F0AEFA3B1D184600F0D8FF1B4B93F89C301D46194BB3F89E301C46D0
:400B8000174B93F89A301A463B1D009218461E492A46234607F096FA3B1D184600F0C0FF05E000F04BFE0346002B7FF418AF15E76037BD46B0BD00BF208C0000C081FF1F11
:400BC000C481FF1F8084FF1F2485FF1F7482FF1FC885FF1F1087FF1F6C86FF1FC483FF1F1C83FF1FE48A0000048B0000208B0000408B0000608B0000808B0000A08B0000AF
:400C0000C08B0000E08B0000008C000090B482B000AF0446084611461A462346FB710346BB710B467B7113463B710E4AFB7913700C4ABB7953700B4A7B799370094A3B7983
:400C4000D370084A3B7C1371064A3B7D5371054A3B7E9371034A3B7FD3710837BD4690BC704700BF6C84FF1F80B483B000AF78600B46FB707B68FA7883F89B200C37BD46F4
:400C80005DF8047B704700BF80B483B000AF78607B68B3F89E304CF25032B2FBF3F39BB218460C37BD465DF8047B704780B483B000AF78600B46FB707B68FA7883F89C209B
:400CC0000C37BD465DF8047B704700BF80B483B000AF78607B6893F898301A467B6893F89C10034B99540C37BD465DF8047B7047B881FF1F80B483B000AF78607B6893F807
:400D000098301A46044B9A5C7B6883F89C200C37BD465DF8047B7047B881FF1F80B400AFFEE700BF80B582B000AF78607B68DBB2184602F097F9FEE780B584B000AF78606A
:400D40000F4B1A687B6813441A460E4BD31A802B09DC0B4B1B68FB60094B1A687B681344074A136007E007F029F902460C2313604FF0FF33FB60FB6818461037BD4680BD21
:400D80001081FF1F7088FF1F80B586B000AF224B7B61224B3B61204B7B6135E03B691B68FB603B695B68BB603B699B683B6000237B600CE0FB681A68BB681A60BB6804339A
:400DC000BB60FB680433FB607B6804337B607A683B689A42EED13B69DB683B6000237B6008E0BB6800221A60BB680433BB607B6804337B607A683B689A42F2D13B69103332
:400E00003B617B69013B7B617B69002BC6D107F0EFF8FFF7BDFAFEE701000000808E000080B582B000AF174B174A1A60174A174B1B6843F40073136000237B600FE07B686F
:400E4000032B04D8124A7B6852F8233000E0114B11497A6841F822307B6801337B607B682F2BECD90D4B1B78DAB20D4B1A700D4B094A1A6000F060FA0B4B00221A6008379C
:400E8000BD4680BD0CED00E00004FA0514ED00E0000000001D0D00000080FF1FBC7600400481FF1F08ED00E00081FF1F80B582B000AF78603960786800213A6807F0D9F8F2
:400EC0000837BD4680BD00BF80B584B000AFF860B9607A60F868B9687A6807F0BFF81037BD4680BD80B584B000AFF860B9607A60F868B9687A6807F0B1F81037BD4680BDCC
:400F000080B483B000AF0346FB71FEE780B487B000AF7860396000233B6100237B6127E07B699B007A6813441B68BB60BB68FB73BB6823F0FF03BB6014E03B695B003A68E2
:400F400013441B781A46BB68134419463B695B003A6813445B780B703B6901333B61FB7B013BFB73FB7B002BE7D17B6901337B617B69202BD4D91C37BD465DF8047B70476A
:400F800080B582B000AF3C4B02221A803B4B18221A703B4B03221A803A4B18221A703A4B05221A80394B18221A70394B47221A80384B18221A70384B4D221A80374B18225A
:400FC0001A70374B02221A704FF0402308221A70344B03221A70344B344A1278D2B21A70334B18221A80334B42F251221A800023FB7019237B6014E0FB785B00DAB22E4BA1
:401000001B78DBB203F00103DBB21343DBB203F00303FB704FF4F07001F05EF97B68013B7B607B68002B02D0FB78032BE4D17B68002B02D10320FFF763FF204B4FF48072AE
:401040001A801E4B07221A701D4B00221A701D4B48221A70194B00221A701B4B02221A701A4A1A4B1B78DBB243F01F03DBB213700837BD4680BD00BF804000408240004098
:401080008440004086400040884000408A4000408C4000408E40004090400040924000400043004000420040A14600400801004922420040204200402542004004400040E9
:4010C000064000400840004001400040A243004080B582B000AF1F4B1B78FB711E4B1B78BB711E4B1B787B711D4AFB7903F00703DBB213701B4AFB791B09DBB21370164A58
:40110000BB7943F00303DBB21370144A7B7943F00303DBB21370144B40221A70134B40221A70134B30221A70124B20221A70124BD0221A700A2001F0D3FF084A7B79137010
:40114000054ABB7913700D4B44221A700837BD4680BD00BFCF010049F8460040F94600406E5800406F5800400159004003590040985A0040235B0040585B00407658004099
:4011800080B485B000AF0346FB710B4B1B78FB73FB79002B04D0FB7B43F02203FB7303E0FB7B23F02203FB73034AFB7B13701437BD465DF8047B70477658004080B485B0C7
:4011C00000AF0346FB71FB79012202FA03F3FB73FB79052B3BD8204B1A78FB7B1340DBB2002B34D11C4B1A78FB7B1343DAB21A4B1A70FB79194A52F82330FA79174951F88A
:4012000022201178FA791648825C0A43D2B21A70FB79144AD35CBB73BB7B134AD35C002B0ED1BB7B114A52F82330BA7B0F4951F822201178BA7B0E48825C0A43D2B21A704B
:40124000BB7B094AD25C0132D1B2074AD1541437BD465DF8047B7047E481FF1F288C0000408C0000588C0000E881FF1F488C0000548C000080B485B000AF0346FB71FB794F
:40128000012202FA03F3FB73FB79052B41D8234B1A78FB7B1340DBB2002B3AD0FB7BDB43DAB21E4B1B781340DAB21C4B1A70FB791B4A52F82330FA79194951F82220117818
:4012C000FA791848825CD243D2B20A40D2B21A70FB79154AD35CBB73BB7B144AD25C013AD1B2124AD154BB7B104AD35C002B10D1BB7B0F4A52F82330BA7B0D4951F822200E
:401300001178BA7B0B48825CD243D2B20A40D2B21A701437BD465DF8047B7047E481FF1F288C0000408C0000588C0000E881FF1F488C0000548C000080B586B000AF72B690
:401340004A4B60221A70FFF71BFE494A484B1B78DBB243F00403DBB213700023FB7513E0FA7D13465B0013445B00424A13443B613B691A683B699B889BB210461946FFF766
:4013800095FDFB7D0133FB75FB7D092BE8D90023FB751CE0FA7D13469B0013445B00364A1344FB60FB681B68BB60FB685B687B60FB681A7A5B7A1B0213437B807B88B868D5
:4013C00079681A46FFF780FDFB7D0133FB75FB7D012BDFD94FF090402849FFF797FD284A274B1B78DBB243F00203DBB21370254A244B1B78DBB243F00203DBB21370224AB9
:40140000214B1B78DBB243F04003DBB213701F4A1E4B1B78DBB243F01003DBB213701C481C490822FFF750FD1B481C490A22FFF74BFD1B481B490A22FFF746FD1A481B49F8
:401440000822FFF741FD1A4A194B1B78DBB243F00803DBB21370FFF73BFE16480A490E22FFF732FD1837BD4680BD00BF00480040E8460040608C00009C8C0000840000487F
:401480000350014013500140A0430040C243004002510040C4070048C0510040CC07004810510040D807004832510040E407004822430040B043004080B500AF054B1B781D
:4014C000002B04D100F008F8024B01221A7000F039F880BDEC81FF1F80B500AF0120114902F0E2F80120072102F022F90E4B00221A700E4B72221A700D4B20221A700220D6
:401500000C4902F0D1F80220072102F011F90A4B06221A70094B47221A70094B02221A7080BD00BF5D1D0000EF81FF1F8965004088640040351E00002864004038640040AC
:401540008A64004080B582B000AF00F0E4FE0346FB71154A144B1B78DBB243F02003DBB21370124A114B1B78DBB243F01003DBB213700F4B02221A600E4A0E4B1B78DBB265
:4015800043F01003DBB213700B4B04221A60084B04221A6000F086FCFB79184600F0BFFE0837BD4680BD00BF996500409864004000E100E09A64004080E200E080B582B09B
:4015C00000AF00F0A8FE0346FB71134A124B1B78DBB223F02003DBB2137000F07DFC0F4A0E4B1B78DBB223F01003DBB213700C4B02221A600B4A0B4B1B78DBB223F010037A
:40160000DBB21370064B04221A60FB79184600F086FE0837BD4680BD996500409864004080E100E09A64004080B400AF00231846BD465DF8047B704780B483B000AF03469A
:40164000FB710C37BD465DF8047B704780B483B000AF0346FB71044AFB7913700C37BD465DF8047B704700BF8864004080B483B000AF1C4B02221A601B4B1B78BB711B4BBB
:401680001B787B711A4B1B78DBB2002B03D1BA797B799A4218D0BB79164AD35CFB71BB790133BB71BB794F2B01D90023BB710E4ABB7913700E4B1B78DBB2002B03D00C4BC5
:4016C00000221A7003E002E00B4B1B78FB710B4B02221A60FB7918460C37BD465DF8047B704700BF80E100E0F081FF1FF181FF1FF281FF1F0888FF1F4A65004000E100E07F
:4017000080B483B000AF0C4B1B78DBB203F07F03FB710A4B1B78DBB2002B06D0FB7963F07F03FB71054B00221A70FB7918460C37BD465DF8047B704768640040F381FF1FD3
:4017400080B483B000AF0023FB71234B02221A60224B1B78BB71224B1B787B71214B1B78DBB2002B03D1BA797B799A4218D0BB791D4AD35CFB71BB790133BB71BB794F2BB2
:4017800001D90023BB71154ABB791370154B1B78DBB2002B03D0134B00221A7012E011E0124B1B783B713B7903F02003002B09D00F4B1B78FB713B7903F01E03002B01D0F8
:4017C0000023FB710B4B02221A60FB7918460C37BD465DF8047B704780E100E0F081FF1FF181FF1FF281FF1F0888FF1F686400404A65004000E100E090B583B000AF0C4BEA
:4018000002221A600B4B1B78FB800A4B00221A70094B02221A60FB881B029CB2FFF726FF03469BB223439BB218460C37BD4690BD80E100E0EF81FF1F00E100E080B483B079
:4018400000AF1D4B02221A601C4B1B78DAB21C4B1B78DBB29A420AD11A4B1B78DBB2002B02D05023FB711DE00023FB711AE0134B1B78DAB2124B1B78DBB29A4208D2104BFD
:401880001B78DAB20D4B1B78DBB2D31AFB7109E00B4B1B78DAB2094B1B78DBB2D31ADBB25033FB71084B02221A60FB7918460C37BD465DF8047B704780E100E0F081FF1F99
:4018C000F181FF1FF281FF1F00E100E080B582B000AF00F020FD0346FB71144A134B1B78DBB243F00103DBB21370104A0F4B1B78DBB223F00103DBB21370FB79184600F04E
:401900000EFD0B4B02221A600A4B00221A700A4B00221A70094B00221A70094B00221A70084B02221A600837BD4680BD9A65004080E100E0F081FF1FF181FF1FF281FF1F06
:40194000F381FF1F00E100E080B483B000AF0346FB710C37BD465DF8047B704780B483B000AF0346FB71044AFB7913700C37BD465DF8047B704700BF2A65004080B483B0A2
:4019800000AF0346FB71044AFB7913700C37BD465DF8047B704700BF3A65004080B483B000AF0346FB71044AFB7913700C37BD465DF8047B704700BF8A64004080B483B0DA
:4019C00000AF0346FB711A4B1B78002B2AD0194B04221A60184B1B78DAB2184B1B789A420AD1174B1B78DBB203F00403002B03D1144AFB79137012E0104B1B784F2B02D92E
:401A00000E4B00221A700D4B1B7819460E4AFB7953540A4B1B780133DAB2084B1A700B4B04221A600C37BD465DF8047B704700BFEC81FF1F80E100E0ED81FF1FEE81FF1FF4
:401A40006A64004049640040B887FF1F00E100E080B400AF034B1B78DBB21846BD465DF8047B70476A64004080B485B000AF0346FB71254B1B78FB73244B1B78BB73FA7B1F
:401A8000BB7B9A4208D2FA7BBB7B013B9A420CBF01230023DBB207E0FA7BBB7BD31A4F2B0CBF01230023DBB2002BE2D1BA7BFB7B9A420AD1164B1B78DBB203F00403002B5A
:401AC00003D1144AFB79137018E0FB7B4F2B01D90023FB73FB7B1049FA79CA54FB7B0133FB73094AFB7B1370094B1B78DBB203F00203002B02D0094B04221A601437BD46FB
:401B00005DF8047B704700BFEE81FF1FED81FF1F6A64004049640040B887FF1F00E200E080B584B000AF78600023FB810B4B1B78002B10D009E0FB897A6813441B7818460E
:401B4000FFF792FFFB890133FB81FB897A6813441B78002BEFD11037BD4680BDEC81FF1F80B584B000AF78600B46FB700023FB730A4B1B78002B0ED009E0FB7B7A68134497
:401B80001B781846FFF770FFFB7B0133FB73FA7BFB789A42F1D31037BD4680BDEC81FF1F80B582B000AF0346FB71084B1B78002B09D0FB791846FFF757FF0D20FFF754FFD4
:401BC0000A20FFF751FF0837BD4680BDEC81FF1F80B483B000AF174B04221A60164B1B78DAB2164B1B789A4202D10023FB7117E0114B1B78DAB2114B1B789A4207D20F4B31
:401C00001A780D4B1B78DBB2D31AFB7108E00B4B1A78094B1B78DBB2D31ADBB25033FB71074B04221A60FB7918460C37BD465DF8047B704780E100E0ED81FF1FEE81FF1FA5
:401C400000E100E080B582B000AF00F064FB0346FB71114A104B1B78DBB243F00103DBB213700D4A0C4B1B78DBB223F00103DBB21370FB79184600F052FB084B04221A6075
:401C8000074B00221A70074B00221A70064B04221A600837BD4680BD9964004080E100E0ED81FF1FEE81FF1F00E100E080B485B000AF0346FB711F4B1B78002B35D0FB79F2
:401CC000002B02D0FB79032B12D11B4B1B78DAB21A4B1A70184B67221A70194B00221A70184B1B78FB73FB7B03F00203002BF7D1FB79012B02D0FB79032B09D1114B1B78C6
:401D0000FB73FB7BDB43DBB203F00103002BF5D1FB79012B05D0FB79022B02D0FB79032B03D1054B054A12781A701437BD465DF8047B7047EC81FF1F38640040F481FF1F48
:401D4000496400406A64004080B483B000AF0346FB710C37BD465DF8047B704780B483B000AF0023FB712B4B1B78BB71BB797B71BB7903F01E03002B0BD0BB7903F01E033C
:401D8000DAB2254B1B78DBB21343DBB2DAB2224B1A70BB7903F02003002B30D01F4B1B787B711F4B1B78DBB219461E4A7B7953540123FB71FB79002B21D01B4B1B78DBB2B1
:401DC000002B02D0194B01221A70154B1B78DBB20133DAB2124B1A70114B1B78DBB24F2B02D90F4B00221A700D4B1B78DAB2104B1B78DBB29A4202D10B4B01221A70BB79FF
:401E000003F02003002BAED10C37BD465DF8047B704700BF68640040EF81FF1F4A650040F181FF1F0888FF1FF281FF1FF381FF1FF081FF1F80B400AF17E0154B1B78DBB27F
:401E40004F2B02D9124B00221A70124B104A1278D2B21146104A525CD2B21A700C4B1B78DBB20133DAB20A4B1A70094B1B78DAB20A4B1B789A4206D0094B1B78DBB203F048
:401E80000403002BD9D0BD465DF8047B704700BFED81FF1F49640040B887FF1FEE81FF1F6A64004080B400AF094A094B1B78DBB243F01003DBB21370064A064B1B78DBB2C8
:401EC00043F01003DBB21370BD465DF8047B7047A2430040B243004080B400AF094A094B1B78DBB223F01003DBB21370064A064B1B78DBB223F01003DBB21370BD465DF875
:401F0000047B7047A2430040B243004080B483B000AF224B1B78DBB203F01003002B37D01F4B00221A701F4B10221A701E4B00221A701E4A1D4B1B78DBB203F07F03DBB2F3
:401F400013701B4B1B88FB801A4AFB881380144B07221A7000BF124B1B78DBB203F00103002BF8D10D4A0D4B1B78DBB223F01003DBB21370104A104B1B78DBB223F01003A7
:401F8000DBB21370064B00221A70094AFB8813800C37BD465DF8047B704700BFA2430040014000401040004014400040084000409040004002400040B243004080B483B09B
:401FC00000AF0346FB71FB79002B08D10A4A0A4B1B78DBB223F01003DBB2137007E0064A054B1B78DBB243F01003DBB213700C37BD465DF8047B7047B243004080B584B09A
:4020000000AF03460A46FB8013467B7100F054F90346FB7300F0A2F80346BB81FA88BB899A4200F08780454B1B78DBB203F01003FB72FB7B002B20D1BB89002B02D0FB8883
:40204000002B1AD1BB89002B0BD13D4AFB8813803C4A3C4B1B78DBB223F04003DBB2137068E0384A374B1B78DBB243F04003DBB21370334AFB8813805CE0FB7A002B33D06B
:40208000314B00221A70314B10221A70304B00221A70304A2F4B1B78DBB203F07F03DBB21370284B1B78DBB203F00803002B02D0FB88002B18D1284ABB891380224B0722FC
:4020C0001A7000BF204B1B78DBB203F00103002BF8D11A4A194B1B78DBB223F01003DBB21370194B00221A70144B1B78DBB203F01003002B13D0184AFB881380124A7B7998
:40210000002B01D0032300E00123137000BF0E4B1B78DBB203F00103002BF8D10AE0084AFB8813800549054B1B78DAB2FB7A1343DBB20B701037BD4680BD00BFA243004086
:402140009040004092400040014000401040004014400040084000400240004080B400AF034B1B889BB21846BD465DF8047B70479040004080B483B000AF0346FB71094B52
:40218000084A1278D2B2D1B2FA7922F00702D2B20A43D2B2D2B21A700C37BD465DF8047B704700BF9240004080B483B000AF0346FB710949084B1B78DAB2FB79DB43DBB2FB
:4021C00043F00703DBB21340DBB20B700C37BD465DF8047B704700BF9240004080B400AF054B1B78DBB223F00703DBB21846BD465DF8047B704700BF9240004080B584B0F5
:4022000000AF0346FB71FFF7A9FF0346FB8100F053F803467B737B7B002B1BD0FB79002B18D1FB89002B15D1224A224B1B78DBB243F04003DBB213701E4B1E4A1278D2B2DE
:40224000D2B222F00702D1B2FA790A43D2B2D2B21A702BE07B7B002B1BD1FB79002B18D0FB89002B15D1134B124A1278D2B2D2B222F00702D1B2FA790A43D2B2D2B21A707A
:402280000C4A0C4B1B78DBB223F04003DBB213700CE0084B074A1278D2B2D2B222F00702D1B2FA790A43D2B2D2B21A701037BD4680BD00BF9240004080B400AF054B1B78BB
:4022C000DBB203F00703DBB21846BD465DF8047B704700BF92400040142816D902B4012114381049097811F0C001890904B40E4A515C04BC00BF00BF00BF8841FDD500BF79
:4023000000BF02BC704700BF00BF70F10400FCD570470B050709EFF3108072B6704780F3108870470048004012230000AFF3008080B584B000AF0346FB710023FB60234A34
:40234000224B1B78DBB243F00103DBB21370FB79002B36D01E4B1B78DBB203F00403FB721C4B1B78BB721C4B1B787B72182002F085F91023FB6010E0184B1B78DBB203F04A
:402380000103002B09D0154B1B78DBB203F00103002B02D00023FB6008E0012002F03AF8034603F00103DBB2002BE5D0FB7A002B01D100F0F5FB074ABB7A1370064A7B7AA9
:4023C0001370FB6818461037BD4680BD204200400043004080430040824300402542004080B400AF054A054B1B78DBB223F00103DBB21370BD465DF8047B70472042004045
:4024000080B582B000AF0346FB710B46BB7113467B711B4B1B78DBB203F00103002B02D0002000F01FFEFB79072B23D9BB79102B20D8BB79002B1DD07B79002B1AD07B7916
:40244000072B17D80F4AFB7913700F4ABB79013BDBB213700D490D4B1B78DBB223F07003DAB27B79013BDBB21B01DBB21343DBB20B7002E0002000F0F5FD0837BD4680BD0B
:402480002042004022420040234200402142004080B582B000AF0346FB71114B1B78DBB203F00103002B02D0002000F0DBFDFB790033022B0DD84FF040214FF040231B78DD
:4024C000DBB223F00303DAB2FB791343DBB20B7003E0002000F0C6FD00BF0837BD4680BD2042004080B584B000AF0346FB711D4A1C4B1B78DBB243F01003DBB213701A4ACD
:40250000194B1B78DBB243F01003DBB21370FB79002B23D0154B1B78DBB203F00403FB73134B1B78BB73134B1B787B73002002F0A5F800BF012001F06DFF034603F001031D
:40254000DBB2002BF6D0FB7B002B01D100F028FB074ABB7B1370074A7B7B13701037BD4680BD00BFA0430040B043004000430040804300408243004080B400AF094A094BD2
:402580001B78DBB223F01003DBB21370064A064B1B78DBB223F01003DBB21370BD465DF8047B7047A0430040B043004080B483B000AF0023FB71124B1B78DBB203F00703CB
:4025C000002B06D10F4B1B78DBB203F00103002B0DD10B4B1B78DBB203F00703012B08D1094B1B78DBB203F00103002B01D00123FB71FB7918460C37BD465DF8047B70474D
:4026000093430040A5430040B543004080B584B000AF0346FB71FFF7C9FF0346FB73FB7B012B07D1314A314B1B78DBB223F00203DBB21370FB79082B50D801A252F823F05A
:4026400065260000712600007D2600008926000095260000A1260000AD260000DD260000B9260000224B234A1278D2B21A7039E01F4B214A1278D2B21A7033E01C4B1F4AD4
:402680001278D2B21A702DE0194B1D4A1278D2B21A7027E0164B1B4A1278D2B21A7021E0134B194A1278D2B21A701BE0104B174A1278D2B21A7015E00D4B154A1278D2B24A
:4026C0001A70FB7B012B08D1084A084B1B78DBB243F00203DBB2137004E003E0002000F0C1FC00BF1037BD4680BD00BF09600040A146004008010049090100490A01004966
:402700000B010049890100490C0100490D0100490F01004980B584B000AF0346FB71674B1B78DBB203F00703FB73FB79082B01D0FB7900E00323BB73FB7B062B25D801A2FA
:4027400052F823F061270000672700006D27000073270000792700007F270000852700000223FB7315E00123FB7312E00323FB730FE00023FB730CE00423FB7309E0052314
:40278000FB7306E00623FB7303E0002000F06AFC00BFBA7BFB7B9A4203D3FB791846FFF735FFFB79082B72D801A252F823F000BFD5270000ED270000052800001728000091
:4027C0002F280000472800005F2800008F28000077280000394A394B1B78DBB223F04703DBB243F00303DBB2137054E0334A334B1B78DBB223F04703DBB243F00103DBB2DF
:40280000137048E02D4A2D4B1B78DBB223F04703DBB213703FE0294A284B1B78DBB223F04703DBB243F00203DBB2137033E0234A224B1B78DBB223F04703DBB243F00403E9
:40284000DBB2137027E01D4A1C4B1B78DBB223F04703DBB243F00503DBB213701BE0174A164B1B78DBB223F04703DBB243F00603DBB213700FE0114A104B1B78DBB223F033
:402880004703DBB243F04203DBB2137003E0002000F0E8FB00BFFB79082B02D100F056F801E000F063F8BA7BFB7B9A4203D2FB791846FFF7ABFE1037BD4680BD004200406A
:4028C00080B582B000AF0346FB71FB79012B17D0022B02D0002B26D02EE04FF040224FF040231B78DBB223F04003DBB21370164A154B1B78DBB243F02003DBB213701FE04A
:402900004FF040224FF040231B78DBB243F04003DBB213700C4A0C4B1B78DBB243F02003DBB213700CE0084A074B1B78DBB223F02003DBB2137003E0002000F093FB00BF45
:402940000837BD4680BD00BF0042004080B400AF054A054B1B78DBB243F01003DBB21370BD465DF8047B70470042004080B400AF054A054B1B78DBB223F01003DBB21370B7
:40298000BD465DF8047B70470042004080B483B000AF0346FB710949084B1B78DBB223F00303DAB2FB7903F00303DBB21343DBB20B700C37BD465DF8047B70470540004024
:4029C00080B483B000AF0346FB71044AFB7913700C37BD465DF8047B704700BF0440004080B483B000AF0346FB80154A144B1B78DBB223F00F03DBB21370124B00221A70BD
:402A0000114A114B1B78DBB263F07F03DBB213700E4BFA88D2B21A700D4AFB881B0A9BB2DBB213700B4A0B4B1B78DBB243F00103DBB213700C37BD465DF8047B704700BFF3
:402A400014400040104000400840004002400040034000400140004080B584B000AF0346FB80FFF758FC0346FB73244B1B78DBB29BB21B02BB81224B1B78DBB29AB2BB89F5
:402A80001343BB81FB88002B02D0BB89002B29D11C4B1B78FB72FB7A062B02D80720FFF78FFFFB88002B0CD1174A174B1B78DBB243F04003DBB21370FB881846FFF790FFAF
:402AC0000BE0FB881846FFF78BFF0F4A0E4B1B78DBB223F04003DBB21370FB7A1846FFF76FFF03E0FB881846FFF77AFFFB7B1846FFF715FC1037BD4680BD00BF0740004040
:402B000006400040044000400840004080B483B000AF0346FB710949084B1B78DBB223F00303DAB2FB7903F00303DBB21343DBB20B700C37BD465DF8047B7047094000401C
:402B400080B400AF054A054B1B78DBB243F00203DBB21370BD465DF8047B70470043004080B400AF054A054B1B78DBB223F00203DBB21370BD465DF8047B7047004300407F
:402B800080B400AF054A054B1B78DBB243F00403DBB21370BD465DF8047B70470043004080B400AF054A054B1B78DBB223F00403DBB21370BD465DF8047B7047004300403B
:402BC00080B400AF054A054B1B78DBB243F02003DBB21370BD465DF8047B70470043004080B400AF054A054B1B78DBB223F02003DBB21370BD465DF8047B704700430040C3
:402C000080B483B000AF0346FB714FF040214FF040231B78DBB223F00C03DAB2FB799B00DBB203F00C03DBB21343DBB20B700C37BD465DF8047B704780B485B000AF0346FE
:402C4000FB710F4B1B78FB73FB79002B06D00C4AFB7B43F01003DBB2137005E0084AFB7B23F01003DBB21370FB7B03F010031B09DBB218461437BD465DF8047B704700BFF0
:402C80000043004080B582B000AF1B4BF3221A701A4B03221A701A4A194B1B78DBB223F00C03DBB243F00403DBB21370154A154B1B78DBB243F00103DBB213704FF47A732B
:402CC000FB8012E000F048F8034603F02003002B03D0002000F050F80BE0012000F000FAFB889BB2013B9BB2FB80FB889BB2002BE8D10837BD4680BD0A43004098460040DA
:402D0000094300400843004080B400AF0E4BF3221A700E4B00221A700D4A0D4B1B78DBB223F00C03DBB243F00403DBB21370094A084B1B78DBB223F00303DBB21370BD46E2
:402D40005DF8047B704700BF0A43004098460040094300400843004080B400AF054B1B78DBB203F02003DBB21846BD465DF8047B704700BF0843004080B584B000AF0346BA
:402D8000FB71264B1B78DBB203F00203002B01D0012300E00023FB73214BF3221A70FB79012B1CD11F4B01221A700A2000F098F91D4A1D4B1B78DBB223F00C03DBB243F062
:402DC0000803DBB21370142000F08AF9134A134B1B78DBB243F00203DBB2137018E0114B06221A700A2000F07BF90F4A0E4B1B78DBB223F00C03DBB243F00403DBB213708F
:402E0000064A064B1B78DBB223F00203DBB21370FB7B18461037BD4680BD00BF084300400A430040984600400943004080B586B000AF0346FB7100237B61FB793B742B4A67
:402E40002A4B1B78DBB243F00103DBB21370FB79002B46D0264B1B78FB74264B1B78BB74254B1B787B74182001F008FC10237B6126E01E4B1B780423FB730EE000BF012088
:402E800001F0C8FA034603F00103DBB2002BF6D0FB7BDBB2013BDBB2FB73FB7BDBB2002BECD1124B1B78DBB2DBB25BB2002B02DB00237B6108E03B7CDBB2013BDBB23B74BA
:402EC0003B7CDBB2002BD4D1FB7C03F00403002B01D1FFF765FE074ABB7C1370064A7B7C13707B6918461837BD4680BD1042004000430040804300408243004080B400AF51
:402F0000054A054B1B78DBB223F00103DBB21370BD465DF8047B70471042004080B400AF054A054B1B78DBB223F00403DBB21370BD465DF8047B70471042004080B400AFBC
:402F4000054A054B1B78DBB243F00403DBB21370BD465DF8047B70471042004080B400AF074B1B78DBB2DBB25BB2002B01DA012300E000231846BD465DF8047B704700BF61
:402F80001042004080B400AF054A054B1B78DBB243F04003DBB21370BD465DF8047B70471042004080B400AF054A054B1B78DBB223F04003DBB21370BD465DF8047B7047A1
:402FC0001042004080B483B000AF0346FB710949084B1B78DBB223F01F03DAB2FB7903F01F03DBB21343DBB20B700C37BD465DF8047B70471242004080B483B000AF0346B6
:40300000FB710949084B1B78DBB223F00F03DAB2FB7903F00F03DBB21343DBB20B700C37BD465DF8047B70471342004080B483B000AF0346FB710A49094B1B78DBB223F03F
:403040007003DAB2FB791B01DBB203F07003DBB21343DBB20B700C37BD465DF8047B70471342004080B483B000AF0346FB7101BE0C37BD465DF8047B704700BF80B400AF80
:40308000054A054B1B78DBB243F00103DBB21370BD465DF8047B7047F646004080B582B000AF786008E00C4B1B681846FFF714F97B68A3F500437B607B68B3F5004FF2D8B2
:4030C000064B1B687A6802FB03F31846FFF704F90837BD4680BD00BF2081FF1F1881FF1F80B582B000AF0346FB80FB88044A127802FB03F31846FFF7EFF80837BD4680BD40
:403100001C81FF1F80B483B000AF78607B68002B03D0144A7B68136002E0124B124A1A60104B1B6803F5742303F23F230F4AA2FB03239B0CDAB20E4B1A700A4B1B6803F279
:40314000E7330C4AA2FB03239B090B4A13600A4B1B68DB03094A13600C37BD465DF8047B704700BF1481FF1F00A24A0483DE1B431C81FF1FD34D62101881FF1F2081FF1F7F
:4031800080B483B000AF03460A46FB711346BB711D491D4B1B78DBB223F00303DAB2FB7903F00303DBB21343DBB20B70164A164B1B78DBB263F07F03DBB21370124A124B05
:4031C0001B78DBB203F07F03DBB213700E49BB795B01DBB203F06003DAB20B4B1B78DBB223F06003DBB21343DBB20B70064A064B1B78DBB243F01003DBB213700C37BD46A0
:403200005DF8047B704700BF8343004080B400AF034B01221A70BD465DF8047B704700BF8443004080B584B000AF03460A46FB711346BB71FFF76FF80346FB73264B1B6862
:4032400003F00103BB60254B01221A60244A244B1B78DBB223F04003DBB213702149BB7903F00F03DAB21F4B1B78DBB223F00F03DBB21343DBB20B701B4A1B4B1B78DBB218
:4032800043F00103DBB213700120FFF729FF012000F028F9FB79002B08D0114A104B1B78DBB243F04003DBB2137007E00C4A0C4B1B78DBB223F04003DBB213700B4B0122F0
:4032C0001A60054ABB681360FB7B1846FFF727F81037BD4680BD00BF00E100E080E100E0F7460040F4460040F546004080E200E080B584B000AF03460A46FB711346BB71E8
:40330000FFF709F80346FB73254B1B6803F00103BB60244B01221A60234A234B1B78DBB203F07F03DBB213702049BB791B01DAB21E4B1B78DBB203F00F03DBB21343DBB20B
:403340000B701B4A1A4B1B78DBB243F00203DBB213700120FFF7C4FE022000F0C3F8FB79002B08D0104A104B1B78DBB263F07F03DBB2137007E00C4A0B4B1B78DBB203F023
:403380007F03DBB213700B4B01221A60044ABB681360FB7B1846FEF7C2FF1037BD4680BD00E100E080E100E0F7460040F4460040F546004080E200E080B500AF0E4A0E4B48
:4033C0001B78DBB223F00103DBB213700B4A0B4B1B78DBB223F04003DBB21370012000F081F800BF012000F07DF8034603F00103002BF7D180BD00BFF5460040F74600405F
:4034000080B500AF0C4A0C4B1B78DBB223F00203DBB21370094A094B1B78DBB203F07F03DBB2137000BF022000F05CF8034603F00203002BF7D180BDF5460040F7460040D9
:4034400080B582B000AFFEF766FF0346FB71154B1B6803F001033B60134B01221A60134A124B1B78DBB203F07F03DBB21370104A0F4B1B78DBB243F00403DBB21370012019
:40348000FFF72EFE042000F02DF80A4B01221A60044A3B681360FB791846FEF740FF0837BD4680BD00E100E080E100E0F7460040F546004080E200E080B500AF084A084B11
:4034C0001B78DBB223F00403DBB2137000BF042000F008F8034603F00403002BF7D180BDF546004080B584B000AF0346FB71FEF712FF0346FB73104B1B78DAB20F4B1B78D0
:403500001343DAB20D4B1A700C4B1B7803F00703BB73FB79DB43DAB2084B1B781340DAB2064B1A70FB7B1846FEF7F9FEBB7B18461037BD4680BD00BFFA4600401082FF1F2A
:4035400080B582B000AFFEF7E6FE0346FB71074B1B78DBB203F00703BB71FB791846FEF7DEFEBB7918460837BD4680BDFC46004080B582B000AFFEF7CEFE0346FB71084BF7
:403580001B683B60064B4FF0FF321A60FB791846FEF7C5FE3B6818460837BD4680BD00BF80E100E080B584B000AF7860FEF7B3FE0346FB73044A7B681360FB7B1846FEF7EE
:4035C000AEFE1037BD4680BD00E100E080B582B000AFFEF7A0FE0346FB7100BF00BF00BF00BF00BF00BF00BF00BF00BF00BF00BF00BF00BF00BF00BF00BF094A084B1B8840
:403600009BB243F004039BB21380054B1B88BFF36F8FFB791846FEF782FE0837BD4680BD0048004080B584B000AF03463960FB710E4B1B68FB60FB790F2B02D90020FFF7F6
:4036400011FDFB7903F00F039B00FA6813441B68BB60FB7903F00F039B00FA6813443A681A60BB6818461037BD4680BD08ED00E080B584B000AF0346FB710A4B1B68FB600B
:40368000FB790F2B02D90020FFF7ECFCFB7903F00F039B00FA6813441B6818461037BD4680BD00BF08ED00E080B584B000AF03463960FB710F4B1B68FB60FB791F2B02D983
:4036C0000020FFF7CFFCFB7903F01F0310339B00FA6813441B68BB60FB7903F01F0310339B00FA6813443A681A60BB6818461037BD4680BD08ED00E080B584B000AF0346B1
:40370000FB710A4B1B68FB60FB791F2B02D90020FFF7A8FCFB7903F01F0310339B00FA6813441B6818461037BD4680BD08ED00E080B582B000AF03460A46FB711346BB719A
:40374000BB79072B02D90020FFF78CFCFB791F2B02D90020FFF786FCFB7903F01F0303F1604303F56443BA795201D2B21A700837BD4680BD80B584B000AF0346FB71FB7926
:403780001F2B02D90020FFF76DFCFB7903F01F0303F1604303F564431B78DBB25B09FB73FB7B18461037BD4680BD00BF80B584B000AF0346FB71FB791F2B02D90020FFF71E
:4037C00051FC0A4BFB60FB681A68FB7903F01F0322FA03F303F00103002B14BF01230023DBB218461037BD4680BD00BF00E100E080B500AF054B1B68002B04D100F008F877
:40380000024B01221A6000F037F880BD0C82FF1F80B582B000AF00237B6007E0114A7B68002142F823107B6801337B607B68042BF4D90F200C49FFF7F5FE012000F080F808
:403840000A4B1B680A4AA2FB03239B09184600F04BF800F09FF8074B4FF400421A600837BD4680BDF881FF1FFD3900001481FF1FD34D621000E100E080B500AF00F018F816
:40388000034A034B1B6843F00103136080BD00BF10E000E080B400AF044A044B1B6823F001031360BD465DF8047B704710E000E080B400AF044A044B1B6843F002031360DB
:4038C000BD465DF8047B704710E000E080B400AF044A044B1B6823F002031360BD465DF8047B704710E000E080B483B000AF7860044A7B6823F07F4313600C37BD465DF87C
:40390000047B704714E000E080B400AF044B1B6823F07F431846BD465DF8047B704700BF14E000E080B400AF044B1B6823F07F431846BD465DF8047B704700BF18E000E067
:4039400080B483B000AF78607B68012B06D1094A084B1B6843F00403136005E0054A054B1B6823F0040313600C37BD465DF8047B704700BF10E000E080B400AF044B1B68F4
:403980001B0C03F001031846BD465DF8047B704710E000E080B400AF034B00221A60BD465DF8047B704700BF18E000E080B485B000AF78603960084A7B6852F82330FB6085
:4039C00005497B683A6841F82320FB6818461437BD465DF8047B7047F881FF1F80B483B000AF7860044A7B6852F8233018460C37BD465DF8047B7047F881FF1F80B582B05E
:403A000000AFFFF7B9FF0346012B13D100237B600DE00A4A7B6852F82330002B04D0074A7B6852F8233098477B6801337B607B68042BEED90837BD4680BD00BFF881FF1FC2
:403A400080B483B000AF7860264B1B78DBB21A467B681A60244B1B78DBB21B027A6812681A437B681A60214B1B78DBB21B047A6812681A437B681A601D4B1B78DBB21B06DE
:403A80007A6812681A437B681A607B680433194A1278D2B21A60184B1B78DBB21A027B6804337968043109680A431A60134B1B78DBB21A047B6804337968043109680A435A
:403AC0001A600F4B1B78DBB21A067B6804337968043109680A431A600C37BD465DF8047B704700BF0301004904010049EC460040020100490101004900010049050100497D
:403B00000601004980B500AF914B1B78DBB203F00F03DAB28F4B1A708F4B1B78DAB28D4B5A708B4A8A4B1B78DBB223F00F03DBB21370894B1B78884B00221A70874B1B787B
:403B4000DBB223F03F03DAB2824B5A71372003F04FF9834B1B78DBB203F00703DAB27D4BDA707F4B1B78DBB203F04003DAB2794B1A717B4B1B78DBB203F01003002B03D03F
:403B8000744B01225A7202E0724B00225A72754B1B78DBB203F00303DAB26E4B9A706D4B9B78012B1CD14FF040231B78DBB203F00303012B08D0012B02D3022B08D00BE00E
:403BC0000020FEF7E3FE0BE00220FEF7DFFE07E00320FEF7DBFE03E00020FFF743FA00BF614B1B78DBB203F00103002B05D0594B01229A73FEF7F4FB02E0564B00229A73F6
:403C00000420FEF787FD594B1B78DBB203F01003DBB2002B03D04F4B01229A7108E04D4B00229A710020FEF75DFC0620FFF758FA4B4B1B78DBB203F02003002B10D04FF02B
:403C400040231B78DBB203F04003002B01D1022200E001223F4BDA710020FEF731FE02E03C4B0022DA714FF040231B78DBB203F03003DAB2374B1A72364B1B7A002B09D0DC
:403C80004FF040224FF040231B78DBB223F03003DBB21370324B1B78DBB203F01003002B01D0FEF763FE324B1B78DAB2294B9A72284B9B7A002B02D00020FEF781FE254BB1
:403CC0009B78002B02D00020FEF760FE294B1B78DBB29BB21B029AB21E4B9A81264B1B78D9B21C4B9A898BB213439AB2194B9A81184B9B89002B02D00020FEF7ADFE184B55
:403D00001B78DBB203F007031C4AD35C184603F06FF81B4B1B78DBB203F00103002B05D00C4B0122DA73FFF7E9F802E0094B0022DA73144B1B78DBB203F00403002B03D0E2
:403D4000044B01221A7402E0024B00221A7480BDA14300404482FF1FA243004000480040004200400540004020420040A0430040044000400740004006400040B08C0000D9
:403D8000104200400B40004080B586B000AF10233B617D4A3B1D106818609188927999809A717A4B1B7C012B17D1794B1B78DBB203F00703774AD35C1A4613469B001344BA
:403DC0001A01D31A1846FEF787FA734A724B1B78DBB243F00403DBB213706C4BDB7B012B26D10020FFF722F86C4B1B780523FB821BE0674B1B78DBB203F00703654AD35C0C
:403E00001A46C82303FB02F31846FEF765FA634B1B78DBB2DBB25BB2002B03DB00233B6100BF05E0FB8A013BFB82FB8A002BE0D1372002F0DDFF554B9B78022B03D0534BA9
:403E40009B78032B10D1564B1B78DAB24F4B9B7A9A4204D04D4B9B7A1846FEF7B1FD4B4B9B781846FEF792FD484B1B7903F04003002B0CD0454BDB7807F11802134413F80D
:403E8000143C032B03D10820FEF744FC20E03F4BDB7807F11802134413F8143C1846FEF739FC3A4B1B7903F04003002B08D0384A374B1B78DBB243F04003DBB2137007E047
:403EC000334A334B1B78DBB223F04003DBB213702E4B9B79012B0AD1324B1B78DBB203F01003DBB2002B02D10020FEF7FBFA274BDB791846FEF7E4FC244B5B7A012B01D13A
:403F0000FEF724FD214B1B7A1A464FF040231B78DBB203F030039A4210D04FF040234FF040221278D2B2D2B222F03002D1B2174A127AD2B20A43D2B2D2B21A70134B9B7B06
:403F4000012B39D110233B610020FEF7F1F95020FFF7C6F8144B1B78AB23FB8229E00120FFF7BEF8104B1B78DBB203F00103002B1CD00D4B1B78DBB203F00103002B15D0FE
:403F800000233B6100BF17E0B88C00004482FF1F00420040B08C00000B4000401042004004400040A043004025420040FB8A013BFB82FB8A002BD2D12B4B9B78002B03D023
:403FC000294B9B78012B10D1284B1B78DAB2264B9B7A9A4204D0244B9B7A1846FEF7F0FC214B9B781846FEF7D1FC1F4B9B79002B09D11F4B1B78DBB203F01003DBB2002B38
:4040000001D0FEF7B9FA1B4B1B78DBB29BB21B02FB81194B1B78DBB29AB2FB891343FB81114B9B89FA899A4204D00F4B9B891846FEF712FD114B114A1278D2B2D2B202F0A7
:404040003F02D1B2084A5279D2B20A43D2B2D2B21A700B4B044A12781A700A4B024A52781A701837BD4680BD4482FF1F04400040A0430040074000400640004000480040A0
:40408000A1430040A243004080B582B000AF03460A46FB801346BB80FB88002B02D00020FEF7E0FF214B1B78DAB2214B1A711F4ABB881B099BB2DBB213701E4B1B78DAB24E
:4040C0001B4B5A711B4ABB88DBB203F00F03DBB21370194B1B78DAB2154B9A71164ABB881B0B9BB2DBB203F00103DBB21370134A124B1B78DBB223F00703DBB243F00103F2
:40410000DBB213700D4B1B7800BF00BF30BF074B074A12791A70074B054A52791A70064B034A92791A700837BD4680BD984300401482FF1F994300409A4300409343004099
:4041400080B584B000AF03460A46FB711346BB80FEF7E1F80346FB734E4B1B78DBB203F00803002B0BD14C4A4B4B1B78DBB203F01F03DBB21370FB79002B08D004E0FB7B09
:404180001846FEF7CCF881E00020FEF76BFF00F0BDFA424B1B78DAB2414B1A713F4ABB881B099BB2DBB213703E4B1B78DAB23C4B5A713C4ABB88DBB203F00F03DBB21370EC
:4041C000394B1B78DAB2364B9A71374ABB881B0B9BB2DBB203F00103DBB21370334B1B78DBB203F00703002B04D12D4B012283F82D2014E02A4B002283F82D202B4B1B786B
:40420000DBB203F00703DAB2254B83F82C20274A264B1B78DBB223F00703DBB213701D4A1C4B1B78DBB223F00703DBB243F00303DBB21370174B1B7800BF00BF30BF184B5C
:4042400093F82D30012B0FD0184B184A1278D2B2D2B222F00702D1B2114A92F82C20D2B20A43D2B2D2B21A7000F090FB0B4B0C4A12791A700B4B0A4A52791A700A4B084AE0
:4042800092791A70FB7B1846FEF749F81037BD4680BD00BF9343004083460040984300401482FF1F994300409A4300400042004080B500AF402000F001F880BD80B584B09D
:4042C00000AF0346FB80FEF726F80346FB734A4B1B78DBB203F00803002B33D1474A474B1B78DBB203F01F03DBB2137000F0C0F8434B1B78DAB2434B1A71414AFB881B0997
:404300009BB2DBB203F00403DBB213703E4B1B78DAB23C4B5A713C4AFB88DBB203F00F03DBB21370394B1B78DAB2364B9A71374B00221A70364B1B78DBB203F00703002BCE
:404340000AD104E0FB7B1846FDF7E9FF50E02D4B012283F82D2014E02A4B002283F82D202B4B1B78DBB203F00703DAB2254B83F82C20274A264B1B78DBB223F00703DBB2E6
:4043800013701D4A1C4B1B78DBB223F00703DBB243F00403DBB21370174B1B7800BF00BF30BF184B93F82D30012B0FD0184B184A1278D2B2D2B222F00702D1B2114A92F806
:4043C0002C20D2B20A43D2B2D2B21A7000F0BAF80B4B0C4A12791A700B4B0A4A52791A700A4B084A92791A70FB7B1846FDF797FF1037BD4680BD00BF9343004083460040AD
:40440000984300401482FF1F994300409A4300400042004080B584B000AF0346FB71FDF77AFF0346FB73104B1B78DAB20F4B1B781343DAB20D4B1A700C4B1B7803F00703EF
:40444000BB73FB79DB43DAB2084B1B781340DAB2064B1A70FB7B1846FDF761FFBB7B18461037BD4680BD00BF904300405682FF1F80B500AF2D4B1B78DBB203F00403002BA4
:4044800007D02A4A294B1B78DBB223F00403DBB213700120FEF7D0FB03461A46244B1A70244B1B78DBB203F00203002B14BF01230023DBB21A461E4B5A701E4B1B78DBB2FB
:4044C00003F00403002B14BF01230023DBB21A46174B9A70184B1B78DBB203F01003002B0BD1134B0022DA70134A134B1B78DBB243F01003DBB2137002E00D4B0122DA70F2
:4045000000F008FB00F002F90C4B1B78DAB2084BDA710B4B1B78DAB2054B1A72074BFF221A70074BB0221A7080BD00BF314300401482FF1F00430040834600408546004092
:404540008646004080B500AF00F04EFB00F01EFA124B5B78012B01D1FEF7F2FA0F4B9B78012B01D1FEF70CFB0C4B1B781846FEF763FB0A4BDB78002B07D1094A084B1B7815
:40458000DBB223F01003DBB21370064B034AD2791A70054B014A127A1A7080BD1482FF1F83460040854600408646004080B582B000AF0346FB711F4A1E4B1B78DBB223F033
:4045C0000803DBB21370FEF7BBFA1A4B1B78DBB203F00403002B19D0174B1B78DBB2FA799A4224D0134A134B1B78DBB223F00403DBB21370104AFB7913700E4A0D4B1B7805
:40460000DBB243F00403DBB2137010E00A4B1B78DBB2FA799A4202D0074AFB791370054A044B1B78DBB243F00403DBB213700837BD4680BD824300408143004080B500AF61
:404640000C4B1B78DBB203F00103002B01D1FEF719FB094A084B1B78DBB223F02003DBB21370054A044B1B78DBB243F01003DBB2137080BD084300408243004080B582B072
:4046800000AF0346FB711F4A1E4B1B78DBB223F00203DBB21370FEF773FA1A4B1B78DBB203F00103002B19D0174B1B78DBB2FA799A4224D0134A134B1B78DBB223F00103D3
:4046C000DBB21370104AFB7913700E4A0D4B1B78DBB243F00103DBB2137010E00A4B1B78DBB2FA799A4202D0074AFB791370054A044B1B78DBB243F00103DBB21370083730
:40470000BD4680BD824300408043004080B400AF804B1B78DAB2804B5A72804B1B78DAB27D4B9A727E4B1B78DAB27B4BDA727D4B1B78DAB2784B1A737B4B1B78DAB2764B38
:404740005A737A4B1B78DAB2734B9A73784B1B78DAB2714BDA73774B1B78DAB26E4B1A74754B1B78DAB26C4B5A74744B1B78DAB2694B9A74724B1B78DAB2674BDA74714B0E
:404780001B78DAB2644B1A756F4B1B78DAB2624B5A756E4B1B78DAB25F4B9A756C4B1B78DAB25D4BDA756B4B1B78DAB25A4B1A76694B1B78DAB2584B5A76684B1B78DAB2C7
:4047C000554B9A76664B1B78DAB2534BDA76654B1B78DAB2504B1A77634B1B78DAB24E4B5A77624B1B78DAB24B4B9A77604B1B78DAB2494BDA775F4B1B78DAB2464B83F822
:4048000020205D4B1B78DAB2434B83F821205B4B1B78DAB2404B83F82220594B1B78DAB23D4B83F82320574B1B78DAB23A4B83F82420384B00221A70384B00221A70384B2B
:4048400000221A70374B00221A70374B00221A70364B00221A70364B00221A70354B00221A70354B00221A70344B00221A70344B00221A70334B00221A70334B00221A70D4
:40488000324B00221A70324B00221A70314B00221A70314B00221A70304B00221A70304B00221A702F4B00221A702F4B00221A702E4B00221A702E4B00221A702D4B0022D8
:4048C0001A702D4B00221A702C4B00221A702C4B00221A702B4B00221A702B4B1B78DBB203F00803002B0CD00B4B012283F82E20254A254B1B78DBB223F00803DBB2137098
:4049000003E0054B002283F82E20BD465DF8047B704700BF005A00401482FF1F025A0040035A0040045A0040065A0040085A00400A5A0040105A0040125A0040135A0040FE
:40494000145A0040165A0040185A00401A5A0040205A0040225A0040235A0040245A0040265A0040285A00402A5A0040305A0040325A0040335A0040345A0040365A00403B
:40498000385A00403A5A00402243004080B400AF424B434A527A1A70424B414A927A1A70414B3F4AD27A1A70404B3D4A127B1A703F4B3B4A527B1A703E4B394A927B1A708E
:4049C0003D4B374AD27B1A703C4B354A127C1A703B4B334A527C1A703A4B314A927C1A70394B2F4AD27C1A70384B2D4A127D1A70374B2B4A527D1A70364B294A927D1A7001
:404A0000354B274AD27D1A70344B254A127E1A70334B234A527E1A70324B214A927E1A70314B1F4AD27E1A70304B1D4A127F1A702F4B1B4A527F1A702E4B194A927F1A7070
:404A40002D4B174AD27F1A702C4B154A92F820201A702B4B124A92F821201A70294B104A92F822201A70284B0D4A92F823201A70264B0B4A92F824201A70094B93F82E3091
:404A8000012B07D1224A224B1B78DBB243F00803DBB21370BD465DF8047B7047005A00401482FF1F025A0040035A0040045A0040065A0040085A00400A5A0040105A004068
:404AC000125A0040135A0040145A0040165A0040185A00401A5A0040205A0040225A0040235A0040245A0040265A0040285A00402A5A0040305A0040325A0040335A0040FF
:404B0000345A0040365A0040385A00403A5A00402243004080B500AF2F4B1B78DBB203F00103002B1DD02D4B012283F825202C4B1B78DBB203F00F03DAB2284B83F8262048
:404B4000284B1B78DBB203F04003002B14BF01230023DBB21A46214B83F82A20FEF72CFC03E01E4B002283F825201B4B1B78DBB203F00203002B18D0184B012283F82720E5
:404B8000174B1B78DBB21B09DAB2144B83F82820144B1B78DBB2DBB2DB09DBB21A460F4B83F82B20FEF72CFC03E00C4B002283F82720094B1B78DBB203F00403002B06D0FA
:404BC000064B012283F82920FEF776FC03E0034B002283F8292080BDF54600401482FF1FF4460040F746004080B500AF124B93F82530012B09D1104B93F82A200E4B93F861
:404C0000263010461946FEF70DFB0B4B93F82730012B09D1084B93F82B20074B93F8283010461946FEF764FB034B93F82930012B01D1FEF705FC80BD1482FF1F80B500AFCC
:404C4000054B1B78002B04D100F008F8024B01221A7000F025F880BD5882FF1F80B500AF102000F053FC00200721FEF761FD00200849FEF719FD084A074B1B78DBB243F0C4
:404C80000603DBB213700C2000F0E4F8034B00221A8080BD31520000015900406088FF1F80B582B000AFFDF736FB0346FB712E4A2D4B1B78DBB243F00103DBB213702B4ABD
:404CC0002A4B1B78DBB243F00103DBB21370284A274B1B78DBB243F00203DBB21370254A244B1B78DBB243F00203DBB21370224B1B78BB71BB7943F00203BB71BB7943F01B
:404D00000103BB711C4ABB7913701C4B04221A701B4A1B4B1B78DBB223F04003DBB21370174A174B1B78DBB243F00303DBB21370144B0E221A70144B02221A70134A134BB1
:404D40001B78DBB243F00803DBB213700A20FEF7C7F90F4B01221A60FB791846FDF7DFFA0837BD4680BD00BFAB430040BB430040A2430040B2430040035900400659004011
:404D8000055900400059004014460040275B004080E200E080B582B000AFFDF7BCFA0346FB71174A164B1B78DBB223F00103DBB21370144A134B1B78DBB223F00103DBB220
:404DC0001370114A104B1B78DBB223F00103DBB213700E4A0D4B1B78DBB223F00203DBB213700B4A0A4B1B78DBB223F00203DBB21370FB791846FDF792FA0837BD4680BD78
:404E000000590040AB430040BB430040A2430040B243004080B485B000AF0346FB71FB7903F00303FB710A4B1B78DBB203F03F03FB73FB799B01DAB2FB7B1343FB73044A31
:404E4000FB7B13701437BD465DF8047B704700BF0059004080B584B000AF0346FB71FB790A2B07D00C2B02D0082B06D008E0C423FB730BE08423FB7308E04423FB7305E0CA
:404E8000C423FB730020FEF7EDF800BF044AFB7B1370FB79184600F095F81037BD4680BD0259004080B400AF094A094B1B78DBB223F00403DBB21370054A054B1B78DBB299
:404EC00043F00103DBB21370BD465DF8047B70470059004080B400AF094A094B1B78DBB223F00103DBB21370054A054B1B78DBB243F00403DBB21370BD465DF8047B7047DC
:404F00000059004080B584B000AF0346FB710C4B1B78DBB203F00103FB73FB7B012B02D0FB79002BF3D0FB7B012B04D10120FEF7D7F8034B1B78FB7B18461037BD4680BDC1
:404F40000159004080B400AF074B1B78DAB2074B1B889BB2DBB2D31ADBB2DBB25BB21846BD465DF8047B7047A05B00405A88FF1F80B483B000AF094B1B88FB80084B1B88BB
:404F80009BB29BB2FA88D31A9BB29BB21BB218460C37BD465DF8047B704700BFA05B00405A88FF1F80B483B000AF0346FB80044AFB8813800C37BD465DF8047B704700BF8A
:404FC0006088FF1F80B584B000AF0346FB71FB790A2B08D00C2B02D0082B08D00BE04FF48053FB600DE04FF48063FB6009E04FF48073FB6005E00023FB600020FEF732F863
:4050000000BF0C4B00221A80FB6842F2107202FB03F303F6C413084A82FB0312D212DB17D31A064A1360064B00221A801037BD4680BD00BF5888FF1FAD8BDB685C88FF1F8A
:405040005A88FF1F80B483B000AF0346FB80B7F9062013469B0013445B001A46034B1A600C37BD465DF8047B704700BF5C88FF1F80B483B000AF7860034A7B6813600C374C
:40508000BD465DF8047B70475C88FF1F80B485B000AF0346FB801D4B1B889BB2002B09D01A4B1B889BB21AB213469B0013445B00FB6002E0164B1B68FB60164B1B889BB294
:4050C000FA889BB2D31A9BB2FB80B7F9063042F2107202FB03F2B7F90630002B04DDFB68D90F0B445B1004E0FB68D90F0B445B105B421A44FB6892FBF3F37B817B891BB220
:4051000018461437BD465DF8047B70475888FF1F5C88FF1F6088FF1FB0B586B000AF0346FB801E4B1B889BB2002B09D01B4B1B889BB21AB213469B0013445B007B6102E041
:40514000174B1B687B61174B1B889BB2FA889BB2D31A9BB2FB80B7F906204FEAE273124901FB03F0002101FB02F101440E48A2FB002319440B4679690C464FEAE4751046B5
:40518000194622462B4602F03DFC02460B46C7E90223BB6818461837BD46B0BD5888FF1F5C88FF1F6088FF1F8096980090B585B000AF0346FB801A4B1B889BB2002B09D0E4
:4051C000174B1B889BB21AB213469B0013445B00FB6002E0134B1B68FB60134B1B889BB2FA889BB2D31A9BB2FB80B7F90630184602F064FA034618460C4902F0B3FA034628
:405200001C46F86802F05AFA03462046194602F05DFB0346BB60BB6818461437BD4690BD5888FF1F5C88FF1F6088FF1F0000204180B400AFBD465DF8047B704780B400AFD3
:40524000094A094B1B78DBB243F00203DBB21370064A064B1B78DBB243F00203DBB21370BD465DF8047B7047A2430040B243004080B400AF094A094B1B78DBB223F002036C
:40528000DBB21370064A064B1B78DBB223F00203DBB21370BD465DF8047B7047A2430040B243004080B483B000AF224B1B78DBB203F00203002B37D01F4B00221A701F4BC0
:4052C00002221A701E4B00221A701E4A1D4B1B78DBB203F07F03DBB213701B4B1B88FB801A4AFB881380144B07221A7000BF124B1B78DBB203F00103002BF8D10D4A0D4B90
:405300001B78DBB223F00203DBB21370104A104B1B78DBB223F00203DBB21370064B00221A70094AFB8813800C37BD465DF8047B704700BFA24300400140004010400040FC
:4053400014400040084000408440004002400040B243004080B483B000AF0346FB71FB79002B08D10A4A0A4B1B78DBB223F00203DBB2137007E0064A054B1B78DBB243F048
:405380000203DBB213700C37BD465DF8047B7047B243004080B584B000AF03460A46FB8013467B7100F054F90346FB7300F0A2F80346BB81FA88BB899A4200F08780454B35
:4053C0001B78DBB203F00203FB72FB7B002B20D1BB89002B02D0FB88002B1AD1BB89002B0BD13D4AFB8813803C4A3C4B1B78DBB223F04003DBB2137068E0384A374B1B7862
:40540000DBB243F04003DBB21370334AFB8813805CE0FB7A002B33D0314B00221A70314B02221A70304B00221A70304A2F4B1B78DBB203F07F03DBB21370284B1B78DBB242
:4054400003F00803002B02D0FB88002B18D1284ABB891380224B07221A7000BF204B1B78DBB203F00103002BF8D11A4A194B1B78DBB223F00203DBB21370194B00221A70DC
:40548000144B1B78DBB203F00203002B13D0184AFB881380124A7B79002B01D0032300E00123137000BF0E4B1B78DBB203F00103002BF8D10AE0084AFB8813800549054BE3
:4054C0001B78DAB2FB7A1343DBB20B701037BD4680BD00BFA24300408440004086400040014000401040004014400040084000400240004080B400AF034B1B889BB2184617
:40550000BD465DF8047B70478440004080B483B000AF0346FB71094B084A1278D2B2D1B2FA7922F00702D2B20A43D2B2D2B21A700C37BD465DF8047B704700BF8640004050
:4055400080B483B000AF0346FB710949084B1B78DAB2FB79DB43DBB243F00703DBB21340DBB20B700C37BD465DF8047B704700BF8640004080B400AF054B1B78DBB223F05C
:405580000703DBB21846BD465DF8047B704700BF8640004080B584B000AF0346FB71FFF7A9FF0346FB8100F053F803467B737B7B002B1BD0FB79002B18D1FB89002B15D1D8
:4055C000224A224B1B78DBB243F04003DBB213701E4B1E4A1278D2B2D2B222F00702D1B2FA790A43D2B2D2B21A702BE07B7B002B1BD1FB79002B18D0FB89002B15D1134B47
:40560000124A1278D2B2D2B222F00702D1B2FA790A43D2B2D2B21A700C4A0C4B1B78DBB223F04003DBB213700CE0084B074A1278D2B2D2B222F00702D1B2FA790A43D2B255
:40564000D2B21A701037BD4680BD00BF8640004080B400AF054B1B78DBB203F00703DBB21846BD465DF8047B704700BF8640004080B582B000AF0023FB7106E0FB791846E5
:40568000FBF7F8FDFB790133FB71FB79052BF5D9024BFF221A700837BD4680BD2481FF1F80B582B000AF0346FB71094B1B78FF2B04D0074B1B781846FBF7DCFDFB791846B3
:4056C000FBF77CFD024AFB7913700837BD4680BD2481FF1F80B500AF064B1B78FF2B07D0044B1B781846FBF7C5FD024BFF221A7080BD00BF2481FF1F80B582B000AF00230D
:40570000FB710023BB7112E0BA7913465B0013449B00174A1344184600F082FC0346002B02D00123FB7105E0BB790133BB71BB79072BE9D9FB79002B15D10023BB710FE025
:40574000BB791B010B4A1344184600F0F3FB0346002B02D00123FB7105E0BB790133BB71BB790F2BECD9FB7918460837BD4680BDC08C0000208D000080B582B000AF4FF4CC
:40578000B4337B600123FB700123BB70FCF7C3FD03467B703D4A3D4B1B78DBB243F00103DBB213703A4A3A4B1B78DBB243F00103DBB213707B781846FCF7B1FD354A354B8B
:4057C0001B78DBB223F00103DBB2137002E07B68013B7B607B68002B06D02E4B1B78DBB203F00103002BF2D17B68002B49D02A4B4FF480321A6010202849FDF755FF102000
:405800000721FDF795FF472000F044F90346002B1CD1012000F060F90346002B16D1032002210222002300F08DF90346002B0DD1002000F0F1F90346002B07D1002000F053
:4058400021FA0346002B01D10023BB70BB78002B17D1FFF751FF0346002B12D14FF4905000F0FCFA0346002B0BD10A4B00221A70084B1B78DBB203F00103002B01D10023B2
:40588000FB70FB7818460837BD4680BDA6430040B643004010A0004080E100E02961000080B582B000AF4FF4D8537B600123FB70FCF731FD0346BB701D4A1D4B1B78DBB29E
:4058C00043F00103DBB213701A4A1A4B1B78DBB243F00103DBB21370BB781846FCF71FFD154B4FF490521A6000F094F8134B4FF480321A60124A124B1B6843F00103136063
:4059000002E07B68013B7B607B68002B05D00C4B1B6803F00103002BF3D07B68002B01D00023FB70FB7818460837BD4680BD00BFA6430040B643004000A0004000E100E06A
:4059400010A0004080B582B000AF0023FB710B4B1B78002B03D1FFF70FFF0346FB71FB79002B06D1054B01221A70FFF799FF0346FB71FB7918460837BD4680BD5982FF1FF1
:4059800080B582B000AF4FF4B4337B600123FB701C4A1C4B1B6823F00103136002E07B68013B7B607B68002B05D0164B1B6803F00103002BF3D17B68002B1DD00023FB7051
:4059C000114B4FF480321A60FCF7A5FC0346BB700E4A0E4B1B78DBB223F00103DBB213700B4A0B4B1B78DBB223F00103DBB21370BB781846FCF793FCFB7818460837BD46C4
:405A000080BD00BF10A0004080E100E0A6430040B643004080B483B000AF0123FB710C4A0B4B1B78DBB243F00103DBB21370084B1B78DBB203F00103002B01D00023FB7129
:405A4000FB7918460C37BD465DF8047B704700BF04A0004080B483B000AF0123FB710C4A0B4B1B78DBB223F00103DBB21370084B1B78DBB203F00103002B01D10023FB7151
:405A8000FB7918460C37BD465DF8047B704700BF04A0004080B485B000AF0346FB800223FB73FB881BB2002B0CDB0123FB73094AFB881380074B1B889BB2FA889A4201D162
:405AC0000023FB73FB7B18461437BD465DF8047B704700BF16A0004080B485B000AF0346FB710123FB73FB79002B11D1144A144B5B78DBB223F01003DBB25370104B5B7812
:405B0000DBB203F01003002B13D10023FB7310E00B4A0B4B5B78DBB243F01003DBB25370074B5B78DBB203F01003002B01D00023FB73FB7B18461437BD465DF8047B7047AF
:405B400014A0004090B484B000AF0446084611461A462346FB710346BB710B467B7113463B710223FB73FB79012B4CD9FB790F2B49D8BB79012B02D9BB79072B05D93B79D5
:405B8000002B40D1BB79012B3DD17B79032B3AD87A79FB799A4236D87A79BB799A4232D80123FB731B4B5B78BB73BB7B23F00F03BB73BA7BFB791343BB73164ABB7B5370A1
:405BC000144B5B78DBB2BA7B9A421CD10023BB733B79002B01D00223BB73BB795B01DAB27B799B00DBB21343DAB2BB7B1343BB73084ABB7B1370074B1B78DBB2BA7B9A4232
:405C000001D10023FB73FB7B18461037BD4690BC704700BF14A0004080B485B000AF0346FB710123FB73FB79002B11D1144A144B1B78DBB223F01003DBB21370104B1B784C
:405C4000DBB203F01003002B13D10023FB7310E00B4A0B4B1B78DBB243F01003DBB21370074B1B78DBB203F01003002B01D00023FB73FB7B18461437BD465DF8047B70472E
:405C800014A0004080B485B000AF0346FB710123FB73FB79002B11D1144A144B1B78DBB223F00103DBB21370104B1B78DBB203F00103002B13D10023FB7310E00B4A0B4B5F
:405CC0001B78DBB243F00103DBB21370074B1B78DBB203F00103002B01D00023FB73FB7B18461437BD465DF8047B704714A0004080B485B000AF0346FB710123FB72002325
:405D0000BB722C4B1B78DBB203F00103002B02D1FB79012B01D10123BB72264B00221A704FF4B433FB6002E0FB68013BFB60FB68002B06D01F4B1B78DBB203F00103002B59
:405D4000F2D1FB68002B01D00023FB72FB7A002B29D1FB79002B26D0FB79022B02D1154B02221A70BB7A012B1DD1124A114B1B78DBB243F00103DBB213704FF4D853FB6089
:405D800002E0FB68013BFB60FB68002B06D0094B1B78DBB203F00103002BF2D0FB68002B01D10123FB72FB7A18461437BD465DF8047B704710A0004080B485B000AF7860CE
:405DC00039600223FB737B689BB24AF29F02934238D97B689BB24AF29C22934232D80123FB737B6803F01F03002B19D13B6843F080133B60174B4FF480321A607B683A6882
:405E00001A60154B4FF480321A607B681A683B68534003F07F13002B14D10023FB7311E00C4B4FF480321A607B683A681A600A4B4FF480321A607B681A683B689A4201D128
:405E40000023FB73FB7B18461437BD465DF8047B704700BF80E100E000E100E080B485B000AF0346FB800123FB73094AFB881380074B1B889BB2FA889A4201D10023FB7349
:405E8000FB7B18461437BD465DF8047B704700BF04A0004080B400AF074B9B78DBB203F00403002B01D0012300E000231846BD465DF8047B704700BF0CA0004080B400AF26
:405EC000074B9B78DBB203F00803002B01D0012300E000231846BD465DF8047B704700BF0CA0004080B400AF034B1B78DBB21846BD465DF8047B70470CA0004080B400AFEC
:405F0000034B5B78DBB21846BD465DF8047B70470CA0004080B400AF054B9B78DBB203F00303DBB21846BD465DF8047B704700BF0CA0004080B485B000AF78600123FB7369
:405F40007B681B785A01354B13441A467B685B6843F0801313607B681B785A012F4B13441B6803F07F127B685B6823F080139A424DD17B681B785A01284B134410337A688B
:405F800092681A607B681B785A01244B134410331A687B689B689A4239D17B681B785A011E4B134414337A68D2681A607B681B785A011A4B134414331A687B68DB689A427F
:405FC00025D17B681B785A01144B134418334FF0FF321A607B681B785A01104B134418331B68B3F1FF3F12D17B681B785A010B4B13441C3300221A607B681B785A01074B4D
:4060000013441C331B68002B01D10023FB73FB7B18461437BD465DF8047B7047A0A0004080B485B000AF78600123FB737B681B781A011B4B13441A467B685B6843F400036C
:4060400043F0080313607B681B781A01144B13441B68144A1A407B685B6823F4000323F008039A4215D17B681B781A010C4B134404337A6892681A607B681B781A01084B9D
:40608000134404331A687B689B689A4201D10023FB73FB7B18461437BD465DF8047B704720A00040F7007F0080B500AF034B02225A70FFF7CFFCFFF763FC80BD00A0004035
:4060C00080B582B000AF0123BB80144B10225A700023FB711BE0124B1B889AB2BB8813409BB2002B0DD0FB795A010E4B13441B78DBB203F02003002B03D0FB791846FAF799
:4061000023F9BB885B00BB80FB790133FB71FB790F2BE0D90837BD4680BD00BF00A0004008A00040A0A0004080B500AF094B5B78DBB203F00203002B01D0FFF7B5FF054BE3
:406140005B78DBB203F01003002B01D0FFF7B8FF80BD00BF00A0004080B582B000AF1C4B1B78DBB223F00703FB71194AFB7943F00103DBB21370164B1B78DBB223F0030356
:40618000FB71134AFB79137000F0F2F8002000F0B7F8002000F088F8002000F04DF800F05BF8002000F0C8F8FCF7B5F80346BB71084A084B1B78DBB243F01003DBB213705E
:4061C000BB791846FCF7ABF80837BD4680BD00BF7B6500409964004080B400AF054A054B1B78DBB263F07F03DBB21370BD465DF8047B70477B65004080B500AF054B1B78E0
:40620000002B04D1FFF7A8FF024B01221A70FFF7E3FF80BD5A82FF1F80B400AF054A054B1B78DBB203F07F03DBB21370BD465DF8047B70477B65004080B483B000AF034684
:40624000FB71044AFB7913700C37BD465DF8047B704700BF8964004080B400AF034B1B78DBB21846BD465DF8047B70476964004080B400AF034B1B78DBB21846BD465DF85F
:40628000047B70477B65004080B483B000AF0346FB71044AFB7913700C37BD465DF8047B704700BF7B65004080B483B000AF0346FB80044AFB8813800C37BD465DF8047B70
:4062C000704700BF106A004080B400AF044B1B78044B1B889BB21846BD465DF8047B704708650040906A004080B400AF034B1B889BB21846BD465DF8047B7047906A004050
:4063000080B483B000AF0346FB80044AFB8813800C37BD465DF8047B704700BF506A004080B400AF034B1B889BB21846BD465DF8047B7047506A004080B483B000AF03462F
:40634000FB80044AFB8813800C37BD465DF8047B704700BF706A004080B400AF034B1B889BB21846BD465DF8047B7047706A004080B500AF01E0FFF7B7FFFFF76DFF034651
:4063800003F04003002BF6D180BD00BF80B582B000AF1C4B1B78DBB223F00703FB71194AFB7943F00103DBB21370164B1B78DBB223F00303FB71134AFB79137000F0F2F841
:4063C000002000F0B7F8002000F088F8002000F04DF800F05BF8002000F0C8F8FBF79BFF0346BB71084A084B1B78DBB243F01003DBB21370BB791846FBF791FF0837BD4674
:4064000080BD00BF786500409B64004080B400AF054A054B1B78DBB263F07F03DBB21370BD465DF8047B70477865004080B500AF054B1B78002B04D1FFF7A8FF024B0122FE
:406440001A70FFF7E3FF80BD5B82FF1F80B400AF054A054B1B78DBB203F07F03DBB21370BD465DF8047B70477865004080B483B000AF0346FB71044AFB7913700C37BD465A
:406480005DF8047B704700BF8B64004080B400AF034B1B78DBB21846BD465DF8047B70476B64004080B400AF034B1B78DBB21846BD465DF8047B70477865004080B483B056
:4064C00000AF0346FB71044AFB7913700C37BD465DF8047B704700BF7865004080B483B000AF0346FB80044AFB8813800C37BD465DF8047B704700BF1468004080B400AFD9
:40650000044B1B78044B1B889BB21846BD465DF8047B70470A6400409468004080B400AF034B1B889BB21846BD465DF8047B70479468004080B483B000AF0346FB80044AF3
:40654000FB8813800C37BD465DF8047B704700BF5468004080B400AF034B1B889BB21846BD465DF8047B70475468004080B483B000AF0346FB80044AFB8813800C37BD46EC
:406580005DF8047B704700BF7468004080B400AF034B1B889BB21846BD465DF8047B70477468004080B500AF01E0FFF7B7FFFFF76DFF034603F04003002BF6D180BD00BF0C
:4065C00080B582B000AF1C4B1B78DBB223F00703FB71194AFB7943F00103DBB21370164B1B78DBB223F00303FB71134AFB79137000F0F2F8002000F0B7F8002000F088F8D4
:40660000002000F04DF800F05BF8002000F0C8F8FBF781FE0346BB71084A084B1B78DBB243F01003DBB21370BB791846FBF777FE0837BD4680BD00BF7B640040976500405F
:4066400080B400AF054A054B1B78DBB263F07F03DBB21370BD465DF8047B70477B64004080B500AF054B1B78002B04D1FFF7A8FF024B01221A70FFF7E3FF80BD5C82FF1F77
:4066800080B400AF054A054B1B78DBB203F07F03DBB21370BD465DF8047B70477B64004080B483B000AF0346FB71044AFB7913700C37BD465DF8047B704700BF876500403A
:4066C00080B400AF034B1B78DBB21846BD465DF8047B70476765004080B400AF034B1B78DBB21846BD465DF8047B70477B64004080B483B000AF0346FB71044AFB791370E5
:406700000C37BD465DF8047B704700BF7B64004080B483B000AF0346FB80044AFB8813800C37BD465DF8047B704700BF0C6A004080B400AF044B1B78044B1B889BB21846C4
:40674000BD465DF8047B7047066500408C6A004080B400AF034B1B889BB21846BD465DF8047B70478C6A004080B483B000AF0346FB80044AFB8813800C37BD465DF8047B0F
:40678000704700BF4C6A004080B400AF034B1B889BB21846BD465DF8047B70474C6A004080B483B000AF0346FB80044AFB8813800C37BD465DF8047B704700BF6C6A004086
:4067C00080B400AF034B1B889BB21846BD465DF8047B70476C6A004080B500AF01E0FFF7B7FFFFF76DFF034603F04003002BF6D180BD00BF80B582B000AF1C4B1B78DBB299
:4068000023F00703FB71194AFB7943F00103DBB21370164B1B78DBB223F00303FB71134AFB79137000F0F2F8002000F0B7F8002000F088F8002000F04DF800F05BF8002076
:4068400000F0C8F8FBF767FD0346BB71084A084B1B78DBB243F01003DBB21370BB791846FBF75DFD0837BD4680BD00BF746500409565004080B400AF054A054B1B78DBB271
:4068800063F07F03DBB21370BD465DF8047B70477465004080B500AF054B1B78002B04D1FFF7A8FF024B01221A70FFF7E3FF80BD5D82FF1F80B400AF054A054B1B78DBB23A
:4068C00003F07F03DBB21370BD465DF8047B70477465004080B483B000AF0346FB71044AFB7913700C37BD465DF8047B704700BF8565004080B400AF034B1B78DBB21846F3
:40690000BD465DF8047B70476565004080B400AF034B1B78DBB21846BD465DF8047B70477465004080B483B000AF0346FB71044AFB7913700C37BD465DF8047B704700BFC9
:406940007465004080B483B000AF0346FB80044AFB8813800C37BD465DF8047B704700BF086A004080B400AF044B1B78044B1B889BB21846BD465DF8047B704704650040E5
:40698000886A004080B400AF034B1B889BB21846BD465DF8047B7047886A004080B483B000AF0346FB80044AFB8813800C37BD465DF8047B704700BF486A004080B400AFC3
:4069C000034B1B889BB21846BD465DF8047B7047486A004080B483B000AF0346FB80044AFB8813800C37BD465DF8047B704700BF686A004080B400AF034B1B889BB218461C
:406A0000BD465DF8047B7047686A004080B500AF01E0FFF7B7FFFFF76DFF034603F04003002BF6D180BD00BF80B582B000AFFBF772FC0346FB71194A184B1B78DBB243F032
:406A40000803DBB21370164A154B1B78DBB243F00803DBB21370134BC8221A70124A124B1B78DBB243F00F03DBB213700F4A0F4B1B78DBB243F00F03DBB2137000BF0C4B8F
:406A80001B78DBB203F02003002BF8D0FB791846FBF745FC0837BD4680BD00BFA0430040B043004001470040AC430040BC4300400047004080B582B000AFFBF72CFC03461E
:406AC000FB710B4A0A4B1B78DBB223F00F03DBB21370084A074B1B78DBB223F00F03DBB21370FB791846FBF71AFC0837BD4680BDAC430040BC43004080B582B000AF00F065
:406B000065FA4FF0FF337B6000F09EFC0346002B24D1012000F066FC0346072B1BD11348022100F097FA0346022B0DD100237B6002E00120FCF7D4FA0D4B1B78DBB203F05D
:406B40000203002BF5D006E0094B1B78DBB203F00203002BE3D000F0ABFC01E004237B607B6818460837BD4680BD00BF6488FF1F2247004080B582B000AF00F027FA00F02D
:406B800063FC0346002B23D100F0BAFC78607B68072B1AD102E00120FCF7A2FA104B1B78DBB203F00203002BF5D00D4B1B78DBB203F00203002B08D0094B1B78DBB29B0811
:406BC000DBB2002B01D100237B6000F071FC01E004237B607B6818460837BD4680BD00BF2247004080B582B000AFFFF7C3FF78607B68002B02D1FFF77FFF78607B68184691
:406C00000837BD4680BD00BF80B584B000AF78600023FB6000F0DAF97B68002B06D10E4B1B680D4A13600123FB6010E000F00CFC0346002B06D0084B1B68074A13600423E8
:406C4000FB6004E0044A7B68136000F031FCFB6818461037BD4680BD6082FF1F80B584B000AF03463A60FB710B46BB80FB793F2B01D9102301E04FF48073FB81F979BA88A7
:406C8000FB89084611463A6800F006F8B860BB6818461037BD4680BD80B586B000AFBA601A460346FB730B46BB811346FB8000237B61FB7B3F2B04D8FB7B042B01D90123F1
:406CC0007B61FB7B5BB2002B01DA01237B61FB7B3F2B04D9FB7B412B01D901237B61FB7B3F2B06D8BB89B3F5807F0CD901237B6109E0BB89802B01D901237B61FB88102BB8
:406D000001D001237B61BB68002B01D101237B617B69002B62D100F097FB0346002B5BD1F97BBA89FB8808461146BA6800F06EFA78617B69072B4CD102E00120FCF7D0F9DA
:406D4000294B1B78DBB203F00203002BF5D0264B1B78DBB203F00203002B09D0224B1B78DBB29B08DBB2002B02D100237B6102E04FF0FF337B617B69002B2AD11B4B1A781F
:406D80001A4B5B78F87BB98900F0A8FA78617B69072B1ED102E00120FCF7A2F9124B1B78DBB203F00203002BF5D00F4B1B78DBB203F00203002B09D00B4B1B78DBB29B08F1
:406DC000DBB2002B02D100237B6102E04FF0FF337B6100F06DFB01E004237B617B6918461837BD4680BD00BF224700406488FF1F80B584B000AF0346FB71FBF78CFA0346CD
:406E0000FB73FB790F2B0BD8274A274B1B78DBB203F01F03DBB243F04003DBB213703BE0FB79202B0BD8204A1F4B1B78DBB203F01F03DBB263F07F03DBB213702CE0FB7970
:406E4000312B0BD8184A184B1B78DBB203F01F03DBB263F03F03DBB213701DE0FB79422B08D8114A104B1B78DBB203F01F03DBB2137011E0FB79532B0BD80B4A0A4B1B78EB
:406E8000DBB203F01F03DBB243F02003DBB2137002E00020FCF7E6F8FB7B1846FBF73FFA1037BD4680BD00BF0048004080B582B000AFFBF730FA0346FB71194A184B1B785D
:406EC000DBB243F00803DBB21370164A154B1B78DBB243F00803DBB21370134BC8221A70124A124B1B78DBB243F01003DBB213700F4A0F4B1B78DBB243F01003DBB213705F
:406F000000BF0C4B1B78DBB203F02003002BF8D0FB791846FBF703FA0837BD4680BD00BFA0430040B043004001470040AC430040BC4300400047004080B582B000AFFBF738
:406F4000EAF90346FB710B4A0A4B1B78DBB223F01003DBB21370084A074B1B78DBB223F01003DBB21370FB791846FBF7D8F90837BD4680BDAC430040BC43004080B400AF1A
:406F8000094A094B1B78DBB243F00103DBB2137000BF054B1B78DBB203F00203002BF8D0BD465DF8047B70470247004080B400AF054A054B1B78DBB223F00103DBB21370C9
:406FC000BD465DF8047B70470247004080B582B000AFFBF7A0F90346FB710B4A0A4B1B78DBB243F00803DBB21370084A074B1B78DBB243F00803DBB21370FB791846FBF736
:407000008EF90837BD4680BDA0430040B043004080B582B000AFFBF77EF90346FB710B4A0A4B1B78DBB223F00803DBB21370084A074B1B78DBB223F00803DBB21370FB7962
:407040001846FBF76CF90837BD4680BDA0430040B043004080B584B000AF78600B46FB700023FB7314E002E00120FCF739F80D4B1B78DBB203F00103002BF5D0FB7B7A6877
:407080001344094A1278D2B21A70FB7B0133FB73FA7BFB789A42E6D3FB7B18461037BD4680BD00BF224700402047004080B485B000AF3A601A460346FB710B46BB801346E3
:4070C000BB710723FB60FB793E2B02D8BB791F2B05D9FB793F2B46D9BB790F2B43D8264B1B78DBB203F00203002B38D0234BB6221A70224BD4221A70204B01221A701E4B4C
:407100001B78DBB203F00203002B25D11B4AFB7913701A4ABB881B0A9BB2DBB203F00103DBB21370154BBA88D2B21A70134ABB79013BDBB213700023FB7208E00F49FB7A3B
:407140003A6813441B780B70FB7A0133FB72FA7ABB799A42F2D305E00923FB6005E00423FB6002E001E00123FB60FB6818461437BD465DF8047B70472247004020470040AA
:4071800080B485B000AF03463960FB711346BB800723FB601B4B1B78DBB203F00203002B26D0194BB6221A70174BD5221A70164B02221A70134B1B78DBB203F00203002B58
:4071C00013D1114AFB79137000237B8108E00E497B893A6813441B780B707B8901337B817A89BB889A42F2D304E00923FB6001E00423FB60FB6818461437BD465DF8047B24
:40720000704700BF224700402047004080B489B000AFBA601A460346FB730B46BB811346FB800723FB612B4B1B78DBB203F00203002B45D0284BB6221A70274BD5221A70BE
