:400000000080002011000000990000009900000008B5054B1A6803F53F5302331A6000F097FA00F03BF800BFFA46004010B5054C237833B9044B13B10448AFF300800123F0
:40004000237010BD2881FF1F0000000048280000084B10B51BB108480849AFF300800848036803B910BD074B002BFBD0BDE81040184700BF00000000482800002C81FF1F68
:400080000881FF1F0000000008B562B601F0A0F800F074FDFEE700BFFEE700BF08B5104E104D16E029686B68AC68002204E051F8040B43F8040B0432A242F8D1E8680022AF
:4000C00003E0002143F8041B04328242F9D11035013E002EE6D102F079FBFFF7D5FFFEE701000000D42A000008B5124A124B1A60124A136843F40073136000230AE0032B42
:4001000003D80F4A52F8231000E00E490E4A42F8231001332F2BF2D90C4B1A780C4B1A70094A0C4B1A6000F0B5F800220A4B1A6008BD00BF0004FA050CED00E014ED00E0FC
:4001400000000000990000000080FF1FBC7600400481FF1F08ED00E00081FF1FFEE700BFF0B40022174611E050F82760F3B226F0FF0608E001EB420511F812406D78A55523
:400180000132013BDBB2002BF4D10137132FEBD9F0BC7047064B1B78DBB203F00701054A11701B09013213704422034B1A707047CF0100496E5800407658004038B545F652
:4001C000BF52244B1A80192502331D70062203F27E231A705222A3F580731A701E4B1B78DBB21E4A137040F62A521D4B1A8042F25122023B1A8000240CE01A4B1B7803F073
:40020000010343EA440404F003044FF4F07000F0EBFC013D0DB1032CEFD115B90320FFF79DFF114A4FF4807313800723137000230E490B704820023108701370053213704C
:4002400002220B4B1A700B4A137843F00103137038BD00BF804000400F010049A14600402242004025420040044000400640004001400040A243004008B50A46002102F091
:40028000D6FA08BD08B502F0C7FA08BD08B502F0C3FA08BD38B572B66122284B1A70FFF78DFF274A137843F00403137000240CE0244963001A1952000A4423445B00C858DE
:4002C0009188FFF7D9FF0134E4B2082CF0D91D4C04F1380004F18801FFF742FF1A4A137843F0020313701032137843F002031370164D2B7843F040032B70A2F58632513AE1
:40030000137843F010031370114804F1E4010A22FFF7B8FF0F4804F1F0010822FFF7B2FF0D4A137843F008031370FFF733FF0B4829460E22FFF7AAFF38BD00BF00480040B7
:40034000E84600404C28000003500140A0430040F05100402251004022430040B0430040002306E0421812F8012C13449BB2013989B20029F6D1584280B2704730B40023AB
:4003800006E01C5CE4B2CD5CAC4205D101339BB29342F6D3002000E0022030BC704700BF004700BF08B58022024B1A7000F034FD08BD00BFFA4600402DE9F04182B00C468D
:4003C000164602AF27F8022D01230B7048701546A270130ACB7002F1040808461FFA88F1FFF7BEFF04F80800731DC0F30720E054063517236355F11D204689B23A4696233D
:4004000000F00AFF02B0BDE8F08100BF70B505460E461446084B984203D010B1002000F0F9FC002004E0013CAB191B5D1844C0B2002CF8D170BD00BF0080004008B5013876
:400440000B2867D8DFE800F0060E161E262E3E36464E565E4942090201F57F3101F5707101225CE04942090201F57F3101F2C131042254E04942090201F57F3101F2C531E9
:4004800002224CE04942090201F57F3101F2C931042244E04942090201F57F3101F5747101223CE04942090201F57F3101F2D131012234E04942090201F57F3101F2D63185
:4004C00002222CE04942090201F57F3101F2D231022224E04942090201F57F3101F5757102221CE04942090201F57F3101F57671042214E04942090201F57F3101F57771ED
:4005000001220CE04942090201F57F3101F57871042204E0002000F07DFC02220021012A02D10878C0B200E00020022A03D10B78487843EA0020042A09D10B78487843EAC1
:400540000023887843EA0043C87843EA006008BD08B50A4B1B7803F0C003802B0CD10021064B19700220FFF769FF28B102200021FFF764FFFFF714FF08BD00BFFA46004076
:40058000F8B5064603203146FFF758FF0130070204203146FFF752FF074403203146FFF74DFF013000020024254608E003785A1ED2B2FD2A00D801252344DCB20130B842B2
:4005C000F4D303203146FFF739FF01300002C0080F4B9F4201D0FF0808E04FF4004705E000F190431B782344DCB20130B842F7D36442E4B201203146FFF720FF844202D144
:400600001DB90620F8BD0620F8BD0020F8BD00BFC0FF03002DE9F04FADF51F7D054600F049FB10B1002000F0F5FB00F0DFFD62B64FF0000A57460A24D0460DB9FF2300E02F
:400640002B4652A84FF496710DF2762200F006FE0DB1013CE4B20CB10028EED1002840F08282BDF87632062B26D99DF84821012A24D19DF84B819DF84A2142EA08284146BA
:4006800008F107029A421BD8B2F5967F1AD84A1D52AB9E5C0A1D9A5C42EA062606315B5C172B11D108F1040152A889B2FFF758FEB0420BD100260AE0042608E0042606E057
:4006C000032604E0032602E0042600E00826002E40F0E4819DF84C919DF84921A2F13103142B00F2B381DFE813F015007D00B101A5001101B10117012C01A5003E01A30106
:40070000B101B101B101B101B101B101B101B101B1012600002F00F0C381B8F1000F40F0C2810020FFF72CFFB0FA80F040098DF84C01012210E2002F00F0B881B8F1030F25
:4007400004D040F22313984540F0B3819DF84EB19DF84D3143EA0B2BB8F1030F06D007A80DF24F11A8F1030202F056F8A9F14003DBB23F2B08D80BF1806303F5006318016E
:4007800010230193802309E0B9F1030F00F294810BEB092318024FF4807301939B4500D30A26002E40F08B8107A9019AFFF7E6FD0646002840F08581B9F1030F00F2838150
:4007C000019B9A4540F2818109F510300BEB0020400107AA134419462022FFF7CFFD06460022B9E1002F00F07281B8F1010F40F07181B9F1030F00F27081BF4B1B681B68A6
:40080000C3F30742914502D1C3F3072305E0914501D9002301E04FF480738DF84C311B0A8DF84D31FF238DF84E3100238DF84F31042291E1342A15D1002F00F05181B8F173
:40084000030F40F05081A9F14003DBB23F2B02D84FF0100A01E04FF4907A07A80021524601F0E5FF002F00F04181B8F1020F40F2408107AB03EB0A000DF24F11A8F10302BE
:4008800001F0CAFFC244AAF1030A1FFA8AFAA9F14003DBB23F2B05D800F092FA80234FF0100803E04FF480734FF49078C24540F02D819DF84EA19DF84D2142EA0A2A9A45FD
:4008C00000D30A26002E40F02681B9F13F0F0FD80AEB092292B2884B1B681968C1F30F2311F0FF0F01D001339BB29A42C0F015814846514607AA434600F0E6F900B10A265E
:4009000000F0B2FA4FF0000A524625E1002F40F02881042600221FE1002F00F003810AEB0803B3F5967F00F2008107AB03EB0A0053A9424601F070FFC2441FFA8AFA0022BA
:400940000AE1B8F1000F40F0F38004AB6B4A92E8030083E8030053AA82E803004FF0000A01270822F8E0002F00F0E580B8F1030F40F0E4809DF84EB19DF84D3143EA0B2B28
:40098000A9F14003DBB23F2B10D84FEA0B11BBF17F0F01D8334600E00A23002B40F0D18057481022FFF732FD019011E00BEB09210902BBF1FF0F01D8334600E00A23002BFA
:4009C00040F0C28000204FF48072FFF71FFD0190B9F13F0F0FD809F510320BEB02225201002306E0995C01980144C9B2019101339BB21F2BF6D9B9F1030F13D1BBF1FF0F24
:400A000010D105200021FFF719FD019B181A00F0FF0906200021FFF711FDC0EB090000F0FF030193019B5B428DF84C31012293E00020FFF7A5FD10B98022324B1A7000F04D
:400A4000E1FB00F0E9F90426002285E02E4B1B68002B7CD0002F7DD08DF80820ADF80A8053AA0392002104910591069202A804A99847BDF81420B2F5937F03D3069953AB8B
:400A8000994205D0069B03B92AB99DF8106063E00E26002260E00E2600225DE000225BE00426002258E00426002255E00426002252E0042600224FE0092600224CE00022DB
:400AC0004AE0002248E0002246E0002244E00426002241E0042600223EE0042600223BE00426002238E00426002235E00426002232E0042600222FE00C81FF1F4429000020
:400B000000800040FA4600404481FF1F4FF0000A0326524620E000221EE04FF0000A0A26524619E00426002216E00326002213E00426002210E0042600220DE0042600221D
:400B40000AE01E46002207E01E46002204E00526002201E005260022304652A9FFF72CFC01E04FF0000A002D3FF467AD002F7FF464AD0DF51F7DBDE8F08F00BF38B50020CB
:400B8000FFF7FEFC08B1062400E00024134D2B68002001461A68FFF739FC6B681B78C01AC0B24042C0B2834202D12B681B6813B9002000F02FF90A4B1B7803F0C003402BF6
:400BC00000D024B10020064B1870FFF723FD3220FFF720FDFFF7E6FB38BD00BF0C81FF1FFA460040000000000230800803D000BF01380046FCD17047EFF3108072B6704786
:400C000080F31088704700BF10B500F07BF900F029FAD0B900F068FA0446072812D102E0012000F017F90A4B1B7813F0020FF7D0074B1B7813F0020F04D0054B1B789B08A7
:400C400000D1002400F034FA00E00424204610BD2247004010B500F055F900F003FA10BB012000F0E1F9072818D11048022100F05BF902280AD102E0012000F0EBF80C4BCE
:400C80001B7813F0020FF7D0002409E0084B1B7813F0020FE9D04FF0FF3401E04FF0FF3400F006FA00E00424204610BD5881FF1F2247004008B5FFF7A7FF034610B9FFF715
:400CC000C9FF0346184608BD2DE9F041441FE4B23A2C01D9002500E0012510F0800F00D00125412800D901253F2803D8B1F5807F06D808E0802900D90125102B02D102E0E3
:400D0000012500E0012502B90125002D50D1984616460F46044600F0A5F9002847D1204639463246434600F019F9064607283AD102E0012000F08EF81F4B1B7813F0020FB9
:400D4000F7D01D4B1B7813F0020F06D01A4B1B789B0805D04FF0FF3603E04FF0FF3600E02E4606BB154B204639461A785B7800F035F9072804D0064615E0012000F06AF8F8
:400D80000D4B1B7813F0020FF7D00B4B1B7813F0020F06D0084B1B789B0804D04FF0FF3601E04FF0FF3600F083F9354600E004252846BDE8F08100BF224700405881FF1FA1
:400DC00008B5FFF719FF0F4A137843F0080313701032137843F008031370C8220A4B1A700A4A137843F0100313701032137843F010031370064B1B7813F0200FFAD0FFF718
:400E0000FFFE08BDA043004001470040AC4300400047004001BE7047024A137843F0010313707047F646004010B5044605E0084B1868FFF7D9FEA4F50044B4F5004FF6D81E
:400E4000034B586800FB04F0FFF7CEFE10BD00BF1481FF1F08B5034B1B7A03FB00F0FFF7C3FE08BD1481FF1F08B5FFF7C5FE00BF00BF00BF00BF00BF00BF00BF00BF00BF8A
:400E800000BF00BF00BF00BF00BF00BF00BF064A13889BB243F0040313801388BFF36F8FFFF7AEFE08BD00BF0048004070B504460E46074B1D681F2802D90020FFF7AAFF80
:400EC00004F01F04103455F8240045F8246070BD08ED00E038B504460D46072902D90020FFF798FF1F2C02D90020FFF793FF04F01F0000F1604000F564406D01EDB2057094
:400F000038BD00BF08B5FFF777FE064A137843F0080313701032137843F008031370FFF76FFE08BDA043004070B506460D4600240CE00120FFF78EFF064B1B7813F0010FF1
:400F4000F7D0054B1B7833550134E4B2AC42F3D3204670BD224700402047004070B41D4C247814F0020F2CD01B4CB6252570D5252570022525700234247814F0020F22D1A7
:400F8000154C2070002404E0165D134D2E700134A4B29C42F8D3B3F5807F16D13F2816D800F5103001EB00214801002305E01A5CD2B209490A7001339BB21F2BF7D9072095
:400FC00006E0042004E0092002E0072000E0072070BC7047224700402047004030B4104C247814F0020F15D00E4CB6252570D8252570052525700234247814F0020F0BD1E3
:40100000084C2070080A2070C9B2217022702370072002E0042000E0092030BC704700BF22470040204700400C4B1B7813F0020F0FD00B4BB6221A70E1221A700E221A7035
:4010400002331B7813F0020F05D1054B187007207047042070470920704700BF224700402047004010B5FFF7C7FD0F4B1B78A3B901220D4B1A700D4B1B6813F0010F0ED0A5
:401080000A4A136823F00103136000BF00BF00BF0122054B5A60002402E0042400E00024FFF7AEFD204610BD4881FF1F0400084008B5FFF7A1FD0A4B00221A705B68012BF3
:4010C0000AD1084A136843F00103136000BF00BF00BF0022024B5A60FFF792FD08BD00BF4881FF1F04000840074B1B7813F0020F08D0064BB6221A70E0221A700D221A7033
:4011000007207047042070472247004020470040084A137843F0010313701032137843F00103137002F64D32137843F001031370704700BFA3430040014B1880704700BFD6
:40114000044F0040014B1880704700BF064F0040014B1870704700BF034F004008B5194A137843F0020313700232137803F08F0343F010031370144B1A7802F0CF021A7060
:401180001A7842F030021A701A7802F0F0021A701A7842F00F021A70FF20FFF7CDFF7F20FFF7D0FF0020FFF7D3FF084A137843F00103137002F65E32137843F001031370BF
:4011C00008BD00BF004F00400B4F0040A343004008B5054B1B7823B9FFF7C0FF0122024B1A70FFF795FF08BD5081FF1F08B562B60020022100F070F90122014B1A7008BD84
:401200005181FF1F08B500F0ABF908BD08B5012000F068FA08BD00BFF8B505460F46164603EB83035C00A4B202202946402200F00FFA04E00120FFF7F7FD013CA4B2022095
:4012400000F0E8F908B9002CF4D1022000F0E2F910B137800020F8BD1020F8BD2DE9F04180460E46174603EB83035C00A4B2402900D94026204B1B7833B916E00120FFF749
:40128000D3FD013DADB200E0254600F0ADF908B9002DF3D100F0A8F9A8B100F0ABF9FFF7B5FF0022144B1A700DE000F0A3F950B100F09AF938B1FFF7A9FF04E00120FFF77C
:4012C000B3FD013CA4B2012000F0A4F9012801D0002CF3D1012000F09DF9012807D14146324600F015FA38800020BDE8F08100233B801020BDE8F0815181FF1FF8B5FFF7C8
:401300007BFC0646384A137843F0010313701032137843F0010313700125344B1D700227943B1F7002F5E2521B32137803F07F0313700020FFF78EFD2D4C237803F0F90344
:4013400023702C4A137803F0DF03137023782B4323702846FFF77EFD2820FFF77BFD264B1A7802F07F021A701A7802F0BF021A7023783B4323703846FFF76CFD237843F02A
:401380000403237000241D4B1C7001331C703046FFF736FC17200721FFF79CFD17201849FFF784FD18200721FFF794FD18201549FFF77CFD20460721FFF78CFD2046124966
:4013C000FFF774FD28460721FFF784FD28460F49FFF76CFD0C200721FFF77CFD0C200C49FFF764FDF8BD00BFA54300409D6000409443004012600040F8510040846000406A
:401400003D1C0000551A0000C91B0000011C0000C91E000010B5002304E00124214AD4542344DBB2002BF8D01F4B187000231F4A13701F4A13701F4A13701F4A13701F4A63
:4014400013701F4A13701F4A13701F4B4FF400021A604FF080721A6001221A6002221A6011B1012906D00BE0184A137803F0FE0313700AE0154A137843F00103137004E07F
:40148000124A137843F0010313700322104B1A708022203B1A700120FFF7A6FB04220D4B1A7010BDFC81FF1F7081FF1F7681FF1F7481FF1F7581FF1F7181FF1F5C81FF1F7C
:4014C0007381FF1FEC81FF1F00E100E009600040286000401260004038B505460C46064B1B7823B9FFF70AFF0122034B1A7028462146FFF78FFF38BD5281FF1F002304E0E1
:4015000001210E4AD1540B44DBB2002BF8D000230B4A13700B4A13700B4A13700B4A13700B4A13700B4A13700B4A137003220B4B1A708022203B1A70704700BFFC81FF1F95
:401540007681FF1F7481FF1F7581FF1F7181FF1F5C81FF1F7381FF1FEC81FF1F2860004008B5FFF749FB184A137803F07F0313700A32137803F0FB031370A2F5E3520D3A95
:40158000137803F0FE0313701032137803F0FE031370FFF735FB0D4B4FF400021A604FF080721A6001221A6002221A600023084A1370084A1370084A1370084A1370084AF9
:4015C0001370084A137008BD0860004080E100E07481FF1F7581FF1F7181FF1F5C81FF1F7381FF1F5281FF1F014B1878704700BF7581FF1F064B1B7813F0FF0F05D0044B31
:401600001878C0B200221A7070470020704700BF7481FF1F00EB40008000024B18444078704700BF8081FF1F431EDBB2072B0BD8064B00011A18185C00F00F00537843EA09
:401640000020023880B2704700207047FC5F0040431EDBB2072B3BD8F0B4074600EB40039B001C4C2344DB889BB2C3F500739A4207D900EB40039B002344DA88C2F50072A7
:4016800092B200EB40039B00124C2344DB7843EA1223114D04012E192B55D3B2737039B909E0CE5C3D010D4C665501339BB200E000239342F5D3430003449B00054A1344CE
:4016C00000225A705A79D2B20001054B1A54F0BC704700BF8081FF1FFC5F004078600040FE5F0040431EDBB2072B0BD8430003449B00054A134400225A705A79D2B2000145
:40170000024B1A54704700BF8081FF1FFE5F004070B5D9B1054614460E46C8B1082819D8FFF782FFA04203D22846FFF77DFF0446002305E02901094A525CF25401339BB228
:40174000A342F7D32846FFF7CDFF04E0002402E0002400E00024204670BD00BF786000401C4B19781C4A13880B449BB2138000230EE01A4A51680978C9B21948C15451688D
:40178000013151600133DBB21188013989B21180124A128892B20AB1072BEAD90D4A1278D2B2082A00D05BB10E490A7882F080020A700F210C4A117002210C4A117004E05D
:4017C000022209490A7009490A70094A1370014A13707047EC81FF1FF281FF1F6481FF1F006000407281FF1F5D81FF1F7681FF1FED81FF1F0222074B1A708022064B1A70E8
:401800000F22064B1A700023054A1370054A1370012070477681FF1F7281FF1F5D81FF1FEC81FF1FED81FF1F08B5FFF799FF08BD10B4184B197801F00F010239C9B2164AE5
:4018400013880B449BB21380002010E0134B5C68134A125CD2B222705A6801325A600130C0B20139C9B21A88013A92B21A800B4B1B889BB20BB10029E8D10A4B19700A4AB3
:40188000137883F0800313700B22084B1A705DF8044B704729600040F281FF1F6481FF1F00600040ED81FF1F7281FF1F5D81FF1F0623064A1370064A13708022054B1A70DE
:4018C0000022054B1A700120704700BF7681FF1F5D81FF1F7281FF1FED81FF1F064B9B6843B1054B9A6810709A6804490988518000229A60704700BF6481FF1FF281FF1FB6
:4019000008B5134B1A78D2B21A701B78DBB213F0800F02D00F4A137008BD0220FFF7DEFF0D4B1B7803F06003202B05D0402B06D043B900F067FD06E000F01CFF03E000F01C
:4019400005FF00E0002010B90322024B1A7008BD286000405D81FF1F0060004008B5084B1978084A13880B449BB213800022064B1A700120FFF7B2FF0322044B1A7008BD30
:40198000EC81FF1FF281FF1F7681FF1F5D81FF1F08B50B4B1B78DBB2042B06D0062B07D0022B0BD1FFF7DAFF08BDFFF741FF08BD0320FFF793FF0322024B1A7008BD00BFF7
:4019C0007681FF1F5D81FF1F08B50022044B1A700120FFF783FF0322024B1A7008BD00BF7681FF1F5D81FF1F08B50B4B1B7813F0FF0F07D0084A137843F0800307490B7008
:401A0000002313700022064B1A700120FFF766FF0322044B1A7008BD5C81FF1F086000407681FF1F5D81FF1F08B5094B1B78DBB2042B06D0062B07D0022B07D1FFF7F4FEE5
:401A400008BDFFF7C1FF08BDFFF7CEFF08BD00BF7681FF1F08B5284B1B78DBB213F0100F48D013F0800F0CD003F00F03012B16D1FFF746FF214B1B7813F0800F11D10123E8
:401A800012E013F0400F03D0FFF7CEFF01230BE013F0200F07D0FFF77BFF012304E0002302E0002300E0002323B3134B1B7813F0800F1FD1124B1B78124A12781343124AC0
:401AC00013701278D2B29A4214D10C4B1B78DBB2094A127812F0800F07D1084B1B78DBB2054A1370137803F00F03044A1278D2B29342EAD108BD00BF286000405D81FF1FCE
:401B00007281FF1FED81FF1F296000400022064B1A80064B9B682BB1044A916800230B7092685380704700BFF281FF1F6481FF1F08B50F4B1B889BB213B9FFF75BFE15E02F
:401B400002220C4B1A7000220B4B1A70FFF7DEFF0A4AD179937943EA0123054A128892B29A4201D9024A1380FFF7FAFD012008BD6481FF1F7681FF1F7281FF1F0060004032
:401B800008B504220B4B1A7080220B4B1A70FFF7BDFF0A4AD179937943EA0123084A128892B29A4201D9064A13800B22054B1A70012008BD7681FF1F7281FF1F00600040B7
:401BC0006481FF1F5D81FF1F0A4A137803F0FE031370094B9B7C094B1B7B03F00303012B04D0064AD37B83F08003D3730122034B5A7370470B600040FC5F00408081FF1F0E
:401C00000B4A137803F0FD0313700A4B93F82230094B1B7E03F00303012B04D0064AD37E83F08003D3760122034B5A76704700BF0B600040FC5F00408081FF1F08B5FFF787
:401C40005DFC08BD08B50B4B18780138C0B200F091F9094B1B79DBB200EBC30042690749CB5C02EBC3035B68596A0B78044A1380516008BD7581FF1F006000406081FF1F73
:401C80006481FF1F08B50D4B18780138C0B200F071F90B4B1B79DBB200EBC30042690949CB5C02EBC3035B68DB69597813F8022B42EA012204490A804B6008BD7581FF1FC1
:401CC000006000406081FF1F6481FF1F10B50022194B1A80194B18780138C0B200F04AF9174AD378DBB21279D2B200EBC200416902BB1448825C01EBC20149685A1ED2B299
:401D0000022A17D803F10053013B01EBC3000C4A9278D2B211F8333093420BD3406802EB4202920081184C68034B5C60825A1A808A689A6010BD00BF6481FF1F7581FF1F8C
:401D4000006000406081FF1F08B55A4B1A79D2B21B7813F0800F4DD0564B5B78013B052B00F28C80DFE803F0212B3B8A8A03514BDB78DBB2212B09D1FFF764FF4E4B1B889C
:401D80009BB2002B7CD0FFF7D3FE08BD494BDB78DBB2222B76D1FFF775FF474B1B889BB2002B71D0FFF7C4FE08BDFFF78FFF424B1B889BB2002B69D0FFF7BAFE08BD002AF4
:401DC00066D13C4B9B7813F0FF0F63D13A4901230B803A4B1A444A60FFF7AAFE08BD002A5AD1354901230B80354B1A444A60FFF79FFE08BD2F4B5B78DBB20A2B0DD00B2B27
:401E00002ED0092B4AD1FFF761FF2B4B1B889BB2002B45D0FFF7B4FE08BD002A42D1254B9B7813F0FF0F3FD1224BDB78DBB223498B548B5C2349895CDBB28B4203D20021EB
:401E4000204B995409E01F4B9B5CDBB2012B04D91A4B9B5CDBB21B498B54FFF729FD08BD22BB144B9B78DBB2012B21D8114B9B78DBB213498B54FFF71BFD08BD002008BD2D
:401E8000002008BD002008BD002008BD002008BD002008BD002008BD002008BD002008BD002008BD002008BD002008BD002008BD002008BD006000406481FF1FF481FF1F4B
:401EC000FC81FF1FF881FF1F08B500F04BFC08BD10B401223DE0114613010C242148C45402EB42039B00204803445B7913F0FF0F12D002EB42039B0003441B7913F0800F5A
:401F000004D01001194B03449C700AE01001174B03440820987004E01001144B0344802098704B000B449B000F480344DC88E4B208010C4901448C71D888C0F30720C8710E
:401F4000D888C0B20871DB88C3F307234B710132D2B2082ABFD9FF22054B1A705DF8044B704700BF706000408081FF1FFC5F00400A600040074B1B78074A02EBC30253686A
:401F80001A7C824203D903EBC003586970470020704700BF7081FF1F4C290000F8B5404B1B7813F0FF0F79D03D4B18780138C0B2FFF7E0FF047AC2683A4B1878C0B2002399
:401FC0006AE01178814264D13749095CC9B25578A9425ED1917801F07F01D67806F00306DFF8C8E04D000D44AD000EEB05074FF0000C87F803C092F802C087F804C092F893
:4020000003C00EF805C095883D8192F90250002D0DDA012E01D1072700E00D274D000D44AD00224E35446F7101266E700CE0012E01D1052700E009274D000D44AD001B4E0D
:4020400035446F7100266E70DFF868E00F010EEB07060125B57001FA05F529448900134D29440D89C5F307250EF807500D89EDB27570CE88F6B20E4D3D44AE71CE88C6F3D2
:402080000726EE71CE88F6B22E71C988C1F30721697108320133DBB2A34292D3F8BD00BF7581FF1F7181FF1F6081FF1F8081FF1F70600040FC5F0040034B1A78034B03EB2E
:4020C000C2035868704700BF7081FF1F4C29000008B5074B18780138C0B2FFF74BFF28B14268127900EBC203586908BD002008BD7581FF1FF8B500220EE0654E53009D1822
:40210000AD00741900217155A170E1702181A172617061710132D2B2082AEED940B90AE000225C49CA545C49CA540133DBB200E00023002BF4D0594B1B7813F0FF0F00F09E
:40214000A580564B18780138C0B2FFF713FF4368DB7913F0400F05D0514A137843F00103137004E04E4A137803F0FE031370057A012461E0C16800235AE08A7802F07F02F2
:40218000944252D1264604EB44029200404F3A44128992B28F88BA4206D204EB44029200DFF8ECE0724417810A783A4FBA5CD2B24F78BA4239D191F802C0354F720032443B
:4021C000920007EB020E8EF804C091F803E007F802E0CA7802F0030291F90270002F11DA012A02D14FF0070C01E04FF00D0CDFF8A0E072009719BF00774487F805C0012282
:402200007A7012E0012A02D14FF0050C01E04FF0090C1F4F4FEA460E0EEB060292003A4482F805C016460022727008310133DBB2AB42A2D30134E4B2082C9BD9C06800227B
:402240000CE0837803F07F0310F8084B03EB43039B0014490B449C700132D2B2AA42F0D3FFF736FF104B1860002001220AE0084C5300991889002144C8800B89184480B2DF
:402280000132D2B2082AF2D9FFF722FEF8BD00BF8081FF1F6081FF1FF081FF1F7581FF1F7381FF1F8881FF1F7C81FF1F08B5154B1A7902F07F02531EDBB2072B20D853002D
:4022C00013449B0010490B44997841F0010199700021D970597841F0020159701B7913F0800F05D01201094B13448D229A7004E01201064B134489229A70FFF7D9FA08BD6B
:40230000002008BD006000408081FF1FFC5F0040264B1B7903F07F035A1ED2B2072A43D810B55A001A44920021490A44917801F0FE0191700021D17019017F241D484454BF
:40234000517801F0FD015170127912F0800F14D003EB4302920016490A445278D2B2012A05D11B0102461A440C23937019E01B01104A1A440D23937013E003EB4302920077
:402380000B490A445278D2B2012A05D11B01094A1A440823937004E01B01064A1A4409239370FFF785FA10BD00207047006000408081FF1FFC5F004010B50E4B1C79E4B298
:4023C0000D4B18780138C0B2FFF7D4FD43681B799C4201D9012C0AD8084A135DDBB208490B55044B9B78DBB21355012010BD002010BD00BF006000407581FF1F6081FF1FD9
:40240000F081FF1F10B5994B1B78DBB20021984A118013F0800F00F0A980944A5278D2B20A2A00F26E81DFE812F065006C016C016C016C016C010B006C018E006C0196006C
:402440008A4BDB78DBB2012B09D1FFF735FE4268874B5A6012221A80FFF76AFB10BD834BDB78DBB2022B13D1804B9878FFF782FD002800F0488142687D4B5A605A68D17825
:402480005A68927842EA01221A80FFF751FB10BD764BDB78DBB2032B05D028E00A7811440133DBB201E000237249704A9278D2B29A4203D90A7812F0FF0FEFD16B4B9B783A
:4024C00013F0FF0F07D0694B9B78DBB26A4A127C934200D169490B7813F0FF0F00F015810B78634A13805160FFF722FB10BD00F041F910BD13F0030317D0022B40F00781CC
:402500005B490B80594B1B7903F07F0303EB43039B005B4A13449A78D2B25A4B1A7000225A704B60FFF704FB10BD514902230B80554B1A78D2B2534B1A7000225A704B6017
:40254000FFF7F6FA10BD4A4B01221A804F4A5A60FFF7EEFA10BD464A01231380434B1B794B490B445360FFF7E3FA10BD3F4A5278013A0A2A00F2CD80DFE812F04B00CB00D9
:402580009600CB000B00CB00CB00CB001300CB003000364B9B78DBB23E4A1370FFF788F910BD324B9B7803F0FF041BB1601EC0B2FFF7E0FC04B110B9002C40F0AC80334B38
:4025C0001B78DBB29C4206D0304B1C700120324B1870FFF78FFDFFF76BF910BDFFF7ECFE002800F09A80214A1379DBB21279D2B22A490A702A4AD25C2549C95CD3B28B4218
:4026000004D00122244B1A70FFF7C8FCFFF750F910BD03F00303012B17D04BB1022B7ED1124B9B7813F0FF0F7BD1FFF771FE10BD0E4B9B78DBB2012B75D1134A137803F01B
:40264000FD031370FFF734F910BD084B1B7913F0FF0F6AD1054B98781B79DBB21149CA5C22EA0002CA54FFF723F910BD006000406481FF1F1C2A00009C2A0000102A0000BF
:402680008081FF1F5481FF1F7381FF1F7581FF1F6081FF1F5C81FF1F7481FF1F7181FF1FF081FF1F7881FF1F03F00303012B17D04BB1022B3BD1224B9B7813F0FF0F38D144
:4026C000FFF7F4FD10BD1E4B9B78DBB2012B32D11C4A137843F002031370FFF7E9F810BD174B1B7913F0FF0F27D1154B98781B79DBB21549CA5C22EA0002CA54FFF7D8F898
:4027000010BD002010BD002010BD002010BD002010BD002010BD002010BD002010BD002010BD002010BD002010BD002010BD002010BD002010BD002010BD002010BD00BF2A
:40274000006000407381FF1F7881FF1F044B1B7813F0800F01D0024B5B780020704700BF00600040024B1878C0F38010704700BF8F45004008B5124B1B7803F00303012B79
:4027800002D0022B04D00FE00D4B1B79DBB20CE00B4B1B7903F07F0303EB43039B00094A13449B78DBB200E00023074A1268D35C032B02D1FFF7C8FA08BD002008BD00BF5B
:4027C000006000408881FF1F7C81FF1F0E4B70B51E460E4C0025E41AA410A54204D056F8253098470135F8E700F062F9084B094C1E46E41AA4100025A54204D056F8253006
:4028000098470135F8E770BDBC2A0000BC2A0000BC2A0000C42A000010B5431E0A44914204D011F8014B03F8014FF8E710BD03460244934202D003F8011BFAE7704700008B
:40284000002C0000E300000000000000004F00400C00005100402000305100404000C0510040100000000140001000140140000800400140000A004C014000020050014042
:402880002000000001450040014F0040015200400107014001090140040A0140010B0140021701400219014003400140024101400442014006430140024501400146014040
:4028C0000447014004480140044C014001500140015101407E020A4B7C40EE08AF20B820BE10D804DF011F20E810EE0AE810EE0A33803640CC30A640A7806302A640A7808E
:40290000D6401810A640A780AF01C610EE105004D404940808080F409408C20CAE40AF80B410EE50AC08AF40B404E8080214000A4000000000000000C000000000020200A9
:40294000020000006910162E003201010100000054290000010000009C2A00000000000000000000010000006C29000001000000702A000002000000902900000100000032
:40298000A0290000000000008C290000030000000000010340000300000082034000030001000000A829000000000000DC29000000000000D02900000000000000000000B7
:4029C00001000000E829000001000000822A0000410000004882FF1F8C82FF1F410000000482FF1F0082FF1F240005010900A1000900A1000900150025FF75089540910299
:402A00000900150025FF750895408102C0C000000A0330003000300031000000040309042C0343007900700072006500730073002000530065006D00690063006F006E0017
:402A400064007500630074006F0072002203500053006F0043003300200042006F006F0074006C006F006100640065007200000009022900010100803209040000020300F3
:402A8000000209211101000122240007050103400001070582034000010000001201000200000008B4041DB70130010280010000F8B500BFF8BC08BC9E4670475100000040
:402AC000E9000000F8B500BFF8BC08BC9E4670472D000000E82A00000881FF1F2000000068010000000000000000000040280000442800000000A08C40190100480000005D
:402B000000A24A04000000000000000000000000000000000000000000000000000000000000000000000000000000000000000000000000000000000000000000000000A5
:402B40000000000000000000000000000000000000000000000000000000000000000000000000000000000000000000000000000000000000000000000000000000000055
:402B80000000000000000000000000000000000000000000000000000000000000000000000000000000000000000000000000000000000000000000000000000000000015
:402BC00000000000000000000000000000000000000000000000000000000000000000000000000000000000000000000000000000000000000000000000000000000000D5
:402C000000800020112C0000F5320000F532000008B500F08FFB00BF10B5054C237833B9044B13B10448AFF300800123237010BD9081FF1F0000000038900000084B10B5C2
:402C40001BB108480849AFF300800848036803B910BD074B002BFBD0BDE81040184700BF00000000389000009481FF1F0881FF1F00000000154B002B08BF134B9D46A3F559
:402C8000803A00218B460F461348144A121A05F0BAFC0F4B002B00D098470E4B002B00D098470020002104000D000D48002802D00C48AFF3008005F075FC2000290000F066
:402CC000E9F905F05BFC00BF000008000000000000000000000000009081FF1F6882FF1F000000000000000030B45B4B9A78910768D59A78520767D4022102794379002A0D
:402D00000BBF4FF480144FF4401400224FF40012002B4FD10468514B09010B4464055C608179C479072994BF42EA014242F400220CB142F0040200292CD081680978D972C3
:402D40008179012926D98168497899728179022920D9816889785972817903291AD98168C97819728179042914D981680979D973817905290ED98168497999738179062920
:402D800008D98168897959738179072902D98168C9791973324842F40002324C4FF4803142F00802012501601A6000201D60216030BC70472246294B046809010B44E40018
:402DC0005C60ADE7012198E79A78150701D4032193E79A78D10637D59A78920636D59A78550635D59A78110634D59A789207E9D59A78550780D59B781907E8D5164B9A785F
:402E0000D20621D59A78950620D59A7851061FD59A7812061ED59A789507D3D59A7851077FF56AAF9A781207D1D59A78D5060BD59A7891060AD59B785A0609D5064B9B7880
:402E40001B0607D50120B3E7042156E7052154E7062152E7072150E708A0004020A0004080E100E000E100E0072807D8044A0001835C03F0FC0343F002038354704700BF7B
:402E800020A00040154B187810F0010023D12DE9F043134A134992F8009092F8018092F802C092F803E0177956799579D479082283F80B9083F80A8083F809C083F808E0A7
:402EC000DF739E735D731C730A701A6842F001021A60BDE8F0830120704700BF20A000403C82FF1F3882FF1F044B4001C25CD20703D5C25C42F00102C2547047A0A0004003
:402F000038B5044690F8860003F078F902F064FF002002F079FFB0B994F88730D4F8802094F888000133DBB28342B2FBF0F084F8873004BF002384F8873000B202F0A6FF35
:402F4000A4F8840038BD94F88750D4F8803034F815209B1AC4F8803002F078FF24F8150094F88730D4F8802034F813000244C4F88020D5E770B590F8885004467DB1012DCA
:402F80004BD094F8893094F88A200133DBB29A4284F889309CBF002384F8893070BD90F8896030F8160004F03DFE0146D4F8800004F082FDC4F8800003F0F6FE24F8160090
:402FC000284603F0EBFE94F8893034F8130004F029FED4F8801004F071FD064694F88A00C4F8806004F01EFE0146304604F022FF274904F06BFE064604F09EF804F012FEA3
:403000000146304604F016FFC4F88400284604F08DF894F88850012DB3D194F8895034F8150004F0FFFD0146D4F8800004F044FDC4F8800003F09CFF24F81500002003F021
:4030400091FF94F8893034F8130004F0EBFDD4F8801004F033FD054694F88A00C4F8805004F0E0FD0146284604F0E4FE084904F02DFE054604F044F904F0D4FD0146284631
:4030800004F0D8FEC4F88400002004F033F978E70050C3472DE9F04F0123ADF5457D00248DF808338DF8784202F01AFD00F092FB03F094F803F00CFE03F0EEFE03F0D0FF6A
:4030C00004F0B2F8204603F099F803F00DFA03F045FD03F0ADFC62B68022214613A805F092FA2146802236A805F08DFA2146802259A805F088FA214680227CA805F083FA9D
:4031000021468022A0A805F07EFA00230A2275488DF879428DF8094325469C939D93C093C1938DF87A228DF80A23A14600F07AFC27460394264604940594DFF8B4816A4CC0
:4031400000F004FC433835281CD8DFE800F0961B1B1B1B1B1B1B1B1B1B1B1B1B1B1B911B1B1B1B991B1B1B1B1B1B1B1B1B1B961B1B1B1B1B1B1B1B1B1B1B1B1B1B1B911B36
:403180001B1B1B994FF0000A002003F037F802F023FE002002F038FE002876D1049B0136A8FB0330F6B2322E40F30F1008BF002602F06CFE8346012003F020F802F00CFE90
:4031C000002002F021FE00287CD1039B0137A8FB0330FFB2322F40F30F1008BF002702F055FE022003F00AF802F0F6FD002002F00BFE002859D1A8FB09300135EDB2322D6D
:4032000040F30F1008BF002502F040FE7CA8FFF7B1FEA0A8FFF7AEFEAA23BB222370CC236270A370DD22EE230021E2702371FF2211230520A1716271E37101F08BFABAF171
:40324000000F03D1059B002B3FF47AAF9D9804F08DFE8246C19804F089FE534600905A4606A8224905F0F8F906A800F0DBFB67E701234FF0000A059386E74FF0010A83E744
:403280004FF0000ACDF814A07EE713AB33F816B0049BCBEB030B02F0D9FD80B20BEB0003049313AB23F8160078E759AB33F81530C3EB090902F0CAFD59AB80B2814423F8FA
:4032C000150098E736AB039A33F81730D31A039302F0BCFD039B80B20344039336AB23F8170072E7449000003C82FF1F589000001F85EB51FEE700BF08B5C0B201F020FAAD
:40330000FEE700BF094908B50A68094B1044C31A802B02DC0860104608BD05F029F90C234FF0FF320360104608BD00BF1081FF1F6882FF1F80B5134FF7B1134E002556F81A
:403340000C0C56F8084C56F8102C03463CB1043A52F8041F43F8041B191A8C42F8D156F8040C1A4620B142F8045BD11A8842FAD1013F06F11006E2D105F014F9FFF78AFEDC
:40338000FEE700BF010000004492000008B5114A114B12491A600B68114A43F4007311480B600023032B94BF50F823100E490133302B42F8041FF5D10C4B0D4A18780D4951
:4033C0000D4B08701A6000F087F80C4B00221A6008BD00BF0004FA050CED00E014ED00E0FC7FFF1F002C0000F5320000BC7600400080FF1F0481FF1F08ED00E00081FF1FCD
:40340000064B1B78DBB220B9044A03F0DD0313707047024A43F022031370704776580040022823D8124A012383401178DBB20B421CD1F0B50F4C0B43271854F82060397C35
:4034400096F800E03D7B501800794EEA05051370357038B904EB81035D690C44237F2C7823432B700A4401301071F0BD704700BFB081FF1F68900000022827D81449012306
:4034800083400A78DBB2134220D0F0B5114D22EA030305EB000E9EF8104055F820700E19327938789EF80CE0013A20EA0E00D2B20B703870327142B905EB84035A692C44D9
:4034C0001378217F23EA01031370F0BD704700BFB081FF1F689000002DE9F84F72B642F251209149914B60250D70914A02211980DFF8AC921823DFF8ACB213708D4E032222
:403500008D4F8E4CA9F800208D4D8BF800304FF00509DFF894A2DFF89482DFF894C2DFF894E24FF0470BA6F800903B704FF04026A4F800B04FF04D09824C08278AF8003027
:40354000A8F800908CF800308EF8001037702A7022787D497D4CD2B285F8A12406F22526238019250024088001E0032C0DD033784FF4F07003F0010343EA440400F02CFC12
:40358000013D04F00304F0D1FEE7714B714EDFF828E271480022022570494FF480784FF0070C4827A3F8008083F800C08EF8002037701A7005700B78144643F01F03684A93
:4035C0000B701378674D43F004031370A5F1200604EB440306EB4303186AAA880134002105F011F8082C05F106055F4BF0D15F4E596D5F4880225F4F04F0FAFF002506F110
:403600008C0E56F8043F13F0FF0C23F0FF0418D00CF1FF3C5FFA8CFC0CEB050007EB400007EB450300F1904003F190438F308D3313F8012C13F8021B83421155F8D1013541
:4036400065447645DDD14C494C4A0B784C4C43F002030B701378A1F5863143F0020313702278413942F0400222700A78454D42F01002454B0A70454E03CB2860696093E803
:40368000070003C60E35328003F10C0207CA03C5A6F6A6662A8032783D4D42F00802183303CB32702B783B4FDFF810813A4A3D78DBB298F80060DFF808A1DFF80891106082
:4036C00003F007001B09DFF800C1DFF800E15160EDB28AF80000F6B289F800302F4B45F0030146F003024FF0400A4FF0200B39700A2088F800208CF800A08EF800A083F818
:4037000000B001F04BF894E80F00DFF8C4E010344FF0440C88F800603D708EF800C007C42380BDE8F88F00BF004800408040004082400040884000408A4000408C400040F8
:4037400000420040080100492042004022420040044000400840004001400040A2430040E846004088900000689000007C05004880180140800500000350014013500140A0
:40378000A043004002510040FC0D0048C0510040CF010049F846004022510040235B004084400040864000408E40004090400040924000400043004006400040F9460040E7
:4037C0006E5800406F5800400159004003590040765800402DE9F843184B1A78AAB9DFF87880DFF878E0164E164C17484FF072094FF0200C06274725012188F800908EF836
:4038000000C0377025700270197000F004FB05460E4C0F4923780F4A43F0200323700B7843F010030B70137843F01003137000F09DF92846BDE8F84300F0F1BAB881FF1F6A
:403840002A6500403A650040886400409A65004099650040986400408A65004089650040F0B50949DFF830E0084E094C094B4FF0720C20270625472000228EF800C03770D6
:40388000257008701A70F0BD3A650040896500402A650040886400408A65004038B500F0BAFA05460A4C0B4923780B4A43F0200323700B7843F010030B70137843F0100319
:4038C000137000F053F92846BDE8384000F0A7BA9A650040996500409864004010B500F09AFA04460A4A137803F0DF03137000F04DF90849084A0B78204603F0EF030B7088
:40390000137803F0EF031370BDE8104000F087BA9A650040996500409864004000207047704700BF014B1870704700BF89650040014B1878704700BF49650040024B1878D3
:4039400000F07F00704700BF69650040074B1B78DBB203F0200202F0FF002AB1044A13F01E0F107818BF0020704700BF6965004049650040044B054A1B78107803F07F0364
:4039800040EA0320704700BF6965004049650040024B1878C0F34010704700BF6965004008B500F038FA064B1A7842F001021A701A7802F0FE021A70BDE8084000F02FBA8F
:4039C00099650040704700BF014B1870704700BF29650040014B1870704700BF39650040014B1870704700BF88640040024B1B780BB1024B18707047B881FF1F48650040F1
:403A0000014B1878704700BF68640040034A13785B07FCD4024B1870704700BF6864004048650040094B1B787BB130B404785CB1074A084D002113785B07FCD4013189B269
:403A40002C70445C002CF6D130BC7047B881FF1F68640040486500400A4B1B7883B179B130B44C1EE4B2084A084D0444411E11F8010F13785B07FCD4A1422870F7D130BCA7
:403A8000704700BFB881FF1F68640040486500400B4B1B789BB10B4A13785B07FCD40A4B084A187013785907FCD4074B0D21054A197013785B07FCD4034B0A221A7070473F
:403AC000B881FF1F6864004048650040054B1878C0B243075ABF80F00200C0F340000420704700BF6864004008B500F094F9064B1A7842F001021A701A7802F0FE021A70CC
:403B0000BDE8084000F08BB99865004012490B78C3B1F0B4B8B9114B114C1F7867260025104A4F701E70257013789C07FCD400F0FD03012B0BD00138022802D84A78074B3C
:403B40001A70F0BC70470328E5D00128F3D1054A1378DB07FCD5EEE7B881FF1F3A6500404865004068640040704700BF0549064A0B7843F010030B70137843F0100313704E
:403B8000704700BFA2430040B24300400549064A0B7803F0EF030B70137803F0EF031370704700BFA2430040B2430040164B1B78DB0628D5154B70B41946154C154D002257
:403BC000154810261A702E702270027802F07F020270B4F87C00072280B224F8120C1A700B780A4A13F00103FAD1074D0B4C29780B4E01F0EF012970217801F0EF012170FF
:403C00001370308070BC7047A243004001400040144000401040004008400040B243004090400040054A137818B143F010031370704703F0EF031370704700BFB2430040A1
:403C4000F0B5314D314E2A78338802F007049BB283424FD02E4A1278D2B244B92BB930802B7803F0BF032B70F0BD002846D002F0100202F0FF052AB3264EDFF8A4C0264F27
:403C80000024264A4FF0100E8CF8004087F800E03470147804F07F04147096F87E20160729D41F4A1F4F144607263B80167023781B4A13F00103FAD1154E347804F0EF0418
:403CC00034701370124B1C78E4060ED56FF4687213441A460029134C14BF03210121208019701378DB07FCD4F0BD084A10801A782A431A70F0BD0028E4D1D2E72B7843F0B3
:403D000040032B703080F0BD9240004090400040A24300401440004010400040084000400140004002400040014B188880B2704790400040034A00F0F800137818431070D2
:403D4000704700BF92400040C043034B40F007001A7810401870704792400040024B187800F0F800704700BF92400040134B144A1B8811789BB2490708D000B9A3B1104AEF
:403D8000137803F0F8031843107070470028F6D0002BF4D1137803F0F80318431070137803F0BF0313707047137843F040031370137803F0F8031370704700BF9040004046
:403DC00092400040024B187800F00700704700BF9240004000000000142816D902B4012114381049097811F0C001890904B40E4A515C04BC00BF00BF00BF8841FDD500BFC4
:403E000000BF02BC704700BF00BF70F10400FCD570470B050709EFF3108072B6704780F31088704700480040123E0000AFF300802F4B1B785A070AD12E4B1B78DB0706D5A4
:403E40002D4901230A7802F0FD020A7006E0284B1B7803F00703012B09D0002308283ED8DFE800F037312B251F19133D0B00234B1B7813F00103E3D1F0E7214A2149127870
:403E8000D2B20A70002B2CD170471F4B1D4A1B78DBB2137070471D4B1A4A1B78DBB2137070471B4B174A1B78DBB213707047194B144A1B78DBB213707047174B114A1B7847
:403EC000DBB213707047154B0E4A1B78DBB213707047134B0B4A1B78DBB21370704701BE7047054A137843F002031370704700BF93430040A543004009600040B54300403C
:403F00000F010049A14600400D0100490C010049890100490B0100490A010049090100490801004938B5074B1B68DB0300D438BD054C04F1140554F8043B03B19847AC425F
:403F4000F9D138BD10E000E0BC81FF1FF8B5184A137843F00103137000B9F8BD1549164B0D7892F860711E7805F004051820EDB2FFB2F6B2114C01F089FD012001F02EFD21
:403F800010F0010010D12378DA07F6D52378DB07F3D525B9074A137803F0FB031370084A054B17701E70F8BD1020002DF7D1F1E7204200400043004082430040254200402B
:403FC00080430040024A137803F0FE0313707047204200400F4B1B78DB0700D501BE072816D90139C9B20F2912D8013AD2B2062A0ED830B4084B094D094C2870197023784C
:4040000003F08F0343EA0212D2B2227030BC704701BE704720420040234200402242004021420040084B1B78DB0700D501BE022801D901BE70474FF04022137803F0FC0309
:4040400018431070704700BF204200401549164A0B7843F010030B70137843F01003137000B9704770B5114B11F8A04C12F8306C1D7804F004040020E4B2F6B2EDB201F0EC
:4040800005FD012001F0AAFCC307FAD524B9084A137803F0FB031370064A044B16701D7070BD00BFA0430040B04300408243004000430040804300400549064A0B7803F0EC
:4040C000EF030B70137803F0EF031370704700BFA0430040B043004070B54A4B08281C78064604F007041AD00546062C00F28880DFE804F02C052E1030042A000524AC42CB
:4041000009D9082E78D8DFE806F027367161695159773E0000243046FFF78AFEF1E70325062C6DD801A353F824F000BF4D41000017410000514100001541000055410000AE
:40414000FD400000494100000624D8E70224D6E70324D4E70424D2E72A4A137803F0B80343F003031370274AA542137803F0EF03137016D370BD234A137803F0B80343F046
:4041800001031370EFE71F4A137803F0B80343F0420313701B4AA542137843F010031370E8D23046BDE87040FFF742BE154A137803F0B80343F005031370D4E7114A1378F3
:4041C00003F0B80343F006031370CCE70D4A137803F0B80343F002031370C4E7094A137803F0B80343F004031370BCE7054A137803F0B8031370B6E701BE082ECAD0B2E7ED
:4042000001BE7CE700420040012816D00FD302280BD14FF040210B780E4A03F0BF030B70137843F020031370704701BE7047094A137803F0DF03137070474FF040210B7897
:40424000044A43F040030B70137843F020031370704700BF00420040024A137843F010031370704700420040024A137803F0EF031370704700420040044A00F00300137886
:4042800003F0FC0318431070704700BF05400040014B1870704700BF04400040F8B50446FFF7B9FD3A4A3B4B12781B78D2B2DBB24CB353EA02234FD1374A1378DBB2062B42
:4042C00001D807211170354D354E2978354A002701F0F001297037701178334F41F080015FFA84FE240A117087F800E006F80D4C15F8131C41F0010105F8131C117801F0BC
:40430000BF0111701FE0244A1378DBB2062B20D9244A224D1178224E41F0400111702C78002104F0F0042C70317014781E4F44F080041470397006F80D1C15F8132C42F057
:40434000010205F8132C144A1370BDE8F840FFF766BD07211170DBE7104A114D1378002603F0F0030F4913702E700B780E4EE7B243F08003240A0B70133A377005F80D4CD3
:40438000137843F001031370BDE8F840FFF747BD07400040064000400440004014400040104000400840004002400040044A00F00300137803F0FC0318431070704700BF13
:4043C00009400040024A137843F002031370704700430040024A137803F0FD031370704700430040024A137843F004031370704700430040024A137803F0FB031370704711
:4044000000430040024A137843F020031370704700430040024A137803F0DF0313707047004300404FF040221378800000F00C0003F0F30303431370704700BF074A1378FA
:40444000DBB228B903F0EF011170C3F30010704743F010011170C3F3001070470043004070B5274B2748284AF3240321047019701378264C03F0F30343F00403137023783A
:4044800082B043F001034FF47A722370ADF80620BDF806309BB2ABB123781D4D9A0603D512E023789B060FD42878FFF795FCBDF80630013B9BB2ADF80630BDF806309BB236
:4044C000002BEED102B070BD104C0E490C4B0622F320267808701A70287800EB80004000FFF77AFC084A137803F0F30343F004031370237803F0FD03237002B070BD00BF15
:40450000984600400A43004009430040084300401481FF1F10B40A4B0A48F32400220A4904701A700B78094A234043F004030B70137803F0FC0313705DF8044B704700BF09
:40454000984600400A4300400943004008430040024B187800F02000704700BF0843004070B51E4D1E4B2C78F3220128C4F340041A7016D01B4A06211B4B1170187800EB57
:4045800080004000FFF728FC184A2046137803F0F30343F0040313702B7803F0FD032B7070BD114E83F88E03307800EB80004000FFF712FC0D4A137803F0F30343F00803FF
:4045C0001370307800EB80008000FFF705FC2B78204643F002032B7070BD00BF084300400A430040984600401481FF1F09430040F0B5264C83B08DF80600237843F00103CA
:40460000237008B903B0F0BD214B2249224A18200F7816781D7801F039FA9DF80630FFB2F6B2EDB213B3042322788DF807309DF8073073B1012001F0D1F9C207FAD59DF87E
:404640000730013BDBB28DF807309DF80730002BF0D12378190617D59DF80630013BDBB28DF806309DF80630002BDCD110207B0704D4084A137803F0FB031370064A044BB4
:4046800016701D7003B0F0BD0020F0E710420040824300400043004080430040024A137803F0FE031370704710420040024A137803F0FB031370704710420040024A137871
:4046C00043F004031370704710420040014B1878C009704710420040024A137843F040031370704710420040024A137803F0BF031370704710420040044A00F01F0013786D
:4047000003F0E00318431070704700BF12420040044A00F00F00137803F0F00318431070704700BF13420040044A0001137800F0700003F08F031843107070471342004034
:4047400001BE7047024A137843F0010313707047F6460040B0F5004F70B506461AD904460D4DA4F500446868FFF736FBB4F5004FF7D8A6F50043013B23F4FF4323F07F0360
:40478000A6F50046F61AA86800FB06F0BDE87040FFF722BB004DF6E71481FF1F024B1B7803FB00F0FFF718BB1481FF1F10B458B90E4C0F490F4848220F4B1A705C60D86098
:4047C00099605DF8044B70470C4C00F2E73100F574230B4AA4FB014103F23F23A2FB03328909CC03C2F38742E6E700BF0000A08C4019010000A24A041481FF1FD34D6210F2
:4048000083DE1B430E4B00F003001A78490102F0FC0202431A701A7801F0600142F080021A701A7802F07F021A701A7802F09F02114319701A7842F010021A70704700BF49
:4048400083430040014B01221A70704784430040F8B50F460546FFF7DEFA204B204A214C0121126819602378DFF890E003F0BF0323709EF8003007F00F0103F0F0031943D0
:40488000064619488EF800100378184943F001030370087802F00107FFF79EFAFFF7BBFA1349144B1A780B7D134323F001030B75FFF7B5FA237865B903F0BF032370084BC1
:4048C0000D4A0121304611601F60BDE8F840FFF7A6BA43F040032370F1E700BF80E100E000E100E0F7460040F54600401481FF1FBC81FF1FFA46004080E200E0F4460040C2
:404900002DE9F04188460546FFF785FA1E4B1F4A1F4C01211268196023781E4F03F07F0323703B78064603F00F0343EA08111A48C9B239700378194943F002030370087868
:4049400002F00107FFF748FAFFF765FA1449154B1A780B7D134323F002030B75FFF75FFA237865B903F07F0323700F4A074B0121304611601F60BDE8F041FFF750BA43F09F
:4049800080032370F1E700BF80E100E000E100E0F7460040F4460040F54600401481FF1FBC81FF1FFA46004080E200E070B51149114A0B78114D03F0FE030B701378104EF3
:4049C00003F0BF031370FFF726FA32782B7D134323F001032B75FFF722FAFFF71CFA2B7D34781C4324F001032B75FFF718FAE307F3D470BDF5460040F7460040BC81FF1F48
:404A0000FA46004070B50C490C4A0B780C4D03F0FD030B7013780B4E03F07F031370FFF7FAF92B7D34781C4324F002032B75FFF7F6F9A307F3D470BDF5460040F746004030
:404A4000BC81FF1FFA460040F8B5FFF7E4F90746134D144B012614492C681E600B78134A03F07F030B701378114943F0040313700878FFF7B1F9FFF7CEF90E4A0E4B3440C5
:404A80001978137D0B4323F004031375FFF7C7F90A4B38461E602C60BDE8F840FFF7BFB900E100E080E100E0F7460040F54600401481FF1FBC81FF1FFA46004080E200E03D
:404AC00070B50A4A0A4D13780A4E03F0FB031370FFF7A1F92B7D34781C4324F004032B75FFF79DF96307F3D470BD00BFF5460040BC81FF1FFA46004038B50546FFF78BF9E0
:404B0000064A074B1C78137D1C4324EA05051575FFF785F904F0070038BD00BFBC81FF1FFA46004010B5FFF776F9044B1C78FFF776F9E4B204F0070010BD00BFFC4600409F
:404B400010B5FFF768F9044B4FF0FF321C681A60FFF765F9204610BD80E100E010B50446FFF759F9024B1C60BDE81040FFF757B900E100E008B5FFF74EF900BF00BF00BF81
:404B800000BF00BF00BF00BF00BF00BF00BF00BF00BF00BF00BF00BF00BF064A13889BB243F0040313801388BFF36F8FBDE80840FFF735B900480040054B0F281A6800D9B7
:404BC00001BE00F00F0352F8230042F82310704708ED00E0044B0F281B6800D901BE00F00F0053F82000704708ED00E0064B1F281A6800D901BE00F01F0000F1100352F8E8
:404C0000230042F82310704708ED00E0054B1F281B6800D901BE00F01F00103053F82000704700BF08ED00E0072900D901BE1F2800D901BE00F01F0000F16040490100F51B
:404C40006440C9B2017070471F2800D901BE00F01F0000F1604000F564400078400970471F2800D901BE044A00F01F031068D84000F00100704700BF00E100E01A4A2DE9EC
:404C8000F04393692BBB19491948C968194CA0FB0101194D20681360D5F80080DFF86090DFF860E0154FA5F6084540F0040089094FF400464FF0010C53609360D360136129
:404CC000C8F83C90C2F818C02060CEF800103B602E60084B1A6842F002021A601A6842F001021A60BDE8F083BC81FF1F1481FF1FD34D621010E000E008ED00E018E000E02C
:404D0000253F000014E000E0134B1448DA682DE9F0411349134CA0FB02020023124D20680B60D5F800C0DFF84880DFF848E00F4FA5F6084540F0040092094FF400464B60B5
:404D40008B60CB600B61CCF83C802060CEF800203B602E60BDE8F0811481FF1FD34D6210BC81FF1F10E000E008ED00E018E000E0253F000014E000E0044B1A6842F0020230
:404D80001A601A6842F001021A60704710E000E0024A136823F001031360704710E000E0024A136843F002031360704710E000E0024A136823F002031360704710E000E017
:404DC000024B20F07F401860704700BF14E000E0024B186820F07F40704700BF14E000E0024B186820F07F40704700BF18E000E0044A012813680CBF43F0040323F00403F4
:404E00001360704710E000E0024B1868C0F30040704700BF10E000E0014B00221A60704718E000E00246034B53F8200043F82210704700BFBC81FF1F014B53F8200070474E
:404E4000BC81FF1F10B4154B154A1B781549DBB203601478023243EA042303600C78124943EA0443036012F8044C043143EA0463036011F8043CDBB2436012F8064C43EABE
:404E80000423436009785DF8044B43EA01434360127843EA02634360704700BF0301004904010049EC460040010100492DE9F04FDFF8A8A15648DFF8A891DFF8A881DFF868
:404EC000A8C19AF80010534B99F800B0043098F800209CF8006010F8045C10F8024C007859724D494D4F097883F80AB097F800B0DA724B4ADFF874E112781E73494E083FC2
:404F000036785D73484D2D789C73484C2478D8734748007819744749097883F811B097F818B09A74444A1278DE741D755C759875D97583F818B05A76404A414E92F800B05B
:404F40000232127883F81AB097F81EB0DA763D4A3D4D127883F81CB09EF800B05A773B4A3B4C127883F81EB096F800B0DA772A7883F820B094F800B0364883F82120364938
:404F8000027883F822B091F800B083F82320002283F824B08AF80020DFF8D4B089F8002088F800208CF8002007F8042C07F8022C3A70BA713A727A72BA723A73BA733A7463
:404FC000BA753A767A76BA763A77BA7787F820208EF8002087F8282032702A70227002700A709BF8002002F0080202F0FF011AB983F82E10BDE8F08F9BF80020012102F0D2
:40500000F7028BF8002083F82E10BDE8F08F00BF065A0040D881FF1F105A0040125A0040135A0040145A0040165A0040185A00401A5A0040205A0040235A0040245A004025
:40504000335A00402A5A0040345A0040325A0040365A0040385A00403A5A0040005A0040025A0040035A0040045A0040305A0040224300402DE9F04F3F4B404D93F809C0EF
:4050800093F80AE03E48DE7A93F80CB093F80DA093F80E9093F80F803A4A85F800C093F810C0394C80F800E093F811E0374916709E7C374F84F800B093F813B081F800A02D
:4050C00093F814A087F8009093F8159085F80A8093F8168080F80EC093F817C082F80FE093F818E0E6735C7E2A4E81F80EB087F80EA085F8189080F8188082F81DC086F85D
:4051000000E04C7793F81AE0DE7E1C7F597F93F81EB093F81F9093F820C087F81CE093F8217085F8266093F8225080F8264093F8230082F8271093F8242093F82E30DFF817
:4051400068A0DFF86880DFF868E0134E134C1449012B8AF800B088F800908EF800C03770257008708AF80A2004D10E4A137843F008031370BDE8F08FD881FF1F005A00406A
:40518000025A0040035A0040045A0040065A0040085A0040225A0040345A0040365A0040385A004022430040305A0040325A0040335A004070B56B496B4B0A781E7808787B
:4051C000002500F0F000087018781D7091F85F34664C02F00F0203F0C003372084F8302084F8316084F83530614E02F037FA614B187819781A78337800F0070003F00303B1
:4052000001F04001C2F30012012B84F8330084F8341084F8392084F8323000F08980564B1B7813F001035FD184F83E300420FEF753FF524B1B7803F0100303F0FF02002B19
:405240006DD0012384F836304A4B1B7803F0200303F0FF02002B44D04FF040231B78002013F0400F0CBF0223012384F83730FEF7CBFF4FF04022137803F0300384F83830E7
:405280001BB1137803F0CF0313703A4B1B78DB0642D43B4B1B78DBB284F83A30002B37D194F8323083BB374A374B12781B7812021343A38723BB2F4B344A1B7803F007033B
:4052C000D05C02F0CBF9324B1B7813F0010311D184F83F302F4B1B78C3F3800384F8403070BD84F83720C4E7012384F83E30FEF769FE9BE7012384F83F30FFF7CFF9E9E782
:405300000020FEF7CBFFD6E70020FEF7B5FFCAE70020FEF7BDFFC3E7FEF7A6FFB9E7104684F83620FEF792FE0620FFF737FA8BE74FF040231B7803F00303012B0AD005D32A
:40534000022B0BD10320FEF797FF68E72846FEF793FF64E70220FEF78FFF60E72846FFF7EFF95CE7A1430040A2430040D881FF1F054000400042004020420040A0430040E0
:40538000044000400740004006400040C4900000104200400B4000402DE9F043814E824D334653F8080F95F8402099889B7983B0012A0090ADF804108DF8063000F0A18094
:4053C00095F83F30012B00F0B180372002F046F995F83200744C831E012B7ED9724B95F8342093F8333012F0400F02AA134413F8080C02D0032800F0D180FEF76DFE95F80F
:4054000034306A4A13F0400F137814BF43F0400303F0BF03137095F83630012B44D095F83700FEF7F1FE95F83930012B66D04FF040210A7895F8383002F030029A4204D0D8
:405440000A7802F0CF0213430B7095F83E30012B00F08A8095F83200534C01282FD995F836301BB9524B1B78DB0644D4514A524B12781B78A88F43EA0223984201D0FEF7F8
:405480000DFF4E4995F835200B7895F8306095F831404B484B4D03F03F0313430B702E70047003B0BDE8F083414B1B7803F0100303F0FF00002BB2D1FEF7C8FDAFE7424A1A
:4054C00094F83A3012789A4204D01846FEF7E0FE94F83200FEF7D0FEC1E73B4A94F83A3012789A4204D01846FEF7D2FE94F83200FEF7C2FE72E7FEF7DFFDB7E7FEF7ACFE70
:4055000095E72A4B1B7803F00703F05C00EB8000C0EB0010FEF760FC2C4A137843F00403137095F83F30012B7FF44FAF0020FFF75FF8274BDFF8749098461B780524C8278D
:4055400099F80030013C03F00703F05CA4B207FB00F0FEF741FC98F8003013F0800F3FF434AF002CECD130E70020FEF7EFFC5020FFF714F9174BAB241E461B780120FFF750
:405580000DF93378013C13F0010FA4B203D03378DA073FF55FAF002CF0D15BE70820FEF79BFD38E7C4900000D881FF1F00420040A0430040074000400640004000480040EB
:4055C000A2430040A1430040044000400B4000401042004025420040F8B50C4610B10020FFF7AEF8154DC4F30712154895F800C004F00F032A70134990F800E0124E03708B
:40560000C4F300340F780C703278104B02F0F80242F00102327083F804C083F805E09F71327800BF00BF30BF5FFA8CF45FFA8EF2FBB22C7002700B70F8BD00BF9843004077
:40564000994300409A43004093430040D881FF1FF8B50C460646FEF7DEFB344B1B7803F0080303F0FF01002B53D1314A0546137803F01F031370002E53D1FFF717FC2D4A3E
:40568000C4F307102C4B167804F00F0110701878C4F3003419706FF4CC710B44917894701A78264C607150072671A17135D019781A7801F0070102F0F802002084F82C10D9
:4056C0001A7084F82D00194A137803F0F80343F003031370137800BF00BF30BF94F82D30164A012B07D0164992F82C200B7803F0F80313430B70FFF7BDFC284694F804E097
:405700006679A2790B4F0C490E4B87F800E00E701A70BDE8F840FEF782BB012384F82D30D1E70846FFF70CF8A7E700BF93430040834600409843004099430040D881FF1FDA
:40574000004200409A4300402DE9F0470646FEF762FB924B1B781C0700F1C6809049914A0B78054603F01F030B701378580703D5137803F0FB0313700120FEF75FFE8A4CB9
:405780008A4B874F207019781A783B78C2F38002C1F3400103F01003A270617003F0FF02002B00F0A5800123E370814B1B7813F0010340F0A88084F825307D4B1B7803F03B
:4057C000020303F0FF02002B40F0BB8084F82720774B1B7803F0040303F0FF02002B40F0C08084F82920FFF761FB724F72483309724A4FF0B0084FF0FF0903F0040397F828
:4058000000E06F4990F800C0DBB287F8009080F80080177806F00F06137091F8008000200E70684B9678907019785F4A490784F807E084F808C0277184F80580A67174D149
:40584000012382F82D30554A137803F0F80343F004031370137800BF00BF30BF94F82D30514A012B07D0574992F82C200B7803F0F80313430B7094F825304B4A012B00F08F
:40588000868094F82730484A012B79D094F82930012B6CD0FFF7EEFB6378012B6DD0A378012B67D02078FEF7C9FDE37823B93C4A137803F0EF031370284694F807A094F8DA
:4058C000088094F804E06679A279DFF8E890DFF8E8C03A4F3A493C4B89F800A08CF8008087F800E00E701A70BDE8F047FEF797BA3B78E27043F010033B702D4B1B7813F0A3
:4059000001033FF458AF314A314B12781B7802F00F02C3F38013012184F8262084F82A3084F82510FFF742F847E71E78197806F0070601F0F80182F82D0082F82C601970B6
:4059400081E7224A224B12781B781209DB09012184F8282084F82B3084F82710FFF752F836E7012384F82930FFF7AAF83BE7FFF76BF88FE7FEF736FD94E7FEF723FD8EE74E
:4059800092F82B0092F82810FEF7BAFF7EE792F82A0092F82610FEF75BFF72E7934300408346004031430040D881FF1F00430040F5460040854600408646004098430040C7
:4059C00099430040004200409A430040F4460040F74600404020FFF7B7BE00BF38B50546FEF719FA074A084B1C7892F842301C4324EA050582F84250FEF711FA04F0070079
:405A000038BD00BFD881FF1F9043004038B5124C0546237803F0F7032370FEF7D3FC23785B070DD50D4A1378AB4213D0237803F0FB0323701570237843F00403237038BD21
:405A4000064B1A78AA42044A18BF1D70137843F00403137038BD00BF824300408143004008B5084B1B78DB0701D4FEF7F9FC064B1A7802F0DF021A701A7842F010021A70BC
:405A800008BD00BF084300408243004038B5124C0546237803F0FD032370FEF7A3FC2378DB070DD50D4A1378AB4213D0237803F0FE0323701570237843F00103237038BD75
:405AC000064B1A78AA42044A18BF1D70137843F00103137038BD00BF82430040804300402DE9F843354D2C782CBB102000F026FB01200721FFF798F831490120FFF776F8B7
:405B0000304ADFF8E8801378DFF8E4C02E4E2F482F4943F006034FF0C4094FF400574FF0010E137088F80090ACF8004085F800E0376004800C80FEF76EF9264A04461378EF
:405B4000254943F0010313700B78244843F001030B70037801F5AA5143F002030370D379083143F00203D3710A7800F5AB501C4B0430042542F003020A7005701A78194EEF
:405B800002F0BF021A701A78A0F597500225123842F003020E271A703770057091F824320A2043F0080381F82432FEF7F7FD0E4B20461D60BDE8F843FEF731B91C82FF1F61
:405BC000715F0000015900405482FF1F5282FF1F5882FF1FAB430040BB430040A2430040055900400059004080E200E0025900405082FF1FF8B5102000F0A0FA0120072118
:405C0000FFF712F80D490120FEF7F0FF0C49DFF844E00A780B4F0C4D0C4C0D4842F006024FF0C40C0A7000238EF800C04FF400563B802E6023800380F8BD00BF715F00005F
:405C4000015900405082FF1F5482FF1F5282FF1F5882FF1F02590040F8B5FEF7DCF8204A044613781F4943F0010313700B781E4843F001030B70037801F5AA5143F002030B
:405C80000370D379083143F00203D3710A7800F5AB50164B0430042542F003020A7005701A78134E02F0BF021A701A78A0F597500225123842F003020E271A703770057059
:405CC00091F824320A2043F0080381F82432FEF765FD084B20461D60BDE8F840FEF79FB8AB430040BB430040A2430040055900400059004080E200E010B5FEF78CF80F4938
:405D00000F4A0B780F4C03F0FE030B701378A1F5AA5103F0FE03137023781E3903F0FE0323700B7803F0FD030B70D37903F0FD03D371BDE81040FEF772B800BF00590040D1
:405D4000AB430040BB430040044A00F00300137803F03F0343EA801010707047005900400A2810B504462AD00C2822D0082817D00020FEF7E5FCC423134A0A2C137015D0D9
:405D80000C2C1ED0082C0ED00020FEF7D9FC00220E4C0F480F490023238002600B8010BD094B44221A704FF40072F1E74FF40062EEE7054BC4221A704FF40052E8E7842300
:405DC000DAE74FF40052E3E7025900405082FF1F5482FF1F5282FF1F044B1A7802F0FB021A701A7842F001021A70704700590040044B1A7802F0FE021A701A7842F00402F0
:405E00001A7070470059004008B550B9084A1378DB07FCD50120FEF7C1FC054B01201B7808BD034B1B78DA07F4D4002008BD00BF01590040034A044B1B781088181A40B2E3
:405E4000704700BF5282FF1FA05B0040034A044B1B881088181A00B2704700BF5282FF1FA05B0040014B1880704700BF5882FF1F00EB8000014B4000186070475482FF1FB5
:405E8000014B1860704700BF5482FF1F0F4A13889BB2C3B1128812B202EB8202520042F210710B4B1B88C31A1BB201FB03F0002B02EBD2734FEA6303D8BF5B42184490FB80
:405EC000F2F000B27047034B1A68E8E75082FF1F5882FF1F5482FF1F0D4A70B513889BB27BB90C4B1A680C4B0C4E1C88D317041B24B2A4FB0601E51706FB051102F05CF838
:405F000070BD128812B202EB82025200EBE700BF5082FF1F5482FF1F5882FF1F809698000F4A38B513889BB29BB90E4B1C680E4B1B88C01A00B201F075FE0C4901F0C6FEA3
:405F40000546204601F06EFE0146284601F072FF38BD148824B204EB84046400E7E700BF5082FF1F5482FF1F5882FF1F00002041704700BF0549064A0B7843F002030B70A6
:405F8000137843F002031370704700BFA2430040B24300400549064A0B7803F0FD030B70137803F0FD031370704700BFA2430040B2430040164B1B789B0728D5154B70B454
:405FC0001946154C154D0022154802261A702E702270027802F07F020270B4F87000072280B224F8120C1A700B780A4A13F00103FAD1074D0B4C29780B4E01F0FD012970AE
:40600000217801F0FD0121701370308070BC7047A243004001400040144000401040004008400040B243004084400040054A137818B143F002031370704703F0FD0313701B
:40604000704700BFB2430040F0B5314D314E2A78338802F007049BB283424FD02E4A1278D2B244B92BB930802B7803F0BF032B70F0BD002846D002F0020202F0FF052AB38A
:40608000264EDFF8A4C0264F0024264A4FF0020E8CF8004087F800E03470147804F07F04147096F87220160729D41F4A1F4F144607263B80167023781B4A13F00103FAD1E0
:4060C000154E347804F0FD0434701370124B1C78A4070ED56FF4687213441A460029134C14BF03210121208019701378DB07FCD4F0BD084A10801A782A431A70F0BD00280E
:40610000E4D1D2E72B7843F040032B703080F0BD8640004084400040A24300401440004010400040084000400140004002400040014B188880B2704784400040034A00F0EC
:40614000F800137818431070704700BF86400040C043034B40F007001A7810401870704786400040024B187800F0F800704700BF86400040134B144A1B8811789BB24907D0
:4061800008D000B9A3B1104A137803F0F8031843107070470028F6D0002BF4D1137803F0F80318431070137803F0BF0313707047137843F040031370137803F0F803137069
:4061C000704700BF8440004086400040024B187800F00700704700BF8640004008B50020FDF74AF90120FDF747F90220FDF744F9014BFF221A7008BD2481FF1F38B5064C55
:4062000005462078FF2801D0FDF736F92846FDF707F9257038BD00BF2481FF1F10B5044C2078FF2803D0FDF727F9FF23237010BD2481FF1F474A4849484B116011680B4008
:40624000B3F5002F01D0012070474FF4001353605368B3F5001FF6D14149404B1161106910320340002BEED153605368002BEAD111611069394B10320340002BE3D1536003
:406280005368002BDFD1374B344A196018680240002AD8D15A605B68002BD4D1324B2F4A196019680A40002ACDD15A605B68002BC9D12E4B2A49294A196018680240002AE5
:4062C000C1D15A605B68002BBDD1294B234A196018680240002AB6D15A605B68002BB2D1244B1E4A196019680A40002AABD170B45A605D6815B1012070BC70471E484FF00B
:40630000FF3400F58076017842681C4B49010B4442F080111960196822F0801201F07F119142E8D182681A6119698A42E3D1C2685A6159698A42DED19C619A690132DAD147
:40634000DD61DB691030002BD5D1B042DBD11846D2E700BF20A0004008008800F7007F000800800050A0004060A0004070A0004080A0004090A00040D4900000A0A0004014
:4063800010B5FDF748FD3249324A0B7843F001030B70137843F001031370FDF740FD2E4A4FF4B4331078114600F0FE00107001E0013B16D00A78284CD007F9D4274B4FF4FC
:4063C00080321A6026491020FEF710FC10200721FEF72AFC234B47221A801B889BB2934201D0012010BD204B5A7842F010025A705A78D106F5D55A7802F0F00242F00302BE
:406400005A7059788A42ECD148221A701A78482AE7D11A7802F0EF021A701A78D206E0D41A7802F0FE021A701B78DB07D9D4FFF701FF0028D5D10D4B4FF490521A801B88BD
:406440009BB29342CDD12070207800F0010010BDA6430040B643004010A0004080E100E06D69000016A0004014A0004004A0004008B5FDF7D0FC1649164A0B7843F0010349
:406480000B70137843F001031370FDF7C8FC124B124A4FF4905119601378114943F0010313704FF480300F4B127808601A68194642F001021A604FF4D85301E0013B04D041
:4064C0000A68D207FAD5002008BD012008BD00BFA6430040B643004000A0004004A0004000E100E010A0004010B51C4C23786BB301232370FDF78FFC19491A4A0B7843F089
:4065000001030B70137843F001031370FDF787FC154B164A4FF4905119601378144943F0010313704FF48030124B127808601A68194642F001021A604FF4D85301E0013BC4
:4065400009D00A68D207FAD5002010BDFFF718FF0028CDD010BD0120FCE700BF1D82FF1FA6430040B643004000A0004004A0004000E100E010A00040124910B508684FF472
:40658000B43320F001000A46086001E0013B17D0106810F00104F9D10B4B4FF480321A60FDF739FC09490A4A0B7803F0FE030B70137803F0FE031370FDF731FC204610BD04
:4065C000012010BD10A0004080E100E0A6430040B6430040054B1A7842F001021A70187800F0010080F00100704700BF04A00040044B1A7802F0FE021A70187800F001004F
:40660000704700BF04A00040030407D4044B18801B889BB2C01A18BF012070470220704716A00040094B5A7830B902F0EF025A705878C0F30010704742F010025A7058780B
:4066400080F01000C0F30010704700BF14A0004030B4841E0D2C02D9022030BC70478C1E052C10D8032AF7D89042F5D39142F3D30F4D6C7804F0F004204368706C7884420F
:4066800006D00120E9E7002BE6D10129E4D1E9E7002B4FEA82020CBF0020022042EA41130343DBB22B702878181A18BF0120D4E714A00040094B1A7830B902F0EF021A70EA
:4066C0001878C0F30010704742F010021A70187880F01000C0F30010704700BF14A00040094B1A7830B902F0FE021A70187800F00100704742F001021A70187800F00100C2
:4067000080F00100704700BF14A0004030B4184B1B78D9075CBF451EB5FA85F514494FF000030B7054BF6D0901254FF4B43301E0013B0BD00A780E4CD207F9D418B10228BD
:4067400008BF20702DB930BC00207047012030BC7047074A4FF4D8531078114640F00100107001E0013BF1D00A78D207FAD5EAE710A0004083B2A3F52043A03BB3F5FE7F0D
:4067800001D902207047C30610B4104A104C0BD04FF4803323600160136000685DF8044B081A18BF0120704741F080114FF4803323600160136000685DF8044B414011F041
:4067C0007F1F14BF01200020704700BF00E100E080E100E0034B18801B889BB2C01A18BF0120704704A00040024B9878C0F38000704700BF0CA00040024B9878C0F3C0006A
:40680000704700BF0CA00040014B1878704700BF0CA00040014B5878704700BF0CA00040024B987800F00300704700BF0CA0004010B4426803781F495B0142F080125A506D
:40684000037842685B0159581A4C01F07F1122F0801291421C4403D001205DF8044B70478268144B226102788168520113441A698A42F1D1C1680F4A59610378C1685B01B3
:406880001A4453698B42E7D14FF0FF3393610278084B520113449A690132DDD10022DA610278044B52011344D869003018BF0120D3E700BFA0A0004030B4436802781249E3
:4068C00043F4000343F008031201535002784368120155580D4923F400030B4C294023F008039942144402D030BC012070478268054B626002788068120113445B6830BCF7
:40690000181A18BF0120704720A00040F7007F0008B5044B02225A70FFF76AFEBDE80840FFF72ABE00A00040F8B50D4B10220D4E0D4F5A700125002407E00134E4B26D00DC
:40694000102CADB206F1200609D03B881D42F4D033789B06F1D52046FCF7C6FAEDE7F8BD00A00040A0A0004008A00040F8B5144B5A7891071DD4124B5A78D20600D4F8BDAD
:406980001022104E104F5A700024012507E00134E4B26D00102CADB206F12006EFD03B881D42F4D033789B06F1D52046FCF79CFAEDE702225A70FFF71BFEFFF7DDFDDAE7F5
:4069C00000A00040A0A0004008A0004008B542F20F730D490D4A0B801380FDF71CFA0C4A137843F010031370FDF719FA094A1378190704D508490B8813781B07FBD4074BCD
:406A000001221A7008BD00BF446800400468004093640040636400408468004083640040024A137843F08003137070477364004010B5134C23782BB1124A137843F08003E6
:406A4000137010BD42F20F730F49104A0B801380FDF7E1F90E4A137843F010031370FDF7DEF90C4A1378190704D50B490B8813781B07FBD4094A012313702370DCE700BFAF
:406A80001E82FF1F73640040446800400468004093640040636400408468004083640040024A137803F07F031370704773640040014B1870704700BF83640040014B1B78EB
:406AC000704700BF02640040014B1878704700BF63640040014B1878704700BF73640040014B1870704700BF73640040014B188880B2704744680040014B1880704700BF3C
:406B000044680040014B188880B2704784680040014B1880704700BF04680040024B034A1278188880B270478468004002640040044A1378190704D503490B8813781B0785
:406B4000FBD47047636400408468004008B5FCF799F9014B1B7808BD6364004070B4074B074E1C68074D08490123084AE02033602564087070BC1360704700BF08ED00E087
:406B800080E100E04D6B000000E400E000E100E070B4064B064E1D6806490123E024064A336028640C7070BC1360704708ED00E080E100E000E400E000E100E0034B04491B
:406BC0001B68044A012008601A64704708ED00E080E100E0F5320000014B1B681864704708ED00E0014B1B68186C704708ED00E04001024BC0B21870704700BF00E400E051
:406C0000014B18784009704700E400E0014B01221A60704700E100E0024B186800F00100704700BF00E100E0014B01221A60704780E100E0014B01221A60704700E200E01B
:406C4000014B01221A60704780E200E038B51549154A0B7803F0F80343F001030B700B7803F0FC030B701378580605D501F215310B8813785B06FBD40C4D0D4C0D48002301
:406C80000D4A09492B802380037009781380FDF7C2F80A4A137843F010031370BDE83840FDF7BDB87B6500406A64004050680040106800408A640040706800409A64004018
:406CC000024A137843F08003137070477B65004070B51A4C23782BB1194A137843F08003137070BD1649174A0B7803F0F80343F001030B700B7803F0FC030B70137858069B
:406D000005D501F215310B8813785B06FBD40E480E4E0F4D00230F4A0A4933802B80037009781380FDF777F80B4A137843F010031370FDF774F801232370CDE71F82FF1F9A
:406D40007B6500406A6400408A6400405068004010680040706800409A640040024A137803F07F03137070477B650040014B1870704700BF8A640040014B1878704700BF41
:406D80006A640040014B1878704700BF7B650040014B1870704700BF7B650040014B1880704700BF10680040024B034A1278188880B270479068004008640040014B18885A
:406DC00080B2704790680040014B1880704700BF50680040014B188880B2704750680040014B1880704700BF70680040014B188880B2704770680040044A1378590604D5E3
:406E000003490B8813785B06FBD470476A6400409068004038B51549154A0B7803F0F80343F001030B700B7803F0FC030B701378580605D501F547710B8813785B06FBD43F
:406E40000C4D0D4C0D4800230D4A09492B802380037009781380FCF7DEFF0A4A137843F010031370BDE83840FCF7D9BF786500406B64004054680040146800408B64004037
:406E8000746800409B640040024A137843F08003137070477865004070B51A4C23782BB1194A137843F08003137070BD1649174A0B7803F0F80343F001030B700B7803F0E4
:406EC000FC030B701378580605D501F547710B8813785B06FBD40E480E4E0F4D00230F4A0A4933802B80037009781380FCF793FF0B4A137843F010031370FCF790FF0123C3
:406F00002370CDE72082FF1F786500406B6400408B6400405468004014680040746800409B640040024A137803F07F031370704778650040014B1870704700BF8B640040C0
:406F4000014B1878704700BF6B640040014B1878704700BF78650040014B1870704700BF78650040014B1880704700BF14680040024B034A1278188880B2704794680040DB
:406F80000A640040014B188880B2704794680040014B1880704700BF54680040014B188880B2704754680040014B1880704700BF74680040014B188880B270477468004084
:406FC000044A1378590604D503490B8813785B06FBD470476B6400409468004038B51549154A0B7803F0F80343F001030B700B7803F0FC030B701378580605D501F20E4122
:407000000B8813785B06FBD40C4D0D4C0D4800230D4A09492B802380037009781380FCF7FAFE0A4A137843F010031370BDE83840FCF7F5BE72640040616400404068004001
:4070400000680040816400406068004091640040024A137843F08003137070477264004070B51A4C23782BB1194A137843F08003137070BD1649174A0B7803F0F80343F06F
:4070800001030B700B7803F0FC030B701378580605D501F20E410B8813785B06FBD40E480E4E0F4D00230F4A0A4933802B80037009781380FCF7AFFE0B4A137843F0100386
:4070C0001370FCF7ACFE01232370CDE72182FF1F72640040616400408164004040680040006800406068004091640040024A137803F07F031370704772640040014B1870C7
:40710000704700BF81640040014B1878704700BF61640040014B1878704700BF72640040014B1870704700BF72640040014B1880704700BF00680040024B034A12781888CF
:4071400080B270478068004000640040014B188880B2704780680040014B1880704700BF40680040014B188880B2704740680040014B1880704700BF60680040014B188810
:4071800080B2704760680040044A1378590604D503490B8813785B06FBD47047616400408068004038B51549154A0B7803F0F80343F001030B700B7803F0FC030B70137807
:4071C000580605D501F214410B8813785B06FBD40C4D0D4C0D4800230D4A09492B802380037009781380FCF716FE0A4A137843F010031370BDE83840FCF711BE7464004073
:40720000656400404868004008680040856400406868004095640040024A137843F08003137070477464004070B51A4C23782BB1194A137843F08003137070BD1649174A3E
