:400000000080002011000000A1000000A100000008B5054B1A6803F53F5302331A6000F09BFA00F03FF800BFFA46004010B5054C237833B9044B13B10448AFF300800123D8
:40004000237010BD2881FF1F0000000050280000084B10B51BB108480849AFF300800848036803B910BD074B002BFBD0BDE81040184700BF00000000502800002C81FF1F58
:400080000881FF1F0000000008B562B601F0A4F84FF47A7000F0CCFE00F074FDFEE700BFFEE700BF08B5104E104D16E029686B68AC68002204E051F8040B43F8040B0432E3
:4000C000A242F8D1E868002203E0002143F8041B04328242F9D11035013E002EE6D102F079FBFFF7D1FFFEE701000000DC2A000008B5124A124B1A60124A136843F40073CD
:40010000136000230AE0032B03D80F4A52F8231000E00E490E4A42F8231001332F2BF2D90C4B1A780C4B1A70094A0C4B1A6000F0B5F800220A4B1A6008BD00BF0004FA0508
:400140000CED00E014ED00E000000000A10000000080FF1FBC7600400481FF1F08ED00E00081FF1FFEE700BFF0B40022174611E050F82760F3B226F0FF0608E001EB42059B
:4001800011F812406D78A5550132013BDBB2002BF4D10137132FEBD9F0BC7047064B1B78DBB203F00701054A11701B09013213704422034B1A707047CF0100496E5800404E
:4001C0007658004038B545F6BF52244B1A80192502331D70062203F27E231A705222A3F580731A701E4B1B78DBB21E4A137040F62A521D4B1A8042F25122023B1A80002414
:400200000CE01A4B1B7803F0010343EA440404F003044FF4F07000F0EBFC013D0DB1032CEFD115B90320FFF79DFF114A4FF4807313800723137000230E490B70482002312A
:40024000087013700532137002220B4B1A700B4A137843F00103137038BD00BF804000400F010049A14600402242004025420040044000400640004001400040A2430040FC
:4002800008B50A46002102F0D6FA08BD08B502F0C7FA08BD08B502F0C3FA08BD38B572B66122284B1A70FFF78DFF274A137843F00403137000240CE0244963001A195200EE
:4002C0000A4423445B00C8589188FFF7D9FF0134E4B2082CF0D91D4C04F1380004F18801FFF742FF1A4A137843F0020313701032137843F002031370164D2B7843F0400326
:400300002B70A2F58632513A137843F010031370114804F1E4010A22FFF7B8FF0F4804F1F0010822FFF7B2FF0D4A137843F008031370FFF733FF0B4829460E22FFF7AAFF7E
:4003400038BD00BF00480040E84600405428000003500140A0430040F05100402251004022430040B0430040002306E0421812F8012C13449BB2013989B20029F6D1584257
:4003800080B2704730B4002306E01C5CE4B2CD5CAC4205D101339BB29342F6D3002000E0022030BC704700BF004700BF08B58022024B1A7000F034FD08BD00BFFA46004068
:4003C0002DE9F04182B00C46164602AF27F8022D01230B7048701546A270130ACB7002F1040808461FFA88F1FFF7BEFF04F80800731DC0F30720E054063517236355F11D4C
:40040000204689B23A46962300F00AFF02B0BDE8F08100BF70B505460E461446084B984203D010B1002000F0F9FC002004E0013CAB191B5D1844C0B2002CF8D170BD00BF52
:400440000080004008B501380B2867D8DFE800F0060E161E262E3E36464E565E4942090201F57F3101F5707101225CE04942090201F57F3101F2C131042254E049420902C2
:4004800001F57F3101F2C53102224CE04942090201F57F3101F2C931042244E04942090201F57F3101F5747101223CE04942090201F57F3101F2D131012234E04942090296
:4004C00001F57F3101F2D63102222CE04942090201F57F3101F2D231022224E04942090201F57F3101F5757102221CE04942090201F57F3101F57671042214E049420902D1
:4005000001F57F3101F5777101220CE04942090201F57F3101F57871042204E0002000F07DFC02220021012A02D10878C0B200E00020022A03D10B78487843EA0020042A87
:4005400009D10B78487843EA0023887843EA0043C87843EA006008BD08B50A4B1B7803F0C003802B0CD10021064B19700220FFF769FF28B102200021FFF764FFFFF714FF30
:4005800008BD00BFFA460040F8B5064603203146FFF758FF0130070204203146FFF752FF074403203146FFF74DFF013000020024254608E003785A1ED2B2FD2A00D80125CE
:4005C0002344DCB20130B842F4D303203146FFF739FF01300002C0080F4B9F4201D0FF0808E04FF4004705E000F190431B782344DCB20130B842F7D36442E4B201203146D2
:40060000FFF720FF844202D11DB90620F8BD0620F8BD0020F8BD00BFC0FF03002DE9F04FADF51F7D054600F049FB10B1002000F0F5FB00F0DFFD62B64FF0000A57460A245F
:40064000D0460DB9FF2300E02B4652A84FF496710DF2762200F006FE0DB1013CE4B20CB10028EED1002840F08282BDF87632062B26D99DF84821012A24D19DF84B819DF82A
:400680004A2142EA0828414608F107029A421BD8B2F5967F1AD84A1D52AB9E5C0A1D9A5C42EA062606315B5C172B11D108F1040152A889B2FFF758FEB0420BD100260AE02B
:4006C000042608E0042606E0032604E0032602E0042600E00826002E40F0E4819DF84C919DF84921A2F13103142B00F2B381DFE813F015007D00B101A5001101B101170199
:400700002C01A5003E01A301B101B101B101B101B101B101B101B101B1012600002F00F0C381B8F1000F40F0C2810020FFF72CFFB0FA80F040098DF84C01012210E2002F54
:4007400000F0B881B8F1030F04D040F22313984540F0B3819DF84EB19DF84D3143EA0B2BB8F1030F06D007A80DF24F11A8F1030202F056F8A9F14003DBB23F2B08D80BF1E1
:40078000806303F50063180110230193802309E0B9F1030F00F294810BEB092318024FF4807301939B4500D30A26002E40F08B8107A9019AFFF7E6FD0646002840F08581AB
:4007C000B9F1030F00F28381019B9A4540F2818109F510300BEB0020400107AA134419462022FFF7CFFD06460022B9E1002F00F07281B8F1010F40F07181B9F1030F00F2F5
:400800007081BF4B1B681B68C3F30742914502D1C3F3072305E0914501D9002301E04FF480738DF84C311B0A8DF84D31FF238DF84E3100238DF84F31042291E1342A15D10C
:40084000002F00F05181B8F1030F40F05081A9F14003DBB23F2B02D84FF0100A01E04FF4907A07A80021524601F0E5FF002F00F04181B8F1020F40F2408107AB03EB0A0021
:400880000DF24F11A8F1030201F0CAFFC244AAF1030A1FFA8AFAA9F14003DBB23F2B05D800F092FA80234FF0100803E04FF480734FF49078C24540F02D819DF84EA19DF8AD
:4008C0004D2142EA0A2A9A4500D30A26002E40F02681B9F13F0F0FD80AEB092292B2884B1B681968C1F30F2311F0FF0F01D001339BB29A42C0F015814846514607AA434661
:4009000000F0E6F900B10A2600F0B2FA4FF0000A524625E1002F40F02881042600221FE1002F00F003810AEB0803B3F5967F00F2008107AB03EB0A0053A9424601F070FFCF
:40094000C2441FFA8AFA00220AE1B8F1000F40F0F38004AB6B4A92E8030083E8030053AA82E803004FF0000A01270822F8E0002F00F0E580B8F1030F40F0E4809DF84EB1D9
:400980009DF84D3143EA0B2BA9F14003DBB23F2B10D84FEA0B11BBF17F0F01D8334600E00A23002B40F0D18057481022FFF732FD019011E00BEB09210902BBF1FF0F01D835
:4009C000334600E00A23002B40F0C28000204FF48072FFF71FFD0190B9F13F0F0FD809F510320BEB02225201002306E0995C01980144C9B2019101339BB21F2BF6D9B9F123
:400A0000030F13D1BBF1FF0F10D105200021FFF719FD019B181A00F0FF0906200021FFF711FDC0EB090000F0FF030193019B5B428DF84C31012293E00020FFF7A5FD10B936
:400A40008022324B1A7000F0E1FB00F0E9F90426002285E02E4B1B68002B7CD0002F7DD08DF80820ADF80A8053AA0392002104910591069202A804A99847BDF81420B2F577
:400A8000937F03D3069953AB994205D0069B03B92AB99DF8106063E00E26002260E00E2600225DE000225BE00426002258E00426002255E00426002252E0042600224FE0F5
:400AC000092600224CE000224AE0002248E0002246E0002244E00426002241E0042600223EE0042600223BE00426002238E00426002235E00426002232E0042600222FE099
:400B00000C81FF1F4C29000000800040FA4600404481FF1F4FF0000A0326524620E000221EE04FF0000A0A26524619E00426002216E00326002213E00426002210E0042658
:400B400000220DE0042600220AE01E46002207E01E46002204E00526002201E005260022304652A9FFF72CFC01E04FF0000A002D3FF467AD002F7FF464AD0DF51F7DBDE8BB
:400B8000F08F00BF38B50020FFF7FEFC08B1062400E00024134D2B68002001461A68FFF739FC6B681B78C01AC0B24042C0B2834202D12B681B6813B9002000F02FF90A4B5F
:400BC0001B7803F0C003402B00D024B10020064B1870FFF723FD3220FFF720FDFFF7E6FB38BD00BF0C81FF1FFA460040000000000230800803D000BF01380046FCD1704723
:400C0000EFF3108072B6704780F31088704700BF10B500F07BF900F029FAD0B900F068FA0446072812D102E0012000F017F90A4B1B7813F0020FF7D0074B1B7813F0020FB0
:400C400004D0054B1B789B0800D1002400F034FA00E00424204610BD2247004010B500F055F900F003FA10BB012000F0E1F9072818D11048022100F05BF902280AD102E0BF
:400C8000012000F0EBF80C4B1B7813F0020FF7D0002409E0084B1B7813F0020FE9D04FF0FF3401E04FF0FF3400F006FA00E00424204610BD5881FF1F2247004008B5FFF778
:400CC000A7FF034610B9FFF7C9FF0346184608BD2DE9F041441FE4B23A2C01D9002500E0012510F0800F00D00125412800D901253F2803D8B1F5807F06D808E0802900D94B
:400D00000125102B02D102E0012500E0012502B90125002D50D1984616460F46044600F0A5F9002847D1204639463246434600F019F9064607283AD102E0012000F08EF8B4
:400D40001F4B1B7813F0020FF7D01D4B1B7813F0020F06D01A4B1B789B0805D04FF0FF3603E04FF0FF3600E02E4606BB154B204639461A785B7800F035F9072804D006464F
:400D800015E0012000F06AF80D4B1B7813F0020FF7D00B4B1B7813F0020F06D0084B1B789B0804D04FF0FF3601E04FF0FF3600F083F9354600E004252846BDE8F08100BFD9
:400DC000224700405881FF1F08B5FFF719FF0F4A137843F0080313701032137843F008031370C8220A4B1A700A4A137843F0100313701032137843F010031370064B1B786A
:400E000013F0200FFAD0FFF7FFFE08BDA043004001470040AC4300400047004001BE7047024A137843F0010313707047F646004010B5044605E0084B1868FFF7D9FEA4F536
:400E40000044B4F5004FF6D8034B586800FB04F0FFF7CEFE10BD00BF1481FF1F08B5034B1B7A03FB00F0FFF7C3FE08BD1481FF1F08B5FFF7C5FE00BF00BF00BF00BF00BF7C
:400E800000BF00BF00BF00BF00BF00BF00BF00BF00BF00BF00BF064A13889BB243F0040313801388BFF36F8FFFF7AEFE08BD00BF0048004070B504460E46074B1D681F281E
:400EC00002D90020FFF7AAFF04F01F04103455F8240045F8246070BD08ED00E038B504460D46072902D90020FFF798FF1F2C02D90020FFF793FF04F01F0000F1604000F520
:400F000064406D01EDB2057038BD00BF08B5FFF777FE064A137843F0080313701032137843F008031370FFF76FFE08BDA043004070B506460D4600240CE00120FFF78EFFC2
:400F4000064B1B7813F0010FF7D0054B1B7833550134E4B2AC42F3D3204670BD224700402047004070B41D4C247814F0020F2CD01B4CB6252570D525257002252570023454
:400F8000247814F0020F22D1154C2070002404E0165D134D2E700134A4B29C42F8D3B3F5807F16D13F2816D800F5103001EB00214801002305E01A5CD2B209490A7001337F
:400FC0009BB21F2BF7D9072006E0042004E0092002E0072000E0072070BC7047224700402047004030B4104C247814F0020F15D00E4CB6252570D8252570052525700234E2
:40100000247814F0020F0BD1084C2070080A2070C9B2217022702370072002E0042000E0092030BC704700BF22470040204700400C4B1B7813F0020F0FD00B4BB6221A70EF
:40104000E1221A700E221A7002331B7813F0020F05D1054B187007207047042070470920704700BF224700402047004010B5FFF7C7FD0F4B1B78A3B901220D4B1A700D4BD2
:401080001B6813F0010F0ED00A4A136823F00103136000BF00BF00BF0122054B5A60002402E0042400E00024FFF7AEFD204610BD4881FF1F0400084008B5FFF7A1FD0A4B1A
:4010C00000221A705B68012B0AD1084A136843F00103136000BF00BF00BF0022024B5A60FFF792FD08BD00BF4881FF1F04000840074B1B7813F0020F08D0064BB6221A70DD
:40110000E0221A700D221A7007207047042070472247004020470040084A137843F0010313701032137843F00103137002F64D32137843F001031370704700BFA3430040EB
:40114000014B1880704700BF044F0040014B1880704700BF064F0040014B1870704700BF034F004008B5194A137843F0020313700232137803F08F0343F010031370144BE5
:401180001A7802F0CF021A701A7842F030021A701A7802F0F0021A701A7842F00F021A70FF20FFF7CDFF7F20FFF7D0FF0020FFF7D3FF084A137843F00103137002F65E3225
:4011C000137843F00103137008BD00BF004F00400B4F0040A343004008B5054B1B7823B9FFF7C0FF0122024B1A70FFF795FF08BD5081FF1F08B562B60020022100F070F9FD
:401200000122014B1A7008BD5181FF1F08B500F0ABF908BD08B5012000F068FA08BD00BFF8B505460F46164603EB83035C00A4B202202946402200F00FFA04E00120FFF780
:40124000F7FD013CA4B2022000F0E8F908B9002CF4D1022000F0E2F910B137800020F8BD1020F8BD2DE9F04180460E46174603EB83035C00A4B2402900D94026204B1B7899
:4012800033B916E00120FFF7D3FD013DADB200E0254600F0ADF908B9002DF3D100F0A8F9A8B100F0ABF9FFF7B5FF0022144B1A700DE000F0A3F950B100F09AF938B1FFF726
:4012C000A9FF04E00120FFF7B3FD013CA4B2012000F0A4F9012801D0002CF3D1012000F09DF9012807D14146324600F015FA38800020BDE8F08100233B801020BDE8F081B8
:401300005181FF1FF8B5FFF77BFC0646384A137843F0010313701032137843F0010313700125344B1D700227943B1F7002F5E2521B32137803F07F0313700020FFF78EFDB4
:401340002D4C237803F0F90323702C4A137803F0DF03137023782B4323702846FFF77EFD2820FFF77BFD264B1A7802F07F021A701A7802F0BF021A7023783B432370384654
:40138000FFF76CFD237843F00403237000241D4B1C7001331C703046FFF736FC17200721FFF79CFD17201849FFF784FD18200721FFF794FD18201549FFF77CFD2046072179
:4013C000FFF78CFD20461249FFF774FD28460721FFF784FD28460F49FFF76CFD0C200721FFF77CFD0C200C49FFF764FDF8BD00BFA54300409D6000409443004012600040D7
:40140000F851004084600040451C00005D1A0000D11B0000091C0000D11E000010B5002304E00124214AD4542344DBB2002BF8D01F4B187000231F4A13701F4A13701F4A66
:4014400013701F4A13701F4A13701F4A13701F4A13701F4B4FF400021A604FF080721A6001221A6002221A6011B1012906D00BE0184A137803F0FE0313700AE0154A137845
:4014800043F00103137004E0124A137843F0010313700322104B1A708022203B1A700120FFF7A6FB04220D4B1A7010BDFC81FF1F7081FF1F7681FF1F7481FF1F7581FF1FE9
:4014C0007181FF1F5C81FF1F7381FF1FEC81FF1F00E100E009600040286000401260004038B505460C46064B1B7823B9FFF70AFF0122034B1A7028462146FFF78FFF38BDCE
:401500005281FF1F002304E001210E4AD1540B44DBB2002BF8D000230B4A13700B4A13700B4A13700B4A13700B4A13700B4A13700B4A137003220B4B1A708022203B1A70AE
:40154000704700BFFC81FF1F7681FF1F7481FF1F7581FF1F7181FF1F5C81FF1F7381FF1FEC81FF1F2860004008B5FFF749FB184A137803F07F0313700A32137803F0FB031A
:401580001370A2F5E3520D3A137803F0FE0313701032137803F0FE031370FFF735FB0D4B4FF400021A604FF080721A6001221A6002221A600023084A1370084A1370084A0D
:4015C0001370084A1370084A1370084A137008BD0860004080E100E07481FF1F7581FF1F7181FF1F5C81FF1F7381FF1F5281FF1F014B1878704700BF7581FF1F064B1B78BC
:4016000013F0FF0F05D0044B1878C0B200221A7070470020704700BF7481FF1F00EB40008000024B18444078704700BF8081FF1F431EDBB2072B0BD8064B00011A18185CCB
:4016400000F00F00537843EA0020023880B2704700207047FC5F0040431EDBB2072B3BD8F0B4074600EB40039B001C4C2344DB889BB2C3F500739A4207D900EB40039B00A2
:401680002344DA88C2F5007292B200EB40039B00124C2344DB7843EA1223114D04012E192B55D3B2737039B909E0CE5C3D010D4C665501339BB200E000239342F5D3430064
:4016C00003449B00054A134400225A705A79D2B20001054B1A54F0BC704700BF8081FF1FFC5F004078600040FE5F0040431EDBB2072B0BD8430003449B00054A13440022DF
:401700005A705A79D2B20001024B1A54704700BF8081FF1FFE5F004070B5D9B1054614460E46C8B1082819D8FFF782FFA04203D22846FFF77DFF0446002305E02901094A7B
:40174000525CF25401339BB2A342F7D32846FFF7CDFF04E0002402E0002400E00024204670BD00BF786000401C4B19781C4A13880B449BB2138000230EE01A4A51680978C2
:40178000C9B21948C1545168013151600133DBB21188013989B21180124A128892B20AB1072BEAD90D4A1278D2B2082A00D05BB10E490A7882F080020A700F210C4A117091
:4017C00002210C4A117004E0022209490A7009490A70094A1370014A13707047EC81FF1FF281FF1F6481FF1F006000407281FF1F5D81FF1F7681FF1FED81FF1F0222074B11
:401800001A708022064B1A700F22064B1A700023054A1370054A1370012070477681FF1F7281FF1F5D81FF1FEC81FF1FED81FF1F08B5FFF799FF08BD10B4184B197801F004
:401840000F010239C9B2164A13880B449BB21380002010E0134B5C68134A125CD2B222705A6801325A600130C0B20139C9B21A88013A92B21A800B4B1B889BB20BB1002978
:40188000E8D10A4B19700A4A137883F0800313700B22084B1A705DF8044B704729600040F281FF1F6481FF1F00600040ED81FF1F7281FF1F5D81FF1F0623064A1370064AF2
:4018C00013708022054B1A700022054B1A700120704700BF7681FF1F5D81FF1F7281FF1FED81FF1F064B9B6843B1054B9A6810709A6804490988518000229A60704700BF4B
:401900006481FF1FF281FF1F08B5134B1A78D2B21A701B78DBB213F0800F02D00F4A137008BD0220FFF7DEFF0D4B1B7803F06003202B05D0402B06D043B900F067FD06E066
:4019400000F01CFF03E000F005FF00E0002010B90322024B1A7008BD286000405D81FF1F0060004008B5084B1978084A13880B449BB213800022064B1A700120FFF7B2FF15
:401980000322044B1A7008BDEC81FF1FF281FF1F7681FF1F5D81FF1F08B50B4B1B78DBB2042B06D0062B07D0022B0BD1FFF7DAFF08BDFFF741FF08BD0320FFF793FF03228F
:4019C000024B1A7008BD00BF7681FF1F5D81FF1F08B50022044B1A700120FFF783FF0322024B1A7008BD00BF7681FF1F5D81FF1F08B50B4B1B7813F0FF0F07D0084A13782E
:401A000043F0800307490B70002313700022064B1A700120FFF766FF0322044B1A7008BD5C81FF1F086000407681FF1F5D81FF1F08B5094B1B78DBB2042B06D0062B07D051
:401A4000022B07D1FFF7F4FE08BDFFF7C1FF08BDFFF7CEFF08BD00BF7681FF1F08B5284B1B78DBB213F0100F48D013F0800F0CD003F00F03012B16D1FFF746FF214B1B7893
:401A800013F0800F11D1012312E013F0400F03D0FFF7CEFF01230BE013F0200F07D0FFF77BFF012304E0002302E0002300E0002323B3134B1B7813F0800F1FD1124B1B78C0
:401AC000124A12781343124A13701278D2B29A4214D10C4B1B78DBB2094A127812F0800F07D1084B1B78DBB2054A1370137803F00F03044A1278D2B29342EAD108BD00BFFA
:401B0000286000405D81FF1F7281FF1FED81FF1F296000400022064B1A80064B9B682BB1044A916800230B7092685380704700BFF281FF1F6481FF1F08B50F4B1B889BB27B
:401B400013B9FFF75BFE15E002220C4B1A7000220B4B1A70FFF7DEFF0A4AD179937943EA0123054A128892B29A4201D9024A1380FFF7FAFD012008BD6481FF1F7681FF1FD3
:401B80007281FF1F0060004008B504220B4B1A7080220B4B1A70FFF7BDFF0A4AD179937943EA0123084A128892B29A4201D9064A13800B22054B1A70012008BD7681FF1FB7
:401BC0007281FF1F006000406481FF1F5D81FF1F0A4A137803F0FE031370094B9B7C094B1B7B03F00303012B04D0064AD37B83F08003D3730122034B5A7370470B60004017
:401C0000FC5F00408081FF1F0B4A137803F0FD0313700A4B93F82230094B1B7E03F00303012B04D0064AD37E83F08003D3760122034B5A76704700BF0B600040FC5F00409F
:401C40008081FF1F08B5FFF75DFC08BD08B50B4B18780138C0B200F091F9094B1B79DBB200EBC30042690749CB5C02EBC3035B68596A0B78044A1380516008BD7581FF1F40
:401C8000006000406081FF1F6481FF1F08B50D4B18780138C0B200F071F90B4B1B79DBB200EBC30042690949CB5C02EBC3035B68DB69597813F8022B42EA012204490A80A6
:401CC0004B6008BD7581FF1F006000406081FF1F6481FF1F10B50022194B1A80194B18780138C0B200F04AF9174AD378DBB21279D2B200EBC200416902BB1448825C01EB85
:401D0000C20149685A1ED2B2022A17D803F10053013B01EBC3000C4A9278D2B211F8333093420BD3406802EB4202920081184C68034B5C60825A1A808A689A6010BD00BF33
:401D40006481FF1F7581FF1F006000406081FF1F08B55A4B1A79D2B21B7813F0800F4DD0564B5B78013B052B00F28C80DFE803F0212B3B8A8A03514BDB78DBB2212B09D11A
:401D8000FFF764FF4E4B1B889BB2002B7CD0FFF7D3FE08BD494BDB78DBB2222B76D1FFF775FF474B1B889BB2002B71D0FFF7C4FE08BDFFF78FFF424B1B889BB2002B69D0FC
:401DC000FFF7BAFE08BD002A66D13C4B9B7813F0FF0F63D13A4901230B803A4B1A444A60FFF7AAFE08BD002A5AD1354901230B80354B1A444A60FFF79FFE08BD2F4B5B785F
:401E0000DBB20A2B0DD00B2B2ED0092B4AD1FFF761FF2B4B1B889BB2002B45D0FFF7B4FE08BD002A42D1254B9B7813F0FF0F3FD1224BDB78DBB223498B548B5C2349895C66
:401E4000DBB28B4203D20021204B995409E01F4B9B5CDBB2012B04D91A4B9B5CDBB21B498B54FFF729FD08BD22BB144B9B78DBB2012B21D8114B9B78DBB213498B54FFF79F
:401E80001BFD08BD002008BD002008BD002008BD002008BD002008BD002008BD002008BD002008BD002008BD002008BD002008BD002008BD002008BD002008BD006000401F
:401EC0006481FF1FF481FF1FFC81FF1FF881FF1F08B500F04BFC08BD10B401223DE0114613010C242148C45402EB42039B00204803445B7913F0FF0F12D002EB42039B0031
:401F000003441B7913F0800F04D01001194B03449C700AE01001174B03440820987004E01001144B0344802098704B000B449B000F480344DC88E4B208010C4901448C7114
:401F4000D888C0F30720C871D888C0B20871DB88C3F307234B710132D2B2082ABFD9FF22054B1A705DF8044B704700BF706000408081FF1FFC5F00400A600040074B1B78B5
:401F8000074A02EBC30253681A7C824203D903EBC003586970470020704700BF7081FF1F54290000F8B5404B1B7813F0FF0F79D03D4B18780138C0B2FFF7E0FF047AC2687D
:401FC0003A4B1878C0B200236AE01178814264D13749095CC9B25578A9425ED1917801F07F01D67806F00306DFF8C8E04D000D44AD000EEB05074FF0000C87F803C092F878
:4020000002C087F804C092F803C00EF805C095883D8192F90250002D0DDA012E01D1072700E00D274D000D44AD00224E35446F7101266E700CE0012E01D1052700E0092732
:402040004D000D44AD001B4E35446F7100266E70DFF868E00F010EEB07060125B57001FA05F529448900134D29440D89C5F307250EF807500D89EDB27570CE88F6B20E4DCD
:402080003D44AE71CE88C6F30726EE71CE88F6B22E71C988C1F30721697108320133DBB2A34292D3F8BD00BF7581FF1F7181FF1F6081FF1F8081FF1F70600040FC5F00409B
:4020C000034B1A78034B03EBC2035868704700BF7081FF1F5429000008B5074B18780138C0B2FFF74BFF28B14268127900EBC203586908BD002008BD7581FF1FF8B50022A7
:402100000EE0654E53009D18AD00741900217155A170E1702181A172617061710132D2B2082AEED940B90AE000225C49CA545C49CA540133DBB200E00023002BF4D0594B89
:402140001B7813F0FF0F00F0A580564B18780138C0B2FFF713FF4368DB7913F0400F05D0514A137843F00103137004E04E4A137803F0FE031370057A012461E0C16800230D
:402180005AE08A7802F07F02944252D1264604EB44029200404F3A44128992B28F88BA4206D204EB44029200DFF8ECE0724417810A783A4FBA5CD2B24F78BA4239D191F8BA
:4021C00002C0354F72003244920007EB020E8EF804C091F803E007F802E0CA7802F0030291F90270002F11DA012A02D14FF0070C01E04FF00D0CDFF8A0E072009719BF0076
:40220000774487F805C001227A7012E0012A02D14FF0050C01E04FF0090C1F4F4FEA460E0EEB060292003A4482F805C016460022727008310133DBB2AB42A2D30134E4B24B
:40224000082C9BD9C06800220CE0837803F07F0310F8084B03EB43039B0014490B449C700132D2B2AA42F0D3FFF736FF104B1860002001220AE0084C530099188900214457
:40228000C8800B89184480B20132D2B2082AF2D9FFF722FEF8BD00BF8081FF1F6081FF1FF081FF1F7581FF1F7381FF1F8881FF1F7C81FF1F08B5154B1A7902F07F02531ECD
:4022C000DBB2072B20D8530013449B0010490B44997841F0010199700021D970597841F0020159701B7913F0800F05D01201094B13448D229A7004E01201064B13448922F9
:402300009A70FFF7D9FA08BD002008BD006000408081FF1FFC5F0040264B1B7903F07F035A1ED2B2072A43D810B55A001A44920021490A44917801F0FE0191700021D170E1
:4023400019017F241D484454517801F0FD015170127912F0800F14D003EB4302920016490A445278D2B2012A05D11B0102461A440C23937019E01B01104A1A440D23937075
:4023800013E003EB430292000B490A445278D2B2012A05D11B01094A1A440823937004E01B01064A1A4409239370FFF785FA10BD00207047006000408081FF1FFC5F004029
:4023C00010B50E4B1C79E4B20D4B18780138C0B2FFF7D4FD43681B799C4201D9012C0AD8084A135DDBB208490B55044B9B78DBB21355012010BD002010BD00BF00600040A3
:402400007581FF1F6081FF1FF081FF1F10B5994B1B78DBB20021984A118013F0800F00F0A980944A5278D2B20A2A00F26E81DFE812F065006C016C016C016C016C010B0057
:402440006C018E006C0196008A4BDB78DBB2012B09D1FFF735FE4268874B5A6012221A80FFF76AFB10BD834BDB78DBB2022B13D1804B9878FFF782FD002800F048814268B4
:402480007D4B5A605A68D1785A68927842EA01221A80FFF751FB10BD764BDB78DBB2032B05D028E00A7811440133DBB201E000237249704A9278D2B29A4203D90A7812F044
:4024C000FF0FEFD16B4B9B7813F0FF0F07D0694B9B78DBB26A4A127C934200D169490B7813F0FF0F00F015810B78634A13805160FFF722FB10BD00F041F910BD13F0030301
:4025000017D0022B40F007815B490B80594B1B7903F07F0303EB43039B005B4A13449A78D2B25A4B1A7000225A704B60FFF704FB10BD514902230B80554B1A78D2B2534B6C
:402540001A7000225A704B60FFF7F6FA10BD4A4B01221A804F4A5A60FFF7EEFA10BD464A01231380434B1B794B490B445360FFF7E3FA10BD3F4A5278013A0A2A00F2CD8097
:40258000DFE812F04B00CB009600CB000B00CB00CB00CB001300CB003000364B9B78DBB23E4A1370FFF788F910BD324B9B7803F0FF041BB1601EC0B2FFF7E0FC04B110B95F
:4025C000002C40F0AC80334B1B78DBB29C4206D0304B1C700120324B1870FFF78FFDFFF76BF910BDFFF7ECFE002800F09A80214A1379DBB21279D2B22A490A702A4AD25CF7
:402600002549C95CD3B28B4204D00122244B1A70FFF7C8FCFFF750F910BD03F00303012B17D04BB1022B7ED1124B9B7813F0FF0F7BD1FFF771FE10BD0E4B9B78DBB2012B57
:4026400075D1134A137803F0FD031370FFF734F910BD084B1B7913F0FF0F6AD1054B98781B79DBB21149CA5C22EA0002CA54FFF723F910BD006000406481FF1F242A000096
:40268000A42A0000182A00008081FF1F5481FF1F7381FF1F7581FF1F6081FF1F5C81FF1F7481FF1F7181FF1FF081FF1F7881FF1F03F00303012B17D04BB1022B3BD1224B61
:4026C0009B7813F0FF0F38D1FFF7F4FD10BD1E4B9B78DBB2012B32D11C4A137843F002031370FFF7E9F810BD174B1B7913F0FF0F27D1154B98781B79DBB21549CA5C22EA51
:402700000002CA54FFF7D8F810BD002010BD002010BD002010BD002010BD002010BD002010BD002010BD002010BD002010BD002010BD002010BD002010BD002010BD0020BD
:4027400010BD002010BD00BF006000407381FF1F7881FF1F044B1B7813F0800F01D0024B5B780020704700BF00600040024B1878C0F38010704700BF8F45004008B5124BB8
:402780001B7803F00303012B02D0022B04D00FE00D4B1B79DBB20CE00B4B1B7903F07F0303EB43039B00094A13449B78DBB200E00023074A1268D35C032B02D1FFF7C8FA0C
:4027C00008BD002008BD00BF006000408881FF1F7C81FF1F0E4B70B51E460E4C0025E41AA410A54204D056F8253098470135F8E700F062F9084B094C1E46E41AA4100025FB
:40280000A54204D056F8253098470135F8E770BDC42A0000C42A0000C42A0000CC2A000010B5431E0A44914204D011F8014B03F8014FF8E710BD03460244934202D003F8C1
:40284000011BFAE770470000002C0000C400000000000000004F00400C00005100402000305100404000C0510040100000000140001000140140000800400140000A004C81
:4028800001400002005001402000000001450040014F0040015200400107014001090140040A0140010B01400217014002190140034001400241014004420140064301407C
:4028C00002450140014601400447014004480140044C014001500140015101407E020A4B7C40EE08AF20B820BE10D804DF011F20E810EE0AE810EE0A33803640CC30A64017
:40290000A7806302A640A780D6401810A640A780AF01C610EE105004D404940808080F409408C20CAE40AF80B410EE50AC08AF40B404E8080214000A4000000000000000D4
:40294000C000000000020200020000006910162E00320101010000005C29000001000000A42A00000000000000000000010000007429000001000000782A00000200000008
:402980009829000001000000A82900000000000094290000030000000000010340000300000082034000030001000000B029000000000000E429000000000000D8290000CD
:4029C000000000000000000001000000F0290000010000008A2A0000410000004882FF1F8C82FF1F410000000482FF1F0082FF1F240005010900A1000900A1000900150092
:402A000025FF7508954091020900150025FF750895408102C0C000000A0330003000300031000000040309042C0343007900700072006500730073002000530065006D00B7
:402A4000690063006F006E0064007500630074006F0072002203500053006F0043003300200042006F006F0074006C006F006100640065007200000009022900010100808E
:402A80003209040000020300000209211101000122240007050103400001070582034000010000001201000200000008B4041DB70130010280010000F8B500BFF8BC08BCE8
:402AC0009E46704751000000F1000000F8B500BFF8BC08BC9E4670472D000000F02A00000881FF1F20000000680100000000000000000000482800004C2800000000A08CF3
:402B0000401901004800000000A24A040000000000000000000000000000000000000000000000000000000000000000000000000000000000000000000000000000000003
:402B40000000000000000000000000000000000000000000000000000000000000000000000000000000000000000000000000000000000000000000000000000000000055
:402B80000000000000000000000000000000000000000000000000000000000000000000000000000000000000000000000000000000000000000000000000000000000015
:402BC00000000000000000000000000000000000000000000000000000000000000000000000000000000000000000000000000000000000000000000000000000000000D5
:402C000000800020112C0000613800006138000080B500AF00F05AFE10B5054C237833B9044B13B10448AFF300800123237010BD9081FF1F00000000CCAB0000084B10B5F9
:402C40001BB108480849AFF300800848036803B910BD074B002BFBD0BDE81040184700BF00000000CCAB00009481FF1F0881FF1F00000000154B002B08BF134B9D46A3F5AA
:402C8000803A00218B460F461348144A121A07F094FF0F4B002B00D098470E4B002B00D098470020002104000D000D48002802D00C48AFF3008007F04FFF2000290000F0A8
:402CC00057FA07F035FF00BF000008000000000000000000000000009081FF1F4088FF1F000000000000000080B483B000AF03463960FB7197F90730002B0BDA0D49FB7977
:402D000003F00F03043B3A68D2B25201D2B20B441A7609E0084997F907303A68D2B25201D2B20B4483F800230C37BD465DF8047B704700BF00ED00E000E100E080B582B003
:402D400000AF78607B68013BB3F1807F01D301230FE00A4A7B68013B53604FF0FF300721FFF7C2FF054B00229A60044B07221A60002318460837BD4680BD00BF10E000E0C3
:402D800080B487B000AF786000233B750123FB74A2E001237B750023FB7592E07B7D03F00103DBB2002B40F08280514B9B78DAB27B7D1340DBB2002B79D10023FB607B685E
:402DC0001B79002B02D04FF40013FB607B685B79002B09D1FB7D1A01464B134404337A68126852051A600CE0FB6843F48013FB60FB7D1A013F4B134404337A681268D200A9
:402E00001A607B689B79072B06D87B689B791B04FA681343FB6003E0FB6843F40023FB607B68DB79002B03D0FB6843F00403FB600023BB7517E0FB7D1A012E4B1344BA7DDC
:402E4000032A03D9BA7DC2F10B0202E0BA7DC2F1030279688868B97D415C13440A461A72BB7D0133BB757B689B79BA7D9A4202D2BB7D072BDFD9204B4FF480321A60FB7DBC
:402E80001A011C4B13441A46FB6843F4000343F008031360FB7D1A01164B13441A4601231360164B4FF480321A600023FB747B7D5B007B75FB7C002B00D106E0FB7D01339F
:402EC000FB75FB7D072B7FF669AFFB7C002B00D106E03B7D01333B753B7D022B7FF659AFFB7C18461C37BD465DF8047B704700BF08A0004020A0004080E100E000E100E075
:402F000080B483B000AF0346FB71FB79072B12D8FB791A010A4B1344FA791101084A0A441278D2B2D2B222F00302D2B242F00202D2B2D2B21A700C37BD465DF8047B704710
:402F400020A0004080B483B000AF0023FB711D4B1B78DBB203F00103002B02D00123FB7129E0194B00221A701BE0164A164B1B78032B04D9144B1B78C3F10B0303E0124B39
:402F80001B78C3F103031049097808460F49095C13440A461A720C4B1B780133DAB20A4B1A70094B1B78072BDFD9064A054B1B6843F001031360FB7918460C37BD465DF818
:402FC000047B704720A00040EC82FF1F4084FF1F80B483B000AF0346FB71FB795A010D4B13441B78DBB203F00103002B0DD0FB795A01084B1344FA795101064A0A4412785F
:40300000D2B242F00102D2B21A700C37BD465DF8047B7047A0A0004098B500AF4A4B1B680133494A1360484B1C68484800F0CEFB0346B4FBF3F203FB02F3E31A002B03D1FE
:403040004248012100F0B2FB3F4B1C68404800F0BDFB0346B4FBF3F203FB02F3E31A002B03D13B48012100F0A1FB374B1C68394800F0ACFB0346B4FBF3F203FB02F3E31AE1
:40308000002B03D13348012100F090FB2E4B1C68314800F09BFB0346B4FBF3F203FB02F3E31A002B03D12C48012100F07FFB264B1C682A4800F08AFB0346B4FBF3F203FB7A
:4030C00002F3E31A002B03D12448012100F06EFB1D4B1C68224800F079FB0346B4FBF3F203FB02F3E31A002B03D11D48012100F05DFB154B1C681B4800F068FB0346B4FB11
:40310000F3F203FB02F3E31A002B03D11548012100F04CFB0C4B1C68134800F057FB0346B4FBF3F203FB02F3E31A002B03D10E48012100F03BFB044B1B680C4A934202D94B
:40314000014B00221A6098BDB481FF1F5484FF1FF884FF1F4882FF1F9C85FF1FE486FF1F4086FF1F9883FF1FF082FF1F1FA1070080B594B000AF04F015FB00F051FF05F0AB
:403180002BF805F0EDFD05F005FF06F01DF806F035F9002005F038F805F088F90F20724902F0F4FF4FF4B460FFF7C8FD62B66F4800F06EFA6E4800F06BFA6E4800F068FA0F
:4031C0006D4800F065FA6D4800F062FA6C4800F05FFA6C4800F088FA6B4800F085FA6348012100F005FB6248012100F001FB6148002100F0FDFA6048002100F0F9FA5F480C
:40320000002100F0F5FA5E48002100F0F1FA5D48012100F0EDFA5C48012100F0E9FA534800213222012300F00DFA514801213222012300F007FA4F4802210122012300F075
:4032400001FA4D4803210122012300F0FBF94B4804210122012300F0F5F9494805210122012300F0EFF9474806210A22012300F0E9F9454807210A22012300F0E3F9434888
:4032800001F002FA00F05EFA384B93F89B30012B08D1364B93F89C30012B03D1334800F077F860E0324B93F89B30012B08D1304B93F89C30012B03D12D4800F069F852E067
:4032C0002C4B93F89B30012B08D12A4B93F89C30012B03D1274800F05BF844E0264B93F89B30012B08D1244B93F89C30012B03D1214800F04DF836E0204B93F89B30012B27
:4033000008D11E4B93F89C30012B03D11B4800F03FF828E01A4B93F89B30012B08D1184B93F89C30012B03D1154800F031F81AE0144B93F89B30012B08D1124B93F89C300A
:40334000012B03D10F4800F08FF80CE00E4B93F89B30012B07D10C4B93F89C30012B02D1094800F081F88DE7193000005484FF1FF884FF1F4882FF1F9C85FF1FE486FF1F7D
:403380004086FF1F9883FF1FF082FF1FF8AB000090B583B000AF78607B6893F89830184604F032FF04F032FB002004F05FFB0346002B2CD07B68D3F894207B6893F899306D
:4033C000796808335B000B445B88D21A7B68C3F894207B6893F899301C4604F07DFB034699B27A6804F108035B0013440A465A807B68D3F894207B6893F8993079680833DA
:403400005B000B445B881A447B68C3F894207B6893F899300133DAB27B6883F899207B6893F899207B6893F89A309A4203D17B68002283F899207B68D3F894307A6892F81B
:403440009A20B3FBF2F39BB21BB2184604F0D2FB03461A467B68A3F8A0207B68002283F89B200C37BD4690BD90B583B000AF78607B6893F89830062B60D17B68D3F8942018
:403480007B6893F89930796808335B000B445B88D21A7B68C3F894207B6893F899301C4605F0C6FC034619467A6804F108035B0013440A465A80002005F0AAFC7B68D3F8CF
:4034C000A0407B6893F899307A6808335B0013445B88184606F0A6FE03462046194606F0EDFD03461A467B68C3F8A0207B68D3F8A0407B6893F89A30184606F093FE034622
:403500002046194606F096FF034618464C4906F0DDFE03461C4605F0BFFE0346184606F081FE03462046194606F084FF03461A467B68C3F8A420002005F09EFE7B6893F804
:403540009830072B60D17B68D3F894207B6893F89930796808335B000B445B88D21A7B68C3F894207B6893F899301C4605F07AFD034619467A6804F108035B0013440A460F
:403580005A80002005F05EFD7B68D3F8A0407B6893F899307A6808335B0013445B88184606F040FE03462046194606F087FD03461A467B68C3F8A0207B68D3F8A0407B68B8
:4035C00093F89A30184606F02DFE03462046194606F030FF03461846194906F077FE03461C4605F073FF0346184606F01BFE03462046194606F01EFF03461A467B68C3F820
:40360000A420002005F052FF7B6893F899300133DAB27B6883F899207B6893F899207B6893F89A309A4203D37B68002283F899207B68002283F89B200C37BD4690BD00BF7B
:403640000050C34780B483B000AF7860084611461A460346FB700B46BB7013463B807B68FA7883F898207B68BA7883F89A207B683A88A3F89E20BB783F2B03D97B6840222B
:4036800083F89A200C37BD465DF8047B704700BF80B485B000AF78600023FB607B680022C3F894207B680022A3F8A0207B68002283F899207B68002283F89B200023FB6011
:4036C00009E07A68FB6808335B00134400225A80FB680133FB60FB683F2BF2DD1437BD465DF8047B704700BF80B485B000AF78600023FB607B684FF00002C3F8A0207B689D
:403700004FF00002C3F8A4207B68002283F899207B68002283F89B200023FB6009E07A68FB6808335B00134400225A80FB680133FB60FB683F2BF2DD1437BD465DF8047B10
:40374000704700BF80B400AFBD465DF8047B704790B482B000AF0446084611461A462346FB710346BB710B467B7113463B710E4AFB7913700C4ABB7953700B4A7B7993707A
:40378000094A3B79D370084A3B7C1371064A3B7D5371054A3B7E9371034A3B7FD3710837BD4690BC704700BF4084FF1F80B483B000AF78600B46FB707B68FA7883F89B20F4
:4037C0000C37BD465DF8047B704700BF80B483B000AF78607B68B3F89E304CF25032B2FBF3F39BB218460C37BD465DF8047B704780B483B000AF78600B46FB707B68FA7821
:4038000083F89C200C37BD465DF8047B704700BF80B483B000AF78607B6893F898301A467B6893F89C10034B99540C37BD465DF8047B7047B881FF1F80B483B000AF7860D2
:403840007B6893F898301A46044B9A5C7B6883F89C200C37BD465DF8047B7047B881FF1F80B400AFFEE700BF80B582B000AF78607B68DBB2184602F0A9F9FEE780B584B006
:4038800000AF78600F4B1A687B6813441A460E4BD31A802B09DC0B4B1B68FB60094B1A687B681344074A136007E007F03BF902460C2313604FF0FF33FB60FB68184610375D
:4038C000BD4680BD1081FF1F4088FF1F80B586B000AF224B7B61224B3B61204B7B6135E03B691B68FB603B695B68BB603B699B683B6000237B600CE0FB681A68BB681A6079
:40390000BB680433BB60FB680433FB607B6804337B607A683B689A42EED13B69DB683B6000237B6008E0BB6800221A60BB680433BB607B6804337B607A683B689A42F2D153
:403940003B6910333B617B69013B7B617B69002BC6D107F001F9FFF70BFCFEE70100000030AE000080B582B000AF174B174A1A60174A174B1B6843F40073136000237B60BC
:403980000FE07B68032B04D8124A7B6852F8233000E0114B11497A6841F822307B6801337B607B682F2BECD90D4B1B78DAB20D4B1A700D4B094A1A6000F060FA0B4B002218
:4039C0001A600837BD4680BD0CED00E00004FA0514ED00E0002C0000613800000080FF1FBC7600400481FF1F08ED00E00081FF1F80B582B000AF78603960786800213A68FB
:403A000007F0DBF80837BD4680BD00BF80B584B000AFF860B9607A60F868B9687A6807F0C1F81037BD4680BD80B584B000AFF860B9607A60F868B9687A6807F0B3F81037D2
:403A4000BD4680BD80B483B000AF0346FB71FEE780B487B000AF7860396000233B6100237B6127E07B699B007A6813441B68BB60BB68FB73BB6823F0FF03BB6014E03B6934
:403A80005B003A6813441B781A46BB68134419463B695B003A6813445B780B703B6901333B61FB7B013BFB73FB7B002BE7D17B6901337B617B69202BD4D91C37BD465DF838
:403AC000047B704780B582B000AF3C4B02221A803B4B18221A703B4B03221A803A4B18221A703A4B05221A80394B18221A70394B47221A80384B18221A70384B4D221A8075
:403B0000374B18221A70374B02221A704FF0402308221A70344B03221A70344B344A1278D2B21A70334B18221A80334B42F251221A800023FB7019237B6014E0FB785B007E
:403B4000DAB22E4B1B78DBB203F00103DBB21343DBB203F00303FB704FF4F07001F070F97B68013B7B607B68002B02D0FB78032BE4D17B68002B02D10320FFF763FF204B61
:403B80004FF480721A801E4B07221A701D4B00221A701D4B48221A70194B00221A701B4B02221A701A4A1A4B1B78DBB243F01F03DBB213700837BD4680BD00BF80400040FA
:403BC000824000408440004086400040884000408A4000408C4000408E40004090400040924000400043004000420040A14600400801004922420040204200402542004000
:403C000004400040064000400840004001400040A243004080B582B000AF1F4B1B78FB711E4B1B78BB711E4B1B787B711D4AFB7903F00703DBB213701B4AFB791B09DBB24B
:403C40001370164ABB7943F00303DBB21370144A7B7943F00303DBB21370144B40221A70134B40221A70134B30221A70124B20221A70124BD0221A700A2001F0E5FF084A27
:403C80007B791370054ABB7913700D4B44221A700837BD4680BD00BFCF010049F8460040F94600406E5800406F5800400159004003590040985A0040235B0040585B0040C5
:403CC0007658004080B485B000AF0346FB710B4B1B78FB73FB79002B04D0FB7B43F02203FB7303E0FB7B23F02203FB73034AFB7B13701437BD465DF8047B704776580040B7
:403D000080B485B000AF0346FB71FB79012202FA03F3FB73FB79052B3BD8204B1A78FB7B1340DBB2002B34D11C4B1A78FB7B1343DAB21A4B1A70FB79194A52F82330FA795E
:403D4000174951F822201178FA791648825C0A43D2B21A70FB79144AD35CBB73BB7B134AD35C002B0ED1BB7B114A52F82330BA7B0F4951F822201178BA7B0E48825C0A4345
:403D8000D2B21A70BB7B094AD25C0132D1B2074AD1541437BD465DF8047B7047C081FF1F0CAC000024AC00003CAC0000C481FF1F2CAC000038AC000080B485B000AF0346EA
:403DC000FB71FB79012202FA03F3FB73FB79052B41D8234B1A78FB7B1340DBB2002B3AD0FB7BDB43DAB21E4B1B781340DAB21C4B1A70FB791B4A52F82330FA79194951F898
:403E000022201178FA791848825CD243D2B20A40D2B21A70FB79154AD35CBB73BB7B144AD25C013AD1B2124AD154BB7B104AD35C002B10D1BB7B0F4A52F82330BA7B0D4962
:403E400051F822201178BA7B0B48825CD243D2B20A40D2B21A701437BD465DF8047B7047C081FF1F0CAC000024AC00003CAC0000C481FF1F2CAC000038AC000080B586B0A5
:403E800000AF72B6574B60221A70FFF71BFE564A554B1B78DBB243F00403DBB213700023FB7513E0FA7D13465B0013445B004F4A13443B613B691A683B699B889BB2104645
:403EC0001946FFF795FDFB7D0133FB75FB7D092BE8D90023FB751CE0FA7D13469B0013445B00434A1344FB60FB681B68BB60FB685B687B60FB681A7A5B7A1B0213437B802B
:403F00007B88B86879681A46FFF780FDFB7D0133FB75FB7D012BDFD9364B03F190431A46344B03F19043843310461946FFF790FD314A314B1B78DBB243F00203DBB21370F6
:403F40002E4A2E4B1B78DBB243F00203DBB213702B4A2B4B1B78DBB243F04003DBB21370284A284B1B78DBB243F01003DBB21370204B03F1904303F2C473234819460822AA
:403F8000FFF744FD1B4B03F1904303F2CC731F4819460A22FFF73AFD164B03F1904303F5FB631B4819460A22FFF730FD114B03F1904303F2E473174819460822FFF726FD4B
:403FC000154A154B1B78DBB243F00803DBB21370FFF720FE11480A490E22FFF717FD1837BD4680BD00480040E846004044AC000080AC00008005000003500140135001403C
:40400000A0430040C243004002510040C0510040105100403251004022430040B043004080B500AF054B1B78002B04D100F008F8024B01221A7000F039F880BDC881FF1F82
:4040400080B500AF0120114902F0E2F80120072102F022F90E4B00221A700E4B72221A700D4B20221A7002200C4902F0D1F80220072102F011F90A4B06221A70094B4722E3
:404080001A70094B02221A7080BD00BFC5480000CB81FF1F89650040886400409D49000028640040386400408A64004080B582B000AF00F0E4FE0346FB71154A144B1B78FD
:4040C000DBB243F02003DBB21370124A114B1B78DBB243F01003DBB213700F4B02221A600E4A0E4B1B78DBB243F01003DBB213700B4B04221A60084B04221A6000F086FC25
:40410000FB79184600F0BFFE0837BD4680BD00BF996500409864004000E100E09A64004080E200E080B582B000AF00F0A8FE0346FB71134A124B1B78DBB223F02003DBB209
:40414000137000F07DFC0F4A0E4B1B78DBB223F01003DBB213700C4B02221A600B4A0B4B1B78DBB223F01003DBB21370064B04221A60FB79184600F086FE0837BD4680BD9F
:40418000996500409864004080E100E09A64004080B400AF00231846BD465DF8047B704780B483B000AF0346FB710C37BD465DF8047B704780B483B000AF0346FB71044A5F
:4041C000FB7913700C37BD465DF8047B704700BF8864004080B483B000AF1C4B02221A601B4B1B78BB711B4B1B787B711A4B1B78DBB2002B03D1BA797B799A4218D0BB7944
:40420000164AD35CFB71BB790133BB71BB794F2B01D90023BB710E4ABB7913700E4B1B78DBB2002B03D00C4B00221A7003E002E00B4B1B78FB710B4B02221A60FB791846AF
:404240000C37BD465DF8047B704700BF80E100E0CC81FF1FCD81FF1FCE81FF1FDC87FF1F4A65004000E100E080B483B000AF0C4B1B78DBB203F07F03FB710A4B1B78DBB215
:40428000002B06D0FB7963F07F03FB71054B00221A70FB7918460C37BD465DF8047B704768640040CF81FF1F80B483B000AF0023FB71234B02221A60224B1B78BB71224BE5
:4042C0001B787B71214B1B78DBB2002B03D1BA797B799A4218D0BB791D4AD35CFB71BB790133BB71BB794F2B01D90023BB71154ABB791370154B1B78DBB2002B03D0134B36
:4043000000221A7012E011E0124B1B783B713B7903F02003002B09D00F4B1B78FB713B7903F01E03002B01D00023FB710B4B02221A60FB7918460C37BD465DF8047B704741
:4043400080E100E0CC81FF1FCD81FF1FCE81FF1FDC87FF1F686400404A65004000E100E090B583B000AF0C4B02221A600B4B1B78FB800A4B00221A70094B02221A60FB8885
:404380001B029CB2FFF726FF03469BB223439BB218460C37BD4690BD80E100E0CB81FF1F00E100E080B483B000AF1D4B02221A601C4B1B78DAB21C4B1B78DBB29A420AD1F1
:4043C0001A4B1B78DBB2002B02D05023FB711DE00023FB711AE0134B1B78DAB2124B1B78DBB29A4208D2104B1B78DAB20D4B1B78DBB2D31AFB7109E00B4B1B78DAB2094B29
:404400001B78DBB2D31ADBB25033FB71084B02221A60FB7918460C37BD465DF8047B704780E100E0CC81FF1FCD81FF1FCE81FF1F00E100E080B582B000AF00F020FD0346AD
:40444000FB71144A134B1B78DBB243F00103DBB21370104A0F4B1B78DBB223F00103DBB21370FB79184600F00EFD0B4B02221A600A4B00221A700A4B00221A70094B002279
:404480001A70094B00221A70084B02221A600837BD4680BD9A65004080E100E0CC81FF1FCD81FF1FCE81FF1FCF81FF1F00E100E080B483B000AF0346FB710C37BD465DF8A9
:4044C000047B704780B483B000AF0346FB71044AFB7913700C37BD465DF8047B704700BF2A65004080B483B000AF0346FB71044AFB7913700C37BD465DF8047B704700BF77
:404500003A65004080B483B000AF0346FB71044AFB7913700C37BD465DF8047B704700BF8A64004080B483B000AF0346FB711A4B1B78002B2AD0194B04221A60184B1B78EC
:40454000DAB2184B1B789A420AD1174B1B78DBB203F00403002B03D1144AFB79137012E0104B1B784F2B02D90E4B00221A700D4B1B7819460E4AFB7953540A4B1B7801331F
:40458000DAB2084B1A700B4B04221A600C37BD465DF8047B704700BFC881FF1F80E100E0C981FF1FCA81FF1F6A640040496400408C87FF1F00E100E080B400AF034B1B78E2
:4045C000DBB21846BD465DF8047B70476A64004080B485B000AF0346FB71254B1B78FB73244B1B78BB73FA7BBB7B9A4208D2FA7BBB7B013B9A420CBF01230023DBB207E01C
:40460000FA7BBB7BD31A4F2B0CBF01230023DBB2002BE2D1BA7BFB7B9A420AD1164B1B78DBB203F00403002B03D1144AFB79137018E0FB7B4F2B01D90023FB73FB7B104998
:40464000FA79CA54FB7B0133FB73094AFB7B1370094B1B78DBB203F00203002B02D0094B04221A601437BD465DF8047B704700BFCA81FF1FC981FF1F6A6400404964004084
:404680008C87FF1F00E200E080B584B000AF78600023FB810B4B1B78002B10D009E0FB897A6813441B781846FFF792FFFB890133FB81FB897A6813441B78002BEFD11037B0
:4046C000BD4680BDC881FF1F80B584B000AF78600B46FB700023FB730A4B1B78002B0ED009E0FB7B7A6813441B781846FFF770FFFB7B0133FB73FA7BFB789A42F1D3103710
:40470000BD4680BDC881FF1F80B582B000AF0346FB71084B1B78002B09D0FB791846FFF757FF0D20FFF754FF0A20FFF751FF0837BD4680BDC881FF1F80B483B000AF174BBB
:4047400004221A60164B1B78DAB2164B1B789A4202D10023FB7117E0114B1B78DAB2114B1B789A4207D20F4B1A780D4B1B78DBB2D31AFB7108E00B4B1A78094B1B78DBB2D0
:40478000D31ADBB25033FB71074B04221A60FB7918460C37BD465DF8047B704780E100E0C981FF1FCA81FF1F00E100E080B582B000AF00F064FB0346FB71114A104B1B78C5
:4047C000DBB243F00103DBB213700D4A0C4B1B78DBB223F00103DBB21370FB79184600F052FB084B04221A60074B00221A70074B00221A70064B04221A600837BD4680BD82
:404800009964004080E100E0C981FF1FCA81FF1F00E100E080B485B000AF0346FB711F4B1B78002B35D0FB79002B02D0FB79032B12D11B4B1B78DAB21A4B1A70184B672218
:404840001A70194B00221A70184B1B78FB73FB7B03F00203002BF7D1FB79012B02D0FB79032B09D1114B1B78FB73FB7BDB43DBB203F00103002BF5D1FB79012B05D0FB799C
:40488000022B02D0FB79032B03D1054B054A12781A701437BD465DF8047B7047C881FF1F38640040D081FF1F496400406A64004080B483B000AF0346FB710C37BD465DF8E4
:4048C000047B704780B483B000AF0023FB712B4B1B78BB71BB797B71BB7903F01E03002B0BD0BB7903F01E03DAB2254B1B78DBB21343DBB2DAB2224B1A70BB7903F0200326
:40490000002B30D01F4B1B787B711F4B1B78DBB219461E4A7B7953540123FB71FB79002B21D01B4B1B78DBB2002B02D0194B01221A70154B1B78DBB20133DAB2124B1A709C
:40494000114B1B78DBB24F2B02D90F4B00221A700D4B1B78DAB2104B1B78DBB29A4202D10B4B01221A70BB7903F02003002BAED10C37BD465DF8047B704700BF686400402C
:40498000CB81FF1F4A650040CD81FF1FDC87FF1FCE81FF1FCF81FF1FCC81FF1F80B400AF17E0154B1B78DBB24F2B02D9124B00221A70124B104A1278D2B21146104A525C8F
:4049C000D2B21A700C4B1B78DBB20133DAB20A4B1A70094B1B78DAB20A4B1B789A4206D0094B1B78DBB203F00403002BD9D0BD465DF8047B704700BFC981FF1F49640040A2
:404A00008C87FF1FCA81FF1F6A64004080B400AF094A094B1B78DBB243F01003DBB21370064A064B1B78DBB243F01003DBB21370BD465DF8047B7047A2430040B2430040CF
:404A400080B400AF094A094B1B78DBB223F01003DBB21370064A064B1B78DBB223F01003DBB21370BD465DF8047B7047A2430040B243004080B483B000AF224B1B78DBB2D4
:404A800003F01003002B37D01F4B00221A701F4B10221A701E4B00221A701E4A1D4B1B78DBB203F07F03DBB213701B4B1B88FB801A4AFB881380144B07221A7000BF124BCC
:404AC0001B78DBB203F00103002BF8D10D4A0D4B1B78DBB223F01003DBB21370104A104B1B78DBB223F01003DBB21370064B00221A70094AFB8813800C37BD465DF8047B1B
:404B0000704700BFA2430040014000401040004014400040084000409040004002400040B243004080B483B000AF0346FB71FB79002B08D10A4A0A4B1B78DBB223F01003B4
:404B4000DBB2137007E0064A054B1B78DBB243F01003DBB213700C37BD465DF8047B7047B243004080B584B000AF03460A46FB8013467B7100F054F90346FB7300F0A2F833
:404B80000346BB81FA88BB899A4200F08780454B1B78DBB203F01003FB72FB7B002B20D1BB89002B02D0FB88002B1AD1BB89002B0BD13D4AFB8813803C4A3C4B1B78DBB233
:404BC00023F04003DBB2137068E0384A374B1B78DBB243F04003DBB21370334AFB8813805CE0FB7A002B33D0314B00221A70314B10221A70304B00221A70304A2F4B1B78DD
:404C0000DBB203F07F03DBB21370284B1B78DBB203F00803002B02D0FB88002B18D1284ABB891380224B07221A7000BF204B1B78DBB203F00103002BF8D11A4A194B1B7844
:404C4000DBB223F01003DBB21370194B00221A70144B1B78DBB203F01003002B13D0184AFB881380124A7B79002B01D0032300E00123137000BF0E4B1B78DBB203F001032E
:404C8000002BF8D10AE0084AFB8813800549054B1B78DAB2FB7A1343DBB20B701037BD4680BD00BFA243004090400040924000400140004010400040144000400840004064
:404CC0000240004080B400AF034B1B889BB21846BD465DF8047B70479040004080B483B000AF0346FB71094B084A1278D2B2D1B2FA7922F00702D2B20A43D2B2D2B21A7022
:404D00000C37BD465DF8047B704700BF9240004080B483B000AF0346FB710949084B1B78DAB2FB79DB43DBB243F00703DBB21340DBB20B700C37BD465DF8047B704700BF6E
:404D40009240004080B400AF054B1B78DBB223F00703DBB21846BD465DF8047B704700BF9240004080B584B000AF0346FB71FFF7A9FF0346FB8100F053F803467B737B7BCF
:404D8000002B1BD0FB79002B18D1FB89002B15D1224A224B1B78DBB243F04003DBB213701E4B1E4A1278D2B2D2B222F00702D1B2FA790A43D2B2D2B21A702BE07B7B002BC2
:404DC0001BD1FB79002B18D0FB89002B15D1134B124A1278D2B2D2B222F00702D1B2FA790A43D2B2D2B21A700C4A0C4B1B78DBB223F04003DBB213700CE0084B074A127822
:404E0000D2B2D2B222F00702D1B2FA790A43D2B2D2B21A701037BD4680BD00BF9240004080B400AF054B1B78DBB203F00703DBB21846BD465DF8047B704700BF9240004088
:404E4000142816D902B4012114381049097811F0C001890904B40E4A515C04BC00BF00BF00BF8841FDD500BF00BF02BC704700BF00BF70F10400FCD570470B050709EFF300
:404E8000108072B6704780F310887047004800407A4E0000AFF3008080B584B000AF0346FB710023FB60234A224B1B78DBB243F00103DBB21370FB79002B36D01E4B1B7822
:404EC000DBB203F00403FB721C4B1B78BB721C4B1B787B72182002F085F91023FB6010E0184B1B78DBB203F00103002B09D0154B1B78DBB203F00103002B02D00023FB601A
:404F000008E0012002F03AF8034603F00103DBB2002BE5D0FB7A002B01D100F0F5FB074ABB7A1370064A7B7A1370FB6818461037BD4680BD20420040004300408043004004
:404F4000824300402542004080B400AF054A054B1B78DBB223F00103DBB21370BD465DF8047B70472042004080B582B000AF0346FB710B46BB7113467B711B4B1B78DBB279
:404F800003F00103002B02D0002000F01FFEFB79072B23D9BB79102B20D8BB79002B1DD07B79002B1AD07B79072B17D80F4AFB7913700F4ABB79013BDBB213700D490D4B86
:404FC0001B78DBB223F07003DAB27B79013BDBB21B01DBB21343DBB20B7002E0002000F0F5FD0837BD4680BD2042004022420040234200402142004080B582B000AF03466B
:40500000FB71114B1B78DBB203F00103002B02D0002000F0DBFDFB790033022B0DD84FF040214FF040231B78DBB223F00303DAB2FB791343DBB20B7003E0002000F0C6FD64
:4050400000BF0837BD4680BD2042004080B584B000AF0346FB711D4A1C4B1B78DBB243F01003DBB213701A4A194B1B78DBB243F01003DBB21370FB79002B23D0154B1B787C
:40508000DBB203F00403FB73134B1B78BB73134B1B787B73002002F0A5F800BF012001F06DFF034603F00103DBB2002BF6D0FB7B002B01D100F028FB074ABB7B1370074A72
:4050C0007B7B13701037BD4680BD00BFA0430040B043004000430040804300408243004080B400AF094A094B1B78DBB223F01003DBB21370064A064B1B78DBB223F0100349
:40510000DBB21370BD465DF8047B7047A0430040B043004080B483B000AF0023FB71124B1B78DBB203F00703002B06D10F4B1B78DBB203F00103002B0DD10B4B1B78DBB26A
:4051400003F00703012B08D1094B1B78DBB203F00103002B01D00123FB71FB7918460C37BD465DF8047B704793430040A5430040B543004080B584B000AF0346FB71FFF75A
:40518000C9FF0346FB73FB7B012B07D1314A314B1B78DBB223F00203DBB21370FB79082B50D801A252F823F0CD510000D9510000E5510000F1510000FD510000095200007F
:4051C000155200004552000021520000224B234A1278D2B21A7039E01F4B214A1278D2B21A7033E01C4B1F4A1278D2B21A702DE0194B1D4A1278D2B21A7027E0164B1B4A8E
:405200001278D2B21A7021E0134B194A1278D2B21A701BE0104B174A1278D2B21A7015E00D4B154A1278D2B21A70FB7B012B08D1084A084B1B78DBB243F00203DBB2137061
:4052400004E003E0002000F0C1FC00BF1037BD4680BD00BF09600040A146004008010049090100490A0100490B010049890100490C0100490D0100490F01004980B584B035
:4052800000AF0346FB71674B1B78DBB203F00703FB73FB79082B01D0FB7900E00323BB73FB7B062B25D801A252F823F0C9520000CF520000D5520000DB520000E1520000C6
:4052C000E7520000ED5200000223FB7315E00123FB7312E00323FB730FE00023FB730CE00423FB7309E00523FB7306E00623FB7303E0002000F06AFC00BFBA7BFB7B9A42FA
:4053000003D3FB791846FFF735FFFB79082B72D801A252F823F000BF3D530000555300006D5300007F53000097530000AF530000C7530000F7530000DF530000394A394B98
:405340001B78DBB223F04703DBB243F00303DBB2137054E0334A334B1B78DBB223F04703DBB243F00103DBB2137048E02D4A2D4B1B78DBB223F04703DBB213703FE0294A24
:40538000284B1B78DBB223F04703DBB243F00203DBB2137033E0234A224B1B78DBB223F04703DBB243F00403DBB2137027E01D4A1C4B1B78DBB223F04703DBB243F00503CD
:4053C000DBB213701BE0174A164B1B78DBB223F04703DBB243F00603DBB213700FE0114A104B1B78DBB223F04703DBB243F04203DBB2137003E0002000F0E8FB00BFFB794A
:40540000082B02D100F056F801E000F063F8BA7BFB7B9A4203D2FB791846FFF7ABFE1037BD4680BD0042004080B582B000AF0346FB71FB79012B17D0022B02D0002B26D0B4
:405440002EE04FF040224FF040231B78DBB223F04003DBB21370164A154B1B78DBB243F02003DBB213701FE04FF040224FF040231B78DBB243F04003DBB213700C4A0C4B7A
:405480001B78DBB243F02003DBB213700CE0084A074B1B78DBB223F02003DBB2137003E0002000F093FB00BF0837BD4680BD00BF0042004080B400AF054A054B1B78DBB2CE
:4054C00043F01003DBB21370BD465DF8047B70470042004080B400AF054A054B1B78DBB223F01003DBB21370BD465DF8047B70470042004080B483B000AF0346FB71094941
:40550000084B1B78DBB223F00303DAB2FB7903F00303DBB21343DBB20B700C37BD465DF8047B70470540004080B483B000AF0346FB71044AFB7913700C37BD465DF8047B7B
:40554000704700BF0440004080B483B000AF0346FB80154A144B1B78DBB223F00F03DBB21370124B00221A70114A114B1B78DBB263F07F03DBB213700E4BFA88D2B21A7096
:405580000D4AFB881B0A9BB2DBB213700B4A0B4B1B78DBB243F00103DBB213700C37BD465DF8047B704700BF144000401040004008400040024000400340004001400040BB
:4055C00080B584B000AF0346FB80FFF758FC0346FB73244B1B78DBB29BB21B02BB81224B1B78DBB29AB2BB891343BB81FB88002B02D0BB89002B29D11C4B1B78FB72FB7A25
:40560000062B02D80720FFF78FFFFB88002B0CD1174A174B1B78DBB243F04003DBB21370FB881846FFF790FF0BE0FB881846FFF78BFF0F4A0E4B1B78DBB223F04003DBB259
:405640001370FB7A1846FFF76FFF03E0FB881846FFF77AFFFB7B1846FFF715FC1037BD4680BD00BF0740004006400040044000400840004080B483B000AF0346FB710949E6
:40568000084B1B78DBB223F00303DAB2FB7903F00303DBB21343DBB20B700C37BD465DF8047B70470940004080B400AF054A054B1B78DBB243F00203DBB21370BD465DF8DE
:4056C000047B70470043004080B400AF054A054B1B78DBB223F00203DBB21370BD465DF8047B70470043004080B400AF054A054B1B78DBB243F00403DBB21370BD465DF8D2
:40570000047B70470043004080B400AF054A054B1B78DBB223F00403DBB21370BD465DF8047B70470043004080B400AF054A054B1B78DBB243F02003DBB21370BD465DF873
:40574000047B70470043004080B400AF054A054B1B78DBB223F02003DBB21370BD465DF8047B70470043004080B483B000AF0346FB714FF040214FF040231B78DBB223F037
:405780000C03DAB2FB799B00DBB203F00C03DBB21343DBB20B700C37BD465DF8047B704780B485B000AF0346FB710F4B1B78FB73FB79002B06D00C4AFB7B43F01003DBB2B8
:4057C000137005E0084AFB7B23F01003DBB21370FB7B03F010031B09DBB218461437BD465DF8047B704700BF0043004080B582B000AF1B4BF3221A701A4B03221A701A4A0A
:40580000194B1B78DBB223F00C03DBB243F00403DBB21370154A154B1B78DBB243F00103DBB213704FF47A73FB8012E000F048F8034603F02003002B03D0002000F050F843
:405840000BE0012000F000FAFB889BB2013B9BB2FB80FB889BB2002BE8D10837BD4680BD0A43004098460040094300400843004080B400AF0E4BF3221A700E4B00221A7089
:405880000D4A0D4B1B78DBB223F00C03DBB243F00403DBB21370094A084B1B78DBB223F00303DBB21370BD465DF8047B704700BF0A43004098460040094300400843004022
:4058C00080B400AF054B1B78DBB203F02003DBB21846BD465DF8047B704700BF0843004080B584B000AF0346FB71264B1B78DBB203F00203002B01D0012300E00023FB7395
:40590000214BF3221A70FB79012B1CD11F4B01221A700A2000F098F91D4A1D4B1B78DBB223F00C03DBB243F00803DBB21370142000F08AF9134A134B1B78DBB243F0020367
:40594000DBB2137018E0114B06221A700A2000F07BF90F4A0E4B1B78DBB223F00C03DBB243F00403DBB21370064A064B1B78DBB223F00203DBB21370FB7B18461037BD46B1
:4059800080BD00BF084300400A430040984600400943004080B586B000AF0346FB7100237B61FB793B742B4A2A4B1B78DBB243F00103DBB21370FB79002B46D0264B1B782E
:4059C000FB74264B1B78BB74254B1B787B74182001F008FC10237B6126E01E4B1B780423FB730EE000BF012001F0C8FA034603F00103DBB2002BF6D0FB7BDBB2013BDBB235
:405A0000FB73FB7BDBB2002BECD1124B1B78DBB2DBB25BB2002B02DB00237B6108E03B7CDBB2013BDBB23B743B7CDBB2002BD4D1FB7C03F00403002B01D1FFF765FE074A1F
:405A4000BB7C1370064A7B7C13707B6918461837BD4680BD1042004000430040804300408243004080B400AF054A054B1B78DBB223F00103DBB21370BD465DF8047B70475D
:405A80001042004080B400AF054A054B1B78DBB223F00403DBB21370BD465DF8047B70471042004080B400AF054A054B1B78DBB243F00403DBB21370BD465DF8047B7047EE
:405AC0001042004080B400AF074B1B78DBB2DBB25BB2002B01DA012300E000231846BD465DF8047B704700BF1042004080B400AF054A054B1B78DBB243F04003DBB2137093
:405B0000BD465DF8047B70471042004080B400AF054A054B1B78DBB223F04003DBB21370BD465DF8047B70471042004080B483B000AF0346FB710949084B1B78DBB223F07A
:405B40001F03DAB2FB7903F01F03DBB21343DBB20B700C37BD465DF8047B70471242004080B483B000AF0346FB710949084B1B78DBB223F00F03DAB2FB7903F00F03DBB257
:405B80001343DBB20B700C37BD465DF8047B70471342004080B483B000AF0346FB710A49094B1B78DBB223F07003DAB2FB791B01DBB203F07003DBB21343DBB20B700C37CC
:405BC000BD465DF8047B70471342004080B483B000AF0346FB7101BE0C37BD465DF8047B704700BF80B400AF054A054B1B78DBB243F00103DBB21370BD465DF8047B7047F1
:405C0000F646004080B582B000AF786008E00C4B1B681846FFF714F97B68A3F500437B607B68B3F5004FF2D8064B1B687A6802FB03F31846FFF704F90837BD4680BD00BF62
:405C40002081FF1F1881FF1F80B582B000AF0346FB80FB88044A127802FB03F31846FFF7EFF80837BD4680BD1C81FF1F80B483B000AF78607B68002B03D0144A7B6813608E
:405C800002E0124B124A1A60104B1B6803F5742303F23F230F4AA2FB03239B0CDAB20E4B1A700A4B1B6803F2E7330C4AA2FB03239B090B4A13600A4B1B68DB03094A1360F1
:405CC0000C37BD465DF8047B704700BF1481FF1F00A24A0483DE1B431C81FF1FD34D62101881FF1F2081FF1F80B483B000AF03460A46FB711346BB711D491D4B1B78DBB261
:405D000023F00303DAB2FB7903F00303DBB21343DBB20B70164A164B1B78DBB263F07F03DBB21370124A124B1B78DBB203F07F03DBB213700E49BB795B01DBB203F0600378
:405D4000DAB20B4B1B78DBB223F06003DBB21343DBB20B70064A064B1B78DBB243F01003DBB213700C37BD465DF8047B704700BF8343004080B400AF034B01221A70BD4632
:405D80005DF8047B704700BF8443004080B584B000AF03460A46FB711346BB71FFF76FF80346FB73264B1B6803F00103BB60254B01221A60244A244B1B78DBB223F0400376
:405DC000DBB213702149BB7903F00F03DAB21F4B1B78DBB223F00F03DBB21343DBB20B701B4A1B4B1B78DBB243F00103DBB213700120FFF729FF012000F028F9FB79002B88
:405E000008D0114A104B1B78DBB243F04003DBB2137007E00C4A0C4B1B78DBB223F04003DBB213700B4B01221A60054ABB681360FB7B1846FFF727F81037BD4680BD00BF0D
:405E400000E100E080E100E0F7460040F4460040F546004080E200E080B584B000AF03460A46FB711346BB71FFF709F80346FB73254B1B6803F00103BB60244B01221A600B
:405E8000234A234B1B78DBB203F07F03DBB213702049BB791B01DAB21E4B1B78DBB203F00F03DBB21343DBB20B701B4A1A4B1B78DBB243F00203DBB213700120FFF7C4FE99
:405EC000022000F0C3F8FB79002B08D0104A104B1B78DBB263F07F03DBB2137007E00C4A0B4B1B78DBB203F07F03DBB213700B4B01221A60044ABB681360FB7B1846FEF7CC
:405F0000C2FF1037BD4680BD00E100E080E100E0F7460040F4460040F546004080E200E080B500AF0E4A0E4B1B78DBB223F00103DBB213700B4A0B4B1B78DBB223F0400366
:405F4000DBB21370012000F081F800BF012000F07DF8034603F00103002BF7D180BD00BFF5460040F746004080B500AF0C4A0C4B1B78DBB223F00203DBB21370094A094B9B
:405F80001B78DBB203F07F03DBB2137000BF022000F05CF8034603F00203002BF7D180BDF5460040F746004080B582B000AFFEF766FF0346FB71154B1B6803F001033B6014
:405FC000134B01221A60134A124B1B78DBB203F07F03DBB21370104A0F4B1B78DBB243F00403DBB213700120FFF72EFE042000F02DF80A4B01221A60044A3B681360FB79E3
:406000001846FEF740FF0837BD4680BD00E100E080E100E0F7460040F546004080E200E080B500AF084A084B1B78DBB223F00403DBB2137000BF042000F008F8034603F031
:406040000403002BF7D180BDF546004080B584B000AF0346FB71FEF712FF0346FB73104B1B78DAB20F4B1B781343DAB20D4B1A700C4B1B7803F00703BB73FB79DB43DAB286
:40608000084B1B781340DAB2064B1A70FB7B1846FEF7F9FEBB7B18461037BD4680BD00BFFA460040EC81FF1F80B582B000AFFEF7E6FE0346FB71074B1B78DBB203F0070388
:4060C000BB71FB791846FEF7DEFEBB7918460837BD4680BDFC46004080B582B000AFFEF7CEFE0346FB71084B1B683B60064B4FF0FF321A60FB791846FEF7C5FE3B6818467B
:406100000837BD4680BD00BF80E100E080B584B000AF7860FEF7B3FE0346FB73044A7B681360FB7B1846FEF7AEFE1037BD4680BD00E100E080B582B000AFFEF7A0FE034640
:40614000FB7100BF00BF00BF00BF00BF00BF00BF00BF00BF00BF00BF00BF00BF00BF00BF00BF094A084B1B889BB243F004039BB21380054B1B88BFF36F8FFB791846FEF7A9
:4061800082FE0837BD4680BD0048004080B584B000AF03463960FB710E4B1B68FB60FB790F2B02D90020FFF711FDFB7903F00F039B00FA6813441B68BB60FB7903F00F032A
:4061C0009B00FA6813443A681A60BB6818461037BD4680BD08ED00E080B584B000AF0346FB710A4B1B68FB60FB790F2B02D90020FFF7ECFCFB7903F00F039B00FA681344FE
:406200001B6818461037BD4680BD00BF08ED00E080B584B000AF03463960FB710F4B1B68FB60FB791F2B02D90020FFF7CFFCFB7903F01F0310339B00FA6813441B68BB608C
:40624000FB7903F01F0310339B00FA6813443A681A60BB6818461037BD4680BD08ED00E080B584B000AF0346FB710A4B1B68FB60FB791F2B02D90020FFF7A8FCFB7903F04B
:406280001F0310339B00FA6813441B6818461037BD4680BD08ED00E080B582B000AF03460A46FB711346BB71BB79072B02D90020FFF78CFCFB791F2B02D90020FFF786FC38
:4062C000FB7903F01F0303F1604303F56443BA795201D2B21A700837BD4680BD80B584B000AF0346FB71FB791F2B02D90020FFF76DFCFB7903F01F0303F1604303F5644328
:406300001B78DBB25B09FB73FB7B18461037BD4680BD00BF80B584B000AF0346FB71FB791F2B02D90020FFF751FC0A4BFB60FB681A68FB7903F01F0322FA03F303F0010361
:40634000002B14BF01230023DBB218461037BD4680BD00BF00E100E080B500AF054B1B68002B04D100F008F8024B01221A6000F037F880BDE881FF1F80B582B000AF002339
:406380007B6007E0114A7B68002142F823107B6801337B607B68042BF4D90F200C49FFF7F5FE012000F080F80A4B1B680A4AA2FB03239B09184600F04BF800F09FF8074B8B
:4063C0004FF400421A600837BD4680BDD481FF1F656500001481FF1FD34D621000E100E080B500AF00F018F8034A034B1B6843F00103136080BD00BF10E000E080B400AF81
:40640000044A044B1B6823F001031360BD465DF8047B704710E000E080B400AF044A044B1B6843F002031360BD465DF8047B704710E000E080B400AF044A044B1B6823F032
:4064400002031360BD465DF8047B704710E000E080B483B000AF7860044A7B6823F07F4313600C37BD465DF8047B704714E000E080B400AF044B1B6823F07F431846BD464F
:406480005DF8047B704700BF14E000E080B400AF044B1B6823F07F431846BD465DF8047B704700BF18E000E080B483B000AF78607B68012B06D1094A084B1B6843F004037A
:4064C000136005E0054A054B1B6823F0040313600C37BD465DF8047B704700BF10E000E080B400AF044B1B681B0C03F001031846BD465DF8047B704710E000E080B400AFC3
:40650000034B00221A60BD465DF8047B704700BF18E000E080B485B000AF78603960084A7B6852F82330FB6005497B683A6841F82320FB6818461437BD465DF8047B7047AD
:40654000D481FF1F80B483B000AF7860044A7B6852F8233018460C37BD465DF8047B7047D481FF1F80B582B000AFFFF7B9FF0346012B13D100237B600DE00A4A7B6852F8C1
:406580002330002B04D0074A7B6852F8233098477B6801337B607B68042BEED90837BD4680BD00BFD481FF1F80B483B000AF7860264B1B78DBB21A467B681A60244B1B781F
:4065C000DBB21B027A6812681A437B681A60214B1B78DBB21B047A6812681A437B681A601D4B1B78DBB21B067A6812681A437B681A607B680433194A1278D2B21A60184BF3
:406600001B78DBB21A027B6804337968043109680A431A60134B1B78DBB21A047B6804337968043109680A431A600F4B1B78DBB21A067B6804337968043109680A431A60B0
:406640000C37BD465DF8047B704700BF0301004904010049EC460040020100490101004900010049050100490601004980B500AF914B1B78DBB203F00F03DAB28F4B1A7028
:406680008F4B1B78DAB28D4B5A708B4A8A4B1B78DBB223F00F03DBB21370894B1B78884B00221A70874B1B78DBB223F03F03DAB2824B5A71372003F04FF9834B1B78DBB26F
:4066C00003F00703DAB27D4BDA707F4B1B78DBB203F04003DAB2794B1A717B4B1B78DBB203F01003002B03D0744B01225A7202E0724B00225A72754B1B78DBB203F0030306
:40670000DAB26E4B9A706D4B9B78012B1CD14FF040231B78DBB203F00303012B08D0012B02D3022B08D00BE00020FEF7E3FE0BE00220FEF7DFFE07E00320FEF7DBFE03E0E6
:406740000020FFF743FA00BF614B1B78DBB203F00103002B05D0594B01229A73FEF7F4FB02E0564B00229A730420FEF787FD594B1B78DBB203F01003DBB2002B03D04F4B4E
:4067800001229A7108E04D4B00229A710020FEF75DFC0620FFF758FA4B4B1B78DBB203F02003002B10D04FF040231B78DBB203F04003002B01D1022200E001223F4BDA715A
:4067C0000020FEF731FE02E03C4B0022DA714FF040231B78DBB203F03003DAB2374B1A72364B1B7A002B09D04FF040224FF040231B78DBB223F03003DBB21370324B1B781A
:40680000DBB203F01003002B01D0FEF763FE324B1B78DAB2294B9A72284B9B7A002B02D00020FEF781FE254B9B78002B02D00020FEF760FE294B1B78DBB29BB21B029AB201
:406840001E4B9A81264B1B78D9B21C4B9A898BB213439AB2194B9A81184B9B89002B02D00020FEF7ADFE184B1B78DBB203F007031C4AD35C184603F06FF81B4B1B78DBB286
:4068800003F00103002B05D00C4B0122DA73FFF7E9F802E0094B0022DA73144B1B78DBB203F00403002B03D0044B01221A7402E0024B00221A7480BDA14300402082FF1F27
:4068C000A243004000480040004200400540004020420040A043004004400040074000400640004094AC0000104200400B40004080B586B000AF10233B617D4A3B1D1068B1
:4069000018609188927999809A717A4B1B7C012B17D1794B1B78DBB203F00703774AD35C1A4613469B0013441A01D31A1846FEF787FA734A724B1B78DBB243F00403DBB26E
:4069400013706C4BDB7B012B26D10020FFF722F86C4B1B780523FB821BE0674B1B78DBB203F00703654AD35C1A46C82303FB02F31846FEF765FA634B1B78DBB2DBB25BB245
:40698000002B03DB00233B6100BF05E0FB8A013BFB82FB8A002BE0D1372002F0DDFF554B9B78022B03D0534B9B78032B10D1564B1B78DAB24F4B9B7A9A4204D04D4B9B7A68
:4069C0001846FEF7B1FD4B4B9B781846FEF792FD484B1B7903F04003002B0CD0454BDB7807F11802134413F8143C032B03D10820FEF744FC20E03F4BDB7807F1180213445B
:406A000013F8143C1846FEF739FC3A4B1B7903F04003002B08D0384A374B1B78DBB243F04003DBB2137007E0334A334B1B78DBB223F04003DBB213702E4B9B79012B0AD17B
:406A4000324B1B78DBB203F01003DBB2002B02D10020FEF7FBFA274BDB791846FEF7E4FC244B5B7A012B01D1FEF724FD214B1B7A1A464FF040231B78DBB203F030039A4268
:406A800010D04FF040234FF040221278D2B2D2B222F03002D1B2174A127AD2B20A43D2B2D2B21A70134B9B7B012B39D110233B610020FEF7F1F95020FFF7C6F8144B1B787C
:406AC000AB23FB8229E00120FFF7BEF8104B1B78DBB203F00103002B1CD00D4B1B78DBB203F00103002B15D000233B6100BF17E09CAC00002082FF1F0042004094AC00002E
:406B00000B4000401042004004400040A043004025420040FB8A013BFB82FB8A002BD2D12B4B9B78002B03D0294B9B78012B10D1284B1B78DAB2264B9B7A9A4204D0244B07
:406B40009B7A1846FEF7F0FC214B9B781846FEF7D1FC1F4B9B79002B09D11F4B1B78DBB203F01003DBB2002B01D0FEF7B9FA1B4B1B78DBB29BB21B02FB81194B1B78DBB2EE
:406B80009AB2FB891343FB81114B9B89FA899A4204D00F4B9B891846FEF712FD114B114A1278D2B2D2B202F03F02D1B2084A5279D2B20A43D2B2D2B21A700B4B044A1278F3
:406BC0001A700A4B024A52781A701837BD4680BD2082FF1F04400040A0430040074000400640004000480040A1430040A243004080B582B000AF03460A46FB801346BB8084
:406C0000FB88002B02D00020FEF7E0FF214B1B78DAB2214B1A711F4ABB881B099BB2DBB213701E4B1B78DAB21B4B5A711B4ABB88DBB203F00F03DBB21370194B1B78DAB2AB
:406C4000154B9A71164ABB881B0B9BB2DBB203F00103DBB21370134A124B1B78DBB223F00703DBB243F00103DBB213700D4B1B7800BF00BF30BF074B074A12791A70074BD2
:406C8000054A52791A70064B034A92791A700837BD4680BD98430040F081FF1F994300409A4300409343004080B584B000AF03460A46FB711346BB80FEF7E1F80346FB734F
:406CC0004E4B1B78DBB203F00803002B0BD14C4A4B4B1B78DBB203F01F03DBB21370FB79002B08D004E0FB7B1846FEF7CCF881E00020FEF76BFF00F0BDFA424B1B78DAB24A
:406D0000414B1A713F4ABB881B099BB2DBB213703E4B1B78DAB23C4B5A713C4ABB88DBB203F00F03DBB21370394B1B78DAB2364B9A71374ABB881B0B9BB2DBB203F00103A0
:406D4000DBB21370334B1B78DBB203F00703002B04D12D4B012283F82D2014E02A4B002283F82D202B4B1B78DBB203F00703DAB2254B83F82C20274A264B1B78DBB223F047
:406D80000703DBB213701D4A1C4B1B78DBB223F00703DBB243F00303DBB21370174B1B7800BF00BF30BF184B93F82D30012B0FD0184B184A1278D2B2D2B222F00702D1B22B
:406DC000114A92F82C20D2B20A43D2B2D2B21A7000F090FB0B4B0C4A12791A700B4B0A4A52791A700A4B084A92791A70FB7B1846FEF749F81037BD4680BD00BF9343004022
:406E00008346004098430040F081FF1F994300409A4300400042004080B500AF402000F001F880BD80B584B000AF0346FB80FEF726F80346FB734A4B1B78DBB203F0080321
:406E4000002B33D1474A474B1B78DBB203F01F03DBB2137000F0C0F8434B1B78DAB2434B1A71414AFB881B099BB2DBB203F00403DBB213703E4B1B78DAB23C4B5A713C4A77
:406E8000FB88DBB203F00F03DBB21370394B1B78DAB2364B9A71374B00221A70364B1B78DBB203F00703002B0AD104E0FB7B1846FDF7E9FF50E02D4B012283F82D2014E091
:406EC0002A4B002283F82D202B4B1B78DBB203F00703DAB2254B83F82C20274A264B1B78DBB223F00703DBB213701D4A1C4B1B78DBB223F00703DBB243F00403DBB21370CC
:406F0000174B1B7800BF00BF30BF184B93F82D30012B0FD0184B184A1278D2B2D2B222F00702D1B2114A92F82C20D2B20A43D2B2D2B21A7000F0BAF80B4B0C4A12791A70AD
:406F40000B4B0A4A52791A700A4B084A92791A70FB7B1846FDF797FF1037BD4680BD00BF934300408346004098430040F081FF1F994300409A4300400042004080B584B045
:406F800000AF0346FB71FDF77AFF0346FB73104B1B78DAB20F4B1B781343DAB20D4B1A700C4B1B7803F00703BB73FB79DB43DAB2084B1B781340DAB2064B1A70FB7B184677
:406FC000FDF761FFBB7B18461037BD4680BD00BF904300403282FF1F80B500AF2D4B1B78DBB203F00403002B07D02A4A294B1B78DBB223F00403DBB213700120FEF7D0FBF3
:4070000003461A46244B1A70244B1B78DBB203F00203002B14BF01230023DBB21A461E4B5A701E4B1B78DBB203F00403002B14BF01230023DBB21A46174B9A70184B1B78AB
:40704000DBB203F01003002B0BD1134B0022DA70134A134B1B78DBB243F01003DBB2137002E00D4B0122DA7000F008FB00F002F90C4B1B78DAB2084BDA710B4B1B78DAB26D
:40708000054B1A72074BFF221A70074BB0221A7080BD00BF31430040F081FF1F0043004083460040854600408646004080B500AF00F04EFB00F01EFA124B5B78012B01D114
:4070C000FEF7F2FA0F4B9B78012B01D1FEF70CFB0C4B1B781846FEF763FB0A4BDB78002B07D1094A084B1B78DBB223F01003DBB21370064B034AD2791A70054B014A127A6C
:407100001A7080BDF081FF1F83460040854600408646004080B582B000AF0346FB711F4A1E4B1B78DBB223F00803DBB21370FEF7BBFA1A4B1B78DBB203F00403002B19D0B1
:40714000174B1B78DBB2FA799A4224D0134A134B1B78DBB223F00403DBB21370104AFB7913700E4A0D4B1B78DBB243F00403DBB2137010E00A4B1B78DBB2FA799A4202D054
:40718000074AFB791370054A044B1B78DBB243F00403DBB213700837BD4680BD824300408143004080B500AF0C4B1B78DBB203F00103002B01D1FEF719FB094A084B1B7866
:4071C000DBB223F02003DBB21370054A044B1B78DBB243F01003DBB2137080BD084300408243004080B582B000AF0346FB711F4A1E4B1B78DBB223F00203DBB21370FEF701
:4072000073FA1A4B1B78DBB203F00103002B19D0174B1B78DBB2FA799A4224D0134A134B1B78DBB223F00103DBB21370104AFB7913700E4A0D4B1B78DBB243F00103DBB2A5
