:4000000000800020110000007905000079050000034A08B51268034B1A6000F0CDFA00BFFA460040BC76004010B5054C237833B9044B13B10448AFF300800123237010BDBD
:400040009081FF1F00000000C45E0000084B10B51BB108480849AFF300800848036803B910BD074B002BFBD0BDE81040184700BF00000000C45E00009481FF1F0881FF1FED
:4000800000000000154B002B08BF134B9D46A3F5803A00218B460F461348144A121A05F0F8F90F4B002B00D098470E4B002B00D098470020002104000D000D48002802D041
:4000C0000C48AFF3008005F0B3F92000290000F01FF905F099F900BF000008000000000000000000000000009081FF1F6082FF1F000000000000000030B45B4B9A789107E7
:4001000068D59A78520767D4022102794379002A0BBF4FF480144FF4401400224FF40012002B4FD10468514B09010B4464055C608179C479072994BF42EA014242F4002257
:400140000CB142F0040200292CD081680978D9728179012926D98168497899728179022920D9816889785972817903291AD98168C97819728179042914D981680979D9736C
:40018000817905290ED98168497999738179062908D98168897959738179072902D98168C9791973324842F40002324C4FF4803142F00802012501601A6000201D6021607D
:4001C00030BC70472246294B046809010B44E4005C60ADE7012198E79A78150701D4032193E79A78D10637D59A78920636D59A78550635D59A78110634D59A789207E9D589
:400200009A78550780D59B781907E8D5164B9A78D20621D59A78950620D59A7851061FD59A7812061ED59A789507D3D59A7851077FF56AAF9A781207D1D59A78D5060BD5C3
:400240009A7891060AD59B785A0609D5064B9B781B0607D50120B3E7042156E7052154E7062152E7072150E708A0004020A0004080E100E000E100E0072807D8044A0001C0
:40028000835C03F0FC0343F002038354704700BF20A00040154B187810F0010023D12DE9F043134A134992F8009092F8018092F802C092F803E0177956799579D47908223F
:4002C00083F80B9083F80A8083F809C083F808E0DF739E735D731C730A701A6842F001021A60BDE8F0830120704700BF20A000403882FF1F3482FF1F044B4001C25CD207ED
:4003000003D5C25C42F00102C2547047A0A000402DE9F04FC5B002F017FD00F091FB03F091F803F0C9FC03F0ABFD002003F09AF803F00EFA03F00EFF03F076FE62B60025E6
:40034000A8462F462E46002140220EA805F0A1F80021402220A805F09CF80021402232A805F097F8694C6A4800F092FC03950495059500F021FC433835281CD8DFE800F0EA
:400380008D1B1B1B1B1B1B1B1B1B1B1B1B1B1B1B881B1B1B1B901B1B1B1B1B1B1B1B1B1B8D1B1B1B1B1B1B1B1B1B1B1B1B1B1B1B881B1B1B1B904FF00009002003F052F83E
:4003C00002F03EFE002002F053FE002840F08C80049B0136F6B2202E43F34F1008BF002602F088FE012003F03DF802F029FE002002F03EFE002866D1039B0137FFB2202F5D
:4004000043F34F1008BF002702F074FE8246022003F028F802F014FE002002F029FE002843D10135EDB2202D48F34F1008BF002502F060FEAA23BB222370CC236270A37056
:40044000DD22EE230021E2702371FF221123A1716271E371834603F09BFC03F07DFD002003F090FC03F078FDB9F1000F01D1059B53B10246CDF800B0534607A8254905F079
:4004800031F807A800F004FC002003F05FFD70E701234FF0000905938FE74FF001098CE74FF00009CDF8149087E744AB03EB450B3BF8480CC0EB080802F0FCFD80B22BF8AA
:4004C000480C8044ADE744AB03EB470B3BF890AC039BCAEB030A02F0EDFD80B20AEB00032BF8900C039387E744AB03EB460B3BF8D8AC049BCAEB030A02F0DCFD80B20AEB51
:4005000000032BF8D80C049362E700BF3882FF1FD05E0000E05E000038B5044690F8460002F0A0FF02F08CFD002002F0A1FD80B994F84730206C0133DBB2202B08BF00234F
:4005400084F8473040F34F1002F0D4FDA4F8440038BD94F84750236C34F815209B1A236402F0A8FD24F8150094F84730226C34F8130010442064DEE7FEE700BF08B5C0B207
:4005800001F012FAFEE700BF094908B50A68094B1044C31A802B02DC0860104608BD04F02DFF0C234FF0FF320360104608BD00BF1081FF1F6082FF1F80B5134FF7B1134E3D
:4005C000002556F80C0C56F8084C56F8102C03463CB1043A52F8041F43F8041B191A8C42F8D156F8040C1A4620B142F8045BD11A8842FAD1013F06F11006E2D104F018FF8C
:40060000FFF786FEFEE700BF01000000C060000008B5114A114B12491A600B68114A43F4007311480B600023032B94BF50F823100E490133302B42F8041FF5D10C4B0D4A20
:4006400018780D490D4B08701A6000F087F80C4B00221A6008BD00BF0004FA050CED00E014ED00E0FC7FFF1F0000000079050000BC7600400080FF1F0481FF1F08ED00E008
:400680000081FF1F064B1B78DBB220B9044A03F0DD0313707047024A43F022031370704776580040022823D8124A012383401178DBB20B421CD1F0B50F4C0B43271854F879
:4006C0002060397C96F800E03D7B501800794EEA05051370357038B904EB81035D690C44237F2C7823432B700A4401301071F0BD704700BFAC81FF1FF05E0000022827D8AE
:400700001449012383400A78DBB2134220D0F0B5114D22EA030305EB000E9EF8104055F820700E19327938789EF80CE0013A20EA0E00D2B20B703870327142B905EB840338
:400740005A692C441378217F23EA01031370F0BD704700BFAC81FF1FF05E00002DE9F84F72B642F251208B498B4B60250D708B4A02211980DFF894921823DFF894B213708C
:40078000874E0322874F884CA9F80020874D8BF800304FF00509DFF87CA2DFF87C82DFF87CC2DFF87CE24FF0470BA6F800903B704FF04026A4F800B04FF04D097C4C082705
:4007C0008AF80030A8F800908CF800308EF8001037702A7022787749774CD2B285F8A12406F22526238019250024088001E0032C0DD033784FF4F07003F0010343EA440432
:4008000000F01EFC013D04F00304F0D1FEE76B4B6B4EDFF810E26B48002202256A494FF480784FF0070C4827A3F8008083F800C08EF8002037701A7005700B78144643F03A
:400840001F03624A0B701378614D43F004031370A5F1200604EB440306EB4303AA88186A0134002104F015FE082C05F10605F1D158485949802204F001FE584D584F0026BF
:4008800055F8043F23F0FF0413F0FF0313D003F1FF3E06F1105303F13F005FFA8EFE70443E3340005B001A785978023383421155F9D101367644BD42E2D14A494A4A0B786D
:4008C0004A4C43F002030B701378A1F5863143F0020313702278413942F0400222700A78434E42F01002434B0A70434D03CB3060716093E8070003C52A80A5F6A6652A78A8
:400900000C3303CB42F00802306171613B4E03CB2A7033783A4FDFF810813A4A3D78DBB298F80060DFF804A1DFF80491106003F007001B095160DFF8FCC08AF80000DFF8B5
:40094000F8E0EDB2F6B289F800302F4B45F0030146F003024FF0400A4FF0200B39700A2088F800208CF800A08EF800A083F800B001F048F894E80F00DFF8C0E010344FF028
:40098000440C88F800603D708EF800C007C42380BDE8F88F004800408040004082400040884000408A4000408C400040004200400801004920420040224200400440004034
:4009C0000840004001400040A2430040E8460040105F0000801A0140D0050048FCFFFF47780000480350014013500140A04300400251004050060048C0510040CF010049FD
:400A0000F846004022510040235B004084400040864000408E40004090400040924000400043004006400040F94600406E5800406F580040015900400359004076580040B4
:400A40002DE9F843184B1A78AAB9DFF87880DFF878E0164E164C17484FF072094FF0200C06274725012188F800908EF800C0377025700270197000F002FB05460E4C0F4953
:400A800023780F4A43F0200323700B7843F010030B70137843F01003137000F09DF92846BDE8F84300F0EFBAB481FF1F296400403964004088640040986500409A650040AF
:400AC00098640040886500408A650040F0B50949DFF830E0084E094C094B4FF0720C20270625472000228EF800C03770257008701A70F0BD396400408A65004029640040BF
:400B0000886400408865004038B500F0B8FA05460A4C0B4923780B4A43F0200323700B7843F010030B70137843F01003137000F053F92846BDE8384000F0A5BA9865004014
:400B40009A6500409864004010B500F098FA04460A4A137803F0DF03137000F04DF90849084A0B78204603F0EF030B70137803F0EF031370BDE8104000F085BA98650040BC
:400B80009A6500409864004000207047704700BF014B1870704700BF8A650040014B1878704700BF4B650040024B187800F07F00704700BF6A650040074B1B78DBB203F07C
:400BC000200202F0FF002AB1044A13F01E0F107818BF0020704700BF6A6500404B650040044B054A1B78107803F07F0340EA0320704700BF6A6500404B650040024B1878C8
:400C0000C0F34010704700BF6A65004008B500F036FA064B1A7842F001021A701A7802F0FE021A70BDE8084000F02DBA9B650040704700BF014B1870704700BF2B6500400B
:400C4000014B1870704700BF3B650040014B1870704700BF88640040024B1B780BB1024B18707047B481FF1F48640040014B1878704700BF68640040034A13785B07FCD405
:400C8000024B1870704700BF6864004048640040094B1B787BB130B404785CB1074A084D002113785B07FCD4013189B22C70445C002CF6D130BC7047B481FF1F686400404F
:400CC000486400400A4B1B7883B179B130B44C1EE4B2084A084D0444411E11F8010F13785B07FCD4A1422870F7D130BC704700BFB481FF1F68640040486400400B4B1B78E1
:400D00009BB10B4A13785B07FCD40A4B084A187013785907FCD4074B0D21054A197013785B07FCD4034B0A221A707047B481FF1F6864004048640040054B1878C0B24307B4
:400D40005ABF80F00200C0F340000420704700BF6864004008B500F092F9064B1A7842F001021A701A7802F0FE021A70BDE8084000F089B99864004012490B78C3B1F0B416
:400D8000B8B9114B114C1F7867260025104A4F701E70257013789C07FCD400F0FD03012B0BD00138022802D84A78074B1A70F0BC70470328E5D00128F3D1054A1378DB07C8
:400DC000FCD5EEE7B481FF1F396400404864004068640040704700BF0549064A0B7843F010030B70137843F010031370704700BFA2430040B24300400549064A0B7803F095
:400E0000EF030B70137803F0EF031370704700BFA2430040B2430040164B1B78DB0628D5154B70B41946154C154D0022154810261A702E702270027802F07F020270B4F890
:400E40007C00072280B224F8120C1A700B780A4A13F00103FAD1074D0B4C29780B4E01F0EF012970217801F0EF0121701370308070BC7047A24300400140004014400040B4
:400E80001040004008400040B243004090400040054A137818B143F010031370704703F0EF031370704700BFB2430040F0B5314D314E2A78338802F007049BB283424FD072
:400EC0002E4A1278D2B244B92BB930802B7803F0BF032B70F0BD002846D002F0100202F0FF052AB3264EDFF8A4C0264F0024264A4FF0100E8CF8004087F800E034701478BE
:400F000004F07F04147096F87E20160729D41F4A1F4F144607263B80167023781B4A13F00103FAD1154E347804F0EF0434701370124B1C78E4060ED56FF4687213441A4630
:400F40000029134C14BF03210121208019701378DB07FCD4F0BD084A10801A782A431A70F0BD0028E4D1D2E72B7843F040032B703080F0BD9240004090400040A2430040B7
:400F80001440004010400040084000400140004002400040014B188880B2704790400040034A00F0F800137818431070704700BF92400040C043034B40F007001A78104010
:400FC0001870704792400040024B187800F0F800704700BF92400040134B144A1B8811789BB2490708D000B9A3B1104A137803F0F8031843107070470028F6D0002BF4D1A6
:40100000137803F0F80318431070137803F0BF0313707047137843F040031370137803F0F8031370704700BF9040004092400040024B187800F00700704700BF924000406E
:40104000142816D902B4012114381049097811F0C001890904B40E4A515C04BC00BF00BF00BF8841FDD500BF00BF02BC704700BF00BF70F10400FCD570470B050709EFF33E
:40108000108072B6704780F310887047004800407A100000AFF300802F4B1B785A070AD12E4B1B78DB0706D52D4901230A7802F0FD020A7006E0284B1B7803F00703012B1D
:4010C00009D0002308283ED8DFE800F037312B251F19133D0B00234B1B7813F00103E3D1F0E7214A21491278D2B20A70002B2CD170471F4B1D4A1B78DBB2137070471D4B4A
:401100001A4A1B78DBB2137070471B4B174A1B78DBB213707047194B144A1B78DBB213707047174B114A1B78DBB213707047154B0E4A1B78DBB213707047134B0B4A1B7845
:40114000DBB21370704701BE7047054A137843F002031370704700BF93430040A543004009600040B54300400F010049A14600400D0100490C010049890100490B010049B3
:401180000A010049090100490801004938B5074B1B68DB0300D438BD054C04F1140554F8043B03B19847AC42F9D138BD10E000E0B881FF1FF8B5184A137843F00103137028
:4011C00000B9F8BD1549164B0D7892F860711E7805F004051820EDB2FFB2F6B2114C01F089FD012001F02EFD10F0010010D12378DA07F6D52378DB07F3D525B9074A1378E5
:4012000003F0FB031370084A054B17701E70F8BD1020002DF7D1F1E72042004000430040824300402542004080430040024A137803F0FE0313707047204200400F4B1B7869
:40124000DB0700D501BE072816D90139C9B20F2912D8013AD2B2062A0ED830B4084B094D094C28701970237803F08F0343EA0212D2B2227030BC704701BE704720420040F9
:40128000234200402242004021420040084B1B78DB0700D501BE022801D901BE70474FF04022137803F0FC0318431070704700BF204200401549164A0B7843F010030B7059
:4012C000137843F01003137000B9704770B5114B11F8A04C12F8306C1D7804F004040020E4B2F6B2EDB201F005FD012001F0AAFCC307FAD524B9084A137803F0FB0313700E
:40130000064A044B16701D7070BD00BFA0430040B04300408243004000430040804300400549064A0B7803F0EF030B70137803F0EF031370704700BFA0430040B0430040EE
:4013400070B54A4B08281C78064604F007041AD00546062C00F28880DFE804F02C052E1030042A000524AC4209D9082E78D8DFE806F027367161695159773E0000243046EE
:40138000FFF78AFEF1E70325062C6DD801A353F824F000BFB51300007F130000B91300007D130000BD13000065130000B11300000624D8E70224D6E70324D4E70424D2E725
:4013C0002A4A137803F0B80343F003031370274AA542137803F0EF03137016D370BD234A137803F0B80343F001031370EFE71F4A137803F0B80343F0420313701B4AA54204
:40140000137843F010031370E8D23046BDE87040FFF742BE154A137803F0B80343F005031370D4E7114A137803F0B80343F006031370CCE70D4A137803F0B80343F00203FE
:401440001370C4E7094A137803F0B80343F004031370BCE7054A137803F0B8031370B6E701BE082ECAD0B2E701BE7CE700420040012816D00FD302280BD14FF040210B78C4
:401480000E4A03F0BF030B70137843F020031370704701BE7047094A137803F0DF03137070474FF040210B78044A43F040030B70137843F020031370704700BF0042004068
:4014C000024A137843F010031370704700420040024A137803F0EF031370704700420040044A00F00300137803F0FC0318431070704700BF05400040014B1870704700BFBD
:4015000004400040F8B50446FFF7B9FD3A4A3B4B12781B78D2B2DBB24CB353EA02234FD1374A1378DBB2062B01D807211170354D354E2978354A002701F0F0012970377011
:401540001178334F41F080015FFA84FE240A117087F800E006F80D4C15F8131C41F0010105F8131C117801F0BF0111701FE0244A1378DBB2062B20D9244A224D1178224E93
:4015800041F0400111702C78002104F0F0042C70317014781E4F44F080041470397006F80D1C15F8132C42F0010205F8132C144A1370BDE8F840FFF766BD07211170DBE74A
:4015C000104A114D1378002603F0F0030F4913702E700B780E4EE7B243F08003240A0B70133A377005F80D4C137843F001031370BDE8F840FFF747BD0740004006400040D9
:401600000440004014400040104000400840004002400040044A00F00300137803F0FC0318431070704700BF09400040024A137843F002031370704700430040024A1378BD
:4016400003F0FD031370704700430040024A137843F004031370704700430040024A137803F0FB031370704700430040024A137843F020031370704700430040024A1378A6
:4016800003F0DF0313707047004300404FF040221378800000F00C0003F0F30303431370704700BF074A1378DBB228B903F0EF011170C3F30010704743F010011170C3F322
:4016C000001070470043004070B5274B2748284AF3240321047019701378264C03F0F30343F004031370237882B043F001034FF47A722370ADF80620BDF806309BB2ABB128
:4017000023781D4D9A0603D512E023789B060FD42878FFF795FCBDF80630013B9BB2ADF80630BDF806309BB2002BEED102B070BD104C0E490C4B0622F320267808701A70BF
:40174000287800EB80004000FFF77AFC084A137803F0F30343F004031370237803F0FD03237002B070BD00BF984600400A43004009430040084300401481FF1F10B40A4BE2
:401780000A48F32400220A4904701A700B78094A234043F004030B70137803F0FC0313705DF8044B704700BF984600400A4300400943004008430040024B187800F0200096
:4017C000704700BF0843004070B51E4D1E4B2C78F3220128C4F340041A7016D01B4A06211B4B1170187800EB80004000FFF728FC184A2046137803F0F30343F004031370E1
:401800002B7803F0FD032B7070BD114E83F88E03307800EB80004000FFF712FC0D4A137803F0F30343F008031370307800EB80008000FFF705FC2B78204643F002032B7096
:4018400070BD00BF084300400A430040984600401481FF1F09430040F0B5264C83B08DF80600237843F00103237008B903B0F0BD214B2249224A18200F7816781D7801F096
:4018800039FA9DF80630FFB2F6B2EDB213B3042322788DF807309DF8073073B1012001F0D1F9C207FAD59DF80730013BDBB28DF807309DF80730002BF0D12378190617D5DC
:4018C0009DF80630013BDBB28DF806309DF80630002BDCD110207B0704D4084A137803F0FB031370064A044B16701D7003B0F0BD0020F0E7104200408243004000430040F8
:4019000080430040024A137803F0FE031370704710420040024A137803F0FB031370704710420040024A137843F004031370704710420040014B1878C009704710420040AE
:40194000024A137843F040031370704710420040024A137803F0BF031370704710420040044A00F01F00137803F0E00318431070704700BF12420040044A00F00F0013787B
:4019800003F0F00318431070704700BF13420040044A0001137800F0700003F08F031843107070471342004001BE7047024A137843F0010313707047F6460040B0F5004F47
:4019C00070B506461AD904460D4DA4F500446868FFF736FBB4F5004FF7D8A6F50043013B23F4FF4323F07F03A6F50046F61AA86800FB06F0BDE87040FFF722BB004DF6E7F8
:401A00001481FF1F024B1B7803FB00F0FFF718BB1481FF1F10B458B90E4C0F490F4848220F4B1A705C60D86099605DF8044B70470C4C00F2E73100F574230B4AA4FB014111
:401A400003F23F23A2FB03328909CC03C2F38742E6E700BF0000A08C4019010000A24A041481FF1FD34D621083DE1B430E4B00F003001A78490102F0FC0202431A701A78DF
:401A800001F0600142F080021A701A7802F07F021A701A7802F09F02114319701A7842F010021A70704700BF83430040014B01221A70704784430040F8B50F460546FFF72F
:401AC000DEFA204B204A214C0121126819602378DFF890E003F0BF0323709EF8003007F00F0103F0F0031943064619488EF800100378184943F001030370087802F001073B
:401B0000FFF79EFAFFF7BBFA1349144B1A780B7D134323F001030B75FFF7B5FA237865B903F0BF032370084B0D4A0121304611601F60BDE8F840FFF7A6BA43F04003237096
:401B4000F1E700BF80E100E000E100E0F7460040F54600401481FF1FB881FF1FFA46004080E200E0F44600402DE9F04188460546FFF785FA1E4B1F4A1F4C01211268196067
:401B800023781E4F03F07F0323703B78064603F00F0343EA08111A48C9B239700378194943F002030370087802F00107FFF748FAFFF765FA1449154B1A780B7D134323F076
:401BC00002030B75FFF75FFA237865B903F07F0323700F4A074B0121304611601F60BDE8F041FFF750BA43F080032370F1E700BF80E100E000E100E0F7460040F44600406E
:401C0000F54600401481FF1FB881FF1FFA46004080E200E070B51149114A0B78114D03F0FE030B701378104E03F0BF031370FFF726FA32782B7D134323F001032B75FFF7A7
:401C400022FAFFF71CFA2B7D34781C4324F001032B75FFF718FAE307F3D470BDF5460040F7460040B881FF1FFA46004070B50C490C4A0B780C4D03F0FD030B7013780B4E1E
:401C800003F07F031370FFF7FAF92B7D34781C4324F002032B75FFF7F6F9A307F3D470BDF5460040F7460040B881FF1FFA460040F8B5FFF7E4F90746134D144B0126144975
:401CC0002C681E600B78134A03F07F030B701378114943F0040313700878FFF7B1F9FFF7CEF90E4A0E4B34401978137D0B4323F004031375FFF7C7F90A4B38461E602C60BA
:401D0000BDE8F840FFF7BFB900E100E080E100E0F7460040F54600401481FF1FB881FF1FFA46004080E200E070B50A4A0A4D13780A4E03F0FB031370FFF7A1F92B7D347887
:401D40001C4324F004032B75FFF79DF96307F3D470BD00BFF5460040B881FF1FFA46004038B50546FFF78BF9064A074B1C78137D1C4324EA05051575FFF785F904F0070066
:401D800038BD00BFB881FF1FFA46004010B5FFF776F9044B1C78FFF776F9E4B204F0070010BD00BFFC46004010B5FFF768F9044B4FF0FF321C681A60FFF765F9204610BD27
:401DC00080E100E010B50446FFF759F9024B1C60BDE81040FFF757B900E100E008B5FFF74EF900BF00BF00BF00BF00BF00BF00BF00BF00BF00BF00BF00BF00BF00BF00BF9B
:401E000000BF064A13889BB243F0040313801388BFF36F8FBDE80840FFF735B900480040054B0F281A6800D901BE00F00F0352F8230042F82310704708ED00E0044B0F28AB
:401E40001B6800D901BE00F00F0053F82000704708ED00E0064B1F281A6800D901BE00F01F0000F1100352F8230042F82310704708ED00E0054B1F281B6800D901BE00F084
:401E80001F00103053F82000704700BF08ED00E0072900D901BE1F2800D901BE00F01F0000F16040490100F56440C9B2017070471F2800D901BE00F01F0000F1604000F5CC
:401EC00064400078400970471F2800D901BE044A00F01F031068D84000F00100704700BF00E100E01A4A2DE9F04393692BBB19491948C968194CA0FB0101194D20681360E9
:401F0000D5F80080DFF86090DFF860E0154FA5F6084540F0040089094FF400464FF0010C53609360D3601361C8F83C90C2F818C02060CEF800103B602E60084B1A6842F09E
:401F400002021A601A6842F001021A60BDE8F083B881FF1F1481FF1FD34D621010E000E008ED00E018E000E08D11000014E000E0134B1448DA682DE9F0411349134CA0FB76
:401F800002020023124D20680B60D5F800C0DFF84880DFF848E00F4FA5F6084540F0040092094FF400464B608B60CB600B61CCF83C802060CEF800203B602E60BDE8F0818D
:401FC0001481FF1FD34D6210B881FF1F10E000E008ED00E018E000E08D11000014E000E0044B1A6842F002021A601A6842F001021A60704710E000E0024A136823F001033F
:402000001360704710E000E0024A136843F002031360704710E000E0024A136823F002031360704710E000E0024B20F07F401860704700BF14E000E0024B186820F07F405A
:40204000704700BF14E000E0024B186820F07F40704700BF18E000E0044A012813680CBF43F0040323F004031360704710E000E0024B1868C0F30040704700BF10E000E01B
:40208000014B00221A60704718E000E00246034B53F8200043F82210704700BFB881FF1F014B53F820007047B881FF1F10B4154B154A1B781549DBB203601478023243EA58
:4020C000042303600C78124943EA0443036012F8044C043143EA0463036011F8043CDBB2436012F8064C43EA0423436009785DF8044B43EA01434360127843EA0263436056
:40210000704700BF0301004904010049EC460040010100492DE9F04FDFF8A8A15648DFF8A891DFF8A881DFF8A8C19AF80010534B99F800B0043098F800209CF8006010F80D
:40214000045C10F8024C007859724D494D4F097883F80AB097F800B0DA724B4ADFF874E112781E73494E083F36785D73484D2D789C73484C2478D8734748007819744749D3
:40218000097883F811B097F818B09A74444A1278DE741D755C759875D97583F818B05A76404A414E92F800B00232127883F81AB097F81EB0DA763D4A3D4D127883F81CB0DD
:4021C0009EF800B05A773B4A3B4C127883F81EB096F800B0DA772A7883F820B094F800B0364883F821203649027883F822B091F800B083F82320002283F824B08AF80020A7
:40220000DFF8D4B089F8002088F800208CF8002007F8042C07F8022C3A70BA713A727A72BA723A73BA733A74BA753A767A76BA763A77BA7787F820208EF8002087F82820D4
:4022400032702A70227002700A709BF8002002F0080202F0FF011AB983F82E10BDE8F08F9BF80020012102F0F7028BF8002083F82E10BDE8F08F00BF065A0040D481FF1F41
:40228000105A0040125A0040135A0040145A0040165A0040185A00401A5A0040205A0040235A0040245A0040335A00402A5A0040345A0040325A0040365A0040385A004055
:4022C0003A5A0040005A0040025A0040035A0040045A0040305A0040224300402DE9F04F3F4B404D93F809C093F80AE03E48DE7A93F80CB093F80DA093F80E9093F80F8055
:402300003A4A85F800C093F810C0394C80F800E093F811E0374916709E7C374F84F800B093F813B081F800A093F814A087F8009093F8159085F80A8093F8168080F80EC003
:4023400093F817C082F80FE093F818E0E6735C7E2A4E81F80EB087F80EA085F8189080F8188082F81DC086F800E04C7793F81AE0DE7E1C7F597F93F81EB093F81F9093F8E1
:4023800020C087F81CE093F8217085F8266093F8225080F8264093F8230082F8271093F8242093F82E30DFF868A0DFF86880DFF868E0134E134C1449012B8AF800B088F8F9
:4023C00000908EF800C03770257008708AF80A2004D10E4A137843F008031370BDE8F08FD481FF1F005A0040025A0040035A0040045A0040065A0040085A0040225A004028
:40240000345A0040365A0040385A004022430040305A0040325A0040335A004070B56B496B4B0A781E780878002500F0F000087018781D7091F85F34664C02F00F0203F09F
:40244000C003372084F8302084F8316084F83530614E02F06FF8614B187819781A78337800F0070003F0030301F04001C2F30012012B84F8330084F8341084F8392084F8A1
:40248000323000F08980564B1B7813F001035FD184F83E300420FEF753FF524B1B7803F0100303F0FF02002B6DD0012384F836304A4B1B7803F0200303F0FF02002B44D0F8
:4024C0004FF040231B78002013F0400F0CBF0223012384F83730FEF7CBFF4FF04022137803F0300384F838301BB1137803F0CF0313703A4B1B78DB0642D43B4B1B78DBB2F5
:4025000084F83A30002B37D194F8323083BB374A374B12781B7812021343A38723BB2F4B344A1B7803F00703D05C02F003F8324B1B7813F0010311D184F83F302F4B1B7832
:40254000C3F3800384F8403070BD84F83720C4E7012384F83E30FEF769FE9BE7012384F83F30FFF7CFF9E9E70020FEF7CBFFD6E70020FEF7B5FFCAE70020FEF7BDFFC3E771
:40258000FEF7A6FFB9E7104684F83620FEF792FE0620FFF737FA8BE74FF040231B7803F00303012B0AD005D3022B0BD10320FEF797FF68E72846FEF793FF64E70220FEF70C
:4025C0008FFF60E72846FFF7EFF95CE7A1430040A2430040D481FF1F054000400042004020420040A0430040044000400740004006400040405F0000104200400B400040A2
:402600002DE9F043814E824D334653F8080F95F8402099889B7983B0012A0090ADF804108DF8063000F0A18095F83F30012B00F0B180372001F07EFF95F83200744C831E15
:40264000012B7ED9724B95F8342093F8333012F0400F02AA134413F8080C02D0032800F0D180FEF76DFE95F834306A4A13F0400F137814BF43F0400303F0BF03137095F8AA
:402680003630012B44D095F83700FEF7F1FE95F83930012B66D04FF040210A7895F8383002F030029A4204D00A7802F0CF0213430B7095F83E30012B00F08A8095F8320093
:4026C000534C01282FD995F836301BB9524B1B78DB0644D4514A524B12781B78A88F43EA0223984201D0FEF70DFF4E4995F835200B7895F8306095F831404B484B4D03F05B
:402700003F0313430B702E70047003B0BDE8F083414B1B7803F0100303F0FF00002BB2D1FEF7C8FDAFE7424A94F83A3012789A4204D01846FEF7E0FE94F83200FEF7D0FE26
:40274000C1E73B4A94F83A3012789A4204D01846FEF7D2FE94F83200FEF7C2FE72E7FEF7DFFDB7E7FEF7ACFE95E72A4B1B7803F00703F05C00EB8000C0EB0010FEF760FCBB
:402780002C4A137843F00403137095F83F30012B7FF44FAF0020FFF75FF8274BDFF8749098461B780524C82799F80030013C03F00703F05CA4B207FB00F0FEF741FC98F82E
:4027C000003013F0800F3FF434AF002CECD130E70020FEF7EFFC5020FFF714F9174BAB241E461B780120FFF70DF93378013C13F0010FA4B203D03378DA073FF55FAF002C2B
:40280000F0D15BE70820FEF79BFD38E7405F0000D481FF1F00420040A0430040074000400640004000480040A2430040A1430040044000400B4000401042004025420040E4
:40284000F8B50C4610B10020FFF7AEF8154DC4F30712154895F800C004F00F032A70134990F800E0124E0370C4F300340F780C703278104B02F0F80242F00102327083F898
:4028800004C083F805E09F71327800BF00BF30BF5FFA8CF45FFA8EF2FBB22C7002700B70F8BD00BF98430040994300409A43004093430040D481FF1FF8B50C460646FEF754
:4028C000DEFB344B1B7803F0080303F0FF01002B53D1314A0546137803F01F031370002E53D1FFF717FC2D4AC4F307102C4B167804F00F0110701878C4F3003419706FF434
:40290000CC710B44917894701A78264C607150072671A17135D019781A7801F0070102F0F802002084F82C101A7084F82D00194A137803F0F80343F003031370137800BF2F
:4029400000BF30BF94F82D30164A012B07D0164992F82C200B7803F0F80313430B70FFF7BDFC284694F804E06679A2790B4F0C490E4B87F800E00E701A70BDE8F840FEF71E
:4029800082BB012384F82D30D1E70846FFF70CF8A7E700BF93430040834600409843004099430040D481FF1F004200409A4300402DE9F0470646FEF762FB924B1B781C07AA
:4029C00000F1C6809049914A0B78054603F01F030B701378580703D5137803F0FB0313700120FEF75FFE8A4C8A4B874F207019781A783B78C2F38002C1F3400103F0100341
:402A0000A270617003F0FF02002B00F0A5800123E370814B1B7813F0010340F0A88084F825307D4B1B7803F0020303F0FF02002B40F0BB8084F82720774B1B7803F004038A
:402A400003F0FF02002B40F0C08084F82920FFF761FB724F72483309724A4FF0B0084FF0FF0903F0040397F800E06F4990F800C0DBB287F8009080F80080177806F00F0668
:402A8000137091F8008000200E70684B9678907019785F4A490784F807E084F808C0277184F80580A67174D1012382F82D30554A137803F0F80343F004031370137800BFEB
:402AC00000BF30BF94F82D30514A012B07D0574992F82C200B7803F0F80313430B7094F825304B4A012B00F0868094F82730484A012B79D094F82930012B6CD0FFF7EEFB3B
:402B00006378012B6DD0A378012B67D02078FEF7C9FDE37823B93C4A137803F0EF031370284694F807A094F8088094F804E06679A279DFF8E890DFF8E8C03A4F3A493C4B50
:402B400089F800A08CF8008087F800E00E701A70BDE8F047FEF797BA3B78E27043F010033B702D4B1B7813F001033FF458AF314A314B12781B7802F00F02C3F380130121E3
:402B800084F8262084F82A3084F82510FFF742F847E71E78197806F0070601F0F80182F82D0082F82C60197081E7224A224B12781B781209DB09012184F8282084F82B300A
:402BC00084F82710FFF752F836E7012384F82930FFF7AAF83BE7FFF76BF88FE7FEF736FD94E7FEF723FD8EE792F82B0092F82810FEF7BAFF7EE792F82A0092F82610FEF723
:402C00005BFF72E7934300408346004031430040D481FF1F00430040F546004085460040864600409843004099430040004200409A430040F4460040F74600404020FFF763
:402C4000B7BE00BF38B50546FEF719FA074A084B1C7892F842301C4324EA050582F84250FEF711FA04F0070038BD00BFD481FF1F9043004038B5124C0546237803F0F703D6
:402C80002370FEF7D3FC23785B070DD50D4A1378AB4213D0237803F0FB0323701570237843F00403237038BD064B1A78AA42044A18BF1D70137843F00403137038BD00BFAE
:402CC000824300408143004008B5084B1B78DB0701D4FEF7F9FC064B1A7802F0DF021A701A7842F010021A7008BD00BF084300408243004038B5124C0546237803F0FD03AF
:402D00002370FEF7A3FC2378DB070DD50D4A1378AB4213D0237803F0FE0323701570237843F00103237038BD064B1A78AA42044A18BF1D70137843F00103137038BD00BFE0
:402D400082430040804300402DE9F843354D2C782CBB102000F026FB01200721FFF798F831490120FFF776F8304ADFF8E8801378DFF8E4C02E4E2F482F4943F006034FF039
:402D8000C4094FF400574FF0010E137088F80090ACF8004085F800E0376004800C80FEF76EF9264A04461378254943F0010313700B78244843F001030B70037801F5AA510D
:402DC00043F002030370D379083143F00203D3710A7800F5AB501C4B0430042542F003020A7005701A78194E02F0BF021A701A78A0F597500225123842F003020E271A7020
:402E00003770057091F824320A2043F0080381F82432FEF7F7FD0E4B20461D60BDE8F843FEF731B91882FF1FD9310000015900405082FF1F4E82FF1F5482FF1FAB43004020
:402E4000BB430040A2430040055900400059004080E200E0025900404C82FF1FF8B5102000F0A0FA01200721FFF712F80D490120FEF7F0FF0C49DFF844E00A780B4F0C4D5F
:402E80000C4C0D4842F006024FF0C40C0A7000238EF800C04FF400563B802E6023800380F8BD00BFD9310000015900404C82FF1F5082FF1F4E82FF1F5482FF1F02590040C0
:402EC000F8B5FEF7DCF8204A044613781F4943F0010313700B781E4843F001030B70037801F5AA5143F002030370D379083143F00203D3710A7800F5AB50164B0430042518
:402F000042F003020A7005701A78134E02F0BF021A701A78A0F597500225123842F003020E271A703770057091F824320A2043F0080381F82432FEF765FD084B20461D6007
:402F4000BDE8F840FEF79FB8AB430040BB430040A2430040055900400059004080E200E010B5FEF78CF80F490F4A0B780F4C03F0FE030B701378A1F5AA5103F0FE0313704F
:402F800023781E3903F0FE0323700B7803F0FD030B70D37903F0FD03D371BDE81040FEF772B800BF00590040AB430040BB430040044A00F00300137803F03F0343EA80108E
:402FC00010707047005900400A2810B504462AD00C2822D0082817D00020FEF7E5FCC423134A0A2C137015D00C2C1ED0082C0ED00020FEF7D9FC00220E4C0F480F49002341
:40300000238002600B8010BD094B44221A704FF40072F1E74FF40062EEE7054BC4221A704FF40052E8E78423DAE74FF40052E3E7025900404C82FF1F5082FF1F4E82FF1F98
:40304000044B1A7802F0FB021A701A7842F001021A70704700590040044B1A7802F0FE021A701A7842F004021A7070470059004008B550B9084A1378DB07FCD50120FEF7E8
:40308000C1FC054B01201B7808BD034B1B78DA07F4D4002008BD00BF01590040034A044B1B781088181A40B2704700BF4E82FF1FA05B0040034A044B1B881088181A00B27D
:4030C000704700BF4E82FF1FA05B0040014B1880704700BF5482FF1F00EB8000014B4000186070475082FF1F014B1860704700BF5082FF1F0F4A13889BB2C3B1128812B290
:4031000002EB8202520042F210710B4B1B88C31A1BB201FB03F0002B02EBD2734FEA6303D8BF5B42184490FBF2F000B27047034B1A68E8E74C82FF1F5482FF1F5082FF1FB4
:403140000D4A70B513889BB27BB90C4B1A680C4B0C4E1C88D317041B24B2A4FB0601E51706FB051101F06EFE70BD128812B202EB82025200EBE700BF4C82FF1F5082FF1FD9
:403180005482FF1F809698000F4A38B513889BB29BB90E4B1C680E4B1B88C01A00B201F0ADFC0C4901F0FEFC0546204601F0A6FC0146284601F0AAFD38BD148824B204EBC5
:4031C00084046400E7E700BF4C82FF1F5082FF1F5482FF1F00002041704700BF0549064A0B7843F002030B70137843F002031370704700BFA2430040B24300400549064A27
:403200000B7803F0FD030B70137803F0FD031370704700BFA2430040B2430040164B1B789B0728D5154B70B41946154C154D0022154802261A702E702270027802F07F0245
:403240000270B4F87000072280B224F8120C1A700B780A4A13F00103FAD1074D0B4C29780B4E01F0FD012970217801F0FD0121701370308070BC7047A243004001400040F6
:40328000144000401040004008400040B243004084400040054A137818B143F002031370704703F0FD031370704700BFB2430040F0B5314D314E2A78338802F007049BB2AA
:4032C00083424FD02E4A1278D2B244B92BB930802B7803F0BF032B70F0BD002846D002F0020202F0FF052AB3264EDFF8A4C0264F0024264A4FF0020E8CF8004087F800E002
:403300003470147804F07F04147096F87220160729D41F4A1F4F144607263B80167023781B4A13F00103FAD1154E347804F0FD0434701370124B1C78A4070ED56FF46872D0
:4033400013441A460029134C14BF03210121208019701378DB07FCD4F0BD084A10801A782A431A70F0BD0028E4D1D2E72B7843F040032B703080F0BD864000408440004019
:40338000A24300401440004010400040084000400140004002400040014B188880B2704784400040034A00F0F800137818431070704700BF86400040C043034B40F00700C1
:4033C0001A7810401870704786400040024B187800F0F800704700BF86400040134B144A1B8811789BB2490708D000B9A3B1104A137803F0F8031843107070470028F6D0A8
:40340000002BF4D1137803F0F80318431070137803F0BF0313707047137843F040031370137803F0F8031370704700BF8440004086400040024B187800F00700704700BF84
:403440008640004008B50020FDF758F90120FDF755F90220FDF752F9014BFF221A7008BD2481FF1F38B5064C05462078FF2801D0FDF744F92846FDF715F9257038BD00BFDD
:403480002481FF1F10B5044C2078FF2803D0FDF735F9FF23237010BD2481FF1F474A4849484B116011680B40B3F5002F01D0012070474FF4001353605368B3F5001FF6D17F
:4034C0004149404B1161106910320340002BEED153605368002BEAD111611069394B10320340002BE3D153605368002BDFD1374B344A196018680240002AD8D15A605B6862
:40350000002BD4D1324B2F4A196019680A40002ACDD15A605B68002BC9D12E4B2A49294A196018680240002AC1D15A605B68002BBDD1294B234A196018680240002AB6D11E
:403540005A605B68002BB2D1244B1E4A196019680A40002AABD170B45A605D6815B1012070BC70471E484FF0FF3400F58076017842681C4B49010B4442F08011196019684F
:4035800022F0801201F07F119142E8D182681A6119698A42E3D1C2685A6159698A42DED19C619A690132DAD1DD61DB691030002BD5D1B042DBD11846D2E700BF20A00040EC
:4035C00008008800F7007F000800800050A0004060A0004070A0004080A0004090A00040505F0000A0A0004010B5FDF748FD3249324A0B7843F001030B70137843F0010392
:403600001370FDF740FD2E4A4FF4B4331078114600F0FE00107001E0013B16D00A78284CD007F9D4274B4FF480321A6026491020FEF710FC10200721FEF72AFC234B47227F
:403640001A801B889BB2934201D0012010BD204B5A7842F010025A705A78D106F5D55A7802F0F00242F003025A7059788A42ECD148221A701A78482AE7D11A7802F0EF0238
:403680001A701A78D206E0D41A7802F0FE021A701B78DB07D9D4FFF701FF0028D5D10D4B4FF490521A801B889BB29342CDD12070207800F0010010BDA6430040B6430040AC
:4036C00010A0004080E100E0D53B000016A0004014A0004004A0004008B5FDF7D0FC1649164A0B7843F001030B70137843F001031370FDF7C8FC124B124A4FF490511960F7
:403700001378114943F0010313704FF480300F4B127808601A68194642F001021A604FF4D85301E0013B04D00A68D207FAD5002008BD012008BD00BFA6430040B6430040B6
:4037400000A0004004A0004000E100E010A0004010B51C4C23786BB301232370FDF78FFC19491A4A0B7843F001030B70137843F001031370FDF787FC154B164A4FF490511D
:4037800019601378144943F0010313704FF48030124B127808601A68194642F001021A604FF4D85301E0013B09D00A68D207FAD5002010BDFFF718FF0028CDD010BD0120F1
:4037C000FCE700BF1982FF1FA6430040B643004000A0004004A0004000E100E010A00040124910B508684FF4B43320F001000A46086001E0013B17D0106810F00104F9D1C9
:403800000B4B4FF480321A60FDF739FC09490A4A0B7803F0FE030B70137803F0FE031370FDF731FC204610BD012010BD10A0004080E100E0A6430040B6430040054B1A7849
:4038400042F001021A70187800F0010080F00100704700BF04A00040044B1A7802F0FE021A70187800F00100704700BF04A00040030407D4044B18801B889BB2C01A18BF9B
:40388000012070470220704716A00040094B5A7830B902F0EF025A705878C0F30010704742F010025A70587880F01000C0F30010704700BF14A0004030B4841E0D2C02D936
:4038C000022030BC70478C1E052C10D8032AF7D89042F5D39142F3D30F4D6C7804F0F004204368706C78844206D00120E9E7002BE6D10129E4D1E9E7002B4FEA82020CBFF9
:403900000020022042EA41130343DBB22B702878181A18BF0120D4E714A00040094B1A7830B902F0EF021A701878C0F30010704742F010021A70187880F01000C0F30010F7
:40394000704700BF14A00040094B1A7830B902F0FE021A70187800F00100704742F001021A70187800F0010080F00100704700BF14A0004030B4184B1B78D9075CBF451E07
:40398000B5FA85F514494FF000030B7054BF6D0901254FF4B43301E0013B0BD00A780E4CD207F9D418B1022808BF20702DB930BC00207047012030BC7047074A4FF4D853FB
:4039C0001078114640F00100107001E0013BF1D00A78D207FAD5EAE710A0004083B2A3F52043A03BB3F5FE7F01D902207047C30610B4104A104C0BD04FF480332360016093
:403A0000136000685DF8044B081A18BF0120704741F080114FF4803323600160136000685DF8044B414011F07F1F14BF01200020704700BF00E100E080E100E0034B188089
:403A40001B889BB2C01A18BF0120704704A00040024B9878C0F38000704700BF0CA00040024B9878C0F3C000704700BF0CA00040014B1878704700BF0CA00040014B58786B
:403A8000704700BF0CA00040024B987800F00300704700BF0CA0004010B4426803781F495B0142F080125A50037842685B0159581A4C01F07F1122F0801291421C4403D014
:403AC00001205DF8044B70478268144B226102788168520113441A698A42F1D1C1680F4A59610378C1685B011A4453698B42E7D14FF0FF3393610278084B520113449A69A6
:403B00000132DDD10022DA610278044B52011344D869003018BF0120D3E700BFA0A0004030B443680278124943F4000343F008031201535002784368120155580D4923F48E
:403B400000030B4C294023F008039942144402D030BC012070478268054B626002788068120113445B6830BC181A18BF0120704720A00040F7007F0008B5044B02225A70D3
:403B8000FFF76AFEBDE80840FFF72ABE00A00040F8B50D4B10220D4E0D4F5A700125002407E00134E4B26D00102CADB206F1200609D03B881D42F4D033789B06F1D52046EC
:403BC000FCF79AFBEDE7F8BD00A00040A0A0004008A00040F8B5144B5A7891071DD4124B5A78D20600D4F8BD1022104E104F5A700024012507E00134E4B26D00102CADB2B8
:403C000006F12006EFD03B881D42F4D033789B06F1D52046FCF770FBEDE702225A70FFF71BFEFFF7DDFDDAE700A00040A0A0004008A0004038B51549154A0B7803F0F80327
:403C400043F001030B700B7803F0FC030B701378580605D501F217510B8813785B06FBD40C4D0D4C0D4800230D4A09492B802380037009781380FDF702FA0A4A137843F08C
:403C800010031370BDE83840FDF7FDB97965004069640040506A0040106A004089640040706A004099640040024A137843F08003137070477965004070B51A4C23782BB15D
:403CC000194A137843F08003137070BD1649174A0B7803F0F80343F001030B700B7803F0FC030B701378580605D501F217510B8813785B06FBD40E480E4E0F4D00230F4AA7
:403D00000A4933802B80037009781380FDF7B7F90B4A137843F010031370FDF7B4F901232370CDE71A82FF1F796500406964004089640040506A0040106A0040706A004012
:403D400099640040024A137803F07F031370704779650040014B1870704700BF89640040014B1878704700BF69640040014B1878704700BF79650040014B1870704700BFD2
:403D800079650040014B1880704700BF106A0040024B034A1278188880B27047906A004008650040014B188880B27047906A0040014B1880704700BF506A0040014B1888EE
:403DC00080B27047506A0040014B1880704700BF706A0040014B188880B27047706A0040044A1378590604D503490B8813785B06FBD4704769640040906A004038B5154989
:403E0000154A0B7803F0F80343F001030B700B7803F0FC030B701378580605D501F214410B8813785B06FBD40C4D0D4C0D4800230D4A09492B802380037009781380FDF71B
:403E40001EF90A4A137843F010031370BDE83840FDF719B974640040656400404868004008680040856400406868004095640040024A137843F0800313707047746400408E
:403E800070B51A4C23782BB1194A137843F08003137070BD1649174A0B7803F0F80343F001030B700B7803F0FC030B701378580605D501F214410B8813785B06FBD40E482A
:403EC0000E4E0F4D00230F4A0A4933802B80037009781380FDF7D3F80B4A137843F010031370FDF7D0F801232370CDE71B82FF1F74640040656400408564004048680040D2
:403F0000086800406868004095640040024A137803F07F031370704774640040014B1870704700BF85640040014B1878704700BF65640040014B1878704700BF74640040B2
:403F4000014B1870704700BF74640040014B1880704700BF08680040024B034A1278188880B270478868004004640040014B188880B2704788680040014B1880704700BFF1
:403F800048680040014B188880B2704748680040014B1880704700BF68680040014B188880B2704768680040044A1378590604D503490B8813785B06FBD470476564004092
:403FC0008868004008B542F20F730D490D4A0B801380FDF754F80C4A137843F010031370FDF751F8094A1378190704D508490B8813781B07FBD4074B01221A7008BD00BF72
:40400000446800400468004093640040636400408468004083640040024A137843F08003137070477364004010B5134C23782BB1124A137843F08003137010BD42F20F733B
:404040000F49104A0B801380FDF719F80E4A137843F010031370FDF716F80C4A1378190704D50B490B8813781B07FBD4094A012313702370DCE700BF1C82FF1F736400409E
:40408000446800400468004093640040636400408468004083640040024A137803F07F031370704773640040014B1870704700BF83640040014B1B78704700BF02640040CE
:4040C000014B1878704700BF63640040014B1878704700BF73640040014B1870704700BF73640040014B188880B2704744680040014B1880704700BF44680040014B1888AA
:4041000080B2704784680040014B1880704700BF04680040024B034A1278188880B270478468004002640040044A1378190704D503490B8813781B07FBD4704763640040FA
:404140008468004008B5FCF7A5F8014B1B7808BD6364004070B4074B074E1C68074D08490123084AE02033602564087070BC1360704700BF08ED00E080E100E0454100006C
:4041800000E400E000E100E070B4064B064E1D6806490123E024064A336028640C7070BC1360704708ED00E080E100E000E400E000E100E0034B04491B68044A01200860E4
:4041C0001A64704708ED00E080E100E079050000014B1B681864704708ED00E0014B1B68186C704708ED00E04001024BC0B21870704700BF00E400E0014B187840097047A2
:4042000000E400E0014B01221A60704700E100E0024B186800F00100704700BF00E100E0014B01221A60704780E100E0014B01221A60704700E200E0014B01221A60704781
:4042400080E200E038B5FCF71AFF0F4A0F4913780F4C43F0080313700B78C82543F008030B702570137B43F00F0313730B7B02F5587243F00F030B7313789B06FCD5BDE8E8
:404280003840FCF700BF00BFA0430040B04300400147004008B5FCF7F2FE0749074A0B7803F0F0030B70137803F0F0031370BDE80840FCF7E8BE00BFAC430040BC4300406B
:4042C00038B500F0D1F900F00FFB10B10424204638BD00F045FB072804462BD000F026FB002CF4D100F0C0F900F0FEFA0028EDD1012000F0DDFA072805D04FF0FF3400F06E
:4043000015FB204638BD154C02E023789B07F4D41348022100F0D4F90228F6D10F4C2378990705D40120FDF76DFB23789A07F9D50024E4E7094D2B789B0705D40120FDF730
:4043400061FB2B789807F9D5044B1A789507D6D51B789B08D3D100F0E9FAC3E7224700405882FF1F10B5044682B000F07DF92CB100F0BAFA28B1042002B010BD012002B03A
:4043800010BD044B01901C6000F0D0FA019802B010BD00BF2082FF1FF0B53F2883B00AD8441F3A2C8CBF00240124B1F5807F53D9012003B0F0BD412894BF00240124812904
:4043C00028BF01241027002AF2D0002CF0D116460D46044600F088FA10B1042003B0F0BD32463B462046294600F0E8F9072804D0019000F09BFA0198DBE7194E33789B072A
:4044000005D40120FDF7FEFA33789807F9D5144E33789F071DD533789B081AD1114B20461A7829465B7800F003FA0728E0D102E00120FDF7E7FA33789907F9D5084B1A7867
:40444000920706D51B789B0814BF4FF0FF300020CEE74FF0FF30CBE74FF48077B3E700BF224700405882FF1FF0B5412883B00CD8441F3A2C8CBF002401243F2806D8B1F5BB
:40448000807F08D9012003B0F0BD0124812928BF0124102BF6D1002AF4D0002CF2D11F4615460E46044600F01FFA10B1042003B0F0BD2A463B462046314600F07FF90728D0
:4044C00004D0019000F032FA0198DCE7174D2B789B0705D40120FDF795FA2B789807F9D5124D2B789F071DD52B789B081AD1104B20461A7831465B7800F09AF90728E0D1DE
:4045000002E00120FDF77EFA2B789907F9D5074B1A78920706D51B789B0814BF4FF0FF300020CEE74FF0FF30CBE700BF224700405882FF1F38B50446FCF7A1FD0F2C054689
:404540001BD9202C0DD9312C29D9422C21D9532C31D81B4A137803F01F0343F02003137006E0174A137803F01F0343F0800313702846BDE83840FCF786BD114A28461378B3
:4045800003F01F0343F040031370BDE83840FCF77ABD0B4A137803F01F031370E8E7084A2846137803F01F0343F0C0031370BDE83840FCF768BD0020FDF7F6F9D8E700BFD0
:4045C0000048004038B5FCF75AFD0F4A0F4913780F4C43F0080313700B78C82543F008030B702570137B43F0100313730B7B02F5587243F010030B7313789B06FCD5BDE8DF
:404600003840FCF740BD00BFA0430040B04300400147004008B5FCF732FD0749074A0B7803F0EF030B70137803F0EF031370BDE80840FCF728BD00BFAC430040BC4300402D
:40464000044B1A46197841F00101197013789B07FCD5704702470040024A137803F0FE03137070470247004008B5FCF708FD0749074A0B7843F008030B70137843F0080317
:404680001370BDE80840FCF7FEBC00BFA0430040B043004008B5FCF7F2FC0749074A0B7803F0F7030B70137803F0F7031370BDE80840FCF7E8BC00BFA0430040B04300400A
:4046C0002DE9F0410F4699B14E1EF6B20644451E094CDFF8288002E00120FDF793F92378DB07F9D598F8003005F8013FB542F6D13846BDE8F08100BF224700402047004013
:404700003E28F0B507D81F2B09D8164D2C78A60707D40420F0BD3F2801D00F2BF5D90120F0BD114C4FF0B60ED427012684F800E0277026702D78AD0701D50920F0BD5D1E6B
:40474000C1F30026EDB2C9B2207026702170257033B15119013A12F8013F8A422370FAD10720F0BD2247004020470040F0B4114C23789D071BD5104BB627D52602251F70BF
:404780001E701D702478A4070ED418704AB11846013A92B20A44013911F8013F91420370FAD10720F0BC70470920F0BC70470420F0BC70472247004020470040F0B51A4C7B
:4047C0002578AD071DD5194D4FF0B60ED527022685F800E02F702E702478A4070FD428705BB15E1EB6B21644013A12F8014FB2422C70FAD1B3F5807F05D00720F0BD0920DA
:40480000F0BD0420F0BD3F28F7D800F5103001EB0021490105480A46203112F8013BDBB28A420370F9D1E8E72247004020470040F0B50E4D2C78A60716D50D4C4FF0B60EB7
:40484000D827052684F800E0277026702D78AD0708D40D0AC9B2207025702170227023700720F0BD0920F0BD0420F0BD22470040204700400C4A13789B0712D570B40B4B34
:40488000B626DB2508241E701D701C701278920704D418701970072070BC7047092070BC70470420704700BF22470040204700400B4A1378990711D530B40A4BB625E124BE
:4048C0000E211D701C7019701278920703D4187030BC07207047092030BC704704207047224700402047004038B5FCF7C8FB0D4A137823B10424FCF7C6FB204638BD0125EE
:40490000094915700C682C40F5D00C6824F001040C6000BF00BF00BF1C465560FCF7B3FB204638BD2482FF1F0400084010B5FCF7A6FB094B002259681A70012908D1074C32
:40494000216841F00101216000BF00BF00BF5A60BDE81040FCF797BB2482FF1F04000840074B1B789B0708D5064BB620E0210D221870197007201A7070470420704700BFEB
:40498000224700402047004080F0004002E000BF81F0004142001FBF5FEA410392EA030F7FEA226C7FEA236C6AD04FEA1262D2EB1363C1BFD218414048404140B8BF5B4258
:4049C000192B88BF704710F0004F40F4000020F07F4018BF404211F0004F41F4000121F07F4118BF494292EA030F3FD0A2F1010241FA03FC10EB0C00C3F1200301FA03F1D7
:404A000000F0004302D5494260EB4000B0F5000F13D3B0F1807F06D340084FEA310102F10102FE2A51D2B1F1004F40EBC25008BF20F0010040EA03007047490040EB0000F1
:404A400010F4000FA2F10102EDD1B0FA80FCACF1080CB2EB0C0200FA0CF0AABF00EBC25052421843BCBFD0401843704792F0000F81F4000106BF80F400000132013BB5E71A
:404A80004FEA41037FEA226C18BF7FEA236C21D092EA030F04D092F0000F08BF0846704790EA010F1CBF0020704712F07F4F04D1400028BF40F00040704712F100723CBF64
:404AC00000F50000704700F0004343F0FE4040F4000070477FEA226216BF08467FEA23630146420206BF5FEA412390EA010F40F4800070474FF0000304E000BF10F0004362
:404B000048BF40425FEA000C08BF704743F0964301464FF000001CE050EA010208BF70474FF000030AE000BF50EA010208BF704711F0004302D5404261EB41015FEA010CA9
:404B400002BF84460146002043F0B64308BFA3F18053A3F50003BCFA8CF2083AA3EBC25310DB01FA02FC634400FA02FCC2F12002BCF1004F20FA02F243EB020008BF20F0CC
:404B80000100704702F1200201FA02FCC2F1200250EA4C0021FA02F243EB020008BF20EADC7070474FF0FF0C1CEAD0521EBF1CEAD15392EA0C0F93EA0C0F6FD01A4480EA12
:404BC000010C400218BF5FEA41211ED04FF0006343EA501043EA5111A0FB01310CF00040B1F5000F3EBF490041EAD3715B0040EA010062F17F02FD2A1DD8B3F1004F40EB31
:404C0000C25008BF20F00100704790F0000F0CF0004C08BF49024CEA502040EA51207F3AC2BFD2F1FF0340EAC250704740F400004FF00003013A5DDC12F1190FDCBF00F017
:404C400000407047C2F10002410021FA02F1C2F1200200FA02FC5FEA310040F1000053EA4C0308BF20EADC70704792F0000F00F0004C02BF400010F4000F013AF9D040EA52
:404C80000C0093F0000F01F0004C02BF490011F4000F013BF9D041EA0C018FE70CEAD15392EA0C0F18BF93EA0C0F0AD030F0004C18BF31F0004CD8D180EA010000F000405A
:404CC000704790F0000F17BF90F0004F084691F0000F91F0004F14D092EA0C0F01D142020FD193EA0C0F03D14B0218BF084608D180EA010000F0004040F0FE4040F40000B6
:404D0000704740F0FE4040F4400070474FF0FF0C1CEAD0521EBF1CEAD15392EA0C0F93EA0C0F69D0A2EB030280EA010C49024FEA402037D04FF0805343EA111143EA10139D
:404D40000CF000408B4238BF5B0042F17D024FF4000C8B4224BF5B1A40EA0C00B3EB510F24BFA3EB510340EA5C00B3EB910F24BFA3EB910340EA9C00B3EBD10F24BFA3EB3B
:404D8000D10340EADC001B0118BF5FEA1C1CE0D1FD2A3FF650AF8B4240EBC25008BF20F0010070470CF0004C4CEA50207F32C2BFD2F1FF0340EAC250704740F400004FF0B5
:404DC0000003013A37E792F0000F00F0004C02BF400010F4000F013AF9D040EA0C0093F0000F01F0004C02BF490011F4000F013BF9D041EA0C0195E70CEAD15392EA0C0FE5
:404E000008D142027FF47DAF93EA0C0F7FF470AF084676E793EA0C0F04D14B023FF44CAF08466EE730F0004C18BF31F0004CCAD130F000427FF45CAF31F000437FF43CAF69
:404E40005FE700BF7BB972B90029BEBF00204FF0004106E008BF00281CBF6FF000414FF0FF3000F03BB882B0EC462DE9005000F005F8DDF804E002B00CBC70472DE9F041FF
:404E8000069C904606460F461D4600F029F808FB01FCA8FB002300FB05C5B21A2B4467EB03038646C4E90023BDE8F0812DE9F843089E1746804689461D4600F067F900FBFE
:404EC00005F3A0FB074507FB0137B8EB04043D4469EB0505C6E90045BDE8F883704700BF00292DE9F043C0F2A8800026002BC0F29E8081468E4690469C46174604460D46CB
:404F0000002B3DD18A4259D9B2FA82F33BB1C3F120029D4020FA02F29F4015439C40390CB5FBF1F01FFA87FE01FB10550EFB00F3220C42EA0545AB4209D9ED1900F1FF32ED
:404F400080F00B81AB4240F2088102383D44ED1AB5FBF1F301FB13550EFB03FEA4B244EA0545AE4508D9ED1903F1FF3280F0F780AE4540F2F480023B43EA0043002203E0CA
:404F80008B420FD900221346341C18BF012460424FF0000565EB45015840514000196941BDE8F083B3FA83F2002A40F089808B4202D3804500F2E2800123E5E712B90123D6
:404FC000B3FBF2F7B7FA87F8B8F1000F3BD1ED1B4FEA174C1FFA87FE0122B5FBFCF00CFB10550EFB00F3210C41EA0545AB4207D9ED1900F1FF3102D2AB4200F2C3800846E3
:40500000ED1AB5FBFCF30CFB13550EFB03FEA4B244EA0545AE4507D9ED1903F1FF3102D2AE4500F2AD800B4643EA0043ACE752426FEA060663EB43035BE7404261EB41016D
:405040004FF0FF3652E707FA08F7C8F1200225FA02F34FEA174CB3FBFCF11FFA87FE0CFB113324FA02F205FA08F50EFB01F92A43100C40EA0343994504FA08F407D9DB19BE
:4050800001F1FF3078D2994576D902393B44C9EB0303B3FBFCF00CFB10330EFB00F592B242EA03439D4207D9DB1900F1FF325FD29D425DD902383B445D1B40EA01428CE720
:4050C000C2F1200328FA03F10CFA02FC41EA0C0C4FEA1C402EFA03F1B1FBF0F51FFA8CF700FB151129FA03F30EFA02FE07FB05F943EA0E0E4FEA1E4343EA0141894508FA3B
:4051000002F808D911EB0C0105F1FF3332D2894530D9023D6144C9EB0101B1FBF0F300FB131107FB03F71FFA8EFE4EEA014E774508D91EEB0C0E03F1FF3117D2774515D9A1
:40514000023BE64443EA0543A3FB0889C7EB0E0ECE4509D305D0002216E71046F7E613460AE794404445F6D2013BF4E70B46E9E71046A1E71D46CEE7014688E7134603E7AA
:40518000023B51E702383D443AE700BF2DE9F043002B44D18A42154604464FD9B2FA82F70E464FB1C7F12003B94020FA03F602FA07F50E4300FA07F42F0CB6FBF7F01FFA33
:4051C00085FE07FB10620EFB00F1260C46EA0243994209D95B1900F1FF3280F0EE80994240F2EB8002382B44591AB1FBF7F307FB13110EFB03FEA4B244EA01418E4508D912
:40520000491903F1FF3280F0DA808E4540F2D780023B43EA004000263146BDE8F0838B4247D8B3FA83F6002E48D18B4202D3824200F2CF8001203146BDE8F08312B90125C1
:40524000B5FBF2F5B5FA85FCBCF1000F78D1491B2F0C1FFA85FE0126B1FBF7F007FB10110EFB00F2230C43EA01418A4207D9491900F1FF3302D28A4200F2BC801846891AB1
:40528000B1FBF7F307FB13110EFB03FEA4B244EA0142964508D9521903F1FF3180F09180964540F28E80023B43EA00403146BDE8F083002630463146BDE8F083C6F120043B
:4052C00022FA04F5B3402B4321FA04F74FEA1348B7FBF8FC1FFA83F908FB1C7720FA04FE01FA06F509FB0CF44EEA05054FEA154E4EEA0747BC4202FA06F204D9FF180CF160
:40530000FF3168D38C463F1BB7FBF8F408FB147709FB04F9ADB245EA0741894504D9C91804F1FF355DD32C4644EA0C44A4FB0223C9EB0101994249D345D0204600266BE79A
:40534000CCF1200405FA0CF521FA04F32A0CB3FBF2F61FFA85FE02FB163820FA04F701FA0CF10EFB06F90F433C0C44EA0843994500FA0CF407D95B1906F1FF3138D2994524
:4053800036D9023E2B44C9EB0303B3FBF2F002FB10330EFB00F1BFB247EA0343994207D95B1900F1FF3721D299421FD902382B441746591A40EA06464EE7104614E71346D9
:4053C00027E70B4670E7B0409042B6D2601E002622E7304620E7BC4294D9ACF1020C1F4491E789459FD9023C19449DE73846DFE70E46C8E70238294441E700BF014B18688C
:40540000704700BF8881FF1F08B5074B044613B10021AFF30080054B1868836A03B198472046FBF7ABF800BF00000000546000000E4B70B51E460E4C0025E41AA410A542B7
:4054400004D056F8253098470135F8E700F01EFE084B094C1E46E41AA4100025A54204D056F8253098470135F8E770BD986000009860000098600000A060000010B5431E45
:405480000A44914204D011F8014B03F8014FF8E710BD03460244934202D003F8011BFAE770470CB410B59CB0029106916FF00041049107914FF6FF711EAB53F8042BADF861
:4054C00016104FF4027402A90193ADF8144000F005F9029B00221A701CB0BDE8104002B0704700000EB400B54FF402719CB0ADF814106FF00041049107914FF6FF711DABA8
:40550000ADF81610084953F8042B02900690086802A9019300F0E2F8029B00221A701CB05DF804EB03B070478881FF1F2DE9F0478E688246B3420C469046994640D38A891D
:4055400012F4906F3AD02568096902236F1A656905EB450595FBF3F57B1C4B449D4238BF1D4653050FD5294600F0AEFB064698B121693A46FFF782FFA38923F4906343F0CD
:405580008003A38113E02A4600F0F4FB064670B95046216900F054FB0C23CAF80030A3894FF0FF3043F04003A381BDE8F08726613E4426604E466561ED1BA560B14500D2FF
:4055C0004E4632462068414600F01EFBA36800209B1BA36023681E442660BDE8F0872DE9F74F9346D2F800A0926881460C463AB3002301931F4606E0DAF80030DAF804702B
:4056000001930AF1080A002FF6D0A668B74260D3A08910F4906F17D1B7425AD332462068019900F0F1FAA268921BA26022681644DBF808202660D71BCBF80870002FDBD1C5
:405640000020CBF8040046E0256821690222C1EB0508656905EB450595FBF2F508F101023A44954238BF154610F4806F48460FD0294600F029FB064698B142462169FFF787
:40568000FDFEA28922F4906242F08002A28117E02A4600F06FFB064690B94846216900F0CFFA0C22C9F80020A2894FF0FF3042F04002A2810022CBF80820CBF804200AE0A1
:4056C000266165614644C8EB05052660A5603E46A2E73E46A2E703B0BDE8F08F2DE9F0439DB003938B8906461C060D4690460CD50B6953B9402100F0E7FA2860286110B956
:405700000C233360CCE040236B610023099320238DF8293030238DF82A3043461C4613F8012B1AB9B4EB08090FD002E0252AF5D1F8E73046294642464B46FFF7F7FE013046
:4057400000F0A980099B4B4409932378002B00F0A28000234FF0FF3204930793059206938DF853301A9304F101084446DFF8489121784846052200F039FA08F10108049B76
:4057800030B1C9EB00000122824013430493ECE7D80644BF20228DF85320190744BF2B228DF8532022782A2A02D0079923460EE0039A0134111D12680391002ABBBF52422F
:4057C00043F0020307920792B8BF04930AE01C4622780133303A092A03D80A2000FB0121F5E7079123782E2B1AD163782A2B0AD1039B02341A1D1B680392002BB8BF4FF0F6
:40580000FF3305930CE0611C00220C4623780131303B092B03D80A2000FB0232F5E70592DFF8988021784046032200F0DFF938B1049AC8EB00004023834013430493013431
:4058400021781A48062204F101088DF8281000F0CDF988B1164B33B9039B073323F007030833039313E003AB0093304604A92A46104BAFF3008007E003AB0093304604A9B9
:405880002A460C4B00F092F8421C074603D0099B3B44099341E7AB895B0601D4099801E04FF0FF301DB0BDE8F08300BF62600000000000002D550000586000005E6000008A
:4058C0002DE9F84391461F468A680B6906469342B8BF1346C9F8003091F843200C46DDF8208012B10133C9F800302368990642BFD9F800300233C9F80030256815F0060549
:405900001CD094F843302268003318BF012392061FD5E118302081F843005A1C94F845102244023382F8431013E03046394604F119020123C047013007D00135E368D9F8F7
:4059400000209B1A9D42F0DBDBE74FF0FF30BDE8F8833046394604F14302C0470130F4D02268D9F80050E36802F00602042A08BF5D1B2269A3680CBF25EAE575002593420C
:40598000C4BF9B1AED184FF00009A9450ADA3046394604F11A020123C0470130D5D009F10109F2E70020BDE8F88300002DE9FF410C461746227E98466E2A06460A9B01F16E
:4059C000430100F0B08012D8632A23D00AD8002A00F0BD80582A40F0CC8084F84520DFF804E257E0642A1ED0692A1CD0C1E0732A00F0B18009D86F2A2ED0702A40F0B980F8
:405A0000226842F0200222603FE0752A24D0782A3BD0AEE01A6804F14205111D1960136884F84230A9E020681A6810F0800F02D0101D186008E010F0400F02F1040018600C
:405A400002D0B2F9003000E01368002B3EDA2D225B4284F8432039E020681A6810F0800F02D0101D186007E010F0400F02F10400186001D0138800E01368227EDFF864E1BF
:405A80006F2A0CBF08220A221CE07822DFF858E184F845202268186812F0800F00F104051D6003D1550601D5038800E00368D00744BF42F0200222601BB9226822F0200276
:405AC00022601022002084F8430002E0DFF814E10A226568002DA8BF2068A560A4BF20F00400206003B965B10D46B3FBF2F002FB10331EF8033005F8013D03460028F4D1A5
:405B000000E00D46082A0BD12368DA0708D5236962689A42DEBF302305F8013C05F1FF35491B21612EE025681A6815F0800F606903D0151D1D60136808E015F0400F02F1C9
:405B400004051D60136801D0188000E01860002323610D4616E01A68111D1960156800212846626800F042F808B1401B6060636804E004F1420584F84220012323610023E2
:405B800084F84330CDF800803046214603AA3B46FFF796FE013002D14FF0FF301FE0304639462A462369C0470130F5D023689B0705D4E068039B9842B8BF18460FE000250E
:405BC000E368039A9B1A9D42F3DA3046394604F119020123C0470130DED00135F0E704B0BDE8F081696000007A60000010B5C9B202449042034605D01C7801308C42F8D101
:405C0000184610BD002010BD814210B501EB020301D3421E0BE09842FBD28118D21AD34204D013F8014D01F8014DF8E710BD994204D011F8014B02F8014FF8E710BD000059
:405C400030B500293CD051F8042C0B1F1D49002AB8BF9B180A680C4612B95A600B6030BD93420DD219685818904201BF5A5852181A60426823605A6030BD994203D80A4665
:405C800051680029F9D1146815199D420AD11B682344D0188842136012D10868034413604B680CE002D90C23036030BD1C681819884201BF08684968001918605960536062
:405CC00030BD00BF3082FF1F70B5CC1C24F0030408340C2C38BF0C24002C064603DA0C233360002070BD8C42F9D3204A136810461946A1B10A68121B0ED40B2A03D90A607F
:405D00008B188C501FE08B420BBF5A684A6802605A6018BF0B4616E00B464968E9E7144D2B681BB9304600F04BF828603046214600F046F8421C0346D1D0C51C25F0030584
:405D400085420AD11C6003F10B001A1D20F00700821A0AD05142995070BD3046E91A00F02FF80130BBD02B46ECE770BD3082FF1F2C82FF1FF8B5074615460E4621B9114666
:405D8000BDE8F840FFF7A0BF1AB9FFF759FF2846F8BD00F025F8A8420ED238462946FFF793FF044650B131462A46FFF767FB38463146FFF745FF01E03046F8BD2046F8BD41
:405DC00038B5064C0023054608462360FAF7DCFB431C02D1236803B12B6038BD5C82FF1F51F8040C0028BEBF091851F8043CC0180438704738B50C460968054609B1FFF752
:405E0000F9FF28462146BDE83840FFF719BF00002B4B70B51B680446984250D0436AD3B1DB6893B10025636ADB68595929B10E682046FFF705FF3146F8E70435802DF2D1FA
:405E4000636A2046D968FFF7FBFE636A196811B12046FFF7F5FE616911B12046FFF7F0FE616A11B12046FFF7EBFEA16B11B12046FFF7E6FEE16B11B12046FFF7E1FE216CD4
:405E800011B12046FFF7DCFEE16D11B12046FFF7D7FEA16D11B12046FFF7D2FE616B11B12046FFF7CDFEA3694BB1A36A20469847A16C21B12046BDE87040FFF79BBF70BD87
:405EC0008881FF1F00000000BCA1FF7F01000000434F4D20506F7274204F70656E000000256C752C2025642C2025640A0D0000000D5100400D5100400D5100400440200044
:405F000000000100205B0040205B004040200000305100404000F05100401000000001400010001401408006001B0140000100400140000A004C01400002005001402000A4
:405F40000C061803303E4A00020103000405060000000000000000000000000000000000010000000000000000000000000000000200000000000000000000000000000024
:405F800003000000000000000000000000000000040000000000000000000000000000000500000000000000000000000000000006000000000000000000000000000000CF
:405FC0000700000000000000000000000000000008000000000000000000000000000000090000000000000000000000000000000A0000000000000000000000000000007F
:406000000B0000000000000000000000000000000C0000000000000000000000000000000D0000000000000000000000000000000E0000000000000000000000000000002E
:406040000F000000000000000000000000000000430000002881FF1F232D302B2000686C4C0065666745464700303132333435363738394142434445460030313233343547
:40608000363738396162636465660000F8B500BFF8BC08BC9E4670474D00000011060000F8B500BFF8BC08BC9E46704729000000C06000000881FF1F88000000D000000003
:4060C00000000000000000006082FF1F480000000000A08C4019010000A24A04FF0000000000000000000000000000000000000000000000000000000000000000000000E3
:4061000050600000000000000000000000000000000000000000000000000000000000000000000000000000000000000000000000000000000000000000000000000000AF
:406140002881FF1F00000000000000000000000000000000000000000000000000000000000000000000000000000000000000000000000000000000000000000000000058
:4061800000000000000000000000000000000000000000000000000000000000000000000000000000000000000000000000000000000000000000000000000000000000DF
:4061C000000000000000000000000000000000000000000000000000000000000000000000000000000000000000000000000000000000000000000000000000000000009F
:40620000000000000000000000000000000000000000000000000000000000000000000000000000000000000000000000000000000000000000000000000000000000005E
:40624000000000000000000000000000000000000000000000000000000000000000000000000000000000000000000000000000000000000000000000000000000000001E
:020000040003F7
:0200000480007A
:4000000006520040015B00400464004002650040350201401C0301404B0401402A050140030701405F08014037090140010D01400415014003170140681801404019014092
:40004000101A01403B1B0140034001400741014002420140034301400445014002460140034701400648014004490140064C01400F4D01400A500140015101400001010149
:4000800010021102608061802784830D8567880F896788728A3839203F10401449FF4AFF4BFF4F015018560859045A085B045F016040624064406540668068806A806C8056
:4000C0006E809201AE01B601BE40C054C5ECC720C823C9FFCAFFCBFFCD83CE03CF01D018D280D401D604D804DA0BDB0BDF01E040E240E440E540E680E880EA80EC80EE802B
:40010000090213801940261041024502478049054B40510259455D40604063806401670273C078017F0183408C40C208C401D091D208D61BD811DE11120113011C012E01C8
:40014000340137013E104020410649FF4AFF4BFF4DA04F0150185280580459045A045B045F016040628064406540668068406A506BA86C406D206E506FA8830284028E0226
:400180009E01A001A301B001B301B402B702BE11C060C103C55CC620C70EC83BC9FFCAFFCBFFCDAFCE07CF01D018D407D804D904DA04DB04DF01E040E280E440E540E6802F
:4001C000E840EA50EBA8EC40ED20EE50EFA806020720080109800F021002170218041A081E44218027222E0230013410351036103F0240044230441049104E044F06562A7A
:400200005E5466086704700295409801A210C0A0C289C411CA80CC01CE80D044D224D670D8609540A210EE01000902D00308062009030A030B440C0C0E71110A135414100D
:40024000155316AC170C18141C101E4020DC21532222230429202B45330F341F354036E0373039803A803B083F1040364104450B46CE480D49FF4AFF4BFF4EF04F44500CDF
:400280005401580459045A045B045C445D445F0166C06A406B02870D88018E019132930C950797189F20A330AD07AF38B13CB201B303B908BB02BE04BF04C003C540C9FF26
:4002C000CA07CBFFCC40CD20CEF0CF05D008D407D804D904DA04DB04DC40DD04DF01E040E1A8E240E32000A00409055009400A010C800D080F08170119081D501F402010C1
:40030000210224052508260429402A422F483080310A33013604370138083C013E123F2040104508464048804C044F085004530855405710588059285E515F086124C0F32D
:40034000C2E0C410CAA9CCCBCEA2D0C2D220D6FED806EE01E04081409540AE10EC089540A210E001001401100209050209020D01100111021206141F1508180A19181A113E
:400380001F0421382304241F25242718293C2D382F0430073120331C3418350137023B083F114060410249FF4AFF4BFF4DA04F01501856025713580459045A045B045C4472
:4003C0005D405F016040628064406540668068406A506BA86C406D206E506FA8820388018F0391029F04AE01B101B202B304B401B502BE10BF10C030C102C50EC6C5C70247
:40040000C81FC9FFCAFFCBFFCDAFCE07CF01D018D280D804D904DA04DB04DF01E040E280E440E540E680E840EA50EBA8EC40ED20EE50EFA8001206800E6410021504181038
:400440001B101E44202821022685270A29022A012D022F19308031023680371538803D943E0240084108440848C049044F205040512053045E0261086320652067086D1473
:400480006E206F017002760677148D028E0499109C809D249F08A140A450A520B404B640C01AC270C421CAF0CCF9CEF8D026D220D680E0010E0119011E0226022A01340109
:4004C000360237013E503F405418580459045B045D405F0103020501060607100A030C400D080E44102012081689170418051D291E011F192002260827452F1931103604D3
:4005000037023E443F0144404528460847424C204E0157025B015C8060056680670188018C809244972299109A079B129E80A204A708AC08B085C0F1C2F1C4F6CA70CCC49A
:40054000CED0D0F0D210D611D81C33103740CC305208570283129F50D420D620E2209F40A608A608AB40EE805C408C40D604E0021A80C6084780AA40D004232026088320CE
:40058000A608C8C0E0801B208320C640E4200844590183809F80C20AD602122019017502780489028E2098049D01B040C408C608DE06E001E208EA010011021408010A0140
:4005C0000C111011110112141C111D01000E0000CC20230C0C100004040000000830000203000030FF000031010000000000B3004200000000314000F3310C004F009031A9
:400600007C0600010F088C3000082A000000000124030500010C00E021FFFFFF62A0F0410C0000000000080004040404449400010000000000004002001030100010101206
:400640000000000000000000000000000000000000030300030074008000408080008000000000005020200020000000000202000200000000000000000000000000000007
:40068000000000000000000000000000000000000000000000000000000000000000000000000000000000000000000000000000000000000000000000000000000000003A
:4006C00000000000000000000000000000000000000000000000000000000000000000000000000000000000000000000000000000000000000000000000000000000000FA
:4007000000000000000000000000000000000000000000000000000000000000000000000000000000000000000000000000000000000000000000000000000000000000B9
:400740000000000000000000000000000000000000000000000000000000000000000000000000000000000000000000000000000000000000000000000000000000000079
:0200000490006A
:0400000000004005B7
:0200000490105A
:04000000BC90ACAF55
:0200000490303A
:020000003720A7
:0200000490402A
:4000000000000000000000000000000000000000000000000000000000000000000000000000000000000000000000000000000000000000000000000000000000000000C0
:400040000000000000000000000000000000000000000000000000000000000000000000000000000000000000000000000000000000000000000000000000000000000080
:400080000000000000000000000000000000000000000000000000000000000000000000000000000000000000000000000000000000000000000000000000000000000040
:4000C0000000000000000000000000000000000000000000000000000000000000000000000000000000000000000000000000000000000000000000000000000000000000
:0200000490501A
:0C00000000012E16106900012E3C4789FB
:00000001FF